:100000006F20102E130000001300000013000000EA
:100010001300000013000000130000001300000094
:100020001300000013000000130000001300000084
:08003000130000007300100032
:100038000000000000000000480200004C02000020
:1000480000000000782A0000000000000000000006
:100058007A2A00007C2A000000000000000000004E
:100068007E2A000000000000802A00000000000036
:10007800822A0000842A0000862A0000882A0000BC
:100088008A2A00008C2A00008E2A0000902A00008C
:10009800922A0000942A0000962A0000982A00005C
:1000A8009A2A00009C2A00009E2A0000A02A00002C
:1000B800A22A0000A42A0000A62A0000A82A0000FC
:1000C800BE410000AC2A0000AE2A0000B02A0000A1
:1000D800B22A0000B42A0000B62A0000B82A00009C
:1000E800BA2A00002A0D0000BE2A0000C02A00001B
:1000F800C22A0000C42A0000C62A0000C82A00003C
:10010800CA2A0000CC2A0000104C0000D02A0000A7
:10011800D22A0000D42A0000A8410000E002000012
:10012800DA2A0000DC2A0000DE2A000000000000B5
:080138000000000000000000BF
:10014000397101436EC619A0397141536AC866CA34
:1001500062CC5ECE19A0397101535AD056D252D416
:100160004ED64AD826DA22DC06DE3301614082828E
:1001700041114AC026C222C406C68282B24D410144
:10018000024D924C224CB24B4101024B924A224A00
:10019000B2494101024992442244B2404101828065
:1001A0003D432A876373C3029377F700BDEFADE544
:1001B000937606FF3D8ABA960CC34CC30CC74CC756
:1001C0004107E36BD7FE11E28280B306C3408A0683
:1001D0009702000096966780A6002307B700A30643
:1001E000B7002306B700A305B7002305B700A30493
:1001F000B7002304B700A303B7002303B700A3028B
:10020000B7002302B700A301B7002301B700A30082
:10021000B7002300B700828093F5F50F9396850011
:10022000D58D93960501D58D61B7939627009702DA
:10023000000096968682E78086FA9680C1171D8F09
:100240003E96E374C3F8A5B77300203001A0B7074A
:100250000050130740F82386E700A386E700130742
:1002600080042387E700138701D498CB1387C192BA
:10027000D8CB98CF138701D8D8CF138701E098D374
:10028000138701E8D8D3138701F098D7A389070211
:10029000A38B0702A38F0702A3830704239C0702F3
:1002A000239007042394070409472389E702238D39
:1002B000E7022381E7042385E7049387C18923802C
:1002C0000700A380070023810700A3810700238282
:1002D0000700A382070023830700A383070082800F
:1002E000011122CE26CC4ACA4EC852C656C4370483
:1002F000005003476400834774001377F70F937629
:100300002700638E067893F7F70F13F7070393061A
:100310000002630DD706930600036303D73049E359
:1003200013F7F70385466305D71E6300071C8D4648
:100330006306D72695466315D70693F70704ADC322
:10034000184483477404420793C74700A303F40487
:1003500083477404418393F7C70F93E72700A303F0
:10036000F404938601F08147138601E89395070111
:10037000C18163EBE528B70700502394E70403C766
:1003800027041377C70F2385E70419A893F7F7030A
:1003900093062002638FD70E63EAF6006389E704B1
:1003A000B707005009472383E70021A7130740023E
:1003B0006384E71013076002E394E7FE8347A40415
:1003C00093C747002305F4048347A40493F7C70F9A
:1003D00093E727002305F4049387C189238307004B
:1003E0008347740493F7C70FA303F40455BF93879F
:1003F000818A83D707009384818AC207C18381E7FA
:100400009147A309F40283C7A18A93F70706C9FBA2
:1004100083C7418A154793F7F70F6380E7061947AB
:10042000E390E7F883D704001307F00313040004F4
:100430006366F70003D40400420441801389018BF2
:10044000832909002286CE85138501D4EF40101D33
:1004500083D70400A29923203901818FC207C18369
:100460002390F400B70700502398870203C727039F
:10047000134747002389E70225B737070050834712
:10048000370083C6818993F70708D58FA301F7004A
:1004900001BF8347A40393C74700230DF40283479A
:1004A000A40393F7C70F93E72700230DF402938764
:1004B000C18923810700EDB58347240493C7470012
:1004C0002301F4048347240493F7C70F93E727001D
:1004D0002301F4049387C189238207008347F4032F
:1004E00093F7C70FA30FF40265BD184493F70704F1
:1004F000E38807EA83C7A18A83D7818AC207C183B9
:10050000E39007EA2318040291472309F40249BD46
:1005100093F70704E38607E88347740393C747000C
:10052000A30BF4021387C1D21044834607009387BC
:10053000C1D21376F60FBA96A381C6008346070090
:10054000850693F6F60F2300D70003470700C14640
:100550006394E6002380070003C707002D46931627
:1005600067001387C1923697B7060050D8CA03C7F1
:10057000270005071377F70F2381E70003C727003C
:10058000E370E6E203C776031377C70F136727000C
:10059000A38BE6020547A389E70019B593F7070483
:1005A000E38007E018448347F403420793C74700FA
:1005B000A30FF4028347F403418393F7C70F93E734
:1005C0002700A30FF402938601E08147138601D828
:1005D00093950701C18163EDE500B70700502390B3
:1005E000E70403C727041377C70F2381E7044DBB34
:1005F000B305F60083C505003385F600850793C56E
:10060000F5FF2300B500E9B7B305F60083C5050083
:100610003385F600850793C5F5FF2300B500B9B310
:1006200099472309F402A309F402138701D48347ED
:1006300007001386A18A2300F6008347170083561C
:1006400067009385418A2380F5000358270093872C
:10065000818A2390D7009386C18A2390060103588C
:1006600047001387618A231007010347060013849C
:10067000818A1389A18A13770706138601D4938789
:10068000C18A9386618A631F071C03C70500AD45B5
:100690001377F70F63E8E51C99650A0793858514BE
:1006A0002E971843028703D7070089462183938931
:1006B000018B6303D7060D46630EC7068547631794
:1006C000F70899671387C71D83C7C71D23A0E900D3
:1006D00081440357040063F4E7002310F4008357B8
:1006E00004001307F003130A00046367F700035ABA
:1006F0000400420A135A0A0183AA0900528613858C
:1007000001D4D685569AEF40607123A04901930722
:10071000F00F6396F408B9A219671307071A834705
:10072000370023A0E90003472700A207BA97C207B2
:10073000C18379BF83D70700054693F7F70F63821C
:10074000C70289CB6387D702638DE7028147930491
:10075000F00F41B71387C18223A0E90083C7C1828C
:1007600085BF99671387071F23A0E90083C7071F69
:1007700085B799671387072023A0E90083C707205F
:1007800081BF99671387472123A0E90083C74721C9
:1007900081B783D7070093F7F70F238CF18883473E
:1007A0000900E207E18763DD072C03570400930784
:1007B000000463E6E70083570400C207C1830357C0
:1007C00004001D8F420741832310E40037070050C7
:1007D0002318F70291472309F702D9B683C79189F5
:1007E0002300F600035704008547E3FAE7FA2310D5
:1007F000F40075B783D7070093F7F70FA38CF18840
:100800000547238DE18861BF034709007D8B0DE318
:1008100083D70700054793F7F70FE392E7F893872D
:10082000B18903C707001377E70F2380E70085BF6F
:100830000347090009467D8B6316C70283D707006B
:1008400093F7F70F85E383D70600954693F7F70FE5
:100850006382D70663E0F6020547638EE7020D4721
:100860006380E704B70700501D472389E702A38987
:10087000E7023DB6930640086389D70293066008F5
:10088000638FD70293062008E39ED7FCB70700507A
:10089000238DE70229B7B7070050A38B070201B7E2
:1008A000B7070050A38F0702DDBDB70700502381B3
:1008B000E704F5B5B7070050A3830704CDB5B70724
:1008C00000502385E704E1BD034709007D8B0DE758
:1008D00083D70700054793F7F70FE395E7F8996784
:1008E00083C7771A93F70702B5DF9387B18903C7E8
:1008F00007001367170015BF0347090009467D8BE2
:10090000E312C7F683D7070093F7F70FA1FF83D74A
:100910000600154793F7F70F638AE7066361F7024E
:1009200005476383E7040D47E39EE7F2370700506E
:100930008347F70393E73700A30FF7028DB513073B
:100940004008638CE70213076008638AE704130713
:100950002008E399E7F0370700508347A70393E7A0
:100960003700230DF70225BD370700508347770373
:1009700093E73700A30BF7021DB5370700508347F5
:10098000270493E737002301F70411BD3707005010
:100990008347770493E73700A303F70409B53707C4
:1009A00000508347A70493E737002305F704C5BB2E
:1009B0002300060005BD8347090023100600FD8BB8
:1009C0008DE383C7B1898144858B81C78947230023
:1009D000F600035704008947E3FBE7D22310F40035
:1009E0003DB38347090009479304F00FFD8BE39261
:1009F000E7FE83D70600154793F7F70F6388E706EE
:100A00006360F70205476380E7040D47E393E7FC63
:100A1000370700500347F7030D8B6392E7042DA8B7
:100A200013074008638FE702130760086385E70434
:100A300013072008E39FE7F8B707005083C7A70311
:100A40008D8B0D47D9BFB707005083C777030D477C
:100A500081448D8BE39FE7F685472300F6008144B0
:100A60008DBFB707005083C72704D9BFB707005011
:100A700083C77704F1B7B707005083C7A704C9B786
:100A800083570400C207C18399E7B7070050239832
:100A900007021147C5B2B70700501147C9BB93778A
:100AA00017008DC3A3010400EFF06FFA85472303FD
:100AB000F4007244E2445249C249324AA24A0561F2
:100AC000730020309377470095CB034754009387FA
:100AD000B189118B09CF03C7070013672700238053
:100AE000E70083C70700B707005011476DB803C779
:100AF00007001377D70F2380E700F5B72303E4003F
:100B00004DBFEFF2EFE641118545114502C202C427
:100B100002C6EF20603B85472312F10037150140E4
:100B2000C1473EC64C008D47130505803EC4EF20EB
:100B3000C00C41016FF00FE6EFF28FE30145EF20AB
:100B4000E01C0964EF40401613050458EF40201FD5
:100B5000B704002083A5041D376500001305851721
:100B6000EF40203783A5041D130404710545B3D558
:100B70008502FD15C205C181252A376500001305D0
:100B80008518EF40A046B53FEF10006D0545EF100A
:100B90000071371500207D46814513058529EFF04A
:100BA0002FE037150020130620538145130545D645
:100BB000EFF00FDF3765000013054519EF400043E4
:100BC000EF00F07EF5BFB71702409843B706FFF875
:100BD00041111367170098C3D84337060200758F79
:100BE000D8C39843B706F7FEFD16758F98C3984390
:100BF000B706FCFFFD16758F98C3D843B70681FF73
:100C0000FD16758FD8C337079F0098C702C402C668
:100C10009843C166558F98C3B716024005679C423A
:100C2000F18F3EC6A24785073EC4B24781E7A2477F
:100C3000E397E7FEB71702409C431397E70063571B
:100C4000070685473EC632478547631FF704B71737
:100C50000240D843B706C1FFFD16D8C3D843D8C356
:100C6000D84313670740D8C3D843758FD8C3D84338
:100C7000B7063D00558FD8C39843B7060001558F7E
:100C800098C3984393166700E3DD06FED843B71672
:100C90000240719BD8C3D84313672700D8C32147AC
:100CA000DC42B18BE39EE7FE4101828002C661BF58
:100CB000EFF20FCC0111AA842E840945854502CAA2
:100CC00002CC231E010002C602C8EF20C021231A55
:100CD0008100370400404C0813050440231C910098
:100CE000231D0100231B0100EF20C021054685457F
:100CF00013050440EF20C02A9307D0122316F100F9
:100D000089472307F100680085473EC8EF2060004F
:100D1000854513050440EF20E026B7E700E00967AA
:100D200023A2E71005616FF0EFC619207300203091
:100D3000EFF20FC437040040854513050440EF204F
:100D4000802745C5854513050440EF2080283717C7
:100D500000209306872903C60600894763F7C70862
:100D600003C616008D4583C756006314B6041307E7
:100D7000A0103387E702938741398146BA9703C8A9
:100D800007006304D80603C587003E86014709A80B
:100D90008345160205071377F70F8505A300B602F2
:100DA0000506E317E5FE850693F6F60F93872704FD
:100DB000C9BFA545631BB6021305A010B387A702E0
:100DC0009385413903C3660013078729814613853C
:100DD0004139094E8D4E130FA010AE9783C52702DF
:100DE00085052381B7026314D3006FF0AFBA834740
:100DF00077006376FE04834787006392D7058347B5
:100E0000C7008145B387E703AA9783C207006388B9
:100E1000B20283CF87003E88014609A883481802A2
:100E200005061376F60F8508A30018030508E39757
:100E3000CFFE850593F5F50F93872704C9BF850677
:100E400093F6F60F190745B703474500A146630619
:100E5000D70083C7E5006396D700A1472300F600BB
:100E600082809D466304D7006394D7009D47FDB7F9
:100E70008D466304D7006394D7008D47C5B7A54658
:100E80006304D7006394D700A547C9BFFD57F9B7DE
:100E9000EFF28FAB3714002013048429130101BE35
:100EA00081449389C180138B01F8930B14001305BF
:100EB0004006EF307065850493F4F40F2145331537
:100EC0009500EF3070640145EF10804C0149014AF4
:100ED000930C3400194D130C40066685EF10205119
:100EE00019E5050A137AFA0F636E4D1101490509D8
:100EF0004209054513590901EF301061E31F89FDCF
:100F00009547E3F697FA594515A0B7070020938750
:100F1000070223A0F9008357A1002392F900630B75
:100F20000C009547E3F597F81305500413010142AF
:100F30006FF00FA503454400094A89452301440188
:100F4000EF10300E51E9154523014401EF30D05B1D
:100F500003454400340013060040938501F8EF1068
:100F6000E07E2A8C03454400130A01023400130674
:100F70000040D285EF10807D03578100B716002016
:100F8000814793864637139607014182636CE604D6
:100F9000B7060020938741809386860494C32392EA
:100FA000E7009387418B23A047012392E700631555
:100FB0000C04DA85138501385E86034A5B006935C7
:100FC00003454400D285EF1070092DD19547E3F019
:100FD00097EE1305B00F99BF9547E3FA97EC130509
:100FE0006004A9B7B305FA0083C505003386D700AE
:100FF00085072300B60041BF9547E3FA97EA13053A
:1010000070042DB7130A44009306A1004946938546
:101010000138528523150100EF10A06D2A8C93062C
:10102000A10049466C005285EF10A06C83C7418136
:10103000E38D07EC0547E390E7EEB70700209387C1
:101040004703C1BD39719308A01056D4B3081503E6
:10105000930A500822DE26DC4ADA5AD25ED062CEEB
:10106000938701F8B30A55034ED852D666CC6ACAA4
:101070006EC803C7270083C73700A207BA973EC6CA
:1010800093170701C1831386413983CF41813EC441
:10109000814201478147138801F8938E41810949B4
:1010A00091430544930420047D5B930B1002330CA1
:1010B0001601B24663DDD702B306F80083C51600F9
:1010C0006393250383C6460063FCD30023007C00A2
:1010D000B306F80083C60600B697C207C183D1BF26
:1010E0002300DC00F5B7E39775FE6317770063898B
:1010F00002182380FE0169A283C556000D43639E3A
:10110000651483C56600636CB41283C67600636899
:10111000D9126399860AB30697028542814FC69613
:10112000B29623818600B306F80083C60600B30991
:101130007703014EB697C207C183014FB3069702EA
:10114000D699C696B296B305F80003C31500630896
:10115000730C224A63F5470D03CA0500D297C207F4
:10116000154AC1836311430B03C3550003CA25000D
:1011700083CD45002203137DFA006E93620A420379
:10118000135A8A4183CC35001353030163570A0471
:1011900083C56500338AE601A3069A01230FBA00CE
:1011A000B38CE90183C58600A10C860CB29C850531
:1011B000050FA304AA0123916C002384B600137FBA
:1011C000FF0F51B7E39126F7B30697028542854F8B
:1011D000C696B29623812601B9B7B385C601A3830B
:1011E000A503A3859503B385C901C1058605B295FD
:1011F0002398650083C56602050E137EFE0F8505E4
:101200002383B60289B7E31073F503C3850083C552
:1012100075002203B365B3002392B6002DB7631C9B
:101220008E00B3069702C696B29683C526006394D5
:1012300085002380660505071377F70F9DBDB3066C
:101240009702C696B29623816601B306F80083C65C
:101250000600B697C207C183F9BF638402002380EA
:10126000FE01930720043307F7029307A01033050C
:10127000F502FD572A97138541393A952301F50068
:101280007254E2545259C259325AA25A125B825BCA
:10129000724CE24C524DC24D01452161828083C6A1
:1012A00001F89547639BF618138701F883461700EA
:1012B00085476394F61883462700A547639FF61673
:1012C000834637009947639AF6169306200413085D
:1012D000A0103308050313864139011122CE26CC14
:1012E0004ACA4EC852C656C4B386D5025AC25EC058
:1012F00091470143814E014F014E9388413911447A
:10130000C2963696835346000148930F0007930414
:101310000008930200092149C149130A0002854AC5
:1013200063E07704A147631DF30E930720041307BE
:10133000A010B387F5023307E502BA97B385F8002A
:1013400083C7050481E785472380F5047244E2449E
:101350005249C249324AA24A124B824B05618280ED
:10136000B306F70083C606008507C20793FBC600D5
:1013700013FB3600C18393F6060F638D8B02638BDC
:101380002B0763950B026393560263010802B38631
:10139000EE03369342031353030163090E008346A1
:1013A000C60389E6230E5603A30EC603DA97C207C7
:1013B000C183BDB7638BF60363EBDF00E5FAB306C9
:1013C000F70003C80600611813381800C5B7638911
:1013D0009600E39D56FCB306F70083CE0600F9B7EE
:1013E000B306F70003CE0600D1B7B306F70003CF6C
:1013F00006006DBF638D3601E39A46FBE30808FAE9
:10140000B306F70083C60600A30FD60245B7E30F65
:1014100008F8B306F70083C60600230FD60279B793
:1014200093072004B387F5029305A0103305B50296
:10143000AA97C6972380070411BF8280EFE25FD08E
:10144000130DA010330DA503138941393707002070
:10145000B7090020130101BF2A8AAE8A814D938CFF
:1014600041396A99034C09006A8B930B07009389F1
:10147000C90663070C088344090013042004B384DD
:10148000844193F4F40F33848402B3076401E69734
:1014900083D74700B1CF93074D003E9466941386DF
:1014A00001F8A286A6855685EF10E0492AC6A286D5
:1014B0001008A6855685EF1000493248850D93FD2A
:1014C000FD0F9547631A080293072004B387F402BF
:1014D0001808A685528523A03B0123A4EB00DA97C8
:1014E000E69783D747002392FB002396FB00453BFA
:1014F0007D1C137CFC0FB5BFE3F3B7FB130C80041A
:101500006285130101416FE07FC71307A010330507
:10151000E502938701F803C6370083C72700220638
:10152000938641393E96938501F8814709431148D6
:10153000254E954E3695854863C4C7000145828087
:101540003387F500034F070083461700FA97C20759
:10155000C183639C66000347470063F5E8002300EE
:101560001501D9BF2300E500C1BFE39706FD03477E
:101570005700E313C7FD3387F50083461700E38D5B
:1015800006FBE3DBC7FA034F0700FA97C207C183E4
:10159000E393D6FF83462700139F8601135F8F4195
:1015A000E35B0FFCBD8AA304D50083463700034FDD
:1015B0004700A306D5008346570003476700A206ED
:1015C000230FE50003478500FA962319D500050788
:1015D0002304E5004DB7EFE21FB83714002093074E
:1015E000842903C5570041110D372A89631E051050
:1015F000938701F883C5670013048429938901F850
:1016000085C103454400138601F8EF10801BB7170E
:1016100000209387872B114723A037012392E700EF
:101620009387013883C5E7001389013885C10345D5
:101630004400138601F8EF10C018B71700209387F5
:10164000872B394723A437012396E7008345F90008
:1016500085C103454400138601F8EF108016B717C3
:1016600000209387872B494723A83701239AE70057
:101670008345090185C103454400138601F8EF1035
:101680004014B71700209387872B594723AC3701A5
:10169000239EE700154A034544001306E1009385A5
:1016A00001F8EF1020392A8929E903C72900914759
:1016B00063E2E7042303E40081498544114A834738
:1016C000640063E3970403454400214693F5F40F57
:1016D000EF10603301CDFD1485091545C20493F95F
:1016E000F90FEF306062C180636E3A018504C20475
:1016F000C180F1B72303F400C1B77D1A137AFA0F42
:10170000E31B0AF81309E00F4A8541016FE0FFA7C8
:10171000EFE27FA483C705004111B3D7A740858BB3
:1017200085C73719002093078929AA85AA8403C58C
:101730004700700013098929EF10E0262A8431E957
:101740008347E100858B81E71304E00F99A00345EF
:1017500049004146A685EF1020282A841DE9A949A1
:10176000034549007000A685EF10E0231DE583477F
:10177000E10005041374F40F858B81C7E31234FF75
:10178000E1B7A947E302F4FC8347C1005944858BC4
:10179000C5FF228541016FE05F9F2A84DDBFEFE234
:1017A0009F9B83C7050041111304E00FB3D7A740E7
:1017B000858BC1CB3719002093078929AA85AA8474
:1017C00003C54700114613098929EF10C0232A8455
:1017D0002DE92945EF304053AD49034549007000DC
:1017E000A685EF10401C29ED8347E1000504137422
:1017F000F40FC18BA9E3E31234FF034549005146BE
:10180000A685EF10601D0144AD49034549007000F5
:10181000A685EF1040190DE58347E1000504137418
:10182000F40FC18B9DC3E31234FF8347C100858B46
:1018300091C7554531A0A947E311F4FC1305E00F0A
:101840002A84228541016FE05F94A947E308F4FEF2
:10185000E9BFEFE2FF91B71700202E842E86AA85FC
:1018600003C5C729EF10201419E98347140013F7A3
:10187000270011E713F547003335A00005056FE099
:101880007F91EFE2FF8BB714002093848429370CFB
:101890000020130101BEAA89AE8BB28A2944938C21
:1018A00044006A8B1389C180130C4C039306E10139
:1018B0004946938501386685231F0100130A0102FA
:1018C000EF0030632AC69306E1014946D28566855A
:1018D000EF00306283C74181324795E7B7070020A8
:1018E000938707022320F9008357E1012312F900AF
:1018F0001DCF7D141374F40F55F813055004130114
:1019000001426FE0BF878546E390D7FE232089011F
:10191000E1BF7D191379F90F631009021305600403
:10192000F9BF7D191379F90F63190904F9B719443F
:1019300033848902294926948345C4000345B400B1
:10194000890593F5F50FEF00D06D61F58347C4006D
:1019500019443384890289072380FB001545B70C9D
:101960000020EF30603A2949138D01F82694938BBB
:101970004180938C8C04138C418B0345B4009306F7
:10198000E10113060040EA85EF00505C2AC60345DA
:10199000B4009306E10113060040D285EF00105B0E
:1019A0008357E101324723A09B012392FB002320B0
:1019B0004C012312FC0035F71385013856869385B8
:1019C00001F803495D00EFF02FC819453385A902DE
:1019D0002944AA9403C5B400CA85EF003068E30027
:1019E00005F27D141374F40F75F41305900401BF10
:1019F000EFE20FF8AA861308A0102E85B285130611
:101A000020043388060393874139411113874139F4
:101A10003386C5024296B29703C8C70303C61704AC
:101A20006303080483C7D703A306C1002306F1009C
:101A300089471306A0102317F10093072004B386EB
:101A4000C6028548B387F5023388D7003A98034623
:101A50000804631E16019306E1007000EF00F071A8
:101A600041016FE02FF32306C1008547D9B79305E5
:101A7000F00F0145E316B6FE93878703B69703453B
:101A800078028356E1007000B305F700EF0030677D
:101A9000C1BFEFE26FEBAA89AE84EFF0AFDA2A8A1A
:101AA0006312050E938701F883C56700938A01F8D6
:101AB00099CD138601F82685EF00B050B7170020A6
:101AC0009387872B114723A057012392E700A68510
:101AD0004E85EFF0BF969387013883C5E7001389E1
:101AE000013899CD138601F82685EF00904DB71780
:101AF00000209387872B394723A457012396E700BB
:101B00008345F90099CD138601F82685EF00704BC7
:101B1000B71700209387872B494723A85701239A9B
:101B2000E7008345090199CD138601F82685EF006A
:101B30005049B71700209387872B594723AC57018B
:101B4000239EE700930AA010B38A590313894139F1
:101B50000144930B2004054C330B590183470B00C0
:101B60006365F40203C74181854763EDE700EF2019
:101B70000066EF105074EF208070954703A74191E5
:101B8000E31EF7FE52856FE0AFDFB3077403D6970D
:101B9000CA9703C7270063188701A380070422861A
:101BA000A6854E85B13505041374F40F45BFEFE2E9
:101BB0002FD9B719002003C5892979711384892980
:101BC000EF0060730547AA87631CE50A2300A400A1
:101BD000A3020400EFF0CFABAA8751ED0347140036
:101BE0008D46631ED7002AC6834544000345540032
:101BF0004D35B24701ED0D472300E40005A0A54691
:101C0000E31BD7FE2AC6EFF01F9DE5B75947D9471A
:101C10006306E50089472300F400AA878346040091
:101C20000947637ED728034714008D46034D5400AF
:101C3000631ED724130AA010330A4D0313874139BA
:101C40000149938A4139138B818C52973AC652CA03
:101C5000BA8B03C70B006374E9261307200433070C
:101C6000E902D2468144BA96D69636C89306AA01AE
:101C700036973ACED5A85947E302E5FA0947ADBFF2
:101C800051FD2AC6834454007D4681451385892928
:101C9000EFE00FD11305A010B384A40213854139DE
:101CA0001306A01081452695EFE08FCFB247BDB750
:101CB0004247B30C970003C72C0283C6EC01636252
:101CC000D70A3377D702F24703C59C009306E10297
:101CD000B3859700138601F8D6952381EC02EF00B7
:101CE000F03CAA8771E5835EE10203C8018D03C35E
:101CF000418C9385418C03CF118D81480147014E62
:101D00001385018D914F9386C18B13160701418274
:101D10006368D60763040E002380650063840800AF
:101D20002300050183C6418C03C7018D938C418C30
:101D300036979386018D36CC0DC783C6418103C685
:101D4000118D138C118D63030610639C060E2146C2
:101D50009385C18B0545EF202063AA87631A051080
:101D60008147850493F4F40F424703478700E3E17A
:101D7000E4F459476385E71405091379F90FD1BDD8
:101D800063FFDF01138601F83A9603460600630AF3
:101D90000F003383E6002300C300054E054305070B
:101DA000ADB73308EB002300C80085480548C5BF20
:101DB000594C630685111307E002E315E5F683C568
:101DC0009C002ACC0345440093E50508EF00902BC6
:101DD00003C71B00238D0C00A54605071377F70FDB
:101DE000A380EB00E247E3FFE6F27D4681451385E1
:101DF0008929EFE0EFBAEFF0AF89AA870DED83C52F
:101E00009C000345440093E50508EF00B0273245E8
:101E100085471306A0108145A3800B002300F40022
:101E2000A3020400EFE0CFB7834544006A859531F3
:101E3000AA870D4701C5E38787EF09472300E40020
:101E4000D5B50546639CC63C154619B7E38106F037
:101E50000546E38BC6FEE38507F0624785462320EF
:101E60000B0023220B002300DC0023000700D5BD5C
:101E700083460C00FDD29386C18B23A0060023A2CB
:101E8000060023000C0023800C00E1BDA54663186A
:101E9000D7029305A010330DBD02938941391389F0
:101EA0004139EA9903C7290283C6E901637CD70057
:101EB0008149138C818C0347640063E1E918456113
:101EC0006FE0CFAB3377D70203452400690D138A47
:101ED00001F82381E902A52103453400AD2903C59A
:101EE00099009306E102138601F8B305A901EF00FA
:101EF000F01BAA8755FD03470A00014CD54CA306E9
:101F0000E1029949094D8D4AB70B0050054B8346B4
:101F10006400E37FDCF8930D1C0013FAFD0F9305BA
:101F2000D1025285EFF0CFFE59476317E504330C19
:101F30003C032AC68346D102B31DBB0193CDFDFFEE
:101F4000B3FDDD001306A0108145A306B1033307DE
:101F500084010345C7001307A0103305E5024A9525
:101F6000EFE00FA413057C00194681452295EFE0B0
:101F70002FA3B247528C61BF13054006EF20D05803
:101F80009305D1025285EFF09F81AA8763139509CB
:101F9000B3073C038546A297A383D700A146A38538
:101FA000D70023864701B30D3C03938501F8528582
:101FB000EFF03F8AA29D2385AD0003C59D00412619
:101FC00003C5AD00492E8347340099C783C71B0062
:101FD00093F7B70FA380FB00B30D3C036285138614
:101FE0008D0093859D002296A295EFF09F89AA8788
:101FF000A29D31E103C78D00631A570183C5BD005F
:1020000003C5CD00EFF0FFA8AA872DF5A3835D01DE
:1020100095B78346D102B31DBB0193CDFDFFB3FD40
:10202000DD00B3063C03A306B103A29683C6760087
:10203000E39266F58DBFA383AD012DBF19473387AA
:10204000E9020D462297834677006393C61803463C
:102050008700631FD616034BC7001307A010014A61
:10206000330BEB02330769015AC63AC842470347AC
:102070000700637FEA14930C2004B30C9A03994A77
:1020800032478144B38A5903B38BEC00CA9BA29AAE
:10209000CDA8B3869B0003C7260203C6E60163658D
:1020A000C70C3377C70203C59A002381E602412C8F
:1020B00003C5AA004D248347340089CB370700505D
:1020C0008347170093F7B70FA300F700B3879B0070
:1020D0009305AB0103C59700E695A6959306E1022B
:1020E000138601F8CA95EF00607CAA87631E050C71
:1020F000835EE10203C3418C03CF118D03C8018DC0
:102100009385018D01478148014E1386418C914F83
:102110001385C18B93160701C18263EFD607630451
:102120000E0023006600638408002380050103C6B7
:10213000418C03C7018D9386418C36CC3297138630
:10214000018D32CA15C383C6418103C6118D138D1B
:10215000118D41CAD1E221469385C18B0545EF20FF
:10216000A022AA8749ED81473715014005468545DC
:10217000130505803ECAEF00D037D247850493F49B
:10218000F40F03C78B00E3E6E4F059476381E704EB
:10219000050A137AFA0FD9BD63FFDF01938601F8B0
:1021A000BA9683C60600630A0F003303E5002300D6
:1021B000D300054E05430507B1BF3308EC002300EB
:1021C000D80085480548C5BF5947E312E5F6D94709
:1021D000850993F9F90FC5B105466394C604154600
:1021E000A5BFB5DA0546E38CC6FEB5DF85462320DC
:1021F0000C0023220C002300DD00524729A883464F
:102200000D00EDD662479386C18B23A0060023A262
:10221000060023000D0023000700B9B7E39D07C4A3
:1022200081B6B1D3C5B7370700508347070093F78E
:10223000F70B2300F7008347170093F7B70FA300AE
:10224000F70083576703C207C18393F7F7BFC2073D
:10225000C183231BF7028280EFD29FF1B7070020D2
:1022600003A7071DB74795089387074009456300F3
:10227000F702B7E7B8059387078005456309F700BC
:10228000B777DC02938707C06315F7000145EF00BD
:10229000D03385450565EF0050416FD0BFEFEFD2D9
:1022A0003FED854737040050631EF5029947230030
:1022B000F4002945EF20F021930790F82300040053
:1022C0002300F40093078004A306F400B71700204E
:1022D0009387872D1CCCB7170020938787315CCC60
:1022E0006FD05FEB99472300F4002945EF20701E63
:1022F00023000400F5B73707005083476700858B3C
:102300009DC385472303F700834657008147858A8D
:1023100081CE854711C989476307F5000347170038
:102320008547058B11C389473E858280B7070050DA
:1023300003C55700058113451500058982803707BD
:102340000050834737001375F50793F70708C98FC7
:10235000A301F700828085476317F500EFD25FE1A4
:10236000D9356FD03FE3B707005003C707001367A5
:1023700007042380E70003C7170013674700A38003
:10238000E70003D7670313670740239BE7028280B8
:10239000EFD21FDE2A8401455D377135854763EE34
:1023A0008700370700508347170093E72700A300F3
:1023B000F70001EC2D45EF2030153707005083471B
:1023C000170093F7D70FA300F7000945EF20D013AC
:1023D000B707005003C76700058B01CB03C7570041
:1023E000058B01C705472383E7006FD0BFDA3707A6
:1023F000005083475700858B95CFEFD27FD7834717
:102400001700858B99E72A8415372300A40011E172
:102410009937B707005003C7170001451367170026
:10242000A380E70003D7670313674700239BE702F6
:102430006FD05FD659458280EFD21FD1B7070050C9
:10244000A38DB702416A2A8B3289238FB702935931
:102450004500814437040050894B394CA94AA54CAA
:102460007D1A230C640323037401130D803E8347FC
:102470006400898B91EB7D1D420D0545135D0D01B7
:10248000EF203005E3150DFE230C040283476400A2
:10249000898B81E71305E00F41A08347740093F710
:1024A0000704D1E38347740093F7F70F13F5F700A0
:1024B000630D850763175505630C0906630649011B
:1024C0007D19420913590901FD1493F4F40F514584
:1024D000EF20300083476400858B81CF1305800C8B
:1024E000EF20207F83471400858BB1C785472303E6
:1024F000F400850493F4F40FE39554F713050002F8
:1025000021A8638D9901B5476385F9008547E39359
:10251000F9F855DD136505026FD09FC69D8B0D47F9
:10252000E399E7FE6DB70145C5BF1305E002EDB7BE
:102530001305A002D5B75945C5B7EFD2FFC0AA8988
:10254000B284130540062E89EF20A07899C023900D
:10255000040037040050A147896A231EF402138641
:102560000A7181451305000DC13D631D0514914796
:10257000A30DF402371B0020230FF40293078B31C5
:1025800003D46700130B8B31630D040E630B090E2C
:102590008387070063C50706CE8BC20993D909015B
:1025A000370A0050938A0A7113054006EF206072C3
:1025B000DE8763733401A287231EFA028147035723
:1025C000CA03639DE7108345EA0356864145AD354E
:1025D000631A050E8347EA0393C74700230FFA02E5
:1025E0008357CA031D8C4204418081C88357CA03A4
:1025F00003D70400BA972390F4005DF459A0371B69
:102600000020370A0050938A0A71130B8B2DFD1995
:1026100013054006EF20E06B8345BA035686130589
:102620000009193D45E18347BA0393C74700A30D4D
:10263000FA0203578A00A2876376870083578A00CD
:10264000C207C1831D8C4204418091C403D704009A
:102650003E972390E400014793160701C1826395DA
:10266000D7063E9983578A00C207C18399C783570B
:102670008A00B3F7F90091E341FCB7070050239EAD
:10268000070213054006EF20C064B707005083D748
:10269000C70313050009C207C18391E341450966D9
:1026A000130606719145493B11ED370700508357DA
:1026B000C703C207C18399C783578700C207C18375
:1026C00091C35D456FD0DFABB306EB0003C60600D8
:1026D000B306E90005072380C600BDBF8346090095
:1026E0003307FB008507C2072300D7000509C18314
:1026F000F9B5EFD25FA6411123170100C54963E682
:10270000C9005D4541016FD05FA813870184A147CF
:10271000B684144358432300F500B717002093876D
:10272000873194C3D8C32A84034505001306E1000A
:102730002E89213561F98357E100E3F4F9FC034761
:1027400079002300E4002390F4006DBFEFD2BFA016
:1027500013878183B28910435843371400209307AD
:102760008431411190C3D8C336862A8A2E8936C651
:10277000E93329E5B246138781830356670083D581
:1027800006005D4563ECC502034639008345290018
:102790009307843122064D8EB28563F3C900CE853E
:1027A000104358432390B60090C3D8C303D7060004
:1027B0003686CA852393E7005285413341016FD0A5
:1027C000DF9CEFD25F999387818403AA07003714B7
:1027D000002083A94700130484314111B28413E916
:1027E0000530232044011306E100A685AA8A23228E
:1027F000340123112401913315E183C7040013062A
:10280000E1002320440123223401A68556852317A5
:10281000F100231124012313F400053341016FD08B
:10282000DF96EFD2FF94138701851443B71700207A
:1028300058439387873194C32391B700AE84D8C39C
:1028400001468145DD392A8419E52685EFF03FAF41
:102850001545EF20604B22856FD0DF93EFD25F915B
:10286000138781851443B717002058439387873116
:1028700094C32391B700D8C301468145EFF0FFCB45
:102880006FD05F91EFD2DF8E1387018314435843DB
:10289000B717002093878731D8C32392B70094C31A
:1028A00001468145EFF07FC96FD0DF8EEFD25F8C9C
:1028B0002E8483C50500411132891365050901463F
:1028C00036C6EFF07FB7AA84B24615E5B7070050C9
:1028D00003D68700B71500209385852D42064182D7
:1028E0002390C6004A85EF2060538347040093C7B6
:1028F00047002300F400268541016FD0BF89EFD245
:102900003F87AA843715002041112E841305853195
:10291000B285368636C6EF206050B246B707005003
:102920000146239ED7028345040013E50401EFF01E
:10293000BFB019E58347040093C747002300F400A4
:1029400041016FD03F85EFD2BF8213870186328865
:1029500010435843B717002023ACC7309387873103
:10296000D8C32392B70003D706003686C2852393C7
:10297000E700EFF09FBC6FD0FF81EFD26FFF1387AE
:102980008186328810435843B717002023ACC730E4
:1029900093878731D8C32392B7003686C285EFF07C
:1029A000DFB96FD02FFFEFD2AFFC13870188B2865B
:1029B00010435843B717002023ACC73093878731A3
:1029C0004111D8C32392B7001306E100B685EFF09A
:1029D000DFB641016FD00FFCEFD28FF9138701876B
:1029E00014435843B717002023ACD730938787315F
:1029F000D8C32391C7002392B70001468145EFF069
:102A0000DFB36FD02FF9EFD2AFF61387818814436D
:102A10005843B717002023ACD73093878731D8C3EA
:102A20002391C7002392B70001468145EFF0FFB024
:102A30006FD04FF6EFD22FF2938781879843DC4314
:102A400037140020232CE43013048431AA89AE8487
:102A500032895CC0EFF07FAE01ED83C704004A8687
:102A6000A6852310F9004E852313F400EFF0FFAC88
:102A70006FD0AFF101A001A001A001A001A001A0B1
:102A800001A001A001A001A001A001A001A001A03E
:102A900001A001A001A001A001A001A001A001A02E
:102AA00001A001A001A001A001A001A001A001A01E
:102AB00001A001A001A001A001A001A001A001A00E
:102AC00001A001A001A001A001A001A001A001A0FE
:102AD00001A001A001A001A001A001A001A001A0EE
:102AE00097E1FF1F938101EF17210020130181510E
:102AF000174500001305858297D5FF1F93858550E4
:102B00001386818963FAC5008322050023A055003E
:102B100011059105E3EAC5FE1385818997F5FF1F2D
:102B20009385058A6377B500232005001105E36DC1
:102B3000B5FEFD42739002BC8D42739042809302B9
:102B4000800873A0023097D2FFFF9382224F93E256
:102B5000320073905230EFE00F8797E2FFFF9382CD
:102B6000E2FD7390123473002030584103280500B1
:102B70004C4537060140930706403E979346F8FFC1
:102B8000B1C583250640F58D2320B640D043F18E94
:102B9000D4C31443B3E6060114C3184190479346C7
:102BA000F7FF758E90C7D047F18ED4C714454146C4
:102BB0006399C6009447D98E94C7D447558FD8C718
:102BC0008280B6979443558F98C382801C43F58FBB
:102BD0001CC38280B707014093870740DC4B7D8D83
:102BE0003335A0008280B707014023AAA740828026
:102BF000B707014023AAA74082809C4513F707012D
:102C000013F8F70001C7D8413368E80037270240BE
:102C1000145B3707000F758F45EF85462389D18CEC
:102C2000371701406317E50003D70500358323906C
:102C3000E50083D5050013F7F50F39C31841814628
:102C4000854E3D4F930F800293028004214E3396B0
:102C5000DE00B3F8C5006311160393982600331302
:102C60001F011343F3FF3377E300B318180133E771
:102C7000E8006397F70750C98506E39AC6FD18C1B7
:102C80001307F00F6375B70454412146854E3D4F3D
:102C9000930F800293028004414EB398CE0033F725
:102CA00015016392E8021317260001173313EF0092
:102CB0001343F3FFB376D3003317E800D98E63953F
:102CC000F703232A15010506E319C6FD54C18280C6
:102CD00037170140E31FE5F403C7218D39DBA9B79E
:102CE000E39C57F810C949BFE39F57FC23281501FF
:102CF000D9BFB71701406316F50083C7218D91C373
:102D0000B58119C20CC982804CC9828023AAA18CCA
:102D100082809387418D94430347050089E683476A
:102D20002500920731A8944305466391C604834762
:102D300025000346150092076314D60093E707F8B1
:102D4000B7E600E093F7F70FBA962380F640854682
:102D5000935757003397E6005441ADC69387070455
:102D60008A07B7E600E0B69798C382808C4389460D
:102D70006393D50283461500834725006365D6001B
:102D80008A06B69779BF9386E6038A06B69793F7C5
:102D9000F70F920765B790438D46631ED6008346B2
:102DA0001500834725006364D6008606D9BF938645
:102DB000C6078606E1BF94439147E39AF6F8834736
:102DC000150085B79387070661BFB7170240D84340
:102DD000B70640FFFD16758FD8C3D8435A05598DE5
:102DE000C8C38280371702405C439146B18B63852C
:102DF000D700A1466386D706B7177A0093870720C6
:102E00001CC1371602405C42370700201307070138
:102E10009183BD8BBA9783C607001C41B3D7D700F7
:102E20005CC15442A1829D8ABA9683C60600B3D67D
:102E3000D70014C55442AD829D8A369703470700D8
:102E4000B3D7E7005CC558423983937637001387C0
:102E50008181369703470700B3D7E7021CC98280F8
:102E60005C435843C166C983BD8B758F8907C546CE
:102E70006393D700C94701EF374702400327078014
:102E8000418B09CF37177A001307072021A837177E
:102E9000024058439316E700E3D606FE37173D007D
:102EA00013070790B387E702A1BF99C53717024000
:102EB0005C4B5D8D48CB8280B7170240D84B1345E1
:102EC000F5FF798DC8CB828099C5371702401C4F1A
:102ED0005D8D08CF8280B7170240984F1345F5FFEC
:102EE000798D88CF828099C5371702405C4F5D8D00
:102EF00048CF8280B7170240D84F1345F5FF798D30
:102F0000C8CF82808357050037370140130707C0B9
:102F1000C207C1836304E502370700406300E5028E
:102F200013070740630CE50037170040930607803E
:102F30006306D500130707C06317E50003D7250014
:102F400093F7F7F8D98F03D7650093F7F7CFC20748
:102F5000C183D98F2310F50083D745002316F502CE
:102F600083D705002314F502B7370140938707C0C4
:102F70006316F50083C785002318F5028547231AD9
:102F8000F50082808357050091C593E71700231051
:102F9000F5008280C207C183F99BC207C183C5BF08
:102FA0008357C50009C6DD8D2316B500828093C501
:102FB000F5FFFD8DD5BF835705010355C500ED8F86
:102FC0004205418189C76D8D3335A000828001455E
:102FD000828093C5F5FFC205C1812318B5008280A8
:102FE000EFD20F9983560501F577FD17F58F83D63C
:102FF000650003D7C5007971D58F2318F500835676
:10300000C500FD779387379FF58F83D645002A84C7
:103010002EC6D58F83D68500D58F83D6A500D58FB4
:103020002316F50083574501C207C18393F7F7CFF5
:10303000D98F231AF50068087533B7470140938785
:103040000780B245631DF404A2578356C400654748
:10305000B387E702C206C186984163D40604060717
:103060000356C4004206B3D7E70213074006418661
:10307000B3D6E702B3F7E7029206635606028E075D
:1030800093872703B3D7E70213F77700B367D70017
:10309000C207C1832314F40045616FD0AF8F9257EC
:1030A0006DB70A0775BF920793872703B3D7E70267
:1030B000BD8BD58FF1BF81C98357C5000967D98FF3
:1030C0002316F50082800357C500F977FD17F98FA5
:1030D000C5BF93F5F51F2312B50082800355450047
:1030E0001375F51F8280035505006D8D3335A000E3
:1030F000828013F7F50F85461583B397B6006313E7
:10310000D7020357C500F98F035705000145420751
:10311000418381CB0545A181B315B5006D8F333552
:10312000E000828089466315D70003570501E1BF9F
:1031300003574501C9BFEFD2AF8301E983A7018ED1
:1031400005472398E7006FD0EF8483A7818E9C43C7
:10315000829703A5018E2905FDB7EFD26F8101E9A2
:1031600083A7018E05472398E7006FD0AF8283A71E
:10317000818E9C47829703A5018E3105FDB703A779
:10318000018E09E589472318F7008280EFC25FFEB0
:10319000239E018C834707001384C18D93F7F707A3
:1031A0009DEB034797009377070281C78947230068
:1031B000F400137707048347040001CF93E7170057
:1031C0002300F40083A7818E9C4B829722856FC0D9
:1031D0007FFCF99BF5B785461385C18DE389D7FE42
:1031E00089460145E395D7FE03475700B76600407F
:1031F000938606C09377F7008A07B69762079C43C9
:1032000061876359070093F707034147E39CE7FA97
:1032100085477DB70D67F98F0567CDBFEFC2BFF357
:1032200083A4018E3E8A03D4040139E803C78400D5
:1032300091476317F7041387818D14438547639C77
:10324000F602B767004083A707C5B7360020890696
:10325000C207C183B697860723A007009307000320
:103260002398F18E23200700114983A7018E238420
:1032700027016FC09FF1C1472398F18E1D49F5B713
:1032800083D74401114963F38700094963F3870039
:103290003E849C4C4204418022858297AA8A014543
:1032A000EF0090602286AA855685EF009042A285A5
:1032B0000145EF00506383D704010D67818F239888
:1032C000F40083D724013E94930700032398F18EE2
:1032D000239984002397E18E49BF83A7018E83C67B
:1032E000D18103C73700094563E3E60283C627009F
:1032F00099EE83D6470081EEEFC29FE72385E70072
:1033000083A7818EDC43829701456FC0BFE882802E
:10331000EFC21FE683A7018E03A7418E411183C52B
:103320003700184F03C55700029783A7018E03C7C4
:10333000A7001DCB2AC60DE903C7470015E783C7C1
:1033400027009DE383A7818EDC47829783A7018EA8
:10335000324503C75700A385E70003C7370023861C
:10336000E70041016FC01FE30945E5BF83A7018E58
:1033700083C6070093F6F60791EA03C79700137711
:10338000F7FDA384E70001473A8582800946094793
:10339000E39CC6FE83D62700E5FA83C64700EDF618
:1033A000EFC21FDD03C6570037670040130707C091
:1033B0001375F6F7131425003A94620614406186DB
:1033C0006357060493F6060383C5C1810947637DED
:1033D000B5029DCA83C7A70085CB1C40635C06026B
:1033E00093F707034147639CE7001374F50F2285A9
:1033F000EF007044930500032285EF00F03483A7AB
:10340000818EDC4B829701473A856FC0BFD80D672C
:10341000F98E5DBFC164FD140D67E58FF98F0567F7
:10342000E39FE7FC1DEDB707002083C54714EF00BD
:10343000704D1C4071771307F7F8F98FC2070D67BD
:10344000C183B98F617713070708D98FC207C1837A
:103450001CC08D661840658F758FE302D7FA1CC0BB
:10346000D5BFEF00103A1C4071771307F7F8F98FBA
:10347000C2070D67C183B98F617713070708D98F1A
:10348000C207C1831CC08D661840658F758FE30825
:10349000D7F61CC0D5BF03A6018EB767004093873F
:1034A00007C08346560093F5F6F713972500BA97A1
:1034B000E2069843E18663D106061377070303C843
:1034C000C181094563F9050983552600C9E541C74E
:1034D0000347A60049C3EFC2BFC9984363D306049C
:1034E000E5769386F6FB758F42074183E1761347B5
:1034F000070193860608558F4207418398C34146CA
:10350000944393F60603639CC60083A7818E9C4F69
:10351000829701456FC01FC80D65698F4DB798C36D
:10352000C5B7F1769386F6F8758F420785664183B5
:10353000358FE17693860608558F420741834166B1
:1035400098C37D160D6585659443F18EE98EE38EF3
:10355000B6FA98C3D5BF8280EFC29FC103A7018E80
:103560008347970093E70702A304F70083A7818EA0
:10357000DC4F829701456FC0FFC103A7018E8357BF
:10358000270101E903D545001D8D2318A70001453A
:10359000828088413E958280EFC29FBDB7070020A0
:1035A00083C547140145EF00F03583A7018E03C59D
:1035B0008700A1476318F50005672397E18E41470F
:1035C0002398E18E5D15133515006FC0BFBCEFC2A7
:1035D0003FBA03A9018E37660040832706C583469C
:1035E000890025474111638BE60441641307F4FF0A
:1035F000B7360020F98F9106B69786078043798CFD
:1036000006043294834704002300F9008347140022
:10361000A300F90003554400EF0050332311A90023
:103620000355840003A9018EEF0050322312A90034
:103630000357C40083A7018E2393E70083A7018E5D
:1036400005472384E70003D7670003C41700631905
:10365000070E03C707001377F7075DEF25476316CB
:10366000E400EFF09FC735E515A81547631BE40498
:1036700003873700635B0700A14703A7018E23047C
:10368000F700193F41016FC0FFB003C727006DF776
:1036900003D7470075F383C7A700F9FFB76700405A
:1036A00083A707C5373700200907C207C183BA9728
:1036B000860723A00700130700032398E18E99478C
:1036C0006DBF0D476318E40283C637000547638D5D
:1036D000E60083A7418E2285DC4B82970D47A547E4
:1036E000E30DE5F845DD49BF83D74700FDF3EFF073
:1036F000BFE695BF0547E31EE4FC03C73700E31AA6
:1037000087FC03D7470071F783C7970093F7070239
:10371000E9D3EFF0BFC581BF85476318F700AD4718
:10372000E319F4FAEFF0DFBE3DBF8946E313D7FAA1
:10373000E301F4FE8D47E31EF4F8EFF0DFD525B783
:103740001947631BE40203C707001377F7077DE3FC
:1037500083C72700854603A7418E6395D7005C4F3A
:10376000F1CBA1A089466394D7001C53D5BF8D46E9
:103770006392D70C5C53EDB775E003D727005DEB80
:10378000D843C1769386F60F758FB7060200631390
:10379000D70A03C707001377F7071DEF83D7470042
:1037A000D1EBB73700009387E71703A7018E0145D8
:1037B000231907001CCF8297014583A7018EC1669C
:1037C000FD1603D707016304D70889466304D500B3
:1037D0006318070E2147ADA885466310D70203A7DB
:1037E000418E03C557008145184F029721E583A7F5
:1037F000018E83C7A700D5F735A88946631CD70279
:1038000003C75700B7660040938606C01376F700DB
:1038100093172600B6979C4393168701E18663DCD5
:10382000060293F7070383C6C1816375D600137739
:10383000070771D303A7018E83A7418E03451700A5
:103840009C4B82978D47E31AF5F683A7018E254797
:103850002384E7003DB58D66F58FF1B72147631CE2
:10386000E40083C7070093F7F707E9F7B7370000CD
:10387000938767131DBF2947E31EE4FA03C70700B8
:1038800085461377F707E317D7FA03C7A7005DD379
:1038900003D7270045F3D843C1769386F60F758F7B
:1038A000C166E319D7F803A7418E03C557008145C8
:1038B000184F029741F1B73700009387A715F5B568
:1038C0008386070063D5060483A6418E83D56700EF
:1038D00003C6C6022EC6324593160601C182637A1C
:1038E000E50032472398E700239AD700EFF01F93B3
:1038F00049BBE37BB7FE6375D70023AC018CEDB702
:103900003367C70275F3054623ACC18CF1BF0D4781
:103910002384E7000D672397E18EA5B3EFC2BF8331
:1039200003A4018EA144834784001387E7FF137724
:10393000D70F3DCF1387D7FF1377D70F55EB1C4C0D
:1039400095CF83540401A1C80357440163739700C2
:10395000BA84C204C1802685829783570401AA894C
:103960000145858F2318F40083572401A697231956
:10397000F400912FAA8526864E85412383570401A2
:1039800099CB0D67814501452397E18EA92F130738
:1039900000032398E18E835704018356440103A753
:1039A000018E63EFD7008D472304F700834487001F
:1039B00083A7018E23849700EFF01FBE6FC0EFFC3A
:1039C00099C39547D5B799472304F700B7670040D7
:1039D00083A707C5B73600208906C207C183B697FB
:1039E000860723A00700930600032398D18E7DBF8E
:1039F0001D47A144E39EE7FA83A7418EDC478297E7
:103A000045BF03C3C18137660040C1650568A16831
:103A10000147130606C0FD151308F8F0938808083F
:103A20006369670013650508B767004023A6A7C44C
:103A3000828093162700B2969C42ED8FB3F7070160
:103A4000D98FB3E717019CC20507D9BFEFC24FF268
:103A500083A7018E83C687001387E6FF1377D70FEE
:103A600019EFEFF0AFFB83A7018E03C7870083A791
:103A7000018E2384E700EFF03FB26FC0AFF119462B
:103A80002147E396C6FE83C617001547639EE600EE
:103A900003C707001377F70701EB03C53700953716
:103AA00083A7818E9C53829783A7418E9C478297E0
:103AB000214775BF8280EFC2AFEBB7170020938715
:103AC000873523A0F18E09472384E70037070020BC
:103AD0009306871123A2D18EB707002093878714FE
:103AE00023A4F18E8327871182976FC0AFEAEFC2BC
:103AF000AFE54111370A0020B70A0020E17923170A
:103B00000100130A0A0E938ACA0F93890908B76540
:103B1000004083A745C41397070141832390E19098
:103B2000139707016350071883D701903A84BD8B20
:103B3000238FF18C938605C06399073203A705C0D4
:103B40009387E18E420741832390E70003D7070064
:103B50009386018F137707032390E60003D70700AE
:103B60008D662166758F2390E70003A705C0A567C2
:103B70009387F7FB7D8F83A705C0B1669386F6F820
:103B8000F58F8966B58F1347070293160701130651
:103B900006085D8F518FC18223A0E5C033E736014F
:103BA00042079384E18E1389018F376600409305A5
:103BB00000024183832606C093F606036397B60E80
:103BC000B3E73701C166C20737660040FD160D65D1
:103BD0008965C183032706C0130406C0758F698FEA
:103BE0006318B70C83D70190C18BE1EF1C40A56926
:103BF0001387F9F0F98F1CC0EFF05FE5184014400F
:103C0000B1679387F7F8F58F83D604009389F9FBA2
:103C10003377370113963601635406008566B58FF6
:103C200083D6040013962601635406008966B58F77
:103C300083560900C18A99C21347070183560900B8
:103C400093F6060299C213470702216693160701ED
:103C5000130606085D8F518F376600402320E6C0AB
:103C60006177C18213070708558F42074183832676
:103C700006C08355090093F60603639EB60261777A
:103C800013070708D98FC166C20737660040FD16C3
:103C90000D65C183032706C083D50400758F698F26
:103CA000631EB70041016FC0AFCD2320E6C019B736
:103CB0002320F6C005B72320E6C055BF2320F6C059
:103CC000D1BF1C40856BC207C1832317F100835706
:103CD000E100139747016353070C1C401387FBF85F
:103CE000F98F1CC0EFF0BF8E1840A5679387F7FBD4
:103CF00014407D8FB1679387F7F8F58F83D6040062
:103D00001396360163540600B3C7770183D60400C7
:103D100013962601635406008966B58F8356090001
:103D2000C18A99C2134707018356090093F6060218
:103D300099C2134707022166931607011306060866
:103D40005D8F518F376600402320E6C06177C182C6
:103D500013070708558F42074183832606C0835502
:103D6000090093F606036398B60261771307070804
:103D7000D98FC166C20737660040FD160D65C18345
:103D8000032706C083D50400758F698FE30CB7F055
:103D90002320F6C0F5B72320E6C0C1B78357E10062
:103DA000C207C187E3D507D61C401387FBF8F98FFC
:103DB0001CC0EFF0BFB61840A5679387F7FB14400F
:103DC0007D8FB1679387F7F8F58F83D6040013963C
:103DD000360163540600B3C7770183D604001396F7
:103DE0002601635406008966B58F83560900C18A8F
:103DF00099C2134707018356090093F6060299C238
:103E000013470702216693160701130606085D8F04
:103E1000518F376600402320E6C06177C1821307C7
:103E20000708558F42074183832606C08355090042
:103E300093F606036398B602617713070708D98FD4
:103E4000C166C20737660040FD160D65C1830327B2
:103E500006C083D50400758F698FE305B7E423207E
:103E6000F6C0F5B72320E6C0C1B7139727003697F1
:103E70001443C206C1822317D1008356E100C20653
:103E8000C18663DD0600FD1714438A070566D697D1
:103E90001306F6F89C43F18E14C382978357E10012
:103EA00093F70708E38507C683C7E18DB76600402F
:103EB000938606C0139727003697FD1714438A0789
:103EC000D29725661306F6F09C43F18E14C38297B1
:103ED0003DB9B73700200506BE950586860511E277
:103EE000828083471500034705009105A207D98FFB
:103EF000239EF5FE09057D16DDB7B73700200506C0
:103F0000BE950586860511E282809C4109057D16D5
:103F1000231FF5FE9105C5BF619942054181B76731
:103F2000004023A8A7C48280B7670040938707C0DA
:103F30000A053E951C4165771307F798F98FDD8DCB
:103F4000C205C1810CC18280B7670040938707C05A
:103F50000A053E951C4165771307F7FBF98FC207E9
:103F600013F70501C18319C393C7070113F70502AE
:103F700019C393C70702617713070708D98FC207D0
:103F8000C1831CC1184113770703E31CB7FE82806D
:103F9000B7670040938707C00A053E951C417177BB
:103FA0001307F7F8F98FC2070D67C183B98F6177DF
:103FB00013070708D98FC207C183C1661CC1FD164C
:103FC0000D661841758F718F6313C70082801CC105
:103FD000CDBFB7670040938707C00A053E951C41D7
:103FE00005671307F7E0F98F617713070708D98F83
:103FF000C207C1831CC18280EFC28F97D93F6FC0B7
:104000006F99B7670040938707C00A053E95144132
:10401000C1671387F7FF9397160163DD07001C4103
:10402000F98F05671307F7F0F98F31671307070852
:10403000D98F1CC18280B7670040938707C00A05EB
:104040003E951C4193F7070491CF1C4141677D17B2
:10405000F98F05671307F7F0F98F21671307070C2E
:10406000D98F1CC18280B767004083A707C50E05A2
:104070008581C207C1833E95B73700203E9506056E
:1040800086050CC18280B767004083A707C50E056F
:104090008581C207C1833E95B737002091073E95C1
:1040A000060586050CC18280B767004083A707C557
:1040B0000E05C207C1833E95B73700203E95060521
:1040C000035505008280B767004083A707C50E052A
:1040D000C207C1833E95B737002091073E9506057C
:1040E000035505008280B767004083A707C50E050A
:1040F000C207C1833E95B737002089073E95060564
:104100000CC18280B767004083A707C50E05C207B0
:10411000C1833E95B737002099073E959307E0038A
:10412000060563FEB70093D75500FD8981E5FD17AD
:10413000C207C183AA072167D98F1CC1828093D788
:104140001500858991C18507AA07C5BF93578500CA
:104150001375F50F22055D8D828037670040F1777A
:10416000232207C4938707F02396F18EB1679387C4
:1041700007F02320F7C401458280EFB27FFF32842D
:104180009374F507268542042E894180EFF0DFF114
:104190002286AA854A85EFF0DFD32685A285EFF037
:1041A0009FF401456FB01FFF192073002030EFB25C
:1041B0003FFC37050400EFE0BFA36FB0BFFD19203F
:1041C00073002030EFB2DFFA05246FB0BFFCEFB20E
:1041D0003FFAB707002003A7071DB7479508938745
:1041E000074009456300F702B7E7B80593870780E2
:1041F00005456309F700B777DC02938707C06315AD
:10420000F7000145EFE07FBC854537058000EFE012
:104210009FCD6FB03FF8EFB2BFF5376500001305D3
:10422000C522EF00B05C03C7A19013672700238568
:10423000E19083C7A1900D476314F700EF00502071
:104240000D4723AAE1906FB0FFF4EFB27FF237651C
:10425000000013058524EF00705983C7A19093F7E0
:10426000D70F2385F190B717002003C7273611C752
:10427000154723AAE1906FB0FFF10547DDBFEFB20C
:104280003FEF011137050400EFE09F96B7070400E8
:1042900005443EC80808C1473ECC22CE02CAEFE022
:1042A000DF8C9307401228002314F10022C6230557
:1042B0000100EFE01FA69307A00328002314F100DC
:1042C000EFE03FA505616FB0FFECEFB27FEAAA8493
:1042D0002E8411458545EFE03FBFB1CCB766004065
:1042E00083A706C441677517F98F23A0F6C4B717D3
:1042F000014003A74780B716F0FFFD16758F23A274
:10430000E78003A7C780F9769386F67F758F23A68B
:10431000E78003A74780B7460400558F23A2E780B4
:10432000374702408327078021C893E727002320CF
:10433000F7806FB03FE637670040832707C4B716A2
:10434000F0FFFD1693E72700C207C1832320F7C4BF
:10435000B717014003A74780758F23A2E78003A703
:10436000C780F9769386F67F758F23A6E78003A72B
:104370004780B736030055B7F59B55BF2389018E9B
:104380008280A389018E8280EFB29FDE05492A8454
:10439000631625039384218F83C7040089EF1305D7
:1043A0001008EFF09FDD930500030545238084008E
:1043B000EFF09FB9014422856FB0DFDD89476313B9
:1043C000F5029384318F03C4040009EC130520081F
:1043D000EFF0BFDA93050003094523802401EFF0D5
:1043E000BFB6D1BF0544C1BFEFB29FD83768004008
:1043F000032708C5C1651385F5FF83D6418FB737FD
:104400000020698F1386670032970607184393854B
:1044100005C00111F98D638CD500832708C593F67B
:1044200006C0E98FB29786079843D98E94C3B766C2
:10443000004083A746C413870190C207C18323109D
:10444000F7000357070083D7C18E138401907D8F37
:104450001377072019CF41671307F7DF23A2E6C4BC
:104460009386618F03C7060005071377F70F238034
:10447000E60003570400F98FC207C18763D4070021
:10448000EFF0EFE68357040003D7C18EF98F93F75F
:10449000074089CFC1679387F7BF37670040232262
:1044A000F7C4B707002083A7C711829703570400FA
:1044B00083D7C18E7D8F9316270163D80600396795
:1044C000B76600407D1723A2E6C403570400F98FA6
:1044D00013973701635A0700BD6737670040FD1720
:1044E0002322F7C40145852503D7C18E83570400D5
:1044F000F98F13974701635E070083A701826380EA
:104500000710A92BBD67376700409387F77F2322E9
:10451000F7C48357040003D7C18EF98F93F70710B0
:10452000E1CFC167376700409386F7EF2322D7C4F6
:10453000032687C49386818F9315060163DA050AE3
:104540009042050690C28C420D466375B60A03265A
:1045500007C4FD17218A59EE032607C49385C18F2E
:104560007D8E3765004090C11387C18F01461303CC
:1045700005C0A1489315260033886500032808006C
:104580000010A2953378F80023A005FF0506E31379
:1045900016FF10431366160010C310437D8E2320B0
:1045A000C5C41043799A10C31843F98F2320F5C46A
:1045B00037670040832747C493F70740E5DFC167AB
:1045C0009387F7BF37650040C1652322F7C4130501
:1045D00005C08147FD1521481397270010103A9612
:1045E000032606FE2A9785076D8E10C3E39607FF04
:1045F00023A006001D45812B05616FB0BFB9094599
:10460000992309B7B717002083C7273681C71547F5
:1046100023AAE1908280114723AAE19082809387A8
:10462000A19003C70700136717002380E70082806B
:104630009387A19003C707001377E70F2380E70054
:104640008280828091E5854733B5A7000605828088
:104650000945828003A7018E930610020145834716
:10466000070093F7F7076390D7048347170029469D
:1046700083465700639DC700894763E5D702034718
:10468000270093874190B6972380E70082802D46CC
:10469000639AC700894763E7D700034737009387CA
:1046A0008190D5B70945828083A7018E014503C754
:1046B0005700854763E4E7001385C191828083A793
:1046C000018E0947014583C757006365F7001385CD
:1046D00041903E95828083A7018E0947014583C79B
:1046E00057006365F700138581903E958280EFB295
:1046F0003FA883A7018E23850700252EB7670040BA
:10470000856637660040938707C09386F6F0930569
:1047100006C298439107758F23AEE7FEE39BB7FE71
:104720009307F00F2322F6C4EFF03FA38145014524
:1047300023AA0190EFF07FB95145F923854505453E
:10474000EFF0BFB86FB01FA5EFB29FA283A7018E95
:1047500003C7418123850700631D071A370700201F
:104760000347F704A384E700A38507000145EFF0A2
:10477000AFFA930500200145EFF00FFBC14501455D
:10478000EFF08FFC930500040145EFF0DF8F9305F8
:1047900000080145EFF03F8D0145EFF0FF85B707B9
:1047A000002083C547140145EFF0DF950145EFF088
:1047B0002FFE37670040032607C0C1679386F7FFC7
:1047C0009317160163DF0700832707C0F58F8566FF
:1047D0009386F6F0F58FB16693860608D58F232071
:1047E000F7C037670040832707C093F7070485C3E6
:1047F000832707C0C166FD16F58F85669386F6F0A0
:10480000F58FA1669386060CD58F2320F7C09305FC
:1048100000600545EFF04FF19305000C0545EFF002
:104820009F84930500020545EFF00FF237670040C3
:10483000832747C093F7070485C3832747C0C16612
:10484000FD16F58F85669386F6F0F58FA166938643
:10485000060CD58F2322F7C037670040032647C0D8
:10486000C1679386F7FF9317160163DF070083275D
:1048700047C0F58F85669386F6F0F58FB16693860F
:104880000608D58F2322F7C0930500600945EFF095
:10489000AFE99305000D0945EFF0EFFC9305000229
:1048A0000945EFF06FEA37670040832787C093F729
:1048B000070485C3832787C0C166FD16F58F85660B
:1048C0009386F6F0F58FA1669386060CD58F232488
:1048D000F7C037670040032687C0C1679386F7FF9C
:1048E0009317160163DF0700832787C0F58F85665E
:1048F0009386F6F0F58FB16693860608D58F23244C
:10490000F7C00145EFF0EF8F054723AAE1906FB0A4
:104910007F88371700200347B737A9B5EFB25F8507
:104920009385C180EFE07FC56FB0DF8683A7018EDE
:1049300083C53700914763EEB700EFB27F83B717A7
:1049400000209387872B8E05BE95EFE01FC36FB0C5
:104950007F840145828083C54181894763EEB7002A
:10496000EFB21F81B7070020938707008E05BE9521
:10497000EFE0BFC06FB01F820145828083A7018E28
:10498000054783C6070093F6F6076391E602EFB288
:104990002FFE37570000130767952399070098CF1C
:1049A0000145EFF05FFB01456FB0CFFE130610022B
:1049B0000145639EC60483C61700638AE604094660
:1049C000639AC6002398E700374700001307E76B98
:1049D00098CF82800D466399C6002398E700374739
:1049E00000001307676DEDB7A5456390B60283D647
:1049F0006700636CD700374700001307876A239866
:104A0000D70098CF2384C7008280094582808280A6
:104A1000EFB20FF683C7418189EBB705002093857C
:104A2000451DEFE09FB56FB0EFF69385418BD5BF85
:104A30008280B7670040054723A0E7C423A007C4CE
:104A4000096723A207C4130707C02396E18E0967ED
:104A5000130707C023A0E7C401458280EFB24FF1DE
:104A6000B767004083A707C4376700404168C207A3
:104A7000B7150020C1838146130307C07D189385B5
:104A80008539A148139626003305660008412E9605
:104A900085063375050108C2E39616FF93E60740C5
:104AA0002320D7C493E61740F99BC207C183232074
:104AB000D7C493E607402320D7C4B766004003A7B6
:104AC00046C41377074065DF41671307F7BF23A28A
:104AD000E6C44168376700408146130307C07D186C
:104AE000A148139626003385C50008411A9685060D
:104AF0003375050108C2E39616FF93E7874023202C
:104B0000F7C4832707C4C207C18393E74700232064
:104B1000F7C4EFF04FF06FB0EFE7EFB26FE5376437
:104B20000040832704C4C207C183ED9BC207C18331
:104B30002320F4C4EFF06FF1B167938707F02320CF
:104B4000F4C46FB02FE5EFB2AFE29D471384C1907C
:104B50006303F50008C01C401547636EF700196732
:104B60008A0713074726BA979C43828783A78191B8
:104B700089E7EFF09FFA994711A095471CC001A85B
:104B8000EFF0BFF991471CC0054723ACE1906FB02F
:104B90006FE089472302F4008D47CDB78347440077
:104BA000FD1793F7F70F2302F4008347440093F7B0
:104BB000F70FF1FF9147D9B737670040832707C444
:104BC000C207C18393E707012320F7C495471CC0A0
:104BD000A9472302F40065BF83474400FD1793F7FC
:104BE000F70F2302F4008347440093F7F70FC5F350
:104BF00037670040832707C4C207C183BD9BC20734
:104C0000C1832320F7C499471CC023AC019041B74E
:104C1000192073002030EFB2AFD537440040930520
:104C2000505213050440EFE0CFCC09C913050440EE
:104C3000EFE0CFCA1375F50FA38EA1906FB08FD59B
:104C4000EFB20FD33D65EFD01FFA1305000FEFD081
:104C50009FF9B7F700E083A607D103A707D193F622
:104C600006021367870223A8E7D003A707D11377AB
:104C7000F7FD558F23A8E7D0730050107300501034
:104C80003D65EFD03FF509C93D65EFD0DFF505453E
:104C9000EFF07FEB6FB00FD01305000FEFD09FF355
:104CA00075D91305000FD5B7B707002083A7071DD7
:104CB00037177A0013070720B3D7E70293F7F70FE8
:104CC0002380F1921307803EB387E702239FF19080
:104CD0008280B7F700E0D8438146799BD8C303C7E9
:104CE00001923306A70290CBD4CB984313670701F8
:104CF00098C398431367170298C3D843058B75DF91
:104D00009843799B98C38280B7F700E0D8438146E7
:104D1000799BD8C303D7E1913306A70290CBD4CBBC
:104D200098431367070198C398431367170298C302
:104D3000D843058B75DF9843799B98C38280EFB287
:104D40002FC32A841165011185451105EFE0CF9726
:104D5000930700202312F100371501408D473EC410
:104D60004C00E147130505803EC6EFD01FE922C87D
:104D700037440140B70708000C08130504803ECCF7
:104D800002CA231E0100EFE0AFA58545130504808C
:104D9000EFE06FB205616FB0EFBFEFB2CFBBB744CA
:104DA0000140AE8932890144938404806345240123
:104DB0004A856FB08FBD930500042685EFE0AFB242
:104DC0007DD9B38789008385070026850504C20540
:104DD000C181EFE00FB0D9BF138741821C43B716E2
:104DE00000209386C63B3E95636BD500B7560020E6
:104DF0009386068063E5A60008C33E858280FD5742
:104E0000EDBF93F5F50F2A966314C5000145828026
:104E100083470500E38DB7FE0505FDB7B3C7A500C1
:104E20008D8B3307C50081E78D4763EEC700AA87E6
:104E30006370E50A83C6050085078505A38FD7FE45
:104E4000E3EAE7FE828093763500AA8791CA83C69B
:104E5000050085078505A38FD7FE93F63700FDB7BC
:104E60009376C7FF138606FE63F0C70683A305008B
:104E700083A2450083AF850003AFC50083AE050163
:104E800003AE450103A3850183A8C50193854502AF
:104E900023A0770003A8C5FF23A2570023A4F7018E
:104EA00023A6E70123A8D70123AAC70123AC6700E3
:104EB00023AE17019387470223AE07FF75B79041D2
:104EC0009107910523AEC7FEE3EBD7FEE3E4E7F6D7
:104ED000828039713EDA2ED232D436D63AD842DCCC
:104EE00046DE9387818222CC804326CA06CEAA84DE
:104EF00009C41C4C99E3228525230C4454102686B2
:104F0000228536C6EF009017F2406244D2442161F8
:104F10008280011126CA4AC806CE22CC4EC652C48F
:104F2000AA842E8901C51C4D91E3DD299C4C804447
:104F300099E32685F5219717000093876736631C50
:104F4000F402C0408357C400A18BB1C71C48A1C75D
:104F5000FD59294A1C4483450900FD17B1E91CC4C9
:104F600063DE07062286A94526857920FD5763085A
:104F7000F502294535A0971700009387673463141D
:104F8000F4008044C1B7971700009387672FE31B95
:104F9000F4FAC04445BFA2852685392A55D97D55E6
:104FA000F2406244D2444249B249224A05618280B9
:104FB0001CC4050963D70700184C63CBE70063895D
:104FC00045011C401387170018C02380B70059B74C
:104FD000228626851520E31F35F7D1B71C4013879D
:104FE000170018C029472380E70061B793878182A3
:104FF000AA8588436FF0FFF1011122CC26CA4AC866
:1050000006CE4EC6AA842E89328401C51C4D91E37A
:105010000129971700009387A7286319F406C04059
:105020001C4C1CC48357C400A18BC9C31C48BDCFF2
:105030001C4808409379F90F1379F90F1D8D5C48CE
:105040006346F500A2852685652C2DE51C440505E3
:10505000FD171CC41C401387170018C0238037019C
:105060005C486389A7008357C400858B81CBA9471F
:105070006316F900A285268561240DEDF240624495
:105080004A85D2444249B24905618280971700009F
:10509000938707236314F400804459B797170000DF
:1050A0009387071EE31EF4F6C0449DBFA2852685A4
:1050B00021203DDD7D59D9B741119387818226C2D8
:1050C000844322C44AC006C62A892E8489C49C4CC3
:1050D00099E32685B126971700009387671C631C08
:1050E000F402C0400317C40093170701C18393F66D
:1050F0008700B5EE93F607019DEEA5472320F90042
:10510000136707042316E4007D55B24022449244FD
:10511000024941018280971700009387671A631440
:10512000F4008044C1B79717000093876715E31B0D
:10513000F4FAC04445BF918B8DC74C5889C9930779
:1051400044046384F5004A85A923232A0402835773
:10515000C4002322040093F7B7FD2316F4001C4873
:105160001CC08357C40093E787002316F4001C4833
:1051700081EF8357C4001307002093F70728638546
:10518000E700A2854A85B5218357C40013F71700AD
:1051900005C75C4823240400B307F0401CCC1C481E
:1051A0000145A5F78317C40013F7070839DF93E714
:1051B00007042316F40089BF898B014791E35848FF
:1051C00018C4F1BF83D7C500011122CC26CA06CE70
:1051D0004AC84EC613F78700AA842E8471EFD841BF
:1051E000634DE000B841634AE0000145F24062448B
:1051F000D2444249B2490561828058547DD703A9FF
:1052000004009396370123A0040063DD060670486E
:105210008357C400918B99C75C401D8E5C5899C31D
:105220003C401D8E5C540C50814626858297FD576C
:105230000357C400631DF5009440F54763E8D706A3
:10524000B70740208507B3D7D700858BA5C31C4877
:10525000232204001CC09317370163D80700FD57B1
:105260006314F5009C4091E368C84C5823A02401C6
:10527000ADDD930744046384F50026851929232AAC
:105280000402A5B70C500146854626850297FD57B6
:105290002A86E31FF5F69C40A5DF75476385E70086
:1052A00059476394E70423A0240181B713670704D7
:1052B0002316E4007D551DBF83A90501E38709F28C
:1052C00003A905008D8B23A035013309394101471E
:1052D00091E3D84918C4E35A20F11C540C50CA86F3
:1052E0004E86268582976349A0008357C40093E7C2
:1052F00007042316F4007DBFAA993309A940E1BF32
:105300009C49A5C3011122CC06CE2A8411C51C4D8F
:1053100081E72EC63122B24597170000938747F8E0
:10532000639CF5004C408397C5009DC7228562446D
:10533000F24005616FF01FE997170000938747F867
:105340006394F5000C44C5B797170000938747F3A3
:10535000E39BF5FC4C44C1BFF2406244014505614A
:10536000828001458280411122C406C62A84231608
:10537000B5002317C50023200500232205002324A0
:1053800005002322050623280500232A0500232CD7
:105390000500214681451305C505EFA07FE097175D
:1053A00000009387A7B65CD097170000938707B9D2
:1053B0001CD497170000938747BD5CD49717000053
:1053C000938707C000D01CD8B2402244410182809C
:1053D00097050000938505F391AA411126C2130693
:1053E00080069384F5FFB384C4024AC02E8922C488
:1053F00006C69385440791262A8401CD2320050003
:1054000023222501310508C4138684068145EFA0B7
:105410003FD92285B2402244924402494101828010
:105420001C4DA5E7411106C622C4970700009387CB
:1054300067FA1CD5938701899C43232405042326FE
:105440000504232805046314F50085471CCD2A8430
:10545000352848C022851D2808C42285052848C44F
:10546000484001469145EFF01FF008440546A54528
:10547000EFF07FEF48440946C945EFF0DFEE85477E
:105480001CCCB2402244410182808280411193872A
:10549000018926C284434AC006C69C4C22C42A897C
:1054A00081E72685EFF0DFF7938484048044DC40B5
:1054B000FD1763D607009C40B9CF8440C5BF0317D2
:1054C000C40039E7C177850723220406232004009E
:1054D00023220400232404005CC423280400232A7C
:1054E0000400232C0400214681451305C405EFA0C8
:1054F0003FCB232A0402232C040223240404232662
:1055000004042285B240224492440249410182802F
:105510001304840671BF91454A85EFF01FEC88C0E3
:1055200049FDB1472320F9000144E1BF797122D43C
:105530004AD052CC56CA5AC85EC606D626D24ECEDD
:105540002A8AAE8A130485040149054BFD5B09ECE8
:10555000B25022544A8592540259F249624AD24AC0
:10556000424BB24B45618280044483294400FD19BB
:1055700063D409000040E1BF83D7C400637BFB0014
:105580008397E40063877701A6855285829A336901
:10559000A90093848406E1BF1971A6DAAE848395CD
:1055A000E500A2DC86DE328463DC050083D7C4001C
:1055B00023A0060093F7070885E7930700401DA086
:1055C000300836C6EF005026B246E34105FE72476A
:1055D000BD67F98F7977BA9793B717009CC2F1BF6F
:1055E000930700041CC0F6506654D6540145096167
:1055F000828083D7C500011122CC06CE26CA4AC8B4
:10560000898B2E8489CF930774041CC01CC88547DE
:105610005CC8F2406244D244424905618280740011
:105620003000AA84EFF05FF7A2452A89268531224F
:1056300001ED8317C40013F7072061FFF19B93E787
:1056400027002316F400C1B797070000938787D877
:105650009CD48357C40008C008C893E707082316E2
:10566000F400A2475CC8B24791CF8315E4002685B9
:10567000EF00B01E01C98357C400F19B93E71700E8
:105680002316F4008357C4003369F900231624015C
:1056900049B7DDC183A7C5FF411122C406C626C292
:1056A0001384C5FF63D307003E94AA84EF00302122
:1056B000938741929C4381EF2322040023A281928D
:1056C0002244B2402685924441016F00701F637EE0
:1056D000F40014403307D4006396E7009843DC439A
:1056E000369718C05CC0D9BFBA87D84319C3E37DC9
:1056F000E4FE94433386D700631F86001040B296C1
:1057000094C33386D700E31DC7FA10435843B296BB
:1057100094C3D8C375B76375C400B1479CC04DB777
:105720001040B306C4006316D70014435843B29622
:1057300014C058C0C0C369B78280011126CA9384BF
:105740003500F19806CE22CC4AC84EC6A104B14716
:1057500063F3F404B14463E2B4042A89EF00301621
:105760009387419298433A8439E0938781929C438E
:1057700091E781454A85852723A4A192A6854A857C
:10578000992FFD5963193507B1472320F9004A8540
:10579000EF00101329A0E3D004FCB1471CC1014560
:1057A000F2406244D2444249B249056182801C40C1
:1057B000858F63CF0702AD4663F6F6001CC03E94AA
:1057C00004C031A05C406313870223A2F1924A8592
:1057D000EF00100F1305B4009307440061993307DD
:1057E000F5405DDF3A94898F1CC05DBF5CC3C5B7CF
:1057F0002287404095BF130435007198E30285FC71
:10580000B305A4404A85C12DE31C35FBB5BF1C463A
:10581000FD171CC663DA0700184E63C5E700A947E9
:105820006394F5006FF04FFD1C422E85138717001F
:1058300018C22380B7008280011122CC26CA4AC830
:105840004EC652C406CE2A89AE893284B304D6002D
:105850007D5A63149400014511A8834504004E86C7
:105860004A85EFF0DFFA0504E31545FFF240624494
:10587000D2444249B249224A05618280357122CD23
:1058800026CB4AC94EC706CF52C556C35AC1DEDE23
:10589000E2DCE6DAAA89AE843289368409C51C4D79
:1058A00099E3EFF0FFB7971700009387679F639D19
:1058B000F40C83A4490083D7C400A18BE5CB9C489A
:1058C000F5C793070002A304F1029307000302D275
:1058D0002305F10222C6930B5002971A0000938A07
:1058E0002AA0054C294B4A848347040099C363923C
:1058F000770FB30C2441638E0C00E6864A86A6859A
:105900004E85EFF07FF3FD576309F51E9256E6963C
:1059100036D2834704006382071EFD571309140023
:1059200002C802CE3ECA02CCA309010482D4834538
:10593000090015465685EFF0CFCC13041900C24775
:1059400059E913F7070109C713070002A309E10486
:1059500013F7870009C71307B002A309E1048346C0
:1059600009001307A0026380E608F2474A848146D3
:1059700025460347040093051400130707FD6379C8
:10598000E60AB5CA3ECE85A89717000093874793CD
:105990006395F40083A4890039BF971700009387AB
:1059A000278EE39AF4F083A4C90031B7A6854E850B
:1059B000EFF08FF019D57D55FA406A44DA444A4930
:1059C000BA492A4A9A4A0A4BF65B665CD65C0D6174
:1059D0008280050411BF330555413315AC00C98FD2
:1059E0003EC82289A9B7324793064700184336C6F6
:1059F000634907023ACE034704009307E002631F9E
:105A0000F704034714009307A002631BF702B24791
:105A10000904138747009C433AC663C107023ECA84
:105A200035A83307E04093E727003ACE3EC8E1B7F8
:105A3000B387670385462E84BA9725BFFD57C5B740
:105A4000050402CA814681472546034704009305A1
:105A50001400130707FD6378E606F1F2834504009E
:105A60000D461715000013052588EFF08FB911CDED
:105A700097170000938747871D8D93070004B397FE
:105A8000A700424505045D8D2AC8834504001946D8
:105A90001715000013058585130914002304B102AE
:105AA000EFF02FB63DC197A7FFFF9387A75595E766
:105AB0004247B2471377071009CF91073EC6925766
:105AC000D2973ED20DB5B387670385462E84BA9729
:105AD000ADBF9D07E19BA107D5B7780097060000F1
