:100000006F20F00A1300000013000000130000002E
:100010001300000013000000130000001300000094
:100020001300000013000000130000001300000084
:08003000130000007300100032
:100038000000000000000000480200004C02000020
:10004800000000004628000000000000000000003A
:10005800482800004A2800000000000000000000B6
:100068004C280000000000004E280000000000009E
:10007800502800005228000054280000562800008C
:10008800582800005A2800005C2800005E2800005C
:10009800602800006228000064280000662800002C
:1000A800682800006A2800006C2800006E280000FC
:1000B80070280000722800007428000076280000CC
:1000C8008C3F00007A2800007C2800007E28000071
:1000D800802800008228000084280000862800006C
:1000E80088280000900D00008C2800008E28000051
:1000F800902800009228000094280000962800000C
:10010800982800009A280000FA4900009E2800005C
:10011800A0280000A2280000763F0000E0020000AE
:10012800A8280000AA280000AC2800000000000051
:080138000000000000000000BF
:10014000397101436EC619A0397141536AC866CA34
:1001500062CC5ECE19A0397101535AD056D252D416
:100160004ED64AD826DA22DC06DE3301614082828E
:1001700041114AC026C222C406C68282B24D410144
:10018000024D924C224CB24B4101024B924A224A00
:10019000B2494101024992442244B2404101828065
:1001A0003D432A876373C3029377F700BDEFADE544
:1001B000937606FF3D8ABA960CC34CC30CC74CC756
:1001C0004107E36BD7FE11E28280B306C3408A0683
:1001D0009702000096966780A6002307B700A30643
:1001E000B7002306B700A305B7002305B700A30493
:1001F000B7002304B700A303B7002303B700A3028B
:10020000B7002302B700A301B7002301B700A30082
:10021000B7002300B700828093F5F50F9396850011
:10022000D58D93960501D58D61B7939627009702DA
:10023000000096968682E78086FA9680C1171D8F09
:100240003E96E374C3F8A5B77300203001A0B7074A
:100250000050130740F82386E700A386E700130742
:1002600080042387E700138701D598CB1387C193B8
:10027000D8CB98CF138701D9D8CF138701E198D372
:10028000138701E9D8D3138701F198D7A38907020F
:10029000A38B0702A38F0702A3830704239C0702F3
:1002A000239007042394070409472389E702238D39
:1002B000E7022381E7042385E7049387418B2380AA
:1002C0000700A380070023810700A3810700238282
:1002D0000700A382070023830700A383070082800F
:1002E000011122CE26CC4ACA4EC852C656C4370483
:1002F000005003476400834774001377F70F937629
:100300002700638E067893F7F70F13F7070393061A
:100310000002630DD706930600036303D73049E359
:1003200013F7F70385466305D71E6300071C8D4648
:100330006306D72695466315D70693F70704ADC322
:10034000184483477404420793C74700A303F40487
:1003500083477404418393F7C70F93E72700A303F0
:10036000F404938601F18147138601E9939507010F
:10037000C18163EBE528B70700502394E70403C766
:1003800027041377C70F2385E70419A893F7F7030A
:1003900093062002638FD70E63EAF6006389E704B1
:1003A000B707005009472383E70021A7130740023E
:1003B0006384E71013076002E394E7FE8347A40415
:1003C00093C747002305F4048347A40493F7C70F9A
:1003D00093E727002305F4049387418B23830700C9
:1003E0008347740493F7C70FA303F40455BF93879F
:1003F000018C83D707009384018CC207C18381E7F6
:100400009147A309F40283C7218C93F70706C9FB20
:1004100083C7C18B154793F7F70F6380E70619472A
:10042000E390E7F883D704001307F00313040004F4
:100430006366F70003D40400420441801389818C71
:10044000832909002286CE85138501D5EF40A07B44
:1004500083D70400A29923203901818FC207C18369
:100460002390F400B70700502398870203C727039F
:10047000134747002389E70225B737070050834712
:10048000370083C6018B93F70708D58FA301F700C8
:1004900001BF8347A40393C74700230DF40283479A
:1004A000A40393F7C70F93E72700230DF402938764
:1004B000418B23810700EDB58347240493C7470090
:1004C0002301F4048347240493F7C70F93E727001D
:1004D0002301F4049387418B238207008347F403AD
:1004E00093F7C70FA30FF40265BD184493F70704F1
:1004F000E38807EA83C7218C83D7018CC207C183B5
:10050000E39007EA2318040291472309F40249BD46
:1005100093F70704E38607E88347740393C747000C
:10052000A30BF4021387C1D31044834607009387BB
:10053000C1D31376F60FBA96A381C600834607008F
:10054000850693F6F60F2300D70003470700C14640
:100550006394E6002380070003C707002D46931627
:1005600067001387C1933697B7060050D8CA03C7F0
:10057000270005071377F70F2381E70003C727003C
:10058000E370E6E203C776031377C70F136727000C
:10059000A38BE6020547A389E70019B593F7070483
:1005A000E38007E018448347F403420793C74700FA
:1005B000A30FF4028347F403418393F7C70F93E734
:1005C0002700A30FF402938601E18147138601D926
:1005D00093950701C18163EDE500B70700502390B3
:1005E000E70403C727041377C70F2381E7044DBB34
:1005F000B305F60083C505003385F600850793C56E
:10060000F5FF2300B500E9B7B305F60083C5050083
:100610003385F600850793C5F5FF2300B500B9B310
:1006200099472309F402A309F402138701D58347EC
:1006300007001386218C2300F6008347170083569A
:1006400067009385C18B2380F500035827009387AB
:10065000018C2390D7009386418C23900601035888
:1006600047001387E18B231007010347060013841B
:10067000018C1389218C13770706138601D5938784
:10068000418C9386E18B631F071C03C70500AD45B2
:100690001377F70F63E8E51C99650A07938505F35F
:1006A0002E971843028703D7070089462183938931
:1006B000818C6303D7060D46630EC7068547631713
:1006C000F70899671387C7FD83C7C7FD23A0E90013
:1006D00081440357040063F4E7002310F4008357B8
:1006E00004001307F003130A00046367F700035ABA
:1006F0000400420A135A0A0183AA0900528613858C
:1007000001D5D685569AEF40005023A049019307A2
:10071000F00F6396F408B9A21967130707FA834725
:10072000370023A0E90003472700A207BA97C207B2
:10073000C18379BF83D70700054693F7F70F63821C
:10074000C70289CB6387D702638DE7028147930491
:10075000F00F41B71387818323A0E90083C781830A
:1007600085BF9967138707FF23A0E90083C707FFA9
:1007700085B799671387070023A0E90083C707009F
:1007800081BF99671387470123A0E90083C7470109
:1007900081B783D7070093F7F70F2388F18A834740
:1007A0000900E207E18763DD072C03570400930784
:1007B000000463E6E70083570400C207C1830357C0
:1007C00004001D8F420741832310E40037070050C7
:1007D0002318F70291472309F702D9B683C7118B73
:1007E0002300F600035704008547E3FAE7FA2310D5
:1007F000F40075B783D7070093F7F70FA388F18A42
:1008000005472389E18A61BF034709007D8B0DE31A
:1008100083D70700054793F7F70FE392E7F893872D
:10082000318B03C707001377E70F2380E70085BFED
:100830000347090009467D8B6316C70283D707006B
:1008400093F7F70F85E383D70600954693F7F70FE5
:100850006382D70663E0F6020547638EE7020D4721
:100860006380E704B70700501D472389E702A38987
:10087000E7023DB6930640086389D70293066008F5
:10088000638FD70293062008E39ED7FCB70700507A
:10089000238DE70229B7B7070050A38B070201B7E2
:1008A000B7070050A38F0702DDBDB70700502381B3
:1008B000E704F5B5B7070050A3830704CDB5B70724
:1008C00000502385E704E1BD034709007D8B0DE758
:1008D00083D70700054793F7F70FE395E7F8996784
:1008E00083C777FA93F70702B5DF9387318B03C786
:1008F00007001367170015BF0347090009467D8BE2
:10090000E312C7F683D7070093F7F70FA1FF83D74A
:100910000600154793F7F70F638AE7066361F7024E
:1009200005476383E7040D47E39EE7F2370700506E
:100930008347F70393E73700A30FF7028DB513073B
:100940004008638CE70213076008638AE704130713
:100950002008E399E7F0370700508347A70393E7A0
:100960003700230DF70225BD370700508347770373
:1009700093E73700A30BF7021DB5370700508347F5
:10098000270493E737002301F70411BD3707005010
:100990008347770493E73700A303F70409B53707C4
:1009A00000508347A70493E737002305F704C5BB2E
:1009B0002300060005BD8347090023100600FD8BB8
:1009C0008DE383C7318B8144858B81C789472300A1
:1009D000F600035704008947E3FBE7D22310F40035
:1009E0003DB38347090009479304F00FFD8BE39261
:1009F000E7FE83D70600154793F7F70F6388E706EE
:100A00006360F70205476380E7040D47E393E7FC63
:100A1000370700500347F7030D8B6392E7042DA8B7
:100A200013074008638FE702130760086385E70434
:100A300013072008E39FE7F8B707005083C7A70311
:100A40008D8B0D47D9BFB707005083C777030D477C
:100A500081448D8BE39FE7F685472300F6008144B0
:100A60008DBFB707005083C72704D9BFB707005011
:100A700083C77704F1B7B707005083C7A704C9B786
:100A800083570400C207C18399E7B7070050239832
:100A900007021147C5B2B70700501147C9BB93778A
:100AA00017008DC3A3010400EFF06FFA85472303FD
:100AB000F4007244E2445249C249324AA24A0561F2
:100AC000730020309377470095CB034754009387FA
:100AD000318B118B09CF03C70700136727002380D1
:100AE000E70083C70700B707005011476DB803C779
:100AF00007001377D70F2380E700F5B72303E4003F
:100B00004DBFEFF2EFE641118545114502C202C427
:100B100002C6EF20401885472312F1003715014027
:100B2000C1473EC64C008D47130505803EC4EF10FB
:100B3000B06941016FF00FE6EFF28FE30945EF1066
:100B4000D0790964EF30F07413050458EF30D07D8C
:100B5000B704002083A5841337650000130505F64C
:100B6000EF40C01583A58413130404710545B3D564
:100B70008502FD15C205C181792A3765000013057C
:100B800005F7EF404025EF306041EF20B04FEF30E8
:100B9000E04B376500001305C5F7EF40C0239537DC
:100BA0001547BE8483A64192E39EE6FE37650000AA
:100BB000130585F8EF402022EF1080440545EF1023
:100BC0008048371500207D46814513050521EFF04B
:100BD0002FDD371500201306205381451305C5CDA1
:100BE000EFF00FDC37650000130545F9EF40A01E5C
:100BF000154483A74192E39E87FEEF00D059D5BFED
:100C0000B71702409843B706FFF841111367170062
:100C100098C3D84337060200758FD8C39843B706E8
:100C2000F7FEFD16758F98C39843B706FCFFFD16B7
:100C3000758F98C3D843B70681FFFD16758FD8C34B
:100C400037079F0098C702C402C69843C166558FF4
:100C500098C3B716024005679C42F18F3EC6A24773
:100C600085073EC4B24781E7A247E397E7FEB7177F
:100C700002409C431397E7006357070685473EC62B
:100C800032478547631FF704B7170240D843B706BA
:100C9000C1FFFD16D8C3D843D8C3D8431367074054
:100CA000D8C3D843758FD8C3D843B7063D00558FF6
:100CB000D8C39843B7060001558F98C3984393163D
:100CC0006700E3DD06FED843B7160240719BD8C328
:100CD000D84313672700D8C32147DC42B18BE39E7A
:100CE000E7FE4101828002C661BFEFF26FC8371490
:100CF0000140AA840546854513050480EF10505C29
:100D00002685EF30105F0146854513050480EF10FE
:100D1000305B6FF02FC8EFF2AFC50111AA842E84AB
:100D20000945854502CA02CC231E010002C602C83D
:100D3000EF105078231A8100370400404C08130547
:100D40000440231C9100231D0100231B0100EF1010
:100D500050780546854513050440EF204001930770
:100D6000D0122316F10089472307F1006800854758
:100D70003EC8EF10F056854513050440EF10707D16
:100D8000B7E700E0096723A2E71005616FF08FC0A5
:100D9000192073002030EFF2AFBD370400408545C5
:100DA00013050440EF10107E45C58545130504402A
:100DB000EF10107F371700209306072103C60600A7
:100DC000894763F7C70803C616008D4583C75600D9
:100DD0006314B6041307A0103387E7029387413AE0
:100DE0008146BA9703C807006304D80603C5870085
:100DF0003E86014709A88345160205071377F70FBA
:100E00008505A300B6020506E317E5FE850693F601
:100E1000F60F93872704C9BFA545631BB6021305C8
:100E2000A010B387A7029385413A03C36600130756
:100E3000072181461385413A094E8D4E130FA010AC
:100E4000AE9783C5270285052381B7026314D300BB
:100E50006FF04FB4834777006376FE0483478700C3
:100E60006392D7058347C7008145B387E703AA97F5
:100E700083C207006388B20283CF87003E880146A1
:100E800009A88348180205061376F60F8508A30003
:100E900018030508E397CFFE850593F5F50F9387B3
:100EA0002704C9BF850693F6F60F190745B7034710
:100EB0004500A1466306D70083C7E5006396D700C7
:100EC000A1472300F60082809D466304D700639407
:100ED000D7009D47FDB78D466304D7006394D700C4
:100EE0008D47C5B7A5466304D7006394D700A547CF
:100EF000C9BFFD57F9B7EFF22FA5B71400209384AF
:100F0000042141110144138B3400994B138C44008C
:100F1000938901F913054006EF30B03D05041374C1
:100F2000F40F214533158500EF30B03C0145EF103B
:100F3000A0200149014A930C40065A85EF10A025D4
:100F400019E5050A137AFA0F63E54B05014905090E
:100F50004209054513590901EF30B039E31F99FDE6
:100F60009547E3F987FA594531A09547E3F487FAA5
:100F70001305500441016FF0AFA09547E3FC87F8DB
:100F800013056004C5BF9547E3F687F813057004A1
:100F9000D5B7938501396285EF10205079F503C5E7
:100FA00044000949894523812401EF10206171F52E
:100FB000154523812401EF30D03303C54400930647
:100FC000E10013060040CE85EF10E0514DFDCE85C7
:100FD000138501391386140003C95900C93D03C59F
:100FE0004400CA85EF10206151D59547E3F487F29C
:100FF0001305B00F41B7EFF22F95130AA010330A73
:1010000045039389413A2A8CAE8A8144014413896D
:1010100001F9894B338B4901834739000347290084
:10102000A207BA976354F41EB307890003C71700D9
:101030006314770383C747001147637CF7002300DD
:10104000EB00B307890083C707003E944204418048
:10105000E1B72300FB00F5B79146E316D7FE63879F
:10106000E41A83C657000D476393E61803C7670069
:10107000854663EDE61403C7770063E9EB14631755
:10108000D70C93072004B387F402D297CE9723811D
:10109000E70081460146A6855685EF10606AB307D2
:1010A000890083C7070093081002130750083E9475
:1010B00093072004B387F4020343290042044180CC
:1010C00081460145114E954E33881403D297CE9731
:1010D0003307EC023A98330789000346170063038D
:1010E000C60D6371640C834507002E944204418051
:1010F000631FD6090346570083452700034F470067
:10110000220693F2F5007A96E2054206E185834FC6
:101110003700418263D7050403476700338FA70078
:10112000B305A800230FEF0003C78700A1058605BC
:10113000CE9505070505A3045F00A306FF012391D3
:10114000C5002384E7001375F50F71B7E31977F530
:1011500093072004B387F402D297CE9723817701B7
:101160000DBF3387D700A3035702A305F703330747
:10117000D800410706074E972318C70003C7670228
:10118000850693F6F60F05072383E702A9B7E31454
:1011900016F503468700034777002206518F2392F6
:1011A000E70015BF8547639FF60093072004B387C8
:1011B000F402D297CE9703C727006315D7007D5757
:1011C0002380E704850493F4F40FB9B59307200452
:1011D000B387F4027D57D297CE972381E700B307F8
:1011E000890083C707003E9442044180E1BF930712
:1011F0002004B384F4029307A010330CFC02FD57C3
:10120000269C9384413AE2942381F40001456FE0E7
:101210003FF783C601F99547639BF618138701F9D9
:101220008346170085476394F61883462700A54731
:10123000639FF616834637009947639AF61693061E
:1012400020041308A010330805031386413A011146
:1012500022CE26CC4ACA4EC852C656C4B386D50240
:101260005AC25EC091470143814E014F014E93889F
:10127000413A1144C2963696835346000148930F73
:10128000000793040008930200092149C149130A89
:101290000002854A63E07704A147631DF30E9307BC
:1012A00020041307A010B387F5023307E502BA97AD
:1012B000B385F80083C7050481E785472380F504DB
:1012C0007244E2445249C249324AA24A124B824B0A
:1012D00005618280B306F70083C606008507C20752
:1012E00093FBC60013FB3600C18393F6060F638D94
:1012F0008B02638B2B0763950B026393560263018A
:101300000802B386EE0336934203135303016309C5
:101310000E008346C60389E6230E5603A30EC603BA
:10132000DA97C207C183BDB7638BF60363EBDF00B7
:10133000E5FAB306F70003C8060061181338180071
:10134000C5B763899600E39D56FCB306F70083CECC
:101350000600F9B7B306F70003CE0600D1B7B3060F
:10136000F70003CF06006DBF638D3601E39A46FB9D
:10137000E30808FAB306F70083C60600A30FD602F7
:1013800045B7E30F08F8B306F70083C60600230F3E
:10139000D60279B793072004B387F5029305A0100E
:1013A0003305B502AA97C6972380070411BF828030
:1013B000EFE21FD99304A010B30495029389413A38
:1013C0004111AA8A2EC6014B138A413A930B20047D
:1013D000A69903C40900138C4400154D29C803C9FC
:1013E0000900330989401379F90FB3067903B387EC
:1013F0009600D29783D747009DC3E296B30DDA00DB
:10140000324513071B00EE86138601F9CA85137B4C
:10141000F70FEF10E02C01E9CA855685DD3B7D14FE
:101420001374F40F65BFE37D6DFD13048004228502
:1014300041016FE0BFD41307A0103305E502938785
:1014400001F903C6370083C7270022069386413A75
:101450003E96938501F9814709431148254E954EE3
:101460003695854863C4C700014582803387F500FF
:10147000034F070083461700FA97C207C183639C96
:1014800066000347470063F5E80023001501D9BF54
:101490002300E500C1BFE39706FD03475700E313B0
:1014A000C7FD3387F50083461700E38D06FBE3DBBA
:1014B000C7FA034F0700FA97C207C183E393D6FF29
:1014C00083462700139F8601135F8F41E35B0FFC68
:1014D000BD8AA304D50083463700034F4700A30607
:1014E000D5008346570003476700A206230FE50097
:1014F00003478500FA962319D50005072304E50064
:101500004DB7EFE25FC5371400209307042103C5F0
:10151000570041110D372A8969E9938701F983C57D
:10152000670013040421138A01F999C50345440097
:10153000138601F9EF1080029387013983C5E70014
:101540001389013999C503454400138601F9EF1049
:10155000E0008345F90099C503454400138601F96D
:10156000EF00D07F8345090199C5034544001386E8
:1015700001F9EF00B07E9549034544001306E100F0
:10158000938501F9EF10E0272A8929E903472A000A
:10159000914763E2E7042303E40081498544114A4B
:1015A0008347640063E3970403454400214693F5B1
:1015B000F40FEF10202201CDFD1485091545C2045A
:1015C00093F9F90FEF30E052C180636E3A01850460
:1015D000C204C180F1B72303F400C1B7FD1993F928
:1015E000F90FE39B09F81309E00F4A8541016FE009
:1015F000DFB9EFE25FB683C705004111B3D7A7405B
:10160000858B85C73719002093070921AA85AA84ED
:1016100003C54700700013090921EF10A0152A84A3
:1016200031E98347E100858B81E71304E00F99A03E
:10163000034549004146A685EF10E0162A841DE9BE
:10164000A949034549007000A685EF10A0121DE5C9
:101650008347E10005041374F40F858B81C7E312FF
:1016600034FFE1B7A947E302F4FC8347C1005944C2
:10167000858BC5FF228541016FE03FB12A84DDBF24
:10168000EFE27FAD83C7050041111304E00FB3D72C
:10169000A740858BC1CB3719002093070921AA8564
:1016A000AA8403C54700114613090921EF108012CF
:1016B0002A842DE92945EF30C043AD49034549004F
:1016C0007000A685EF10000B29ED8347E1000504AB
:1016D0001374F40FC18BA9E3E31234FF03454900EF
:1016E0005146A685EF10200C0144AD490345490041
:1016F0007000A685EF1000080DE58347E1000504A2
:101700001374F40FC18B9DC3E31234FF8347C100F0
:10171000858B91C7554531A0A947E311F4FC13050A
:10172000E00F2A84228541016FE03FA6A947E30824
:10173000F4FEE9BFEFE2DFA3B71700202E842E8668
:10174000AA8503C54721EF10E00219E98347140079
:1017500013F7270011E713F547003335A0000505FF
:101760006FE05FA3EFE25F9E9947B307F50237147E
:101770000020130904214111AA892E8B328AA94421
:1017800013040421AD073E99DE8A938501394A8509
:10179000EF00B05011C9FD1493F4F40FFDF41305DC
:1017A000500441016FE0DF9D9944B38499022949B7
:1017B000A29483C5C40003C5B400890593F5F50F51
:1017C000EF00D05F2DE519493389290383C7C40091
:1017D000154589072300FB00EF30A031A944138B86
:1017E00001F922990345B9009306E1001306004070
:1017F000DA85EF00504F21E55286938501F9138574
:10180000013903495B00EFF08FEA9947B389F90288
:10181000A9444E940345B400CA85EF00D05D51D170
:10182000FD1493F4F40FFDF4130590049DBF7D198E
:101830001379F90FE31F09F6130560049DB7FD1432
:1018400093F4F40FC5F0A1BFEFE29F92AA861308AC
:10185000A0102E85B28513062004338806039387D3
:10186000413A41111387413A3386C5024296B297F5
:1018700003C8C70303C617046303080483C7D70359
:10188000A306C1002306F10089471306A010231701
:10189000F10093072004B386C6028548B387F5029A
:1018A0003388D7003A9803460804631E160193064E
:1018B000E1007000EF00106641016FE0BF8D23066C
:1018C000C1008547D9B79305F00F0145E316B6FE71
:1018D00093878703B697034578028356E10070002B
:1018E000B305F700EF00505BC1BFEFE2FF85AA89A7
:1018F000AE84EFF04FF02A8A35E9938701F983C56A
:10190000670091C5138601F92685EF003045A6854D
:101910004E85793C9387013983C5E70013890139E6
:1019200091C5138601F92685EF0050438345F900E0
:1019300091C5138601F92685EF00504283450901C0
:1019400091C5138601F92685EF005041930AA01036
:10195000B38A59031389413A0144930B2004054C7F
:10196000330B590183470B006365F40052856FE028
:101970003F81B3077403D697CA9703C7270063183C
:101980008701A38007042286A6854E85753D050440
:101990001374F40FC1BFEFE2AFFA371A002003450A
:1019A0000A21797113040A21EF00606F0547AA8CA0
:1019B000631BE50A2300A400A3020400EFF0AFD3E9
:1019C000AA8C49ED034714008D46631CD70083455C
:1019D000440003455400113F11E90D472300E40082
:1019E00031A8A546E31BD7FE293EFDB75947D94C80
:1019F0006306E50089472300F400AA8C83460400AF
:101A00000947637AD726034714008D468344540060
:101A1000631AD722130BA010338B6403138C413A43
:101A20009387413A81493EC8938A818D5A9C5ACA0C
:101A3000E28D03C70D0063F0E92413072004338708
:101A4000E902D2470149B306F700C247B6979306A9
:101A5000AB013EC6B387E6003ECE01A25947E30F75
:101A6000E5F80947A5BF59F9834454007D468145EF
:101A700013050A21EFE0CFF21305A010B384A402EE
:101A80001385413A1306A01081452695EFE04FF1EA
:101A9000B5B7B247B38B270183C62B0203C6EB0150
:101AA00063EAC60AB3F6C602F24703C59B00B385D4
:101AB0002701138601F9C247BE952381DB029306F5
:101AC000E102EF005038AA8C631C050C835EE10232
:101AD00083C8018E03C3418D9385418D03CF118E41
:101AE00001450147014E1388018E9386C18C131660
:101AF00007014182636FD60763040E0023806500EF
:101B000019C12300180103C7018E03C6418D9387B5
:101B1000018E3ECC3297938B418D0DCF83C7118EB2
:101B2000138D118E2146D68599C39385C18C0545A9
:101B3000EF206062AA8C19CD83460D006389060EE2
:101B40009386C18C23A0060023A2060023000D006B
:101B500023800B0005091379F90FB24703C78700EB
:101B6000E369E9F259476388EC10850993F9F90FA5
:101B7000C9B5938701F93386E70003460600630A77
:101B80000F003383E6002300C300054E054305071D
:101B9000B9BF3385EA002300C50085480545C5BFA8
:101BA000594D630AA50D9306E002E31ED5F483C5E3
:101BB0009B000345440093E50508EF00502683C6CB
:101BC0001D00238D0B002546850693F6F60FA38096
:101BD000DD00E37AD6F27D46814513050A21EFE068
:101BE0002FDCEFF04FB1AA8C0DED83C59B000345B0
:101BF000440093E50508EF00902285471306A010E6
:101C00008145A3800D0062852300F400A302040037
:101C1000EFE00FD9834544002685C139AA8C0D47D2
:101C200001C5E382ACEF09472300E400E9BDE247C8
:101C3000854623A00A0023A20A002300DD0023809A
:101C4000070009BFA5466318D7029309A010B389FE
:101C50003403138A413A1389413A4E9A03472A02C0
:101C60008346EA01637CD700014A938A818D03474A
:101C70006400636FEA1645616FE04FD03377D70297
:101C800003452400938A01F92301EA02A9290345A7
:101C90003400B52103459A009385A9019306E1021A
:101CA000138601F9CA95EF00101AAA8C55FD03C7D7
:101CB0000A00014C9949A306E102094D8D4AB70B70
:101CC0000050054B83466400E370DCFA930D1C0062
:101CD00013FAFD0F9305D1025285EFF09F91D9477A
:101CE000AA8C6315F504330C3C038346D102B31D63
:101CF000BB0193CDFDFFB3FDDD001306A0108145B0
:101D0000A306B103330784010345C7001307A010DE
:101D10003305E5024A95EFE0AFC813057C0019468C
:101D200081452295EFE0CFC7528C69BF130540066D
:101D3000EF20305C9305D1025285EFF07F94D547B8
:101D4000AA8C6312F508B3073C038546A297A383C8
:101D5000D700A146A385D70023864701B30D3C03D6
:101D6000938501F95285EFF0FF9CA29D2385AD007C
:101D700003C59D008D2E03C5AD0051268347340059
:101D800099C783C71B0093F7B70FA380FB00B30D60
:101D90003C03628513868D0093859D002296A29553
:101DA000EFF05F9CAA8CA29D29E103C78D00631907
:101DB000570183C5BD0003C5CD00053EAA8C2DF596
:101DC000A3835D0195B78346D102B31DBB0193CDBB
:101DD000FDFFB3FDDD00B3063C03A306B103A296ED
:101DE00083C67600E39266F595BFA383AD012DBF50
:101DF0009944B3049A028D46A29403C77400631CED
:101E0000D71683C684006398E61603CCC400130774
:101E1000A010814B330CEC0226C6B307890162C8BF
:101E20003ECAD24703C7070063F7EB141307200429
:101E30003387EB02C2479306AC018149330BF700AD
:101E4000B387E6004A9B3ECC01A2B3063B0103C721
:101E5000260203C6E601636EC70C3377C702B2479A
:101E600003C597002381E602BD2CB24703C5A70036
:101E700079248347340089CB370700508347170004
:101E800093F7B70FA300F700E2479306E102B3858B
:101E90003701B3073B0103C59700138601F9CA95C3
:101EA000EF00607AAA8C61E58144938D01F9B5A0B9
:101EB00003462B008945631EB602637CE602038756
:101EC0002D0003861D009355F7411355F6412D8FC4
:101ED000298E098E0D8F6353C7003287154605453D
:101EE0006357E600394609456353E6000D45EFE0C8
:101EF000DFDF33879D000346070003C7118E25C32C
:101F00001387C18C26972300C7000547238AE18CDD
:101F10009386140093940601C1800357E102E3E91C
:101F2000E4F803C7018E83C6418D9384418D3697B3
:101F300039E73715014005468545130505808509B4
:101F4000EF00103893F9F90F03478B00E3EFE9EE48
:101F500059476381EC02850B93FBFB0FD9B533879F
:101F60009A002300C70005472380E18E55B75947E3
:101F7000E319E5FAD94C050A137AFA0FCDB983C7EC
:101F8000118E938D118E2146D68599C39385C18C70
:101F90000545EF20401CAA8C49DD83C60D0081CE8B
:101FA0009386C18C23A0060023A2060023800D0087
:101FB00023800400BDBF85469387018E23A00A00BD
:101FC00023A20A002380DD00238007009DB7370786
:101FD00000508347070093F7F70B2300F700834770
:101FE000170093F7B70FA300F70083576703C207E3
:101FF000C18393F7F7BFC207C183231BF702828017
:10200000EFE20F97B707002003A78713B74795089C
:102010009387074009456300F702B7E7B805938740
:10202000078005456309F700B777DC02938707C08F
:102030006315F7000145EF00303685450565EF0073
:10204000B0436FE02F95EFE2AF9285473704005021
:10205000631EF50299472300F4002945EF2010265E
:10206000930790F8230004002300F40093078004F2
:10207000A306F400B7170020938707231CCCB717DB
:102080000020938707275CCC6FE0CF90994723000F
:10209000F4002945EF20902223000400F5B737070C
:1020A000005083476700858B9DC385472303F70056
:1020B000834657008147858A81CE854711C9894764
:1020C0006307F500034717008547058B11C3894750
:1020D0003E858280B707005003C557000581134530
:1020E0001500058982803707005083473700137534
:1020F000F50793F70708C98FA301F700828085478A
:102100006317F500EFE2CF86D9356FE0AF88B707E8
:10211000005003C70700136707042380E70003C7C5
:10212000170013674700A380E70003D7670313670F
:102130000740239BE7028280EFE28F832A840145D8
:102140005D377135854763EE870037070050834759
:10215000170093E72700A300F70001EC2D45EF20BF
:102160005019370700508347170093F7D70FA30084
:10217000F7000945EF20F017B707005003C76700C5
:10218000058B01CB03C75700058B01C70547238388
:10219000E7006FE02F803707005083475700858B9B
:1021A00095CFEFD2FFFC83471700858B99E72A84F0
:1021B00015372300A40011E19937B707005003C772
:1021C0001700014513671700A380E70003D76703D3
:1021D00013674700239BE7026FD0DFFB59458280DE
:1021E000EFD29FF6B7070050A38DB702416A2A8B42
:1021F0003289238FB7029359450081443704005038
:10220000894B394CA94AA54C7D1A230C640323033E
:102210007401130D803E83476400898B91EB7D1D13
:10222000420D0545135D0D01EF205009E3150DFE2C
:10223000230C040283476400898B81E71305E00FB8
:1022400041A08347740093F70704D1E383477400E8
:1022500093F7F70F13F5F700630D8507631755051F
:10226000630C0906630649017D19420913590901E6
:10227000FD1493F4F40F5145EF205004834764009C
:10228000858B81CF1305800CEF205003834714000A
:10229000858BB1C785472303F400850493F4F40FBD
:1022A000E39554F71305000221A8638D9901B54702
:1022B0006385F9008547E393F9F855DD1365050259
:1022C0006FD01FEC9D8B0D47E399E7FE6DB701457D
:1022D000C5BF1305E002EDB71305A002D5B75945F8
:1022E000C5B7EFD27FE6AA89B284130540062E89CE
:1022F000EF20C07C99C02390040037040050A14710
:10230000896A231EF40213860A7181451305000DA4
:10231000C13D631D05149147A30DF402371B002036
:10232000230FF40293070B2703D46700130B0B272B
:10233000630D040E630B090E8387070063C5070650
:10234000CE8BC20993D90901370A0050938A0A71CA
:1023500013054006EF208076DE8763733401A28781
:10236000231EFA0281470357CA03639DE710834582
:10237000EA0356864145AD35631A050E8347EA03E5
:1023800093C74700230FFA028357CA031D8C4204E8
:10239000418081C88357CA0303D70400BA972390AA
:1023A000F4005DF459A0371B0020370A0050938ACF
:1023B0000A71130B0B23FD1913054006EF20007063
:1023C0008345BA03568613050009193D45E1834745
:1023D000BA0393C74700A30DFA0203578A00A287E6
:1023E0006376870083578A00C207C1831D8C42042D
:1023F000418091C403D704003E972390E400014735
:1024000093160701C1826395D7063E9983578A00C8
:10241000C207C18399C783578A00B3F7F90091E3D4
:1024200041FCB7070050239E070213054006EF202A
:10243000E068B707005083D7C70313050009C20738
:10244000C18391E341450966130606719145493BF5
:1024500011ED370700508357C703C207C18399C7DF
:1024600083578700C207C18391C35D456FD05FD199
:10247000B306EB0003C60600B306E9000507238098
:10248000C600BDBF834609003307FB008507C207AE
:102490002300D7000509C183F9B5EFD27FCD13849E
:1024A000C184A14718402300F500B7170020938787
:1024B000072798C35840AA844111D8C30345050093
:1024C0001306E1002E89313D01ED83477900035762
:1024D00064002380F4008357E10063F3E7005D4567
:1024E00041016FD03FCBEFD21FC713874184B28920
:1024F000104358433714002093070427411190C319
:10250000D8C336862A8A2E8936C6E13B29E5B246EB
:10251000138741840356670083D506005D4563EC4D
:10252000C502034639008345290093070427220684
:102530004D8EB28563F3C900CE8510435843239076
:10254000B60090C3D8C303D706003686CA85239346
:10255000E7005285793341016FD03FC3EFD2BFBF4F
:102560009387418503AA07003714002083A94700F9
:10257000130404274111B28413E9053023204401D8
:102580001306E100A685AA8A23223401231124011F
:10259000893B15E183C704001306E10023204401B1
:1025A00023223401A68556852317F1002311240127
:1025B0002313F4003D3341016FD03FBDEFD25FBB29
:1025C0001387C1851443B717002058439387072703
:1025D00094C32391B700AE84D8C30146814511331B
:1025E0002A8419E52685EFF01FB01545EF206050CD
:1025F00022856FD03FBAEFD2BFB71387418614430D
:10260000B717002058439387072794C32391B70037
:10261000D8C301468145EFF0DFCC6FD0BFB7EFD212
:102620003FB51387C18314435843B71700209387DE
:102630000727D8C32392B70094C301468145EFF022
:102640005FCA6FD03FB5EFD2BFB22E8483C50500FD
:102650004111328913650509014636C6EFF05FB8AE
:10266000AA84B24615E5B707005003D68700B71510
:10267000002093850523420641822390C6004A85A7
:10268000EF2060588347040093C747002300F400FD
:10269000268541016FD01FB0EFD29FADAA843715B8
:1026A000002041112E8413050527B285368636C6D3
:1026B000EF206055B246B70700500146239ED7026F
:1026C0008345040013E50401EFF09FB119E583474A
:1026D000040093C747002300F40041016FD09FAB73
:1026E000EFD21FA91387C186328810435843B7170A
:1026F000002023A8C72693870727D8C32392B700B3
:1027000003D706003686C2852393E700EFF07FBD2E
:102710006FD05FA8EFD2DFA51387418732881043BF
:102720005843B717002023A8C72693870727D8C385
:102730002392B7003686C285EFF0BFBA6FD09FA54F
:10274000EFD21FA31387C187032807005843B71789
:10275000002023A80727220693870727D18ED8C3F6
:102760002392B7002391D70001468145EFF07FB750
:102770006FD05FA2EFD2DF9F13874189B2861043EB
:102780005843B717002023A8C7269387072741116E
:10279000D8C32392B7001306E100B685EFF07FB4EB
:1027A00041016FD03F9FEFD2BF9C138741881443F4
:1027B0005843B717002023A8D72693870727D8C3E5
:1027C0002391C7002392B70001468145EFF07FB106
:1027D0006FD05F9CEFD2DF991387C18914435843B0
:1027E000B717002023A8D72693870727D8C323919C
:1027F000C7002392B70001468145EFF09FAE6FD02E
:102800007F99EFD25F959387C1889843DC43371453
:1028100000202328E42613040427AA89AE843289E1
:102820005CC0EFF01FAC01ED83C704004A86A685AB
:102830002310F9004E852313F400EFF09FAA6FD008
:10284000DF9401A001A001A001A001A001A001A0AE
:1028500001A001A001A001A001A001A001A001A070
:1028600001A001A001A001A001A001A001A001A060
:1028700001A001A001A001A001A001A001A001A050
:1028800001A001A001A001A001A001A001A001A040
:1028900001A001A001A001A001A001A001A001A030
:1028A00001A001A001A001A001A001A001A097E149
:1028B000FF1F9381A108172100201301A174174560
:1028C00000001305E58F97D5FF1F9385A573138629
:1028D000018B63FAC5008322050023A05500110572
:1028E0009105E3EAC5FE1385018B97F5FF1F9385DC
:1028F00065A06377B500232005001105E36DB5FEE3
:10290000FD42739002BC8D42739042809302800816
:1029100073A0023097D2FFFF9382427293E232009B
:1029200073905230EFE0CFAD97E2FFFF9382022128
:1029300073901234730020305841032805004C4531
:1029400037060140930706403E979346F8FFB1C50E
:1029500083250640F58D2320B640D043F18ED4C3A5
:102960001443B3E6060114C3184190479346F7FF9A
:10297000758E90C7D047F18ED4C7144541466399F0
:10298000C6009447D98E94C7D447558FD8C7828044
:10299000B6979443558F98C382801C43F58F1CC310
:1029A0008280B707014093870740DC4B7D8D33352C
:1029B000A0008280B707014023AAA7408280B70702
:1029C000014023AAA74082809C4513F7070113F812
:1029D000F70001C7D8413368E80037270240145B8D
:1029E0003707000F758F45EF85462381D18E371746
:1029F00001406317E50003D7050035832390E50008
:102A000083D5050013F7F50F39C318418146854E6C
:102A10003D4F930F800293028004214E3396DE00D7
:102A2000B3F8C500631116039398260033131F01F2
:102A30001343F3FF3377E300B318180133E7E800DB
:102A40006397F70750C98506E39AC6FD18C11307B7
:102A5000F00F6375B70454412146854E3D4F930FE7
:102A6000800293028004414EB398CE0033F71501E3
:102A70006392E8021317260001173313EF00134384
:102A8000F3FFB376D3003317E800D98E6395F703CD
:102A9000232A15010506E319C6FD54C182803717A4
:102AA0000140E31FE5F403C7218E39DBA9B7E39C9E
:102AB00057F810C949BFE39F57FC23281501D9BF18
:102AC000B71701406316F50083C7218E91C3B58106
:102AD00019C20CC982804CC9828023A2A18E828037
:102AE0009387418E94430347050089E68347250079
:102AF000920731A8944305466391C6048347250095
:102B00000346150092076314D60093E707F8B7E66B
:102B100000E093F7F70FBA962380F6408546935767
:102B200057003397E6005441ADC6938707048A07E0
:102B3000B7E600E0B69798C382808C4389466393DA
:102B4000D50283461500834725006365D6008A06B3
:102B5000B69779BF9386E6038A06B69793F7F70F81
:102B6000920765B790438D46631ED60083461500D5
:102B7000834725006364D6008606D9BF9386C607BF
:102B80008606E1BF94439147E39AF6F88347150020
:102B900085B79387070661BFB7170240D843B706CA
:102BA00040FFFD16758FD8C3D8435A05598DC8C349
:102BB0008280371702405C439146B18B6385D70012
:102BC000A1466386D706B7177A00938707201CC1F2
:102BD000371602405C423707002013070700918335
:102BE000BD8BBA9783C607001C41B3D7D7005CC121
:102BF0005442A1829D8ABA9683C60600B3D6D700F6
:102C000014C55442AD829D8A369703470700B3D757
:102C1000E7005CC5584239839376370013874180BB
:102C2000369703470700B3D7E7021CC982805C438D
:102C30005843C166C983BD8B758F8907C5466393A9
:102C4000D700C94701EF3747024003270780418B70
:102C500009CF37177A001307072021A8371702403A
:102C600058439316E700E3D606FE37173D001307D7
:102C70000790B387E702A1BF99C5371702405C4BA5
:102C80005D8D48CB8280B7170240D84B1345F5FFC6
:102C9000798DC8CB828099C5371702401C4F5D8D56
:102CA00008CF8280B7170240984F1345F5FF798D02
:102CB00088CF828099C5371702405C4F5D8D48CF21
:102CC0008280B7170240D84F1345F5FF798DC8CFE2
:102CD00082808357050037370140130707C0C207BA
:102CE000C1836304E502370700406300E502130770
:102CF0000740630CE5003717004093060780630622
:102D0000D500130707C06317E50003D7250093F725
:102D1000F7F8D98F03D7650093F7F7CFC207C183C0
:102D2000D98F2310F50083D745002316F50283D7EA
:102D300005002314F502B7370140938707C06316D7
:102D4000F50083C785002318F5028547231AF5008F
:102D500082808357050091C593E717002310F50083
:102D60008280C207C183F99BC207C183C5BF835755
:102D7000C50009C6DD8D2316B500828093C5F5FF19
:102D8000FD8DD5BF835705010355C500ED8F420565
:102D9000418189C76D8D3335A000828001458280D5
:102DA00093C5F5FFC205C1812318B5008280EFD21B
:102DB0002FBC83560501F577FD17F58F83D6650087
:102DC00003D7C5007971D58F2318F5008356C50048
:102DD000FD779387379FF58F83D645002A842EC6CB
:102DE000D58F83D68500D58F83D6A500D58F2316A2
:102DF000F50083574501C207C18393F7F7CFD98FF9
:102E0000231AF50068087533B74701409387078098
:102E1000B245631DF404A2578356C4006547B387C7
:102E2000E702C206C186984163D40604060703562A
:102E3000C4004206B3D7E702130740064186B3D663
:102E4000E702B3F7E7029206635606028E079387FE
:102E50002703B3D7E70213F77700B367D700C2079A
:102E6000C1832314F40045616FD0CFB292576DB780
:102E70000A0775BF920793872703B3D7E702BD8B75
:102E8000D58FF1BF81C98357C5000967D98F231634
:102E9000F50082800357C500F977FD17F98FC5BF8C
:102EA00093F5F51F2312B500828003554500137575
:102EB000F51F8280035505006D8D3335A00082809B
:102EC00013F7F50F85461583B397B6006313D70242
:102ED0000357C500F98F0357050001454207418399
:102EE00081CB0545A181B315B5006D8F3335E00069
:102EF000828089466315D70003570501E1BF035758
:102F00004501C9BFEFD2CFA601E983A7018F0547CD
:102F10002398E7006FD00FA883A7818F9C438297E7
:102F200003A5018F2905FDB7EFD28FA401E983A77F
:102F3000018F05472398E7006FD0CFA583A7818F26
:102F40009C47829703A5018F3105FDB703A7018F29
:102F500009E589472318F7008280EFD26FA12396F5
:102F6000018E834707001384C18E93F7F7079DEB0B
:102F7000034797009377070281C789472300F4002E
:102F8000137707048347040001CF93E7170023005A
:102F9000F40083A7818F9C4B829722856FD08F9FEF
:102FA000F99BF5B785461385C18EE389D7FE89461F
:102FB0000145E395D7FE03475700B7660040938667
:102FC00006C09377F7008A07B69762079C4361872C
:102FD0006359070093F707034147E39CE7FA8547E6
:102FE0007DB70D67F98F0567CDBFEFD2CF9683A46C
:102FF000018F3E8A03D4040139E803C78400914756
:103000006317F7041387818E14438547639CF60288
:10301000B767004083A707C5B73600208906C207F7
:10302000C183B697860723A0070093070003239068
:10303000F19023200700114983A7018F23842701E2
:103040006FD0AF94C1472390F1901D49F5B783D756
:103050004401114963F38700094963F387003E8403
:103060009C4C4204418022858297AA8A0145EF0048
:1030700090602286AA855685EF009042A285014580
:10308000EF00506383D704010D67818F2398F4000C
:1030900083D724013E94930700032390F190239952
:1030A0008400239FE18E49BF83A7018F83C691814E
:1030B00003C73700094563E3E60283C6270099EE9C
:1030C00083D6470081EEEFD2AF8A2385E70083A73E
:1030D000818FDC43829701456FD0CF8B8280EFD206
:1030E0002F8983A7018F03A7418F411183C5370023
:1030F000184F03C55700029783A7018F03C7A70086
:103100001DCB2AC60DE903C7470015E783C7270073
:103110009DE383A7818FDC47829783A7018F324588
:1031200003C75700A385E70003C737002386E700DE
:1031300041016FD02F860945E5BF83A7018F83C664
:10314000070093F6F60791EA03C797001377F7FD98
:10315000A384E70001473A85828009460947E39C3A
:10316000C6FE83D62700E5FA83C64700EDF6EFD208
:103170002F8003C6570037670040130707C0137539
:10318000F6F7131425003A946206144061866357DB
:10319000060493F6060383C581810947637DB50262
:1031A0009DCA83C7A70085CB1C40635C060293F7CA
:1031B00007034147639CE7001374F50F2285EF0076
:1031C0007044930500032285EF00F03483A7818FBC
:1031D000DC4B829701473A856FC0DFFB0D67F98EA4
:1031E0005DBFC164FD140D67E58FF98F0567E39F2F
:1031F000E7FC1DEDB707002083C5C708EF00704D41
:103200001C4071771307F7F8F98FC2070D67C18368
:10321000B98F617713070708D98FC207C1831CC014
:103220008D661840658F758FE302D7FA1CC0D5BF35
:10323000EF00103A1C4071771307F7F8F98FC207B7
:103240000D67C183B98F617713070708D98FC2074C
:10325000C1831CC08D661840658F758FE308D7F653
:103260001CC0D5BF03A6018FB7670040938707C076
:103270008346560093F5F6F713972500BA97E206B2
:103280009843E18663D106061377070303C881815B
:10329000094563F9050983552600C9E541C7034778
:1032A000A60049C3EFC2DFEC984363D30604E5767A
:1032B0009386F6FB758F42074183E176134707013A
:1032C00093860608558F4207418398C3414694432D
:1032D00093F60603639CC60083A7818F9C4F829759
:1032E00001456FC03FEB0D65698F4DB798C3C5B7FA
:1032F000F1769386F6F8758F420785664183358FA0
:10330000E17693860608558F42074183416698C34C
:103310007D160D6585659443F18EE98EE38EB6FAD0
:1033200098C3D5BF8280EFC2BFE403A7018F834754
:10333000970093E70702A304F70083A7818FDC4F70
:10334000829701456FC01FE503A7018F83572701AF
:1033500001E903D545001D8D2318A7000145828092
:1033600088413E958280EFC2BFE0B707002083C549
:10337000C7080145EF00F03583A7018F03C587001B
:10338000A1476318F5000567239FE18E414723900D
:10339000E1905D15133515006FC0DFDFEFC25FDD13
:1033A00003A9018F37660040832706C5834689003D
:1033B00025474111638BE60441641307F4FFB736D8
:1033C0000020F98F9106B69786078043798C060412
:1033D0003294834704002300F90083471400A300BC
:1033E000F90003554400EF0050332311A9000355A1
:1033F000840003A9018FEF0050322312A900035764
:10340000C40083A7018F2393E70083A7018F05479B
:103410002384E70003D7670003C417006319070E6E
:1034200003C707001377F7075DEF25476316E4002E
:10343000EFF09FC735E515A81547631BE404038724
:103440003700635B0700A14703A7018F2304F70040
:10345000193F41016FC01FD403C727006DF703D781
:10346000470075F383C7A700F9FFB767004083A73C
:1034700007C5373700200907C207C183BA978607F7
:1034800023A00700130700032390E19099476DBF25
:103490000D476318E40283C637000547638DE600D5
:1034A00083A7418F2285DC4B82970D47A547E30D0B
:1034B000E5F845DD49BF83D74700FDF3EFF0BFE6F0
:1034C00095BF0547E31EE4FC03C73700E31A87FCFA
:1034D00003D7470071F783C7970093F70702E9D333
:1034E000EFF0BFC581BF85476318F700AD47E3190B
:1034F000F4FAEFF0DFBE3DBF8946E313D7FAE301EC
:10350000F4FE8D47E31EF4F8EFF0DFD525B7194739
:10351000631BE40203C707001377F7077DE383C744
:103520002700854603A7418F6395D7005C4FF1CBF9
:10353000A1A089466394D7001C53D5BF8D466392E2
:10354000D70C5C53EDB775E003D727005DEBD8438C
:10355000C1769386F60F758FB70602006313D70AFC
:1035600003C707001377F7071DEF83D74700D1EB99
:10357000B73700009387C7F403A7018F01452319CC
:1035800007001CCF8297014583A7018FC166FD16F6
:1035900003D707016304D70889466304D50063187D
:1035A000070E2147ADA885466310D70203A7418FB8
:1035B00003C557008145184F029721E583A7018F66
:1035C00083C7A700D5F735A88946631CD70203C770
:1035D0005700B7660040938606C01376F70093172E
:1035E0002600B6979C4393168701E18663DC0602AA
:1035F00093F7070383C681816375D60013770707A6
:1036000071D303A7018F83A7418F034517009C4BFC
:1036100082978D47E31AF5F683A7018F2547238408
:10362000E7003DB58D66F58FF1B72147631CE400D7
:1036300083C7070093F7F707E9F7B73700009387C9
:1036400047F01DBF2947E31EE4FA03C7070085467C
:103650001377F707E317D7FA03C7A7005DD303D79C
:10366000270045F3D843C1769386F60F758FC16660
:10367000E319D7F803A7418F03C557008145184FB9
:10368000029741F1B7370000938787F2F5B583863B
:10369000070063D5060483A6418F83D5670003C660
:1036A000C6022EC6324593160601C182637AE50032
:1036B00032472398E700239AD700EFF01F9349BBC6
:1036C000E37BB7FE6375D70023A4018EEDB73367A4
:1036D000C70275F3054623A4C18EF1BF0D472384AD
:1036E000E7000D67239FE18EA5B3EFC2DFA603A419
:1036F000018FA144834784001387E7FF1377D70F17
:103700003DCF1387D7FF1377D70F55EB1C4C95CFC1
:1037100083540401A1C80357440163739700BA841A
:10372000C204C1802685829783570401AA89014576
:10373000858F2318F40083572401A6972319F400DA
:10374000912FAA8526864E8541238357040199CB64
:103750000D6781450145239FE18EA92F13070003C3
:103760002390E190835704018356440103A7018FFE
:1037700063EFD7008D472304F7008344870083A7B6
:10378000018F23849700EFF01FBE6FC01FA099C365
:103790009547D5B799472304F700B767004083A73B
:1037A00007C5B73600208906C207C183B6978607CA
:1037B00023A00700930600032390D1907DBF1D47EF
:1037C000A144E39EE7FA83A7418FDC47829745BF78
:1037D00003C3818137660040C1650568A168014760
:1037E000130606C0FD151308F8F0938808086369EE
:1037F000670013650508B767004023A6A7C4828049
:1038000093162700B2969C42ED8FB3F70701D98F2C
:10381000B3E717019CC20507D9BFEFC27F9583A705
:10382000018F83C687001387E6FF1377D70F19EF41
:10383000EFF0AFFB83A7018F03C7870083A7018F3A
:103840002384E700EFF03FB26FC0DF9419462147B1
:10385000E396C6FE83C617001547639EE60003C7BE
:1038600007001377F70701EB03C53700953783A7E8
:10387000818F9C53829783A7418F9C4782972147D2
:1038800075BF8280EFC2DF8EB71700209387072BAA
:1038900023A8F18E09472384E70037070020930609
:1038A000070623AAD18EB70700209387070B23AC06
:1038B000F18E8327070682976FC0DF8DEFC2DF8806
:1038C0004111370A0020B70A0020E17923170100CF
:1038D000130A8A02938A4A0493890908B76500404B
:1038E00083A745C41397070141832398E190139759
:1038F00007016350071883D701913A84BD8B238752
:10390000F18E938605C06399073203A705C093879C
:10391000E18F420741832390E70003D70700938696
:103920000190137707032390E60003D707008D6605
:103930002166758F2390E70003A705C0A5679387CD
:10394000F7FB7D8F83A705C0B1669386F6F8F58FE8
:103950008966B58F134707029316070113060608F9
:103960005D8F518FC18223A0E5C033E73601420746
:103970009384E18F1389019037660040930500021C
:103980004183832606C093F606036397B60EB3E71A
:103990003701C166C20737660040FD160D658965AF
:1039A000C183032706C0130406C0758F698F63188F
:1039B000B70C83D70191C18BE1EF1C40A569138738
:1039C000F9F0F98F1CC0EFF05FE518401440B167C3
:1039D0009387F7F8F58F83D604009389F9FB337743
:1039E000370113963601635406008566B58F83D67A
:1039F000040013962601635406008966B58F83562A
:103A00000900C18A99C2134707018356090093F63A
:103A1000060299C21347070221669316070113068F
:103A200006085D8F518F376600402320E6C061771E
:103A3000C18213070708558F42074183832606C0BA
:103A40008355090093F60603639EB6026177130758
:103A50000708D98FC166C20737660040FD160D659D
:103A6000C183032706C083D50400758F698F631E49
:103A7000B70041016FC0CFF02320E6C019B7232063
:103A8000F6C005B72320E6C055BF2320F6C0D1BF3E
:103A90001C40856BC207C1832317F1008357E100E7
:103AA000139747016353070C1C401387FBF8F98FEA
:103AB0001CC0EFF0BF8E1840A5679387F7FB14403A
:103AC0007D8FB1679387F7F8F58F83D6040013963F
:103AD000360163540600B3C7770183D604001396FA
:103AE0002601635406008966B58F83560900C18A92
:103AF00099C2134707018356090093F6060299C23B
:103B000013470702216693160701130606085D8F07
:103B1000518F376600402320E6C06177C1821307CA
:103B20000708558F42074183832606C08355090045
:103B300093F606036398B602617713070708D98FD7
:103B4000C166C20737660040FD160D65C1830327B5
:103B500006C083D50400758F698FE30CB7F023206E
:103B6000F6C0F5B72320E6C0C1B78357E100C2070E
:103B7000C187E3D507D61C401387FBF8F98F1CC01B
:103B8000EFF0BFB61840A5679387F7FB14407D8F11
:103B9000B1679387F7F8F58F83D604001396360143
:103BA00063540600B3C7770183D604001396260139
:103BB000635406008966B58F83560900C18A99C28D
:103BC000134707018356090093F6060299C213476B
:103BD0000702216693160701130606085D8F518FB1
:103BE000376600402320E6C06177C18213070708CB
:103BF000558F42074183832606C08355090093F6FB
:103C000006036398B602617713070708D98FC16668
:103C1000C20737660040FD160D65C183032706C045
:103C200083D50400758F698FE305B7E42320F6C0C0
:103C3000F5B72320E6C0C1B7139727003697144382
:103C4000C206C1822317D1008356E100C206C18695
:103C500063DD0600FD1714438A070566D697130631
:103C6000F6F89C43F18E14C382978357E10093F7D3
:103C70000708E38507C683C7E18EB76600409386D1
:103C800006C0139727003697FD1714438A07D2976B
:103C900025661306F6F09C43F18E14C382973DB956
:103CA000B73700200506BE950586860511E282809D
:103CB00083471500034705009105A207D98F239E6E
:103CC000F5FE09057D16DDB7B73700200506BE9560
:103CD0000586860511E282809C4109057D16231F19
:103CE000F5FE9105C5BF619942054181B767004066
:103CF00023A8A7C48280B7670040938707C00A053E
:103D00003E951C4165771307F798F98FDD8DC20545
:103D1000C1810CC18280B7670040938707C00A0544
:103D20003E951C4165771307F7FBF98FC20713F720
:103D30000501C18319C393C7070113F7050219C30E
:103D400093C70702617713070708D98FC207C1839A
:103D50001CC1184113770703E31CB7FE8280B767C5
:103D60000040938707C00A053E951C4171771307F1
:103D7000F7F8F98FC2070D67C183B98F6177130711
:103D80000708D98FC207C183C1661CC1FD160D6625
:103D90001841758F718F6313C70082801CC1CDBF1E
:103DA000B7670040938707C00A053E951C41056729
:103DB0001307F7E0F98F617713070708D98FC20758
:103DC000C1831CC18280EFC2AFBAD93F6FC08FBC24
:103DD000B7670040938707C00A053E951441C16745
:103DE0001387F7FF9397160163DD07001C41F98FD6
:103DF00005671307F7F0F98F316713070708D98FA5
:103E00001CC18280B7670040938707C00A053E95B2
:103E10001C4193F7070491CF1C4141677D17F98F2F
:103E200005671307F7F0F98F21671307070CD98F80
:103E30001CC18280B767004083A707C50E05858136
:103E4000C207C1833E95B73700203E95060586051B
:103E50000CC18280B767004083A707C50E05858126
:103E6000C207C1833E95B737002091073E950605EE
:103E700086050CC18280B767004083A707C50E0581
:103E8000C207C1833E95B73700203E95060503550E
:103E900005008280B767004083A707C50E05C207EB
:103EA000C1833E95B737002091073E95060503551F
:103EB00005008280B767004083A707C50E05C207CB
:103EC000C1833E95B737002089073E9506050CC192
:103ED0008280B767004083A707C50E05C207C1836C
:103EE0003E95B737002099073E959307E0030605F6
:103EF00063FEB70093D75500FD8981E5FD17C20722
:103F0000C183AA072167D98F1CC1828093D715006E
:103F1000858991C18507AA07C5BF93578500137589
:103F2000F50F22055D8D828037670040F1772322EF
:103F300007C4938707F0239EF18EB167938707F03C
:103F40002320F7C401458280EFC28FA2328493748C
:103F5000F507268542042E894180EFF0DFF12286A5
:103F6000AA854A85EFF0DFD32685A285EFF09FF47E
:103F700001456FC02FA2192073002030EFC24F9F60
:103F800037050400EFE0BFA36FC0CFA01920730076
:103F90002030EFC2EF9D05246FC0CF9FEFC24F9D31
:103FA000B707002003A78713B747950893870740F3
:103FB00009456300F702B7E7B80593870780054511
:103FC0006309F700B777DC02938707C06315F70032
:103FD0000145EFE07FBC854537058000EFE09FCDD0
:103FE0006FC04F9BEFC2CF98376500001305C50225
:103FF000EF00705E03C7A19113672700238DE19046
:1040000083C7A1910D476314F700EF0010220D47FD
:1040100023A2E1926FC00F98EFC28F953765000021
:1040200013058504EF00305B83C7A19193F7D70F89
:10403000238DF190B717002003C7A72B11C7154791
:1040400023A2E1926FC00F950547DDBFEFC24F92EB
:10405000011137050400EFE09F96B70704000544FF
:104060003EC80808C1473ECC22CE02CAEFE0DF8C32
:104070009307401228002314F10022C623050100F3
:10408000EFE01FA69307A00328002314F100EFE040
:104090003FA505616FC00F90EFC28F8DAA842E845B
:1040A00011458545EFE03FBFB1CCB766004083A71F
:1040B00006C441677517F98F23A0F6C4B7170140EE
:1040C00003A74780B716F0FFFD16758F23A2E78080
:1040D00003A7C780F9769386F67F758F23A6E780BE
:1040E00003A74780B7460400558F23A2E7803747D0
:1040F00002408327078021C893E727002320F78009
:104100006FC04F8937670040832707C4B716F0FF99
:10411000FD1693E72700C207C1832320F7C4B71712
:10412000014003A74780758F23A2E78003A7C780BC
:10413000F9769386F67F758F23A6E78003A74780DD
:10414000B736030055B7F59B55BF23810190828098
:10415000A38101908280EFC2AF8105492A84631652
:1041600025039384219083C7040089EF1305100869
:10417000EFF09FDD93050003054523808400EFF0F9
:104180009FB9014422856FC0EF8089476313F50210
:104190009384319003C4040009EC13052008EFF068
:1041A000BFDA93050003094523802401EFF0BFB671
:1041B000D1BF0544C1BFEFB2BFFB37680040032742
:1041C00008C5C1651385F5FF83D64190B737002038
:1041D000698F13866700329706071843938505C0D9
:1041E0000111F98D638CD500832708C593F606C0AD
:1041F000E98FB29786079843D98E94C3B76600407B
:1042000083A746C413870191C207C1832310F70017
:104210000357070083D7C18F138401917D8F1377D4
:10422000072019CF41671307F7DF23A2E6C493865F
:10423000619003C7060005071377F70F2380E60098
:1042400003570400F98FC207C18763D40700EFF05A
:10425000EFE68357040003D7C18FF98F93F7074028
:1042600089CFC1679387F7BF376700402322F7C420
:10427000B707002083A7470682970357040083D718
:10428000C18F7D8F9316270163D806003967B76603
:1042900000407D1723A2E6C403570400F98F13974B
:1042A0003701635A0700BD6737670040FD172322B7
:1042B000F7C40145B52D03D7C18F83570400F98F8B
:1042C00013974701635E070083A7C18263800710CD
:1042D0009D2BBD67376700409387F77F2322F7C484
:1042E0008357040003D7C18FF98F93F70710E1CFED
:1042F000C167376700409386F7EF2322D7C40326B0
:1043000087C4938681909315060163DA050A90426B
:10431000050690C28C420D466375B60A032607C493
:10432000FD17218A59EE032607C49385C1907D8E1F
:104330003765004090C11387C1900146130305C043
:10434000A148931526003388650003280800001053
:10435000A2953378F80023A005FF0506E31316FFA6
:1043600010431366160010C310437D8E2320C5C46E
:104370001043799A10C31843F98F2320F5C4376787
:104380000040832747C493F70740E5DFC167938761
:10439000F7BF37650040C1652322F7C4130505C088
:1043A0008147FD1521481397270010103A960326E0
:1043B00006FE2A9785076D8E10C3E39607FF23A09C
:1043C00006001D45B52305616FB0DFDC09458D236F
:1043D00009B7B717002083C7A72B81C7154723A2AA
:1043E000E1928280114723A2E19282809387A1917A
:1043F00003C70700136717002380E70082809387B5
:10440000A19103C707001377E70F2380E70082809D
:10441000828091E5854733B5A7000605828009456E
:10442000828083A7018F054783C6070093F6F607AE
:104430006390E60403C72700930620026305D702B2
:104440009306100209456316D70837470000130783
:10445000477FEFB2FFD12399070098CF014502971C
:1044600001456FB03FD3374700001307E77CD5B74E
:10447000130610020145639EC60483C61700638AB3
:10448000E6040946639AC6002398E7003747000010
:104490001307E75398CF82800D466399C60023988F
:1044A000E7003747000013076755EDB7A545639050
:1044B000B60283D66700636CD70037470000130746
:1044C00087522398D70098CF2384C700828009455C
:1044D0008280828003A7018F9306100201458347E3
:1044E000070093F7F7076390D7048347170029461F
:1044F00083465700639DC700894763E5D70203479A
:10450000270093874191B6972380E70082802D464C
:10451000639AC700894763E7D7000347370093874B
:104520008191D5B70945828083A7018F014503C7D3
:104530005700854763E4E7001385C192828083A713
:10454000018F0947014583C757006365F70013854D
:1045500041913E95828083A7018F0947014583C71A
:1045600057006365F700138581913E958280EFB215
:104570003FC083A7018F238507004D24B767004004
:10458000856637660040938707C09386F6F09305EB
:1045900006C298439107758F23AEE7FEE39BB7FEF3
:1045A0009307F00F2322F6C4EFF01F9881450145D1
:1045B00023A20192EFF05FAE5145252B85450545BD
:1045C000EFF09FAD6FB01FBDEFB29FBA1967034701
:1045D000B70683A7018F0145A384E7002395070051
:1045E000EFF06FF0930500200145EFF0CFF0C145EB
:1045F0000145EFF04FF2930500040145EFF09F8570
:10460000930500080145EFF0FF820145EFF0AFFB95
:10461000B707002083C5C7080145EFF09F8B014510
:10462000EFF0EFF337670040032607C0C1679386BA
:10463000F7FF9317160163DF0700832707C0F58F85
:1046400085669386F6F0F58FB16693860608D58F5A
:104650002320F7C037670040832707C093F707047C
:1046600085C3832707C0C166FD16F58F85669386CF
:10467000F6F0F58FA1669386060CD58F2320F7C040
:10468000930500600545EFF00FE79305000C054525
:10469000EFF04FFA930500020545EFF0CFE73767DB
:1046A0000040832747C093F7070485C3832747C08B
:1046B000C166FD16F58F85669386F6F0F58FA166C7
:1046C0009386060CD58F2322F7C037670040032658
:1046D00047C0C1679386F7FF9317160163DF070092
:1046E000832747C0F58F85669386F6F0F58FB16610
:1046F00093860608D58F2322F7C0930500600945ED
:10470000EFF06FDF9305000D0945EFF0AFF2930571
:1047100000020945EFF02FE037670040832787C08C
:1047200093F7070485C3832787C0C166FD16F58FFD
:1047300085669386F6F0F58FA1669386060CD58F75
:104740002324F7C037670040032687C0C1679386DC
:10475000F7FF9317160163DF0700832787C0F58FE4
:1047600085669386F6F0F58FB16693860608D58F39
:104770002324F7C00145EFF0AF85054723A2E1925E
:104780006FB05FA1EFB2DF9E93850181EFE0DFBBE9
:104790006FB05FA0EFB2DF9D93858180EFE0DFBA5D
:1047A0006FB05F9F83A7018F83C53700914763EE8A
:1047B000B700EFB2FF9BB7070020938707098E056C
:1047C000BE95EFE07FB86FB0FF9C0145828083A764
:1047D000018F83C55700894763ECB700EFB25F993B
:1047E000938741828E05BE95EFE01FB66FB09F9A0A
:1047F0000145828083A7018F83C55700894763ECF9
:10480000B700EFB2FF969387C1818E05BE95EFE0AA
:10481000BFB36FB03F98014582808280B767004088
:10482000054723A0E7C423A007C4096723A207C440
:10483000130707C0239EE18E0967130707C023A053
:10484000E7C401458280EFB2BF92B767004083A7FB
:1048500007C4376700404168C207B7150020C1830D
:104860008146130307C07D189385C52CA148139674
:1048700026003305660008412E968506337505012E
:1048800008C2E39616FF93E607402320D7C493E6B9
:104890001740F99BC207C1832320D7C493E6074082
:1048A0002320D7C4B766004003A746C41377074048
:1048B00065DF41671307F7BF23A2E6C44168376786
:1048C00000408146130307C07D18A14813962600B7
:1048D0003385C50008411A9685063375050108C25F
:1048E000E39616FF93E787402320F7C4832707C486
:1048F000C207C18393E747002320F7C4EFF08FEE90
:104900006FB05F89EFB2DF8637640040832704C44D
:10491000C207C183ED9BC207C1832320F4C4EFF01B
:10492000AFEFB167938707F02320F4C46FB09F8681
:10493000EFB21F849D471384C1916303F50008C043
:104940001C401547636EF70019678A071307871025
:10495000BA979C43828783A7819289E7EFF09FFAF9
:10496000994711A095471CC001A8EFF0BFF99147E6
:104970001CC0054723A4E1926FB0DF818947230261
:10498000F4008D47CDB783474400FD1793F7F70F29
:104990002302F4008347440093F7F70FF1FF914798
:1049A000D9B737670040832707C4C207C18393E79D
:1049B00007012320F7C495471CC0A9472302F40030
:1049C00065BF83474400FD1793F7F70F2302F400F8
:1049D0008347440093F7F70FC5F3376700408327F9
:1049E00007C4C207C183BD9BC207C1832320F7C48C
:1049F00099471CC023A4019241B7192073002030AD
:104A0000EFB20FF7374400409305505213050440AE
:104A1000EFE00FCB09C913050440EFE00FC9137590
:104A2000F50FA386A1926FB0EFF6EFB26FF43D657C
:104A3000EFD05FF81305000FEFD0DFF7B7F700E016
:104A400083A607D103A707D193F60602136787024F
:104A500023A8E7D003A707D11377F7FD558F23A825
:104A6000E7D073005010730050103D65EFD07FF316
:104A700009C93D65EFD01FF40545EFF07FEB6FB03E
:104A80006FF11305000FEFD0DFF175D91305000F9B
:104A9000D5B7B707002083A7871337177A00130706
:104AA0000720B3D7E70293F7F70F2388F192130794
:104AB000803EB387E7022397F1928280B7F700E048
:104AC000D8438146799BD8C303C701933306A70215
:104AD00090CBD4CB98431367070198C398431367CF
:104AE000170298C3D843058B75DF9843799B98C309
:104AF0008280B7F700E0D8438146799BD8C303D7BB
:104B0000E1923306A70290CBD4CB984313670701F9
:104B100098C398431367170298C3D843058B75DF72
:104B20009843799B98C38280EFB28FE42A84116501
:104B3000011185451105EFE00F9693070020231220
:104B4000F100371501408D473EC44C00E147130585
:104B500005803EC6EFD05FE722C837440140B70763
:104B600008000C08130504803ECC02CA231E010075
:104B7000EFE0EFA3854513050480EFE0AFB00561DA
:104B80006FB04FE1EFB22FDDB7440140AE893289FB
:104B9000014493840480634524014A856FB0EFDEAD
:104BA000930500042685EFE0EFB07DD9B387890037
:104BB0008385070026850504C205C181EFE04FAE5D
:104BC000D9BF138701831C43B71600209386062F95
:104BD0003E95636BD500B75600209386068063E54B
:104BE000A60008C33E858280FD57EDBF93F5F50F03
:104BF0002A966314C5000145828083470500E38D32
:104C0000B7FE0505FDB7B3C7A5008D8B3307C500FB
:104C100081E78D4763EEC700AA876370E50A83C604
:104C2000050085078505A38FD7FEE3EAE7FE8280AE
:104C300093763500AA8791CA83C605008507850546
:104C4000A38FD7FE93F63700FDB79376C7FF138681
:104C500006FE63F0C70683A3050083A2450083AF69
:104C6000850003AFC50083AE050103AE450103A374
:104C7000850183A8C5019385450223A0770003A879
:104C8000C5FF23A2570023A4F70123A6E70123A809
:104C9000D70123AAC70123AC670023AE170193876E
:104CA000470223AE07FF75B790419107910523AEE8
:104CB000C7FEE3EBD7FEE3E4E7F6828039713EDA24
:104CC0002ED232D436D63AD842DC46DE93874183A0
:104CD00022CC804326CA06CEAA8409C41C4C99E380
:104CE000228525230C4454102686228536C6EF00E3
:104CF0009017F2406244D24421618280011126CA99
:104D00004AC806CE22CC4EC652C4AA842E8901C5FA
:104D10001C4D91E3DD299C4C804499E32685F521C7
:104D20009717000093870742631CF402C040835723
:104D3000C400A18BB1C71C48A1C7FD59294A1C4416
:104D400083450900FD17B1E91CC463DE070622860E
:104D5000A94526857920FD576308F502294535A028
:104D600097170000938707406314F4008044C1B78D
:104D7000971700009387073BE31BF4FAC04445BF35
:104D8000A2852685392A55D97D55F2406244D24400
:104D90004249B249224A056182801CC4050963D791
:104DA0000700184C63CBE700638945011C4013875B
:104DB000170018C02380B70059B722862685152012
:104DC000E31F35F7D1B71C401387170018C02947D8
:104DD0002380E70061B793874183AA8588436FF0FA
:104DE000FFF1011122CC26CA4AC806CE4EC6AA84BB
:104DF0002E89328401C51C4D91E3012997170000CB
:104E0000938747346319F406C0401C4C1CC4835775
:104E1000C400A18BC9C31C48BDCF1C48084093796E
:104E2000F90F1379F90F1D8D5C486346F500A285D3
:104E30002685652C2DE51C440505FD171CC41C406A
:104E40001387170018C0238037015C486389A700C7
:104E50008357C400858B81CBA9476316F900A285CF
:104E6000268561240DEDF24062444A85D2444249D0
:104E7000B24905618280971700009387A72E6314BB
:104E8000F400804459B7971700009387A729E31EC1
:104E9000F4F6C0449DBFA285268521203DDD7D59C5
:104EA000D9B741119387418326C2844322C44AC0A3
:104EB00006C62A892E8489C49C4C99E32685B1268E
:104EC0009717000093870728631CF402C04003175C
:104ED000C40093170701C18393F68700B5EE93F6DC
:104EE00007019DEEA5472320F90013670704231649
:104EF000E4007D55B240224492440249410182803F
:104F000097170000938707266314F4008044C1B705
:104F10009717000093870721E31BF4FAC04445BFAD
:104F2000918B8DC74C5889C9930744046384F5005D
:104F30004A85A923232A04028357C400232204009C
:104F400093F7B7FD2316F4001C481CC08357C40018
:104F500093E787002316F4001C4881EF8357C400B1
:104F60001307002093F707286385E700A2854A8589
:104F7000B5218357C40013F7170005C75C482324E5
:104F80000400B307F0401CCC1C480145A5F783176B
:104F9000C40013F7070839DF93E707042316F4006A
:104FA00089BF898B014791E3584818C4F1BF83D763
:104FB000C500011122CC26CA06CE4AC84EC613F738
:104FC0008700AA842E8471EFD841634DE000B84178
:104FD000634AE0000145F2406244D2444249B2498A
:104FE0000561828058547DD703A904009396370148
:104FF00023A0040063DD060670488357C400918B2C
:1050000099C75C401D8E5C5899C33C401D8E5C5412
:105010000C50814626858297FD570357C400631DB7
:10502000F5009440F54763E8D706B70740208507A9
:10503000B3D7D700858BA5C31C48232204001CC00E
:105040009317370163D80700FD576314F5009C40A0
:1050500091E368C84C5823A02401ADDD93074404B4
:105060006384F50026851929232A0402A5B70C506C
:105070000146854626850297FD572A86E31FF5F6E9
:105080009C40A5DF75476385E70059476394E704B3
:1050900023A0240181B7136707042316E4007D557C
:1050A0001DBF83A90501E38709F203A905008D8BC4
:1050B00023A0350133093941014791E3D84918C488
:1050C000E35A20F11C540C50CA864E8626858297DE
:1050D0006349A0008357C40093E707042316F40034
:1050E0007DBFAA993309A940E1BF9C49A5C301111D
:1050F00022CC06CE2A8411C51C4D81E72EC6312252
:10510000B245971700009387E703639CF5004C4076
:105110008397C5009DC722856244F24005616FF008
:105120001FE9971700009387E7036394F5000C4489
:10513000C5B7971700009387E7FEE39BF5FC4C4447
:10514000C1BFF24062440145056182800145828011
:10515000411122C406C62A842316B5002317C500B0
:105160002320050023220500232405002322050611
:1051700023280500232A0500232C0500214681450C
:105180001305C505EFB0CF81971700009387A7B629
:105190005CD097170000938707B91CD497170000BD
:1051A000938747BD5CD497170000938707C000D052
:1051B0001CD8B240224441018280970500009385AB
:1051C00005F391AA411126C2130680069384F5FFC8
:1051D000B384C4024AC02E8922C406C693854407FC
:1051E00091262A8401CD23200500232225013105A3
:1051F00008C4138684068145EFA09FFA2285B24039
:10520000224492440249410182801C4DA5E741118C
:1052100006C622C497070000938767FA1CD59387B8
:10522000818A9C432324050423260504232805049E
:105230006314F50085471CCD2A84352848C0228593
:105240001D2808C42285052848C4484001469145C8
:10525000EFF01FF008440546A545EFF07FEF484406
:105260000946C945EFF0DFEE85471CCCB240224429
:1052700041018280828041119387818A26C28443C2
:105280004AC006C69C4C22C42A8981E72685EFF0D5
:10529000DFF7938484048044DC40FD1763D6070065
:1052A0009C40B9CF8440C5BF0317C40039E7C1771C
:1052B000850723220406232004002322040023243C
:1052C00004005CC423280400232A0400232C0400C7
:1052D000214681451305C405EFA09FEC232A040253
:1052E000232C040223240404232604042285B24030
:1052F000224492440249410182801304840671BF12
:1053000091454A85EFF01FEC88C049FDB147232045
:10531000F9000144E1BF797122D44AD052CC56CA77
:105320005AC85EC606D626D24ECE2A8AAE8A130444
:1053300085040149054BFD5B09ECB25022544A85B6
:1053400092540259F249624AD24A424BB24B4561E9
:105350008280044483294400FD1963D4090000407D
:10536000E1BF83D7C400637BFB008397E4006387BE
:105370007701A6855285829A3369A90093848406B1
:10538000E1BF1971A6DAAE848395E500A2DC86DE62
:10539000328463DC050083D7C40023A0060093F7A2
:1053A000070885E7930700401DA0300836C6EF00C8
:1053B0005026B246E34105FE7247BD67F98F797703
:1053C000BA9793B717009CC2F1BF930700041CC0A3
:1053D000F6506654D65401450961828083D7C500D2
:1053E000011122CC06CE26CA4AC8898B2E8489CFC9
:1053F000930774041CC01CC885475CC8F240624413
:10540000D24442490561828074003000AA84EFF0E2
:105410005FF7A2452A892685312201ED8317C40052
:1054200013F7072061FFF19B93E727002316F40091
:10543000C1B797070000938787D89CD48357C400CF
:1054400008C008C893E707082316F400A2475CC801
:10545000B24791CF8315E4002685EF00B01E01C945
:105460008357C400F19B93E717002316F40083577A
:10547000C4003369F9002316240149B7DDC183A7AD
:10548000C5FF411122C406C626C21384C5FF63D3DB
:1054900007003E94AA84EF003021938741939C43F8
:1054A00081EF2322040023AA81922244B240268560
:1054B000924441016F00701F637EF4001440330773
:1054C000D4006396E7009843DC43369718C05CC06D
:1054D000D9BFBA87D84319C3E37DE4FE944333862A
:1054E000D700631F86001040B29694C33386D7005E
:1054F000E31DC7FA10435843B29694C3D8C375B797
:105500006375C400B1479CC04DB71040B306C400DA
:105510006316D70014435843B29614C058C0C0C392
:1055200069B78280011126CA93843500F19806CEAE
:1055300022CC4AC84EC6A104B14763F3F404B14477
:1055400063E2B4042A89EF003016938741939843AD
:105550003A8439E0938781939C4391E781454A855A
:10556000852723ACA192A6854A85992FFD596319F9
:105570003507B1472320F9004A85EF00101329A011
:10558000E3D004FCB1471CC10145F2406244D2445F
:105590004249B249056182801C40858F63CF070272
:1055A000AD4663F6F6001CC03E9404C031A05C40DA
:1055B0006313870223AAF1924A85EF00100F1305A7
:1055C000B4009307440061993307F5405DDF3A94D6
:1055D000898F1CC05DBF5CC3C5B72287404095BFA3
:1055E000130435007198E30285FCB305A4404A8595
:1055F000C12DE31C35FBB5BF1C46FD171CC663DA85
:105600000700184E63C5E700A9476394F5006FF0E3
:105610004FFD1C422E851387170018C22380B70048
:105620008280011122CC26CA4AC84EC652C406CE78
:105630002A89AE893284B304D6007D5A631494005B
:10564000014511A8834504004E864A85EFF0DFFA34
:105650000504E31545FFF2406244D2444249B24991
:10566000224A05618280357122CD26CB4AC94EC7B8
:1056700006CF52C556C35AC1DEDEE2DCE6DAAA899D
:10568000AE843289368409C51C4D99E3EFF0FFB72B
:1056900097170000938707AB639DF40C83A4490020
:1056A00083D7C400A18BE5CB9C48F5C793070002C4
:1056B000A304F1029307000302D22305F10222C6DC
:1056C000930B5002971A0000938ACAAB054C294BE2
:1056D0004A848347040099C36392770FB30C244133
:1056E000638E0C00E6864A86A6854E85EFF07FF332
:1056F000FD576309F51E9256E69636D2834704009D
:105700006382071EFD571309140002C802CE3ECA69
:1057100002CCA309010482D48345090015465685AD
:10572000EFF0CFCC13041900C24759E913F7070172
:1057300009C713070002A309E10413F7870009C78B
:105740001307B002A309E104834609001307A0026E
:105750006380E608F2474A848146254603470400F1
:1057600093051400130707FD6379E60AB5CA3ECE18
:1057700085A8971700009387E79E6395F40083A49C
:10578000890039BF971700009387C799E39AF4F00F
:1057900083A4C90031B7A6854E85EFF08FF019D5E7
:1057A0007D55FA406A44DA444A49BA492A4A9A4A33
:1057B0000A4BF65B665CD65C0D618280050411BF06
:1057C000330555413315AC00C98F3EC82289A9B7AE
:1057D000324793064700184336C6634907023ACE5C
:1057E000034704009307E002631FF7040347140014
:1057F0009307A002631BF702B2470904138747000F
:105800009C433AC663C107023ECA35A83307E0404D
:1058100093E727003ACE3EC8E1B7B38767038546D2
:105820002E84BA9725BFFD57C5B7050402CA814625
:10583000814725460347040093051400130707FD1D
:105840006378E606F1F2834504000D461715000063
:105850001305C593EFF08FB911CD9717000093870B
:10586000E7921D8D93070004B397A70042450504F6
:105870005D8D2AC8834504001946171500001305DD
:105880002591130914002304B102EFF02FB63DC196
:1058900097A7FFFF9387077795E74247B2471377AC
:1058A000071009CF91073EC69257D2973ED20DB549
:1058B000B387670385462E84BA97ADBF9D07E19BEA
:1058C000A107D5B77800970600009386C6D526862F
:1058D0000C084E8597000000E7000000FD572A8A5B
:1058E000E314F5FC83D7C40093F70704E39A07EAAF
:1058F000125545BD7800970600009386C6D22686CD
:105900000C084E85012AD9BF797156CA9C49BA8ABA
:10591000984522D426D24ECE52CC06D64AD05AC86A
:105920005EC6AA892E84B284368A63D3E700BA871A
:105930009CC00347340419C385079CC01C4093F7DF
:10594000070281C79C4089079CC003290400137982
:105950006900631A0900130B9401FD5B5C449840D5
:10596000998F634CF9041C408346340493F7070273
:10597000B336D000A5EB13063404D2854E85829A47
:10598000FD576303F5041C4011469840998B54441D
:1059900081446397C700B384E64063D30400814425
:1059A0001C4418486354F700998FBE940149690458
:1059B0007D5B63982405014509A885465A86D285F2
:1059C0004E85829A631E75017D55B25022549254C1
:1059D0000259F249624AD24A424BB24B4561828037
:1059E0000509ADBF3307D40013060003A301C704A4
:1059F0000347540493871600A2978906A381E704FE
:105A00009DBF85462286D2854E85829AE30E65FB30
:105A1000050945B7797122D426D24AD04ECE06D692
:105A200052CC56CA5AC8B68983C6850193079006D8
:105A30003289AA842E8413863504638DF60263E2CC
:105A4000D706930780056389F61863EDD700638254
:105A5000062293073004638FF60A930A2404230175
:105A6000D404D1A0930730066386F60A9307400654
:105A7000E395F6FE1C40084393F60708930545009E
:105A8000CDC61C410CC363D807001307D002B3076F
:105A9000F040A301E404970600009386E66F2947CF
:105AA00075A8930700076385F61663E5D702930789
:105AB000E006638CF6189307F006E390F6FA0C40C4
:105AC0001C4313F80508138547006308080608C33C
:105AD0009C4395A893075007E383F6FE930780073E
