:100000006F20900E1300000013000000130000008A
:100010001300000013000000130000001300000094
:100020001300000013000000130000001300000084
:08003000130000007300100032
:100038000000000000000000480200004C02000020
:100048000000000080280000000000000000000000
:100058008228000084280000000000000000000042
:10006800862800000000000088280000000000002A
:100078008A2800008C2800008E28000090280000A4
:100088009228000094280000962800009828000074
:100098009A2800009C2800009E280000A028000044
:1000A800A2280000A4280000A6280000A828000014
:1000B800AA280000AC280000AE280000B0280000E4
:1000C800CA3F0000B4280000B6280000B828000085
:1000D800BA280000BC280000BE280000C028000084
:1000E800C2280000560D0000C6280000C8280000DD
:1000F800CA280000CC280000CE280000D028000024
:10010800D2280000D42800005A4A0000D82800004D
:10011800DA280000DC280000B43F0000E0020000FC
:10012800E2280000E4280000E628000000000000A3
:080138000000000000000000BF
:10014000397101436EC619A0397141536AC866CA34
:1001500062CC5ECE19A0397101535AD056D252D416
:100160004ED64AD826DA22DC06DE3301614082828E
:1001700041114AC026C222C406C68282B24D410144
:10018000024D924C224CB24B4101024B924A224A00
:10019000B2494101024992442244B2404101828065
:1001A0003D432A876373C3029377F700BDEFADE544
:1001B000937606FF3D8ABA960CC34CC30CC74CC756
:1001C0004107E36BD7FE11E28280B306C3408A0683
:1001D0009702000096966780A6002307B700A30643
:1001E000B7002306B700A305B7002305B700A30493
:1001F000B7002304B700A303B7002303B700A3028B
:10020000B7002302B700A301B7002301B700A30082
:10021000B7002300B700828093F5F50F9396850011
:10022000D58D93960501D58D61B7939627009702DA
:10023000000096968682E78086FA9680C1171D8F09
:100240003E96E374C3F8A5B77300203001A0B7074A
:100250000050130740F82386E700A386E700130742
:1002600080042387E700138741D498CB1387019339
:10027000D8CB98CF138741D8D8CF138741E098D3F4
:10028000138741E8D8D3138741F098D7A389070291
:10029000A38B0702A38F0702A3830704239C0702F3
:1002A000239007042394070409472389E702238D39
:1002B000E7022381E7042385E7049387C18A23802B
:1002C0000700A380070023810700A3810700238282
:1002D0000700A382070023830700A383070082800F
:1002E000011122CE26CC4ACA4EC852C656C4370483
:1002F000005003476400834774001377F70F937629
:100300002700638E067893F7F70F13F7070393061A
:100310000002630DD706930600036303D73049E359
:1003200013F7F70385466305D71E6300071C8D4648
:100330006306D72695466315D70693F70704ADC322
:10034000184483477404420793C74700A303F40487
:1003500083477404418393F7C70F93E72700A303F0
:10036000F404938641F08147138641E89395070191
:10037000C18163EBE528B70700502394E70403C766
:1003800027041377C70F2385E70419A893F7F7030A
:1003900093062002638FD70E63EAF6006389E704B1
:1003A000B707005009472383E70021A7130740023E
:1003B0006384E71013076002E394E7FE8347A40415
:1003C00093C747002305F4048347A40493F7C70F9A
:1003D00093E727002305F4049387C18A238307004A
:1003E0008347740493F7C70FA303F40455BF93879F
:1003F000818B83D707009384818BC207C18381E7F8
:100400009147A309F40283C7A18B93F70706C9FBA1
:1004100083C7418B154793F7F70F6380E7061947AA
:10042000E390E7F883D704001307F00313040004F4
:100430006366F70003D40400420441801389018CF1
:10044000832909002286CE85138541D4EF405002CE
:1004500083D70400A29923203901818FC207C18369
:100460002390F400B70700502398870203C727039F
:10047000134747002389E70225B737070050834712
:10048000370083C6818A93F70708D58FA301F70049
:1004900001BF8347A40393C74700230DF40283479A
:1004A000A40393F7C70F93E72700230DF402938764
:1004B000C18A23810700EDB58347240493C7470011
:1004C0002301F4048347240493F7C70F93E727001D
:1004D0002301F4049387C18A238207008347F4032E
:1004E00093F7C70FA30FF40265BD184493F70704F1
:1004F000E38807EA83C7A18B83D7818BC207C183B7
:10050000E39007EA2318040291472309F40249BD46
:1005100093F70704E38607E88347740393C747000C
:10052000A30BF402138701D310448346070093877B
:1005300001D31376F60FBA96A381C600834607004F
:10054000850693F6F60F2300D70003470700C14640
:100550006394E6002380070003C707002D46931627
:100560006700138701933697B7060050D8CA03C7B0
:10057000270005071377F70F2381E70003C727003C
:10058000E370E6E203C776031377C70F136727000C
:10059000A38BE6020547A389E70019B593F7070483
:1005A000E38007E018448347F403420793C74700FA
:1005B000A30FF4028347F403418393F7C70F93E734
:1005C0002700A30FF402938641E08147138641D8A8
:1005D00093950701C18163EDE500B70700502390B3
:1005E000E70403C727041377C70F2381E7044DBB34
:1005F000B305F60083C505003385F600850793C56E
:10060000F5FF2300B500E9B7B305F60083C5050083
:100610003385F600850793C5F5FF2300B500B9B310
:1006200099472309F402A309F402138741D48347AD
:1006300007001386A18B2300F6008347170083561B
:1006400067009385418B2380F5000358270093872B
:10065000818B2390D7009386C18B2390060103588A
:1006600047001387618B231007010347060013849B
:10067000818B1389A18B13770706138641D4938747
:10068000C18B9386618B631F071C03C70500AD45B3
:100690001377F70F63E8E51C99650A07938545FA18
:1006A0002E971843028703D7070089462183938931
:1006B000018C6303D7060D46630EC7068547631793
:1006C000F70899671387870383C7870323A0E90087
:1006D00081440357040063F4E7002310F4008357B8
:1006E00004001307F003130A00046367F700035ABA
:1006F0000400420A135A0A0183AA0900528613858C
:1007000041D4D685569AEF40A05623A049019307BD
:10071000F00F6396F408B9A219671307C7FF834760
:10072000370023A0E90003472700A207BA97C207B2
:10073000C18379BF83D70700054693F7F70F63821C
:10074000C70289CB6387D702638DE7028147930491
:10075000F00F41B71387018323A0E90083C701830A
:1007600085BF99671387C70423A0E90083C7C7041F
:1007700085B799671387C70523A0E90083C7C70515
:1007800081BF99671387070723A0E90083C707077D
:1007900081B783D7070093F7F70F2384F18A834744
:1007A0000900E207E18763DD072C03570400930784
:1007B000000463E6E70083570400C207C1830357C0
:1007C00004001D8F420741832310E40037070050C7
:1007D0002318F70291472309F702D9B683C7918AF4
:1007E0002300F600035704008547E3FAE7FA2310D5
:1007F000F40075B783D7070093F7F70FA384F18A46
:1008000005472385E18A61BF034709007D8B0DE31E
:1008100083D70700054793F7F70FE392E7F893872D
:10082000B18A03C707001377E70F2380E70085BF6E
:100830000347090009467D8B6316C70283D707006B
:1008400093F7F70F85E383D70600954693F7F70FE5
:100850006382D70663E0F6020547638EE7020D4721
:100860006380E704B70700501D472389E702A38987
:10087000E7023DB6930640086389D70293066008F5
:10088000638FD70293062008E39ED7FCB70700507A
:10089000238DE70229B7B7070050A38B070201B7E2
:1008A000B7070050A38F0702DDBDB70700502381B3
:1008B000E704F5B5B7070050A3830704CDB5B70724
:1008C00000502385E704E1BD034709007D8B0DE758
:1008D00083D70700054793F7F70FE395E7F8996784
:1008E00083C7370093F70702B5DF9387B18A03C741
:1008F00007001367170015BF0347090009467D8BE2
:10090000E312C7F683D7070093F7F70FA1FF83D74A
:100910000600154793F7F70F638AE7066361F7024E
:1009200005476383E7040D47E39EE7F2370700506E
:100930008347F70393E73700A30FF7028DB513073B
:100940004008638CE70213076008638AE704130713
:100950002008E399E7F0370700508347A70393E7A0
:100960003700230DF70225BD370700508347770373
:1009700093E73700A30BF7021DB5370700508347F5
:10098000270493E737002301F70411BD3707005010
:100990008347770493E73700A303F70409B53707C4
:1009A00000508347A70493E737002305F704C5BB2E
:1009B0002300060005BD8347090023100600FD8BB8
:1009C0008DE383C7B18A8144858B81C78947230022
:1009D000F600035704008947E3FBE7D22310F40035
:1009E0003DB38347090009479304F00FFD8BE39261
:1009F000E7FE83D70600154793F7F70F6388E706EE
:100A00006360F70205476380E7040D47E393E7FC63
:100A1000370700500347F7030D8B6392E7042DA8B7
:100A200013074008638FE702130760086385E70434
:100A300013072008E39FE7F8B707005083C7A70311
:100A40008D8B0D47D9BFB707005083C777030D477C
:100A500081448D8BE39FE7F685472300F6008144B0
:100A60008DBFB707005083C72704D9BFB707005011
:100A700083C77704F1B7B707005083C7A704C9B786
:100A800083570400C207C18399E7B7070050239832
:100A900007021147C5B2B70700501147C9BB93778A
:100AA00017008DC3A3010400EFF06FFA85472303FD
:100AB000F4007244E2445249C249324AA24A0561F2
:100AC000730020309377470095CB034754009387FA
:100AD000B18A118B09CF03C7070013672700238052
:100AE000E70083C70700B707005011476DB803C779
:100AF00007001377D70F2380E700F5B72303E4003F
:100B00004DBFEFF2EFE641118545114502C202C427
:100B100002C6EF20E01B85472312F1003715014084
:100B2000C1473EC64C008D47130505803EC4EF10FB
:100B3000506D41016FF00FE6EFF28FE30145EF10CA
:100B4000707D0964EF30F07A13050458EF40C0035C
:100B5000B704002083A5841537650000130545FD03
:100B6000EF40203483A58415130404710545B3D5E3
:100B70008502FD15C205C181952237650000130568
:100B800045FEEF40A043B53FEF10004B0545EF1089
:100B9000004F371500207D46814513054522EFF0B3
:100BA0002FE037150020130620538145130505CF8C
:100BB000EFF00FDF37650000130505FFEF40004041
:100BC000EF005060F5BFB71702409843B706FFF833
:100BD00041111367170098C3D84337060200758F79
:100BE000D8C39843B706F7FEFD16758F98C3984390
:100BF000B706FCFFFD16758F98C3D843B70681FF73
:100C0000FD16758FD8C337079F0098C702C402C668
:100C10009843C166558F98C3B716024005679C423A
:100C2000F18F3EC6A24785073EC4B24781E7A2477F
:100C3000E397E7FEB71702409C431397E70063571B
:100C4000070685473EC632478547631FF704B71737
:100C50000240D843B706C1FFFD16D8C3D843D8C356
:100C6000D84313670740D8C3D843758FD8C3D84338
:100C7000B7063D00558FD8C39843B7060001558F7E
:100C800098C3984393166700E3DD06FED843B71672
:100C90000240719BD8C3D84313672700D8C32147AC
:100CA000DC42B18BE39EE7FE4101828002C661BF58
:100CB000EFF20FCC37140140AA8405468545130591
:100CC0000480EF1090632685EF30B06801468545BB
:100CD00013050480EF1070626FF0CFCBEFF24FC9B5
:100CE0000111AA842E840945854502CA02CC231E1F
:100CF000010002C602C8EF10907F231A810037045A
:100D000000404C0813050440231C9100231D0100E2
:100D1000231B0100EF10907F054685451305044015
:100D2000EF2080089307D0122316F100894723078C
:100D3000F100680085473EC8EF10305E8545130519
:100D40000440EF20A004B7E700E0096723A2E71002
:100D500005616FF02FC4192073002030EFF24FC1EE
:100D600037040040854513050440EF20400545C584
:100D7000854513050440EF204006371700209306F1
:100D8000472203C60600894763F7C70803C6160053
:100D90008D4583C756006314B6041307A01033872C
:100DA000E702938781398146BA9703C80700630435
:100DB000D80603C587003E86014709A88345160269
:100DC00005071377F70F8505A300B6020506E3179D
:100DD000E5FE850693F6F60F93872704C9BFA54560
:100DE000631BB6021305A010B387A7029385813950
:100DF00003C3660013074722814613858139094ED4
:100E00008D4E130FA010AE9783C527028505238151
:100E1000B7026314D3006FF0EFB7834777006376B0
:100E2000FE04834787006392D7058347C700814547
:100E3000B387E703AA9783C207006388B20283CF10
:100E400087003E88014609A88348180205061376E4
:100E5000F60F8508A30018030508E397CFFE850564
:100E600093F5F50F93872704C9BF850693F6F60F10
:100E7000190745B703474500A1466306D70083C756
:100E8000E5006396D700A1472300F60082809D46C7
:100E90006304D7006394D7009D47FDB78D46630474
:100EA000D7006394D7008D47C5B7A5466304D70024
:100EB0006394D700A547C9BFFD57F9B7EFF2CFA894
:100EC000B71400209384442241110144138B340051
:100ED000994B138C4400938941F813054006EF3079
:100EE000504705041374F40F214533158500EF3086
:100EF00050460145EF10C0270149014A930C4006B6
:100F00005A85EF10C02C19E5050A137AFA0F63E52C
:100F10004B05014905094209054513590901EF30FF
:100F20005043E31F99FD9547E3F987FA594531A0EE
:100F30009547E3F487FA1305500441016FF04FA47D
:100F40009547E3FC87F813056004C5BF9547E3F6B2
:100F500087F813057004D5B7938541386285EF1083
:100F6000405779F503C54400094989452381240187
:100F7000EF10406871F5154523812401EF30703D75
:100F800003C544009306E10013060040CE85EF1030
:100F900000594DFDCE85138541381386140003C9D1
:100FA0005900C93D03C54400CA85EF10606851D59A
:100FB0009547E3F487F21305B00F41B7EFF2CF98EE
:100FC000130AA010330A450393898139AA8A2E8B0C
:100FD00081440144138941F8338C49018347390026
:100FE00003472900A207BA976358F424B30789007E
:100FF00083C6170089456394B60283C7470011472B
:10100000637CF7002300EC00B307890083C7070067
:101010003E9442044180D9B72300FC00F5B7114744
:10102000E396E6FE638AD42003C657000D47631695
:10103000E61E03C7670005466360E61C03C777002A
:1010400063ECE51A6311C71093072004B387F40219
:101050002145D297CE972381E700EF30303F23A67A
:10106000A18C2145EF30903E23A2A18C21472389FA
:10107000E18CA389018CEF205076EF209004EF30B3
:10108000C000954703A78191E31EF7FE8146014604
:10109000A6855A85EF10606EB307890083C70700E5
:1010A00093081002130750083E9493072004B38757
:1010B000F402034329004204418081460145114E58
:1010C000954E33881403D297CE973387EA023A9825
:1010D0003307890003461700630CC60F637A640E5A
:1010E000834507002E94420441806318D60D0346C1
:1010F000570083452700034F4700220693F2F5006F
:101100007A96E2054206E185834F3700418263D03B
:10111000050803476700338FA700B305A800230F16
:10112000EF0003C78700A1058605CE9505070505D5
:10113000A3045F00A306FF012391C5002384E700F9
:101140001375F50F71B7E319B7F493072004B3874C
:10115000F4021145A389C18CD297CE972381E70071
:101160002389D18CEF30902E23A6A18C1145EF302E
:10117000F02D23A2A18CEF205066EF208074EF2089
:10118000D070954703A78191E31EF7FE01B733871F
:10119000D700A3035702A305F7033307D80041077D
:1011A00006074E972318C70003C76702850693F604
:1011B000F60F05072383E70221BFE31B16F1034661
:1011C0008700034777002206518F2392E70009B773
:1011D0008547639FF60093072004B387F402D297F4
:1011E000CE9703C727006315D7007D572380E704F8
:1011F000850493F4F40FDDB393072004B387F4025E
:101200007D57D297CE972381E700B307890083C724
:1012100007003E9442044180E1BF93072004B38459
:10122000F4029307A010B38AFA02FD57A69A93849A
:101230008139D6942381F40001456FE07FF483C6A1
:1012400041F89547639BF618138741F883461700CA
:1012500085476394F61883462700A547639FF616D3
:10126000834637009947639AF616930620041308BD
:10127000A0103308050313868139011122CE26CC34
:101280004ACA4EC852C656C4B386D5025AC25EC0B8
:1012900091470143814E014F014E9388813911449A
:1012A000C2963696835346000148930F0007930475
:1012B0000008930200092149C149130A0002854A26
:1012C00063E07704A147631DF30E9307200413071F
:1012D000A010B387F5023307E502BA97B385F8008B
:1012E00083C7050481E785472380F5047244E244FF
:1012F0005249C249324AA24A124B824B056182804E
:10130000B306F70083C606008507C20793FBC60035
:1013100013FB3600C18393F6060F638D8B02638B3C
:101320002B0763950B026393560263010802B38691
:10133000EE03369342031353030163090E00834601
:10134000C60389E6230E5603A30EC603DA97C20727
:10135000C183BDB7638BF60363EBDF00E5FAB30629
:10136000F70003C80600611813381800C5B7638971
:101370009600E39D56FCB306F70083CE0600F9B74E
:10138000B306F70003CE0600D1B7B306F70003CFCC
:1013900006006DBF638D3601E39A46FBE30808FA49
:1013A000B306F70083C60600A30FD60245B7E30FC6
:1013B00008F8B306F70083C60600230FD60279B7F4
:1013C00093072004B387F5029305A0103305B502F7
:1013D000AA97C6972380070411BF8280EFE25FD6E9
:1013E0009304A010B3049502938981394111AA8A0C
:1013F0002EC6014B138A8139930B2004A69903C48E
:101400000900138C4400154D29C803C9090033098C
:1014100089401379F90FB3067903B3879600D29701
:1014200083D747009DC3E296B30DDA003245130718
:101430001B00EE86138641F8CA85137BF70FEF1069
:10144000C02D01E9CA855685DD3B7D141374F40F68
:1014500065BFE37D6DFD13048004228541016FE0CB
:10146000FFD11307A0103305E502938741F803C6A7
:10147000370083C727002206938681393E969385DD
:1014800041F8814709431148254E954E36958548C8
:1014900063C4C700014582803387F500034F07000E
:1014A00083461700FA97C207C183639C660003470F
:1014B000470063F5E80023001501D9BF2300E500CC
:1014C000C1BFE39706FD03475700E313C7FD33870A
:1014D000F50083461700E38D06FBE3DBC7FA034FF5
:1014E0000700FA97C207C183E393D6FF834627001C
:1014F000139F8601135F8F41E35B0FFCBD8AA3043A
:10150000D50083463700034F4700A306D500834626
:10151000570003476700A206230FE5000347850035
:10152000FA962319D50005072304E5004DB7EFE22D
:101530009FC2371400209307442203C5570041116E
:101540000D372A8969E9938741F883C56700130439
:101550004422138A41F899C503454400138641F893
:10156000EF1040039387413883C5E7001389413862
:1015700099C503454400138641F8EF10A001834547
:10158000F90099C503454400138641F8EF10800027
:101590008345090199C503454400138641F8EF00CE
:1015A000707F9549034544001306E100938541F897
:1015B000EF10C0282A8929E903472A00914763E2EE
:1015C000E7042303E40081498544114A834764000A
:1015D00063E3970403454400214693F5F40FEF10AD
:1015E000002301CDFD1485091545C20493F9F90FB7
:1015F000EF302056C180636E3A018504C204C18079
:10160000F1B72303F400C1B7FD1993F9F90FE39B78
:1016100009F81309E00F4A8541016FE01FB7EFE2B7
:101620009FB383C705004111B3D7A740858B85C7FA
:101630003719002093074922AA85AA8403C54700C9
:10164000700013094922EF1080162A8431E983477C
:10165000E100858B81E71304E00F99A00345490061
:101660004146A685EF10C0172A841DE9A949034504
:1016700049007000A685EF1080131DE58347E10047
:1016800005041374F40F858B81C7E31234FFE1B7AF
:10169000A947E302F4FC8347C1005944858BC5FF89
:1016A000228541016FE07FAE2A84DDBFEFE2BFAA51
:1016B00083C7050041111304E00FB3D7A740858B02
:1016C000C1CB3719002093074922AA85AA8403C5F4
:1016D0004700114613094922EF1060132A842DE9AF
:1016E0002945EF300047AD49034549007000A68504
:1016F000EF10E00B29ED8347E10005041374F40FAC
:10170000C18BA9E3E31234FF034549005146A68586
:10171000EF10000D0144AD49034549007000A68556
:10172000EF10E0080DE58347E10005041374F40FA2
:10173000C18B9DC3E31234FF8347C100858B91C7E2
:10174000554531A0A947E311F4FC1305E00F2A84A5
:10175000228541016FE07FA3A947E308F4FEE9BFBA
:10176000EFE21FA1B71700202E842E86AA8503C59D
:101770008722EF10C00319E98347140013F72700ED
:1017800011E713F547003335A00005056FE09FA072
:10179000EFE29F9B9947B307F50237140020130926
:1017A00044224111AA892E8B328AA944130444226F
:1017B000AD073E99DE8A938541384A85EF00705126
:1017C00011C9FD1493F4F40FFDF413055004410105
:1017D0006FE01F9B9944B38499022949A29483C561
:1017E000C40003C5B400890593F5F50FEF009060C0
:1017F0002DE519493389290383C7C4001545890795
:101800002300FB00EF30E034A944138B41F8229908
:101810000345B9009306E10013060040DA85EF00A6
:10182000105021E55286938541F8138541380349CC
:101830005B00EFF02FE49947B389F902A9444E9475
:101840000345B400CA85EF00B05E51D1FD1493F496
:10185000F40FFDF4130590049DBF7D191379F90F62
:10186000E31F09F6130560049DB7FD1493F4F40F0C
:10187000C5F0A1BFEFE2DF8FAA861308A0102E8566
:10188000B2851306200433880603938781394111FA
:10189000138781393386C5024296B29703C8C703BE
:1018A00003C617046303080483C7D703A306C10054
:1018B0002306F10089471306A0102317F1009307B0
:1018C0002004B386C6028548B387F5023388D70063
:1018D0003A9803460804631E16019306E10070005F
:1018E000EF00F06641016FE0FF8A2306C1008547E3
:1018F000D9B79305F00F0145E316B6FE938787032A
:10190000B697034578028356E1007000B305F700EF
:10191000EF00305CC1BFEFE23F83AA89AE84EFF0F5
:10192000EFE92A8A3DE9938741F883C5670091C5AD
:10193000138641F82685EF00F045A6854E85EFF029
:10194000FFA99387413883C5E7001389413891C5C2
:10195000138641F82685EF00F0438345F90091C5D1
:10196000138641F82685EF00F0428345090191C5B1
:10197000138641F82685EF00F041930AA010B38A40
:101980005903138981390144930B2004054C330B0F
:10199000590183470B006365F40052856FE04FFEE9
:1019A000B3077403D697CA9703C727006318870144
:1019B000A38007042286A6854E856D3D0504137419
:1019C000F40FC1BFEFE2CFF7371A002003454A22D8
:1019D000011113044A22EF0000700547AA8C631816
:1019E000E50A2300A400A3020400EFF02FCDAA8C87
:1019F00051E9034714008D46631CD700834544001A
:101A000003455400093F11E90D472300E40031A8C4
:101A1000A546E31BD7FE213EFDB75947D94C6306C7
:101A2000E50089472300F400AA8C83460400094797
:101A30006370D726034714008D4683445400631017
:101A4000D722930AA010B38A5403138C8139938749
:101A5000813981493EC2569C56C4E28D03C70D00B0
:101A600063F8E922130720043387E902A24793862B
:101A7000AA010149B30BF7009247BE9BB387E6006A
:101A80003EC621A25947E302E5FA0947BDBF51FD11
:101A9000834454007D46814513054A22EFE04FF010
:101AA0001305A010B384A402138581391306A01076
:101AB00081452695EFE0CFEE8DBF338B2B0183461A
:101AC0002B020346EB0163EFC60AB3F6C602B24728
:101AD00003459B00B3852701138641F89247BE95C5
:101AE0002301DB029306E101EF009039AA8C69E142
:101AF0000147854505A803C6218D63E2C602938789
:101B000041F8B386E70003C6060083C6118DC9CA33
:101B100083A6418CBA962380C6002384B18C050726
:101B2000420741838356E101E367D7FC138D018DA2
:101B30009386818C03470D0003C60600329739C394
:101B40001388418C8325080011460545EF208064E9
:101B5000AA8C0DC91387118D034607006301060E79
:101B60001388418C032608009386818C230006008D
:101B7000A300060023010600A301060023000700BE
:101B80002380060005091379F90F03C78B00E3666C
:101B9000E9F25947638EEC0E850993F9F90F7DBD83
:101BA00083A6C18CBA962380C6002388B18C85BFDA
:101BB000594D630FA50D9306E002E319D5F6834551
:101BC0009B000345440093E50508EF00F02883C619
:101BD0001D00230D0B002546850693F6F60FA38006
:101BE000DD00E375D6F47D46814513054A22EFE01A
:101BF0002FDBEFF0AFACAA8C0DED83459B000345C6
:101C0000440093E50508EF00302585471306A01032
:101C10008145A3800D0062852300F400A302040027
:101C2000EFE00FD8834544002685F531AA8C0D4797
:101C300001C5E38DACEF09472300E400C5BD83A6D1
:101C4000C18C23800600A380060023810600A381A7
:101C5000060085462300D70023000D0025B7A546C2
:101C60006318D7021309A01033892403138A81391A
:101C7000938981394A9A03472A028346EA01637CA1
:101C8000D700814A138C41F80347640063EFEA16DA
:101C900005616FE0AFCE3377D70203452400938A06
:101CA00041F82301EA02A5290345340069210345CF
:101CB0009A009305A9019306E101138641F8CE9598
:101CC000EF00101CAA8C55FD03C70A00014C1949EE
:101CD000A30EE100094D8D4AB70B0050054B83461A
:101CE0006400E370DCFA930D1C0013FAFD0F9305FA
:101CF000D1015285EFF0BF92D947AA8C6315F50444
:101D0000330C2C038346D101B31DBB0193CDFDFFE2
:101D1000B3FDDD001306A0108145A30EB10133070A
:101D200084010345C7001307A0103305E5024E9553
:101D3000EFE00FC713057C00194681452295EFE0BF
:101D40002FC6528C69BF13054006EF2090609305A3
:101D5000D1015285EFF09F95D547AA8C6312F50803
:101D6000B3072C038546A297A383D700A146A3857A
:101D7000D70023864701B30D2C03938541F8528584
:101D8000EFF01F9EA29D2385AD0003C59D00412E4F
:101D900003C5AD004D268347340099C783C71B0098
:101DA00093F7B70FA380FB00B30D2C036285138656
:101DB0008D0093859D002296A295EFF07F9DAA8CC1
:101DC000A29D29E103C78D006319570183C5BD009A
:101DD00003C5CD008936AA8C2DF5A3835D0195B787
:101DE0008346D101B31DBB0193CDFDFFB3FDDD00E3
:101DF000B3062C03A30EB101A29683C67600E3922C
:101E000066F595BFA383AD012DBF194933892A0318
:101E10008D46229903477900631FD71683468900B0
:101E2000639BE616834DC9001307A010014BB387CF
:101E3000ED023EC29304A010B3849D023387990043
:101E4000034707006379EB14930B2004B30B7B0368
:101E5000014ADE94CE9401AAB386440103C7260248
:101E600003C6E6016366C70E3377C70203459900D0
:101E70002381E6026D240345A900752C83473400B5
:101E800089CB370700508347170093F7B70FA3009C
:101E9000F70092479306E1019385A701B3874401B8
:101EA000DE9503C59700D295138641F8CE95EF00D5
:101EB000207DAA8C631D050C014DADA803C624002E
:101EC0008945631EB602637CE60203072C00030605
:101ED0001C009355F7411355F6412D8F298E098E1D
:101EE0000D8F6353C7003287154605456357E600DB
:101EF000394609456353E6000D45EFE07FDB03C635
:101F0000218D0357E1016361C7023307AC0103462A
:101F1000070003C7118D3DC303A7418C6A972300B7
:101F2000C70005462384C18C93061D00139D06013E
:101F3000135D0D010357E101E362EDF89388018D14
:101F40009386818C03C7080003C60600329721EBF5
:101F5000371501400546854513050580050AEF0044
:101F6000D039137AFA0F03C78400E367EAEE5947C2
:101F70006382EC02050B137BFB0F6DBD03A7C18CC5
:101F80006A972300C70005472388E18C71BF594732
:101F9000E316E5FAD94C850A93FAFA0FF5B11388DE
:101FA000418C8325080011460545EF20A01EAA8C10
:101FB00045D11387118D034607009388018D05C60F
:101FC0001388418C032608009386818C2300060029
:101FD000A300060023010600A3010600230007005A
:101FE00023800600B5B783A6C18C23800600A3809A
:101FF000060023810600A381060085462300D70042
:1020000023800800B1B7370700508347070093F7D4
:10201000F70B2300F7008347170093F7B70FA300D0
:10202000F70083576703C207C18393F7F7BFC2075F
:10203000C183231BF7028280EFE28F93B707002052
:1020400003A78715B747950893870740094563009D
:10205000F702B7E7B8059387078005456309F700DE
:10206000B777DC02938707C06315F7000145EF00DF
:10207000503685450565EF00D0436FE0AF91EFE244
:102080002F8F854737040050631EF50299472300C0
:10209000F4002945EF209028930790F823000400CE
:1020A0002300F40093078004A306F400B717002070
:1020B000938747241CCCB7170020938747285CCC14
:1020C0006FE04F8D99472300F4002945EF2010253C
:1020D00023000400F5B73707005083476700858B5E
:1020E0009DC385472303F700834657008147858AB0
:1020F00081CE854711C989476307F500034717005B
:102100008547058B11C389473E858280B7070050FC
:1021100003C55700058113451500058982803707DF
:102120000050834737001375F50793F70708C98FE9
:10213000A301F700828085476317F500EFE24F8324
:10214000D9356FE02F85B707005003C70700136725
:1021500007042380E70003C7170013674700A38025
:10216000E70003D7670313670740239BE7028280DA
:10217000EFE20F802A8401455D377135854763EEB4
:102180008700370700508347170093E72700A30015
:10219000F70001EC2D45EF20D01B37070050834797
:1021A000170093F7D70FA300F7000945EF20701A27
:1021B000B707005003C76700058B01CB03C7570063
:1021C000058B01C705472383E7006FD0BFFC3707A6
:1021D000005083475700858B95CFEFD27FF9834717
:1021E0001700858B99E72A8415372300A40011E195
:1021F0009937B707005003C7170001451367170049
:10220000A380E70003D7670313674700239BE70218
:102210006FD05FF859458280EFD21FF3B7070050A7
:10222000A38DB702416A2A8B3289238FB702935953
:102230004500814437040050894B394CA94AA54CCC
:102240007D1A230C640323037401130D803E83471E
:102250006400898B91EB7D1D420D0545135D0D01D9
:10226000EF20D00BE3150DFE230C0402834764001E
:10227000898B81E71305E00F41A08347740093F732
:102280000704D1E38347740093F7F70F13F5F700C2
:10229000630D850763175505630C0906630649013D
:1022A0007D19420913590901FD1493F4F40F5145A6
:1022B000EF20D00683476400858B81CF1305800C07
:1022C000EF20D00583471400858BB1C785472303D2
:1022D000F400850493F4F40FE39554F7130500021A
:1022E00021A8638D9901B5476385F9008547E3937C
:1022F000F9F855DD136505026FD09FE89D8B0D47FA
:10230000E399E7FE6DB70145C5BF1305E002EDB7E0
:102310001305A002D5B75945C5B7EFD2FFE2AA8988
:10232000B284130540062E89EF20407F99C0239088
:10233000040037040050A147896A231EF402138663
:102340000A7181451305000DC13D631D05149147B8
:10235000A30DF402371B0020230FF40293074B2830
:1023600003D46700130B4B28630D040E630B090E97
:102370008387070063C50706CE8BC20993D909017D
:10238000370A0050938A0A7113054006EF2000793E
:10239000DE8763733401A287231EFA028147035745
:1023A000CA03639DE7108345EA0356864145AD3570
:1023B000631A050E8347EA0393C74700230FFA0207
:1023C0008357CA031D8C4204418081C88357CA03C6
:1023D00003D70400BA972390F4005DF459A0371B8B
:1023E0000020370A0050938A0A71130B4B24FD1901
:1023F00013054006EF2080728345BA035686130505
:102400000009193D45E18347BA0393C74700A30D6F
:10241000FA0203578A00A2876376870083578A00EF
:10242000C207C1831D8C4204418091C403D70400BC
:102430003E972390E400014793160701C1826395FC
:10244000D7063E9983578A00C207C18399C783572D
:102450008A00B3F7F90091E341FCB7070050239ECF
:10246000070213054006EF20606BB707005083D7C3
:10247000C70313050009C207C18391E341450966FB
:10248000130606719145493B11ED370700508357FC
:10249000C703C207C18399C783578700C207C18397
:1024A00091C35D456FD0DFCDB306EB0003C60600D8
:1024B000B306E90005072380C600BDBF83460900B7
:1024C0003307FB008507C2072300D7000509C18336
:1024D000F9B5EFD2FFC913844184A1471840230006
:1024E000F500B71700209387472898C35840AA845F
:1024F0004111D8C3034505001306E1002E89313D83
:1025000001ED83477900035764002380F40083576B
:10251000E10063F3E7005D4541016FD0BFC7EFD233
:102520009FC31387C183B2891043584337140020D7
:1025300093074428411190C3D8C336862A8A2E892E
:1025400036C6E13B29E5B2461387C18303566700CF
:1025500083D506005D4563ECC5020346390083451B
:1025600029009307442822064D8EB28563F3C900E3
:10257000CE85104358432390B60090C3D8C303D7E9
:1025800006003686CA852393E700528579334101D8
:102590006FD0BFBFEFD23FBC9387C18403AA0700AF
:1025A0003714002083A94700130444284111B28442
:1025B00013E90530232044011306E100A685AA8A09
:1025C0002322340123112401893B15E183C7040030
:1025D0001306E1002320440123223401A6855685F9
:1025E0002317F100231124012313F4003D3341018B
:1025F0006FD0BFB9EFD2DFB7138741851443B71748
:10260000002058439387472894C32391B700AE8492
:10261000D8C301468145EFF05FD02A8419E52685AD
:10262000EFF0FFAF1545EF20C05222856FD09FB667
:10263000EFD21FB41387C1851443B7170020584346
:102640009387472894C32391B700D8C30146814597
:10265000EFF0BFCC6FD01FB4EFD29FB1138741838F
:1026600014435843B717002093874728D8C32392B1
:10267000B70094C301468145EFF03FCA6FD09FB1C8
:10268000EFD21FAF2E8483C5050041113289136537
:102690000509014636C6EFF03FB8AA84B24615E5F3
:1026A000B707005003D68700B7150020938545244F
:1026B000420641822390C6004A85EF20605B834733
:1026C000040093C747002300F400268541016FD022
:1026D0007FACEFD2FFA9AA843715002041112E84C8
:1026E00013054528B285368636C6EF206058B246B7
:1026F000B70700500146239ED7028345040013E527
:102700000401EFF07FB119E58347040093C7470048
:102710002300F40041016FD0FFA7EFD27FA51387FC
:102720004186328810435843B717002023A2C72898
:1027300093874728D8C32392B70003D7060036866D
:10274000C2852393E700EFF05FBD6FD0BFA4EFD247
:102750003FA21387C186328810435843B717002021
:1027600023A2C72893874728D8C32392B700368669
:10277000C285EFF09FBA6FD0FFA1EFD27F9F138782
:102780004187032807005843B717002023A20729D1
:10279000220693874728D18ED8C32392B70023916E
:1027A000D70001468145EFF05FB76FD0BF9EEFD2F3
:1027B0003F9C1387C188B28610435843B717002047
:1027C00023A2C728938747284111D8C32392B70073
:1027D0001306E100B685EFF05FB441016FD09F9B17
:1027E000EFD21F991387C18714435843B7170020AE
:1027F00023A2D72893874728D8C32391C7002392C1
:10280000B70001468145EFF05FB16FD0BF98EFD2BE
:102810003F961387418914435843B717002023A2DA
:10282000D72893874728D8C32391C7002392B7009E
:1028300001468145EFF07FAE6FD0DF95EFD2BF91BB
:10284000938741889843DC43371400202322E428EF
:1028500013044428AA89AE8432895CC0EFF0FFAB30
:1028600001ED83C704004A86A6852310F9004E8532
:102870002313F400EFF07FAA6FD03F9101A001A0D5
:1028800001A001A001A001A001A001A001A001A040
:1028900001A001A001A001A001A001A001A001A030
:1028A00001A001A001A001A001A001A001A001A020
:1028B00001A001A001A001A001A001A001A001A010
:1028C00001A001A001A001A001A001A001A001A000
:1028D00001A001A001A001A001A001A001A001A0F0
:1028E00001A001A001A001A097E1FF1F93810107B2
:1028F00017210020130101711745000013054597AA
:1029000097D5FF1F938505701386818A63FAC500EA
:102910008322050023A0550011059105E3EAC5FEB9
:102920001385818A97F5FF1F9385059E6377B50010
:10293000232005001105E36DB5FEFD42739002BC36
:102940008D42739042809302800873A0023097D228
:10295000FFFF9382A26E93E2320073905230EFE059
:102960008FA697E2FFFF9382621D7390123473006B
:1029700020305841032805004C4537060140930795
:1029800006403E979346F8FFB1C583250640F58D76
:102990002320B640D043F18ED4C31443B3E60601DE
:1029A00014C3184190479346F7FF758E90C7D047E0
:1029B000F18ED4C7144541466399C6009447D98E19
:1029C00094C7D447558FD8C78280B6979443558F04
:1029D00098C382801C43F58F1CC38280B7070140D7
:1029E00093870740DC4B7D8D3335A0008280B7078D
:1029F000014023AAA7408280B707014023AAA7402D
:102A000082809C4513F7070113F8F70001C7D841EE
:102A10003368E80037270240145B3707000F758FD3
:102A200045EF8546238AD18C371701406317E500AF
:102A300003D7050035832390E50083D5050013F700
:102A4000F50F39C318418146854E3D4F930F8002E3
:102A500093028004214E3396DE00B3F8C500631163
:102A600016039398260033131F011343F3FF3377A4
:102A7000E300B318180133E7E8006397F70750C97C
:102A80008506E39AC6FD18C11307F00F6375B704F6
:102A900054412146854E3D4F930F8002930280049E
:102AA000414EB398CE0033F715016392E802131735
:102AB000260001173313EF001343F3FFB376D3005F
:102AC0003317E800D98E6395F703232A150105060D
:102AD000E319C6FD54C1828037170140E31FE5F4B6
:102AE00003C7418D39DBA9B7E39C57F810C949BF2B
:102AF000E39F57FC23281501D9BFB7170140631680
:102B0000F50083C7418D91C3B58119C20CC982807C
:102B10004CC9828023ACA18C82809387818D9443A1
:102B20000347050089E683472500920731A89443AF
:102B300005466391C60483472500034615009207A6
:102B40006314D60093E707F8B7E600E093F7F70FB2
:102B5000BA962380F6408546935757003397E60090
:102B60005441ADC6938707048A07B7E600E0B697DD
:102B700098C382808C4389466393D50283461500AF
:102B8000834725006365D6008A06B69779BF93868A
:102B9000E6038A06B69793F7F70F920765B7904357
:102BA0008D46631ED6008346150083472500636467
:102BB000D6008606D9BF9386C6078606E1BF944332
:102BC0009147E39AF6F88347150085B79387070680
:102BD00061BFB7170240D843B70640FFFD16758F97
:102BE000D8C3D8435A05598DC8C3828037170240CD
:102BF0005C439146B18B6385D700A1466386D706B7
:102C0000B7177A00938707201CC1371602405C4231
:102C100037070020130707009183BD8BBA9783C63F
:102C200007001C41B3D7D7005CC15442A1829D8AE2
:102C3000BA9683C60600B3D6D70014C55442AD82F7
:102C40009D8A369703470700B3D7E7005CC5584213
:102C500039839376370013874180369703470700FF
:102C6000B3D7E7021CC982805C435843C166C9835D
:102C7000BD8B758F8907C5466393D700C94701EFA0
:102C80003747024003270780418B09CF37177A0067
:102C90001307072021A83717024058439316E7006F
:102CA000E3D606FE37173D0013070790B387E70208
:102CB000A1BF99C5371702405C4B5D8D48CB828020
:102CC000B7170240D84B1345F5FF798DC8CB8280EA
:102CD00099C5371702401C4F5D8D08CF8280B7170A
:102CE0000240984F1345F5FF798D88CF828099C5B2
:102CF000371702405C4F5D8D48CF8280B717024086
:102D0000D84F1345F5FF798DC8CF828083570500D2
:102D100037370140130707C0C207C1836304E502C8
:102D2000370700406300E50213070740630CE50026
:102D300037170040930607806306D500130707C0C6
:102D40006317E50003D7250093F7F7F8D98F03D76A
:102D5000650093F7F7CFC207C183D98F2310F50021
:102D600083D745002316F50283D705002314F50207
:102D7000B7370140938707C06316F50083C7850006
:102D80002318F5028547231AF50082808357050032
:102D900091C593E717002310F5008280C207C18315
:102DA000F99BC207C183C5BF8357C50009C6DD8D26
:102DB0002316B500828093C5F5FFFD8DD5BF8357DF
:102DC00005010355C500ED8F4205418189C76D8D11
:102DD0003335A00082800145828093C5F5FFC2058E
:102DE000C1812318B5008280EFD28FB883560501C8
:102DF000F577FD17F58F83D6650003D7C500797188
:102E0000D58F2318F5008356C500FD779387379F2C
:102E1000F58F83D645002A842EC6D58F83D68500AC
:102E2000D58F83D6A500D58F2316F500835745018E
:102E3000C207C18393F7F7CFD98F231AF50068082B
:102E4000EFF0DFDAB747014093870780B245631D93
:102E5000F404A2578356C4006547B387E702C2064D
:102E6000C186984163D4060406070356C40042068F
:102E7000B3D7E702130740064186B3D6E702B3F79C
:102E8000E7029206635606028E0793872703B3D79D
:102E9000E70213F77700B367D700C207C183231493
:102EA000F40045616FD00FAF92576DB70A0775BF39
:102EB000920793872703B3D7E702BD8BD58FF1BF66
:102EC00081C98357C5000967D98F2316F500828011
:102ED0000357C500F977FD17F98FC5BF93F5F51FA7
:102EE0002312B5008280035545001375F51F8280BB
:102EF000035505006D8D3335A000828013F7F50F63
:102F000085461583B397B6006313D7020357C500F0
:102F1000F98F0357050001454207418381CB0545E1
:102F2000A181B315B5006D8F3335E00082808946ED
:102F30006315D70003570501E1BF03574501C9BF1A
:102F4000EFD20FA301E983A7418E05472398E7003D
:102F50006FD04FA483A7C18E9C43829703A5418E57
:102F60002905FDB7EFD2CFA001E983A7418E054720
:102F70002398E7006FD00FA283A7C18E9C4782974A
:102F800003A5418E3105FDB703A7418E09E58947A9
:102F90002318F7008280EFD2AF9D2390018E8347E4
:102FA00007001384018E93F7F7079DEB0347970003
:102FB0009377070281C789472300F400137707043A
:102FC0008347040001CF93E717002300F40083A791
:102FD000C18E9C4B829722856FD0CF9BF99BF5B712
:102FE00085461385018EE389D7FE89460145E39521
:102FF000D7FE03475700B7660040938606C0937715
:10300000F7008A07B69762079C43618763590700F8
:1030100093F707034147E39CE7FA85477DB70D67C0
:10302000F98F0567CDBFEFD20F9383A4418E3E8AFF
:1030300003D4040139E803C7840091476317F704F8
:103040001387C18D14438547639CF602B767004020
:1030500083A707C5B73600208906C207C183B69784
:10306000860723A0070093070003239AF18E2320ED
:103070000700114983A7418E238427016FD0EF9069
:10308000C147239AF18E1D49F5B783D744011149F1
:1030900063F38700094963F387003E849C4C420434
:1030A000418022858297AA8A0145EF00B06022867E
:1030B000AA855685EF00B042A2850145EF007063F6
:1030C00083D704010D67818F2398F40083D72401EF
:1030D0003E9493070003239AF18E23998400239949
:1030E000E18E49BF83A7418E83C6118203C7370093
:1030F000094563E3E60283C6270099EE83D64700BD
:1031000081EEEFD2EF862385E70083A7C18EDC43F3
:10311000829701456FD00F888280EFD26F8583A799
:10312000418E03A7818E411183C53700184F03C517
:103130005700029783A7418E03C7A7001DCB2AC65D
:103140000DE903C7470015E783C727009DE383A761
:10315000C18EDC47829783A7418E324503C7570053
:10316000A385E70003C737002386E70041016FD03E
:103170006F820945E5BF83A7418E83C6070093F69A
:10318000F60791EA03C797001377F7FDA384E700DA
:1031900001473A85828009460947E39CC6FE83D6EB
:1031A0002700E5FA83C64700EDF6EFC27FFC03C6B1
:1031B000570037670040130707C01375F6F713145D
:1031C00025003A946206144061866357060493F61C
:1031D000060383C501820947637DB5029DCA83C783
:1031E000A70085CB1C40635C060293F707034147A9
:1031F000639CE7001374F50F2285EF00904493055C
:1032000000032285EF00103583A7C18EDC4B829727
:1032100001473A856FC01FF80D67F98E5DBFC16425
:10322000FD140D67E58FF98F0567E39FE7FC1DED42
:10323000B707002083C5C708EF00904D1C40717789
:103240001307F7F8F98FC2070D67C183B98F61774C
:1032500013070708D98FC207C1831CC08D661840A9
:10326000658F758FE302D7FA1CC0D5BFEF00303AE7
:103270001C4071771307F7F8F98FC2070D67C183F8
:10328000B98F617713070708D98FC207C1831CC0A4
:103290008D661840658F758FE308D7F61CC0D5BFC3
:1032A00003A6418EB7670040938707C08346560048
:1032B00093F5F6F713972500BA97E2069843E1864F
:1032C00063D106061377070303C80182094563F932
:1032D000050983552600C9E541C70347A60049C330
:1032E000EFC21FE9984363D30604E5769386F6FBA5
:1032F000758F42074183E1761347070193860608DD
:10330000558F4207418398C34146944393F6060381
:10331000639CC60083A7C18E9C4F829701456FC0F6
:103320007FE70D65698F4DB798C3C5B7F176938672
:10333000F6F8758F420785664183358FE17693866F
:103340000608558F42074183416698C37D160D6577
:1033500085659443F18EE98EE38EB6FA98C3D5BFA6
:103360008280EFC2FFE003A7418E8347970093E777
:103370000702A304F70083A7C18EDC4F82970145A3
:103380006FC05FE103A7418E8357270101E903D591
:1033900045001D8D2318A7000145828088413E9578
:1033A0008280EFC2FFDCB707002083C5C708014554
:1033B000EF00103683A7418E03C58700A14763182D
:1033C000F50005672399E18E4147239AE18E5D154B
:1033D000133515006FC01FDCEFC29FD903A9418EC2
:1033E00037660040832706C583468900254741117B
:1033F000638BE60441641307F4FFB7360020F98FAE
:103400009106B69786078043798C060432948347E9
:1034100004002300F90083471400A300F9000355BA
:103420004400EF0070332311A9000355840003A961
:10343000418EEF0070322312A9000357C40083A706
:10344000418E2393E70083A7418E05472384E7003D
:1034500003D7670003C417006319070E03C70700EB
:103460001377F7075DEF25476316E400EFF09FC77A
:1034700035E515A81547631BE40403873700635B34
:103480000700A14703A7418E2304F700193F41011C
:103490006FC05FD003C727006DF703D7470075F3F0
:1034A00083C7A700F9FFB767004083A707C5373771
:1034B00000200907C207C183BA97860723A0070027
:1034C00013070003239AE18E99476DBF0D476318D8
:1034D000E40283C637000547638DE60083A7818E2B
:1034E0002285DC4B82970D47A547E30DE5F845DDC6
:1034F00049BF83D74700FDF3EFF0BFE695BF05470F
:10350000E31EE4FC03C73700E31A87FC03D7470038
:1035100071F783C7970093F70702E9D3EFF0BFC5B0
:1035200081BF85476318F700AD47E319F4FAEFF060
:10353000DFBE3DBF8946E313D7FAE301F4FE8D47B2
:10354000E31EF4F8EFF0DFD525B71947631BE4025B
:1035500003C707001377F7077DE383C72700854676
:1035600003A7818E6395D7005C4FF1CBA1A089465C
:103570006394D7001C53D5BF8D466392D70C5C5320
:10358000EDB775E003D727005DEBD843C17693868E
:10359000F60F758FB70602006313D70A03C707003B
:1035A0001377F7071DEF83D74700D1EBB73700003C
:1035B000938787F803A7418E0145231907001CCF85
:1035C0008297014583A7418EC166FD1603D7070187
:1035D0006304D70889466304D5006318070E2147A2
:1035E000ADA885466310D70203A7818E03C5570097
:1035F0008145184F029721E583A7418E83C7A70015
:10360000D5F735A88946631CD70203C75700B766AC
:103610000040938606C01376F70093172600B697EE
:103620009C4393168701E18663DC060293F7070348
:1036300083C601826375D6001377070771D303A78A
:10364000418E83A7818E034517009C4B82978D473F
:10365000E31AF5F683A7418E25472384E7003DB59D
:103660008D66F58FF1B72147631CE40083C707001F
:1036700093F7F707E9F7B7370000938707F41DBF03
:103680002947E31EE4FA03C7070085461377F707C7
:10369000E317D7FA03C7A7005DD303D7270045F385
:1036A000D843C1769386F60F758FC166E319D7F8B4
:1036B00003A7818E03C557008145184F029741F13A
:1036C000B7370000938747F6F5B58386070063D5C3
:1036D000060483A6818E83D5670003C6C6022EC664
:1036E000324593160601C182637AE500324723987A
:1036F000E700239AD700EFF01F9349BBE37BB7FEA7
:103700006375D70023AE018CEDB73367C70275F33D
:10371000054623AEC18CF1BF0D472384E7000D673A
:103720002399E18EA5B3EFC21FA303A4418EA14448
:10373000834784001387E7FF1377D70F3DCF1387A5
:10374000D7FF1377D70F55EB1C4C95CF835404014B
:10375000A1C80357440163739700BA84C204C180AF
:103760002685829783570401AA890145858F2318EE
:10377000F40083572401A6972319F400992FAA85F2
:1037800026864E8549238357040199CB0D678145D1
:1037900001452399E18EB12F13070003239AE18E8F
:1037A000835704018356440103A7418E63EFD7007A
:1037B0008D472304F7008344870083A7418E238429
:1037C0009700EFF01FBE6FC05F9C99C39547D5B7B8
:1037D00099472304F700B767004083A707C5B736AA
:1037E00000208906C207C183B697860723A0070079
:1037F00093060003239AD18E7DBF1D47A144E39E0B
:10380000E7FA83A7818EDC47829745BF03C3018215
:1038100037660040C1650568A1680147130606C008
:10382000FD151308F8F093880808636967001365AD
:103830000508B767004023A6A7C482809316270017
:10384000B2969C42ED8FB3F70701D98FB3E717010A
:103850009CC20507D9BFEFC2BF9183A7418E83C623
:1038600087001387E6FF1377D70F19EFEFF0AFFB51
:1038700083A7418E03C7870083A7418E2384E70077
:10388000EFF03FB26FC01F9119462147E396C6FE85
:1038900083C617001547639FE60003C70700137729
:1038A000F70709EB03C53700EFF05FF683A7C18E7A
:1038B0009C53829783A7818E9C47829721476DBF37
:1038C0008280EFC2FF8AB71700209387472C23A27C
:1038D000F18E09472384E700370700209306070687
:1038E00023A4D18EB70700209387070D23A6F18E5E
:1038F0008327070682976FC0FF89EFC2FF844111BB
:10390000370A0020B70A0020E17923170100130AC3
:103910008A02938A4A0493890908B765004083A7FD
:1039200045C41397070141832392E1901397070140
:103930006350071883D741903A84BD8B2381F18E61
:10394000938605C06399073203A705C09387218F2B
:10395000420741832390E70003D707009386418FF6
:10396000137707032390E60003D707008D662166CF
:10397000758F2390E70003A705C0A5679387F7FB22
:103980007D8F83A705C0B1669386F6F8F58F8966AB
:10399000B58F1347070293160701130606085D8FBC
:1039A000518FC18223A0E5C033E7360142079384DB
:1039B000218F1389418F37660040930500024183B0
:1039C000832606C093F606036397B60EB3E7370166
:1039D000C166C20737660040FD160D658965C18363
:1039E000032706C0130406C0758F698F6318B70CD0
:1039F00083D74190C18BE1EF1C40A5691387F9F093
:103A0000F98F1CC0EFF03FE518401440B167938771
:103A1000F7F8F58F83D604009389F9FB33773701E4
:103A200013963601635406008566B58F83D604006D
:103A300013962601635406008966B58F83560900E4
:103A4000C18A99C2134707018356090093F60602FB
:103A500099C2134707022166931607011306060849
:103A60005D8F518F376600402320E6C06177C182A9
:103A700013070708558F42074183832606C08355E5
:103A8000090093F60603639EB602617713070708E1
:103A9000D98FC166C20737660040FD160D65C18328
:103AA000032706C083D50400758F698F631EB70096
:103AB00041016FC0EFEC2320E6C019B72320F6C008
:103AC00005B72320E6C055BF2320F6C0D1BF1C4058
:103AD000856BC207C1832317F1008357E100139759
:103AE00047016353070C1C401387FBF8F98F1CC078
:103AF000EFF09F8E1840A5679387F7FB14407D8FEA
:103B0000B1679387F7F8F58F83D6040013963601D3
:103B100063540600B3C7770183D6040013962601C9
:103B2000635406008966B58F83560900C18A99C21D
:103B3000134707018356090093F6060299C21347FB
:103B40000702216693160701130606085D8F518F41
:103B5000376600402320E6C06177C182130707085B
:103B6000558F42074183832606C08355090093F68B
:103B700006036398B602617713070708D98FC166F9
:103B8000C20737660040FD160D65C183032706C0D6
:103B900083D50400758F698FE30CB7F02320F6C03E
:103BA000F5B72320E6C0C1B78357E100C207C1873C
:103BB000E3D507D61C401387FBF8F98F1CC0EFF044
:103BC0009FB61840A5679387F7FB14407D8FB167B8
:103BD0009387F7F8F58F83D6040013963601635464
:103BE0000600B3C7770183D60400139626016354F9
:103BF00006008966B58F83560900C18A99C21347AA
:103C000007018356090093F6060299C2134707027B
:103C1000216693160701130606085D8F518F3766DC
:103C200000402320E6C06177C18213070708558F43
:103C300042074183832606C08355090093F6060395
:103C40006398B602617713070708D98FC166C20768
:103C500037660040FD160D65C183032706C083D576
:103C60000400758F698FE305B7E42320F6C0F5B72C
:103C70002320E6C0C1B71397270036971443C20626
:103C8000C1822317D1008356E100C206C18663DDDD
:103C90000600FD1714438A070566D6971306F6F843
:103CA0009C43F18E14C382978357E10093F7070872
:103CB000E38507C683C7218EB7660040938606C09A
:103CC000139727003697FD1714438A07D297256666
:103CD0001306F6F09C43F18E14C382973DB9B737B3
:103CE00000200506BE950586860511E28280834781
:103CF0001500034705009105A207D98F239EF5FE05
:103D000009057D16DDB7B73700200506BE95058687
:103D1000860511E282809C4109057D16231FF5FE70
:103D20009105C5BF619942054181B767004023A84D
:103D3000A7C48280B7670040938707C00A053E95F5
:103D40001C4165771307F798F98FDD8DC205C18196
:103D50000CC18280B7670040938707C00A053E9573
:103D60001C4165771307F7FBF98FC20713F70501AD
:103D7000C18319C393C7070113F7050219C393C77A
:103D80000702617713070708D98FC207C1831CC1D7
:103D9000184113770703E31CB7FE8280B767004022
:103DA000938707C00A053E951C4171771307F7F802
:103DB000F98FC2070D67C183B98F617713070708B1
:103DC000D98FC207C183C1661CC1FD160D6618419B
:103DD000758F718F6313C70082801CC1CDBFB76719
:103DE0000040938707C00A053E951C4105671307ED
:103DF000F7E0F98F617713070708D98FC207C183EE
:103E00001CC18280EFC2CFB6D93F6FC0AFB8B767D1
:103E10000040938707C00A053E951441C167138788
:103E2000F7FF9397160163DD07001C41F98F0567C3
:103E30001307F7F0F98F316713070708D98F1CC1F3
:103E40008280B7670040938707C00A053E951C41F2
:103E500093F7070491CF1C4141677D17F98F0567E0
:103E60001307F7F0F98F21671307070CD98F1CC1CF
:103E70008280B767004083A707C50E058581C2070A
:103E8000C1833E95B73700203E95060586050CC1D7
:103E90008280B767004083A707C50E058581C207EA
:103EA000C1833E95B737002091073E9506058605EC
:103EB0000CC18280B767004083A707C50E05C20703
:103EC000C1833E95B73700203E9506050355050092
:103ED0008280B767004083A707C50E05C207C1836C
:103EE0003E95B737002091073E950605035505001E
:103EF0008280B767004083A707C50E05C207C1834C
:103F00003E95B737002089073E9506050CC1828093
:103F1000B767004083A707C50E05C207C1833E955A
:103F2000B737002099073E959307E003060563FE27
:103F3000B70093D75500FD8981E5FD17C207C183FE
:103F4000AA072167D98F1CC1828093D71500858964
:103F500091C18507AA07C5BF935785001375F50F53
:103F600022055D8D828037670040F177232207C4E8
:103F7000938707F02398F18EB167938707F023208A
:103F8000F7C401458280EFC2AF9E32849374F50777
:103F9000268542042E894180EFF0DFF12286AA8532
:103FA0004A85EFF0DFD32685A285EFF09FF4014527
:103FB0006FC04F9E192073002030EFC26F9B3705F2
:103FC0000400EFE07FA36FC0EF9C19207300203046
:103FD000EFC20F9A05246FC0EF9BEFC26F99B7072E
:103FE000002003A78715B747950893870740094521
:103FF0006300F702B7E7B8059387078005456309B3
:10400000F700B777DC02938707C06315F700014517
:10401000EFE03FBC854537058000EFE05FCD6FC026
:104020006F97EFC2EF943765000013058508EF0026
:10403000F07803C7E190136727002387E19083C7D7
:10404000E1900D476314F700EF0030240D4723ACD7
:10405000E1906FC02F94EFC2AF9137650000130558
:10406000450AEF00B07583C7E19093F7D70F238718
:10407000F190B717002003C7E72C11C7154723ACF1
:10408000E1906FC02F910547DDBFEFC26F8E011128
:1040900037050400EFE05F96B707040005443EC80B
:1040A0000808C1473ECC22CE02CAEFE09F8C93079E
:1040B000401228002314F10022C623050100EFE07E
:1040C000DFA59307A00328002314F100EFE0FFA46D
:1040D00005616FC02F8CEFC2AF89AA842E84114571
:1040E0008545EFE0FFBEB1CCB766004083A706C4AC
:1040F00041677517F98F23A0F6C4B717014003A7CE
:104100004780B716F0FFFD16758F23A2E78003A73F
:10411000C780F9769386F67F758F23A6E78003A77D
:104120004780B7460400558F23A2E78037470240F7
:104130008327078021C893E727002320F7806FC0DB
:104140006F8537670040832707C4B716F0FFFD1659
:1041500093E72700C207C1832320F7C4B7170140A4
:1041600003A74780758F23A2E78003A7C780F9764E
:104170009386F67F758F23A6E78003A74780B7361F
:10418000030055B7F59B55BF238B018E8280A38B0F
:10419000018E8280EFB2DFFD05492A846316250374
:1041A0009384618F83C7040089EF13051008EFF033
:1041B0009FDD93050003054523808400EFF09FB940
:1041C000014422856FB01FFD89476313F502938474
:1041D000718F03C4040009EC13052008EFF0BFDA67
:1041E00093050003094523802401EFF0BFB6D1BF3A
:1041F0000544C1BFEFB2DFF737680040032708C5A9
:10420000C1651385F5FF83D6818FB7370020698F8D
:1042100013866700329706071843938505C001117E
:10422000F98D638CD500832708C593F606C0E98F06
:10423000B29786079843D98E94C3B766004083A788
:1042400046C413874190C207C1832310F700035768
:10425000070083D7018F138441907D8F1377072048
:1042600019CF41671307F7DF23A2E6C49386A18F16
:1042700003C7060005071377F70F2380E6000357EF
:104280000400F98FC207C18763D40700EFF0EFE69F
:104290008357040003D7018FF98F93F7074089CF25
:1042A000C1679387F7BF376700402322F7C4B7077A
:1042B000002083A7470682970357040083D7018F06
:1042C0007D8F9316270163D806003967B7660040D3
:1042D0007D1723A2E6C403570400F98F1397370113
:1042E000635B0700BD6737670040FD172322F7C4F3
:1042F0000145EF00E06903D7018F83570400F98F70
:1043000013974701635E070083A74182638007100C
:10431000592BBD67376700409387F77F2322F7C487
:104320008357040003D7018FF98F93F70710E1CF6C
:10433000C167376700409386F7EF2322D7C403266F
:1043400087C49386C18F9315060163DA050A9042EC
:10435000050690C28C420D466375B60A032607C453
:10436000FD17218A59EE032607C4938501907D8E9F
:104370003765004090C1138701900146130305C0C3
:10438000A148931526003388650003280800001013
:10439000A2953378F80023A005FF0506E31316FF66
:1043A00010431366160010C310437D8E2320C5C42E
:1043B0001043799A10C31843F98F2320F5C4376747
:1043C0000040832747C493F70740E5DFC167938721
:1043D000F7BF37650040C1652322F7C4130505C048
:1043E0008147FD1521481397270010103A960326A0
:1043F00006FE2A9785076D8E10C3E39607FF23A05C
:1044000006001D45712305616FB0DFD809454923BA
:1044100009B7B717002083C7E72C81C7154723AC1E
:10442000E1908280114723ACE19082809387E190F4
:1044300003C70700136717002380E7008280938774
:10444000E19003C707001377E70F2380E70082801E
:10445000828091E5854733B5A7000605828009452E
:10446000828083A7418E054783C6070093F6F6072F
:104470006390E60403C72700930620026305D70272
:104480009306100209456316D70837570000130733
:104490008783EFB2FFCD2399070098CF014502979C
:1044A00001456FB03FCF3757000013072781D5B7BD
:1044B000130610020145639EC60483C61700638A73
:1044C000E6040946639AC6002398E70037470000D0
:1044D0001307E75798CF82800D466399C60023984B
:1044E000E7003747000013076759EDB7A54563900C
:1044F000B60283D66700636CD70037470000130706
:1045000087562398D70098CF2384C7008280094517
:104510008280828003A7418E930610020145834763
:10452000070093F7F7076390D704834717002946DE
:1045300083465700639DC700894763E5D702034759
:10454000270093878190B6972380E70082802D46CD
:10455000639AC700894763E7D7000347370093870B
:10456000C190D5B70945828083A7418E014503C715
:104570005700854763E4E70013850192828083A793
:10458000418E0947014583C757006365F7001385CE
:1045900081903E95828083A7418E0947014583C75C
:1045A00057006365F7001385C1903E958280EFB296
:1045B0003FBC83A7418E23850700C924B76700400D
:1045C000856637660040938707C09386F6F09305AB
:1045D00006C298439107758F23AEE7FEE39BB7FEB3
:1045E0009307F00F2322F6C4EFF0FF9781450145B2
:1045F00023AC0190EFF03FAE5145A12B8545054519
:10460000EFF07FAD6FB01FB9EFB29FB683A7418EB9
:1046100003C7318D23850700631C071A19670347F9
:10462000770CA384E700A38507000145EFF08FEF27
:10463000930500200145EFF0EFEFC1450145EFF094
:104640006FF1930500040145EFF0BF849305000866
:104650000145EFF01F820145EFF0CFFAB7070020C8
:1046600083C5C7080145EFF0BF8A0145EFF00FF39E
:1046700037670040032607C0C1679386F7FF93178B
:10468000160163DF0700832707C0F58F85669386D1
:10469000F6F0F58FB16693860608D58F2320F7C014
:1046A00037670040832707C093F7070485C3832734
:1046B00007C0C166FD16F58F85669386F6F0F58F07
:1046C000A1669386060CD58F2320F7C09305006062
:1046D0000545EFF02FE69305000C0545EFF06FF967
:1046E000930500020545EFF0EFE6376700408327AA
:1046F00047C093F7070485C3832747C0C166FD16EB
:10470000F58F85669386F6F0F58FA1669386060C85
:10471000D58F2322F7C037670040032647C0C16703
:104720009386F7FF9317160163DF0700832747C0BF
:10473000F58F85669386F6F0F58FB1669386060849
:10474000D58F2322F7C0930500600945EFF08FDE77
:104750009305000D0945EFF0CFF1930500020945DF
:10476000EFF04FDF37670040832787C093F70704D8
:1047700085C3832787C0C166FD16F58F856693863E
:10478000F6F0F58FA1669386060CD58F2324F7C02B
:1047900037670040032687C0C1679386F7FF9317EA
:1047A000160163DF0700832787C0F58F8566938630
:1047B000F6F0F58FB16693860608D58F2324F7C0EF
:1047C0000145EFF0AF84054723ACE1906FB09F9CAB
:1047D00019670347B70EB1B5EFB29F9993858181F1
:1047E000EFE05FBA6FB01F9B83A7418E83C5370090
:1047F000914763EEB700EFB2BF97B70700209387EA
:10480000070B8E05BE95EFE0FFB76FB0BF9801456F
:10481000828083C5318D894763EEB700EFB25F9523
:10482000B70700209387070A8E05BE95EFE09FB576
:104830006FB05F960145828083C5318D894763EEF5
:10484000B700EFB2FF92B7070020938707098E05E4
:10485000BE95EFE03FB36FB0FF9301458280EFB2AA
:104860003F9183C7318D99E793858180EFE09FB1B8
:104870006FB05F9293850181D5BF8280B76700409A
:10488000054723A0E7C423A007C4096723A207C4E0
:10489000130707C02398E18E0967130707C023A0F9
:1048A000E7C401458280EFB2BF8CB767004083A7A1
:1048B00007C4376700404168C207B7150020C183AD
:1048C0008146130307C07D189385052EA1481396D2
:1048D00026003305660008412E96850633750501CE
:1048E00008C2E39616FF93E607402320D7C493E659
:1048F0001740F99BC207C1832320D7C493E6074022
:104900002320D7C4B766004003A746C413770740E7
:1049100065DF41671307F7BF23A2E6C44168376725
:1049200000408146130307C07D18A1481396260056
:104930003385C50008411A9685063375050108C2FE
:10494000E39616FF93E787402320F7C4832707C425
:10495000C207C18393E747002320F7C4EFF06FEC51
:104960006FB05F83EFB2DF8037640040832704C4F9
:10497000C207C183ED9BC207C1832320F4C4EFF0BB
:104980008FEDB167938707F02320F4C46FB09F8049
:10499000EFB20FFE9D47138401916303F50008C039
:1049A0001C401547636EF70019678A071307871BBA
:1049B000BA979C43828783A7C19189E7EFF09FFA5A
:1049C000994711A095471CC001A8EFF0BFF9914786
:1049D0001CC0054723AEE1906FB0CFFB894723028F
:1049E000F4008D47CDB783474400FD1793F7F70FC9
:1049F0002302F4008347440093F7F70FF1FF914738
:104A0000D9B737670040832707C4C207C18393E73C
:104A100007012320F7C495471CC0A9472302F400CF
:104A200065BF83474400FD1793F7F70F2302F40097
:104A30008347440093F7F70FC5F337670040832798
:104A400007C4C207C183BD9BC207C1832320F7C42B
:104A500099471CC023AE019041B719207300203044
:104A6000EFB20FF137440040930550521305044054
:104A7000EFE0CFC809C913050440EFE0CFC61375B6
:104A8000F50FA380A1926FB0EFF0EFB26FEE3D652E
:104A9000EFD0FFF51305000FEFD07FF5B7F700E07B
:104AA00083A607D103A707D193F6060213678702EF
:104AB00023A8E7D003A707D11377F7FD558F23A8C5
:104AC000E7D073005010730050103D65EFD01FF118
:104AD00009C93D65EFD0BFF10545EFF07FEB6FB041
:104AE0006FEB1305000FEFD07FEF75D91305000FA3
:104AF000D5B7B707002083A7871537177A001307A4
:104B00000720B3D7E70293F7F70F2382F192130739
:104B1000803EB387E7022391F1928280B7F700E0ED
:104B2000D8438146799BD8C303C741923306A70275
:104B300090CBD4CB98431367070198C3984313676E
:104B4000170298C3D843058B75DF9843799B98C3A8
:104B50008280B7F700E0D8438146799BD8C303D75A
:104B600021923306A70290CBD4CB98431367070159
:104B700098C398431367170298C3D843058B75DF12
:104B80009843799B98C38280EFB28FDE2A841165A7
:104B9000011185451105EFE0AF9393070020231223
:104BA000F100371501408D473EC44C00E147130525
:104BB00005803EC6EFD0FFE422C837440140B70766
:104BC00008000C08130504803ECC02CA231E010015
:104BD000EFE08FA1854513050480EFE06FAE05611E
:104BE0006FB04FDBEFB22FD7B7440140AE893289A7
:104BF000014493840480634524014A856FB0EFD853
:104C0000930500042685EFE0AFAE7DD9B387890018
:104C10008385070026850504C205C181EFE00FAC3E
:104C2000D9BF138781821C43B71600209386463074
:104C30003E95636BD500B75600209386068063E5EA
:104C4000A60008C33E858280FD57EDBF9387C182D1
:104C5000AA858843ADAA93F5F50F2A966314C5007B
:104C60000145828083470500E38DB7FE0505FDB74A
:104C7000B3C7A5008D8B3307C50081E78D4763EE71
:104C8000C700AA876370E50A83C605008507850506
:104C9000A38FD7FEE3EAE7FE828093763500AA87EA
:104CA00091CA83C6050085078505A38FD7FE93F6B5
:104CB0003700FDB79376C7FF138606FE63F0C7067D
:104CC00083A3050083A2450083AF850003AFC50021
:104CD00083AE050103AE450103A3850183A8C50189
:104CE0009385450223A0770003A8C5FF23A25700A0
:104CF00023A4F70123A6E70123A8D70123AAC7010C
:104D000023AC670023AE17019387470223AE07FF4A
:104D100075B790419107910523AEC7FEE3EBD7FE2F
:104D2000E3E4E7F68280DDC183A7C5FF411122C419
:104D300006C626C21384C5FF63D307003E94AA8427
:104D4000EF00D015938781929C4381EF23220400CA
:104D500023A481922244B2402685924441016F00EF
:104D60001014637EF40014403307D4006396E70008
:104D70009843DC43369718C05CC0D9BFBA87D84384
:104D800019C3E37DE4FE94433386D700631F860096
:104D90001040B29694C33386D700E31DC7FA104380
:104DA0005843B29694C3D8C375B76375C400B1476E
:104DB0009CC04DB71040B306C4006316D70014431F
:104DC0005843B29614C058C0C0C369B7828001115D
:104DD00026CA93843500F19806CE22CC4AC84EC626
:104DE000A104B14763F3F404B14463E2B4042A8933
:104DF000EF00D00A9387819298433A8439E09387F1
:104E0000C1929C4391E781454A857D2A23A6A192C0
:104E1000A6854A85552AFD5963193507B1472320D0
:104E2000F9004A85EF00B00729A0E3D004FCB147A0
:104E30001CC10145F2406244D2444249B249056175
:104E400082801C40858F63CF0702AD4663F6F60073
:104E50001CC03E9404C031A05C406313870223A4AD
:104E6000F1924A85EF00B0031305B40093074400A4
:104E700061993307F5405DDF3A94898F1CC05DBFAF
:104E80005CC3C5B72287404095BF130435007198B5
:104E9000E30285FCB305A4404A853D22E31C35FBB3
:104EA000B5BF39713EDA2ED232D436D63AD842DC8A
:104EB00046DE9387C18222CC804326CA06CEAA84CE
:104EC00009C41C4C99E3228585230C445410268682
:104ED000228536C6EF00B003F2406244D24421611D
:104EE0008280011126CA4AC806CE22CC4EC652C4C0
:104EF000AA842E8901C51C4D91E33D239C4C80441E
:104F000099E326851523971700009387A72E631C26
:104F1000F402C0408357C400A18BB1C71C48A1C78D
:104F2000FD59294A1C4483450900FD17B1E91CC4F9
:104F300063DE07062286A9452685C120FD57630842
:104F4000F502294535A0971700009387A72C631415
:104F5000F4008044C1B7971700009387A727E31B8D
:104F6000F4FAC04445BFA2852685812A55D97D55CE
:104F7000F2406244D2444249B249224A05618280E9
:104F80001CC4050963D70700184C63CBE70063898D
:104F900045011C401387170018C02380B70059B77C
:104FA000228626859928E31F35F7D1B71C40138741
:104FB000170018C029472380E70061B79387C18293
:104FC000AA8588436FF0FFF1411122C42A842E85FF
:104FD00097C7FF1F23A8073206C6EFF09FC4FD57EF
:104FE0006319F50097C7FF1F9387C7319C4391C38F
:104FF0001CC0B240224441018280011122CC26CA49
:105000004AC806CE4EC6AA842E89328401C51C4DDC
:1050100091E31929971700009387C71D6319F406B8
:10502000C0401C4C1CC48357C400A18BC9C31C487E
:10503000BDCF1C4808409379F90F1379F90F1D8DE6
:105040005C486346F500A2852685752C2DE51C4439
:105050000505FD171CC41C401387170018C02380CA
:1050600037015C486389A7008357C400858B81CBD7
:10507000A9476316F900A285268571240DEDF2403B
:1050800062444A85D2444249B249056182809717F9
:105090000000938727186314F400804459B79717CA
:1050A000000093872713E31EF4F6C0449DBFA2853A
:1050B000268521203DDD7D59D9B741119387C182D5
:1050C00026C2844322C44AC006C62A892E8489C4C3
:1050D0009C4C99E32685892E9717000093878711AA
:1050E000631CF402C0400317C40093170701C18377
:1050F00093F68700BDEE93F607019DEEA5472320AA
:10510000F900136707042316E4007D55B2402244DA
:105110009244024941018280971700009387870FCC
:105120006314F4008044C1B7971700009387870A7F
:10513000E31BF4FAC04445BF918B95C74C5891C905
:10514000930744046385F5004A85EFF0DFBD232A09
:1051500004028357C4002322040093F7B7FD2316EB
:10516000F4001C481CC08357C40093E78700231633
:10517000F4001C4881EF8357C4001307002093F705
:1051800007286385E700A2854A8585298357C400DF
:1051900013F7170005C75C4823240400B307F04049
:1051A0001CCC1C480145BDF38317C40013F7070846
:1051B00031DF93E707042316F40081BF898B014791
:1051C00091E3584818C4F1BF83D7C500011122CC20
:1051D00026CA06CE4AC84EC613F78700AA842E8474
:1051E00079EFD841634DE000B841634AE0000145E2
:1051F000F2406244D2444249B24905618280585427
:105200007DD703A904009396370123A0040063DE31
:10521000060670488357C400918B99C75C401D8E69
:105220005C5899C33C401D8E5C540C5081462685C9
:105230008297FD570357C400631DF5009440F5475E
:1052400063E9D706B70740208507B3D7D700858B1A
:10525000ADC31C48232204001CC09317370163D838
:105260000700FD576314F5009C4091E368C84C5853
:1052700023A02401ADDD930744046385F500268552
:10528000EFF07FAA232A04029DB70C500146854601
:1052900026850297FD572A86E31EF5F69C40BDDB66
:1052A00075476385E70059476394E70423A0240109
:1052B0003DBF136707042316E4007D5515BF83A97E
:1052C0000501E38609F203A905008D8B23A03501B2
:1052D00033093941014791E3D84918C4E35920F112
:1052E0001C540C50CA864E86268582976349A000BE
:1052F0008357C40093E707042316F4007DBFAA99DF
:105300003309A940E1BF9C49A5C3011122CC06CEB7
:105310002A8411C51C4D81E72EC63922B245971744
:105320000000938727ED639CF5004C408397C500F0
:105330009DC722856244F24005616FF0FFE8971730
:105340000000938727ED6394F5000C44C5B79717C9
:105350000000938727E8E39BF5FC4C44C1BFF24073
:10536000624401450561828001458280411122C469
:1053700006C62A842316B5002317C500232005007E
:1053800023220500232405002322050623280500E7
:10539000232A0500232C0500214681451305C50558
:1053A000EFA01FE0971700009387479C5CD09717EA
:1053B00000009387A79E1CD4971700009387E7A24D
:1053C0005CD4971700009387A7A500D01CD8B240E3
:1053D00022444101828097050000938505F399AA34
:1053E000411126C2130680069384F5FFB384C402DC
:1053F0004AC02E8922C406C693854407EFF03F9D1C
:105400002A8401CD2320050023222501310508C46B
:10541000138684068145EFA0BFD82285B24022447E
:1054200092440249410182801C4DA5E7411106C604
:1054300022C497070000938747FA1CD59387018AF7
:105440009C43232405042326050423280504631410
:10545000F50085471CCD2A84352848C022851D28A3
:1054600008C42285052848C4484001469145EFF00C
:10547000FFEF08440546A545EFF05FEF48440946B5
:10548000C945EFF0BFEE85471CCCB2402244410134
:105490008280828041119387018A26C284434AC058
:1054A00006C69C4C22C42A8981E72685EFF0DFF7E7
:1054B000938484048044DC40FD1763D607009C403D
:1054C000B9CF8440C5BF0317C40039E7C17785074A
:1054D00023220406232004002322040023240400A2
:1054E0005CC423280400232A0400232C0400214642
:1054F00081451305C405EFA0BFCA232A0402232C4B
:10550000040223240404232604042285B2402244F6
:1055100092440249410182801304840671BF91457F
:105520004A85EFF0FFEB88C049FDB1472320F90021
:105530000144E1BF797122D44AD052CC56CA5AC82C
:105540005EC606D626D24ECE2A8AAE8A13048504BB
:105550000149054BFD5B09ECB25022544A85925437
:105560000259F249624AD24A424BB24B45618280AB
:10557000044483294400FD1963D409000040E1BFBD
:1055800083D7C400637BFB008397E40063877701C4
:10559000A6855285829A3369A90093848406E1BF67
:1055A0001971A6DAAE848395E500A2DC86DE32842A
:1055B00063DC050083D7C40023A0060093F7070827
:1055C00085E7930700401DA0300836C6EF00D00BDA
:1055D000B246E34105FE7247BD67F98F7977BA9706
:1055E00093B717009CC2F1BF930700041CC0F6508C
:1055F0006654D65401450961828083D7C5000111E4
:1056000022CC06CE26CA4AC8898B2E8489CF93071E
:1056100074041CC01CC885475CC8F2406244D24474
:1056200042490561828074003000AA84EFF05FF780
:10563000A2452A892685EFF08FF901ED8317C40072
:1056400013F7072079FBF19B93E727002316F4005B
:105650007DBF97070000938747D89CD48357C40029
:1056600008C008C893E707082316F400A2475CC8DF
:10567000B24791CF8315E4002685EF00100401C9DD
:105680008357C400F19B93E717002316F400835758
:10569000C4003369F9002316240141B78280828057
:1056A0001C46FD171CC663DA0700184E63C5E700E9
:1056B000A9476394F5006FF05F941C422E85138711
:1056C000170018C22380B7008280011122CC26CA9D
:1056D0004AC84EC652C406CE2A89AE893284B30463
:1056E000D6007D5A63149400014511A88345040037
:1056F0004E864A85EFF0DFFA0504E31545FFF240D8
:105700006244D2444249B249224A056182803571DD
:1057100022CD26CB4AC94EC706CF52C556C35AC161
:10572000DEDEE2DCE6DAAA89AE843289368409C597
:105730001C4D99E3EFF05FCF97170000938787AB7D
:10574000639DF40C83A4490083D7C400A18BE5CBEF
:105750009C48F5C793070002A304F10293070003D6
:1057600002D22305F10222C6930B5002971A0000C1
:10577000938A4AAC054C294B4A848347040099C359
:105780006392770FB30C2441638E0C00E6864A8641
:10579000A6854E85EFF07FF3FD576309F51E9256FF
:1057A000E69636D2834704006382071EFD5713092D
:1057B000140002C802CE3ECA02CCA309010482D45E
:1057C0008345090015465685EFF0EFC8130419000C
:1057D000C24759E913F7070109C713070002A309D4
:1057E000E10413F7870009C71307B002A309E10416
:1057F000834609001307A0026380E608F2474A8443
:10580000814625460347040093051400130707FD4E
:105810006379E60AB5CA3ECE85A89717000093873C
:10582000679F6395F40083A4890039BF9717000030
:105830009387479AE39AF4F083A4C90031B7A68509
:105840004E85EFF09F8719D57D55FA406A44DA44BA
:105850004A49BA492A4A9A4A0A4BF65B665CD65CC0
:105860000D618280050411BF330555413315AC002D
:10587000C98F3EC82289A9B732479306470018430B
:1058800036C6634907023ACE034704009307E00295
:10589000631FF704034714009307A002631BF7027A
:1058A000B2470904138747009C433AC663C1070205
:1058B0003ECA35A83307E04093E727003ACE3EC8FA
:1058C000E1B7B387670385462E84BA9725BFFD5796
:1058D000C5B7050402CA814681472546034704002F
:1058E00093051400130707FD6378E606F1F283457C
:1058F00004000D461715000013054594EFF0AFB5F1
:1059000011CD97170000938767931D8D93070004AF
:10591000B397A700424505045D8D2AC8834504005E
:105920001946171500001305A59113091400230447
:10593000B102EFF04FB23DC197A7FFFF9387876C8D
:1059400095E74247B2471377071009CF91073EC644
:105950009257D2973ED20DB5B387670385462E8402
:10596000BA97ADBF9D07E19BA107D5B77800970611
:1059700000009386C6D526860C084E859700000049
:10598000E7000000FD572A8AE314F5FC83D7C40022
:1059900093F70704E39A07EA125545BD7800970686
:1059A00000009386C6D226860C084E85012AD9BFF0
:1059B000797156CA9C49BA8A984522D426D24ECECD
:1059C00052CC06D64AD05AC85EC6AA892E84B28462
:1059D000368A63D3E700BA879CC00347340419C3EF
:1059E00085079CC01C4093F7070281C79C4089072C
:1059F0009CC00329040013796900631A0900130B82
:105A00009401FD5B5C449840998F634CF9041C4001
:105A10008346340493F70702B336D000A5EB130690
:105A20003404D2854E85829AFD576303F5041C40E9
:105A300011469840998B544481446397C700B384BE
:105A4000E64063D3040081441C4418486354F700C3
:105A5000998FBE94014969047D5B639824050145D3
:105A600009A885465A86D2854E85829A631E75019D
:105A70007D55B250225492540259F249624AD24A98
:105A8000424BB24B456182800509ADBF3307D4005C
:105A900013060003A301C7040347540493871600A9
:105AA000A2978906A381E7049DBF85462286D285F9
:105AB0004E85829AE30E65FB050945B7797122D4BC
:105AC00026D24AD04ECE06D652CC56CA5AC8B6892D
:105AD00083C68501930790063289AA842E84138693
