:100000006F20B07613000000130000001300000002
:100010001300000013000000130000001300000094
:100020001300000013000000130000001300000084
:08003000130000007300100032
:1000380000000000000000005C24000060240000B4
:1000480000000000022F0000000000000000000077
:10005800042F0000062F0000000000000000000030
:10006800082F0000000000000A2F00000000000018
:100078000C2F00000E2F0000102F0000122F000080
:10008800142F0000162F0000182F00001A2F000050
:100098001C2F00001E2F0000202F0000222F000020
:1000A800242F0000262F0000282F00002A2F0000F0
:1000B8002C2F00002E2F0000302F0000322F0000C0
:1000C800342F0000362F0000382F00003A2F000090
:1000D8003C2F00003E2F0000402F0000422F000060
:1000E800442F0000C0020000482F00004A2F0000E3
:1000F8004C2F00004E2F0000502F0000522F000000
:10010800542F0000562F0000582F00005A2F0000CF
:100118005C2F00005E2F0000602F0000F824000014
:10012800642F0000662F0000682F00000000000008
:080138000000000000000000BF
:10014000397101436EC619A0397141536AC866CA34
:1001500062CC5ECE19A0397101535AD056D252D416
:100160004ED64AD826DA22DC06DE3301614082828E
:1001700041114AC026C222C406C68282B24D410144
:10018000024D924C224CB24B4101024B924A224A00
:10019000B2494101024992442244B2404101828065
:1001A0003D432A876373C3029377F700BDEFADE544
:1001B000937606FF3D8ABA960CC34CC30CC74CC756
:1001C0004107E36BD7FE11E28280B306C3408A0683
:1001D0009702000096966780A6002307B700A30643
:1001E000B7002306B700A305B7002305B700A30493
:1001F000B7002304B700A303B7002303B700A3028B
:10020000B7002302B700A301B7002301B700A30082
:10021000B7002300B700828093F5F50F9396850011
:10022000D58D93960501D58D61B7939627009702DA
:10023000000096968682E78086FA9680C1171D8F09
:100240003E96E374C3F8A5B7EFF29FF20111AA84BA
:100250002E840945854502CA02CC231E010002C630
:1002600002C8EF30E005231A8100370400404C0833
:1002700013050440231C9100231D0100231B0100D2
:10028000EF30E0050546854513050440EF30E00EEC
:100290009307D0122316F10089472307F100680065
:1002A00085473EC8EF209064854513050440EF3034
:1002B000000BB7E700E0096723A2E7100561D9BD8D
:1002C000411122C637040040854513050440EF3034
:1002D000200C55C1854513050440EF30200D938651
:1002E000811F03C60600894763F7C70803C61600C7
:1002F0008D4583C756006314B6041307A0103387D7
:10030000E702938741CC8146BA9703C8070063048C
:10031000D80603C587003E86014709A88345160213
:1003200005071377F70F8505A300B6020506E31747
:10033000E5FE850693F6F60F93872704C9BFA5450A
:10034000631BB6021305A010B387A702938541CCA7
:1003500003C366001387811F8146138541CC094E74
:100360008D4E130FA010AE9783C5270285052381FC
:10037000B7026316D3003244410173002030834733
:1003800077006376FE04834787006392D70583472F
:10039000C7008145B387E703AA9783C20700638834
:1003A000B20283CF87003E88014609A8834818021D
:1003B00005061376F60F8508A30018030508E397D2
:1003C000CFFE850593F5F50F93872704C9BF8506F2
:1003D00093F6F60F190771BF03474500A146630660
:1003E000D70083C7E5006396D700A1472300F60036
:1003F00082809D466304D7006394D7009D47FDB774
:100400008D466304D7006394D7008D47C5B7A546D2
:100410006304D7006394D700A547C9BFFD57F9B758
:10042000EFF21FD23755000001111305C5B0138438
:10043000811FEF30603D8144938A01CB375B000020
:10044000930B140013054006EF30C00D850493F4A0
:10045000F40F214533159500EF30C00C0145EF1026
:10046000701301498149930C3400194D130C400657
:100470006685EF10101819E5850993F9F90F636F78
:100480003D11014905094209054513590901EF309C
:100490006009E31F89FD9547E3F697FAD94521A83E
:1004A000375500001305C5B2EF3060249547E3FBD4
:1004B00097F8930550042E850561C9B1375C00009B
:1004C00013058CB3EF304034154523012401EF3080
:1004D0006005375500001305C5B3EF3040210345D3
:1004E00044009385018B9306E10113060040EF1051
:1004F0009044AA85938D018B35E903CD5D000149B8
:100500008357E1016367F90413858CAFEF30C02F87
:100510005E869385018B5685C1358345140037551A
:1005200000001305C5B4EF30801C375500001305DB
:10053000C5B5EF30C01B03454400EA85EF101050ED
:10054000AA8529E12AC613058CB3EF30E02BB2450A
:100550009DB7B3872D0183C50700050913054BB16E
:100560004209EF30C0181359090159BF375500002F
:100570001305C5B2EF30A0179547E3F597EC930547
:10058000700415BF375500001305C5B2EF302016B3
:100590009547E3F997EA9305B00F31BF375500004F
:1005A000130585B6EF30A014938501CB13054400E5
:1005B000EF10F033AA85E31505EE0149C949B38769
:1005C0002A0183C5070013054BB10509EF3020123E
:1005D000E31739FFB75C000013858CAFEF30C02202
:1005E000375500001305C5B1EF30601003454400D6
:1005F0008945094923012401EF10D040AA85E30F62
:1006000005EA375500001305C5B2EF30400E954797
:10061000E3FA97E29305600479BDEFF2FFB2130AA3
:10062000A010330A4503938941CC2A8CAE8A8144B9
:1006300001441389018B894B338B4901834739006E
:1006400003472900A207BA976354F41EB307890031
:1006500003C717006314770383C747001147637C00
:10066000F7002300EB00B307890083C707003E941F
:1006700042044180E1B72300FB00F5B79146E31641
:10068000D7FE6387E41A83C657000D476393E618C5
:1006900003C76700854663EDE61403C7770063E987
:1006A000EB146317D70C93072004B387F402D29797
:1006B000CE972381E70081460146A6855685EF1037
:1006C000104BB307890083C7070093081002130774
:1006D00050083E9493072004B387F4020343290093
:1006E0004204418081460145114E954E33881403E2
:1006F000D297CE973307EC023A9833078900034626
:1007000017006303C60D6371640C834507002E94C4
:1007100042044180631FD6090346570083452700E2
:10072000034F4700220693F2F5007A96E20542064F
:10073000E185834F3700418263D705040347670093
:10074000338FA700B305A800230FEF0003C787006E
:10075000A1058605CE9505070505A3045F00A30640
:10076000FF012391C5002384E7001375F50F71B7CE
:10077000E31977F593072004B387F402D297CE9755
:10078000238177010DBF3387D700A3035702A30549
:10079000F7033307D800410706074E972318C70011
:1007A00003C76702850693F6F60F05072383E70262
:1007B000A9B7E31416F5034687000347770022061E
:1007C000518F2392E70015BF8547639FF60093077B
:1007D0002004B387F402D297CE9703C7270063158E
:1007E000D7007D572380E704850493F4F40FB9B54F
:1007F00093072004B387F4027D57D297CE972381C5
:10080000E700B307890083C707003E944204418094
:10081000E1BF93072004B384F4029307A010330CC4
:10082000FC02FD57269C938441CCE2942381F40082
:100830000145B9B283C6018B9547639BF6181387B0
:10084000018B8346170085476394F618834627007B
:10085000A547639FF616834637009947639AF616B5
:10086000930620041308A01033080503138641CC17
:10087000011122CE26CC4ACA4EC852C656C4B386EF
:10088000D5025AC25EC091470143814E014F014ECD
:10089000938841CC1144C296369683534600014852
:1008A000930F000793040008930200092149C149EE
:1008B000130A0002854A63E07704A147631DF30E23
:1008C000930720041307A010B387F5023307E5024E
:1008D000BA97B385F80083C7050481E7854723806D
:1008E000F5047244E2445249C249324AA24A124BC8
:1008F000824B05618280B306F70083C60600850738
:10090000C20793FBC60013FB3600C18393F6060FA4
:10091000638D8B02638B2B0763950B0263935602E7
:1009200063010802B386EE033693420313530301B7
:1009300063090E008346C60389E6230E5603A30E01
:10094000C603DA97C207C183BDB7638BF60363EBB7
:10095000DF00E5FAB306F70003C806006118133894
:100960001800C5B763899600E39D56FCB306F700EF
:1009700083CE0600F9B7B306F70003CE0600D1B761
:10098000B306F70003CF06006DBF638D3601E39A0F
:1009900046FBE30808FAB306F70083C60600A30F78
:1009A000D60245B7E30F08F8B306F70083C6060082
:1009B000230FD60279B793072004B387F502930576
:1009C000A0103305B502AA97C6972380070411BF6C
:1009D0008280EFF2EFF6930AA010B30A55039387D3
:1009E00041CC41112A8BAE8C014A938941CCD697D8
:1009F00083C40700D68B3EC6DDC8B2471309200466
:100A000003C40700058C1374F40F33092403B307E0
:100A10007901CE9783D74700BDCF93874A003E998F
:100A20004E99B75D0000154DB7570000A28513859C
:100A300007A0EF20D04BA285CA861386018B66855E
:100A4000050AEF10500D137AFA0FAA8529E9130948
:100A5000200433092403014DB75D00005E994E99CF
:100A600031A89387018BEA9783C50700050D13858D
:100A70004DB1420DEF20B047135D0D018357490082
:100A8000E361FDFE37550000130585AFEF20D05719
:100A9000A2855A854533FD1493F4F40FB1BF138535
:100AA000CDB2EF20D044E3714DF993048004268544
:100AB00041016FF0AFEC1307A0103305E5029387F7
:100AC000018B03C6370083C727002206938641CCDB
:100AD0003E969385018B814709431148254E954EDB
:100AE0003695854863C4C700014582803387F50089
:100AF000034F070083461700FA97C207C183639C20
:100B000066000347470063F5E80023001501D9BFDD
:100B10002300E500C1BFE39706FD03475700E31339
:100B2000C7FD3387F50083461700E38D06FBE3DB43
:100B3000C7FA034F0700FA97C207C183E393D6FFB2
:100B400083462700139F8601135F8F41E35B0FFCF1
:100B5000BD8AA304D50083463700034F4700A30690
:100B6000D5008346570003476700A206230FE50020
:100B700003478500FA962319D50005072304E500ED
:100B80004DB7EFF24FDD375500004111130585A237
:100B9000EF20904737550000130545A3EF2030356F
:100BA0009387811F03C557003937AA896312052A25
:100BB00037550000130585B3EF2010459387018B4F
:100BC00083C767001384811F9384018BA9C33755A2
:100BD0000000130585A4EF20903183C56400034510
:100BE00044001386018BEF10205CAA856312051464
:100BF000375A000003C7040093970901C18363EFCC
:100C0000E71037550000130585AFEF20F03F9387BD
:100C100001CB83C7E700938901CBB1C337550000EF
:100C20001305C5A5EF20B02C83C5E900034544009A
:100C30001386018B014AEF102057AA85631B05100C
:100C4000B75A000003C7040093170A01C18363E881
:100C5000E70E37550000130585AFEF20F03A83C744
:100C6000F900B1C337550000130505A7EF20302860
:100C700083C5F900034544001386018B014AEF1038
:100C8000A052AA856318050EB75A000003C70400D6
:100C900093170A01C18363E5E70C3755000013057C
:100CA00085AFEF20703683C70901A9C3375500000F
:100CB000130545A8EF20B02383C50901034544006F
:100CC0001386018B8149EF10204EAA8569E5375ABA
:100CD000000003C7040093970901C18363E3E70A97
:100CE00037550000130585AFEF201032375500004F
:100CF000130585A9EF20B01F154AB75A0000034518
:100D000044001306E1009385018BEF106071AA89FE
:100D1000631005120149375A00004DA0B387340112
:100D200083C5070013054AB18509EF20501CD9B5CA
:100D3000375500001305C5B2EF20701BC9BDB3873E
:100D4000440183C5070013854AB1050AEF20301A14
:100D5000D5BD375500001305C5B2EF20501901B7B6
:100D6000B387440183C5070013854AB1050AEF2004
:100D7000101829BF375500001305C5B2EF203017F2
:100D80001DB7B387340183C5070013054AB1850930
:100D9000EF20F0153DBF375500001305C5B2EF2019
:100DA0001015A9B7B387240183C5070005091305EA
:100DB0004AB14209EF20B013135909018357E100EA
:100DC000E362F9FE37550000130585AFEF20D0230D
:100DD00003C72400914763EAE7042303E400834543
:100DE000640037550000130585AAEF205010014913
:100DF0008544114A8347640063E89704034544002F
:100E0000214693F5F40FEF10005F01CDFD140509A5
:100E10001545C2041379F90FEF20C070C1806363D8
:100E20002A038504C204C180F1B72303F40045BF3F
:100E30007D1ACE851385CAB2137AFA0FEF20300BD4
:100E4000E31F0AEA9309E00F4E8541016FF0EFB30B
:100E5000AA85375500001305C5B2EF205009EDB73C
:100E6000EFF26FAF83C705004111B3D7A740858B61
:100E700099E71304E00F228541016FF00FB19389C8
:100E8000811FAA85AA8403C5490070001389811FA8
:100E9000EF10E0502A8409C9AA85375500001305D0
:100EA0004596EF20D004C1BF8347E100858BF1D385
:100EB00003C549004146A685EF1040512A84294ABE
:100EC00005C1AA853755000013058597D9BF83470B
:100ED000E10005041374F40F858B85C7E30B44F917
:100EE000034549007000A685EF10604BAA8965D1C3
:100EF000AA85375500001305C598EF20407F4E8422
:100F00009DBFA947E307F4F68347C100858BB5F37E
:100F100037550000A6851305059AEF20407D5944FA
:100F200099BFEFF24FA383C705004111B3D7A74084
:100F3000858B99E71304E00F228541016FF0EFA440
:100F40009387811FAA852A8903C547001146938983
:100F5000811FEF10404A2A8409C9AA85375500002D
:100F60001305459BEF20A078C1BF2945EF20805B8A
:100F70002D4A03C549007000CA85EF104042AA847B
:100F800011C9AA85375500001305859CEF202076EE
:100F900026845DB78347E10005041374F40FC18B09
:100FA00085EBE31844FD03C549005146CA85EF109F
:100FB000E0412D4A03C549007000CA85EF10203E6C
:100FC0002A8419C9AA85375500001305C59D59BF44
:100FD000A947E301F4F6C1BF8347E100850493F418
:100FE000F40FC18B85C3E39744FD8347C100858B14
:100FF000B1D337550000CA851305059FEF20206F38
:1010000055441DBFA947E387F4F2C5B7EFF24F96E9
:101010002E842E86AA8503C5C11FEF10403819E91A
:101020008347140013F7270011E713F54700333502
:10103000A00005056FF00F96EFF20F912A89375542
:1010400000004111130545AC2E8C328AEF20C07B85
:101050009947B307F9029389811FA9441384811F1B
:10106000DA8AB75B0000AD07BE99938501CB4E8548
:10107000EF10E007AA855DE5B75900008144938C25
:1010800001CBC94B4E8BB3879C0083C507001385EA
:1010900049B18504EF20A065E39774FF9944B30438
:1010A0009902B7590000138589AFEF20E0753755D5
:1010B0000000130585ADEF202075A94BB75C00003B
:1010C000A29483C5C40003C5B400890593F5F50F48
:1010D000EF104013AA8525E5994BB30B790383C71D
:1010E000C400154589072300FC00EF20A0433755B5
:1010F0000000130585AEEF202071A944A29B668CE9
:10110000375D000003C5BB009385018B9306E100AA
:1011100013060040EF102002AA8569E18144938BF9
:10112000018BA9A0FD141385CBB293F4F40FEF202B
:10113000005C85FC1305500441016FF06F84FD1BBA
:101140001385CCB293FBFB0FEF20605AE39B0BF6A9
:1011500013056004D5B7B3879B0083C507008504DA
:1011600013054BB1C204EF208058C1808357E100C2
:10117000E3E3F4FE138589AFEF200069528693857F
:10118000018B138501CB83C95B00EFF0EFA483458E
:101190000A00375500001305C5B4EF2040553755F8
:1011A00000001305C5AFEF20206699473309F90207
:1011B000A9444A94375900000345B400CE85EF1086
:1011C000E0073DD9FD14AA8593F4F40F1305C9B2C5
:1011D000EF20E051F5F013059004B9BFFD1413059D
:1011E000CDB293F4F40FEF208050E39D04F099B753
:1011F000EFE21FF5130D2004338DA5039305A01016
:101200003289368C8549094B8D4B3305B5026A9579
:10121000138D41CC2A9D034AED0383441D04834A68
:10122000FD03D28D33844D411374F40F834C1D04A0
:1012300063FABA01338494413334800023018D046E
:101240006FE0DFF3639F3D016286930530054A85B9
:10125000EF20E03C33948D0005E1850D93FDFD0FFB
:10126000D1B763906D036286930590034A85EF20A2
:10127000003B65D53394890033449401A3008D0469
:10128000E9BFE39C7DFD628693057004C5B7EFE27C
:101290003FEEAA861308A0102E85B28513062004FF
:1012A00033880603938741CC4111138741CC3386A1
:1012B000C5024296B29703C8C70303C61704630367
:1012C000080483C7D703A306C1002306F10089479A
:1012D0001306A0102317F10093072004B386C6025B
:1012E0008548B387F5023388D7003A980346080447
:1012F000631E16019306E1007000EF10C004410167
:101300006FE05FE92306C1008547D9B79305F00F69
:101310000145E316B6FE93878703B6970345780227
:101320008356E1007000B305F700EF00907AC1BF6B
:10133000EFE29FE1AA8A375500001305C5A12E8A66
:10134000EF20804C37550000130545A3EF20203ACD
:10135000D2855685EFF06FAC2A8B63140520375584
:101360000000130585B3EF20204A9387018B83C7C4
:1013700067001384018B8DCF37550000130585A4BA
:10138000EF20E036834564001386018B5285EF0021
:10139000B061AA8463110512B759000083470400A5
:1013A00063EFF40E37550000130585AFEF20C045FD
:1013B000D2855685EFF0EFE1938701CB83C7E70035
:1013C000938401CB8DCF375500001305C5A5EF20C1
:1013D000003283C5E4001386018B5285EF00D05C98
:1013E000AA89631E050EB75B00008347040063EC07
:1013F000F90C37550000130585AFEF20E04083C797
:10140000F4008DCF37550000130505A7EF20202EDF
:1014100083C5F4001386018B5285EF00F058AA892A
:101420006313050EB75B00008347040063E1F90C0A
:1014300037550000130585AFEF20003D83C7040139
:1014400085CF37550000130545A8EF20402A83C5F6
:1014500004011386018B5285EF001055AA8461E9BF
:10146000375900008347040063E7F40A375500004A
:10147000130585AFEF2040391309A01033892A03E3
:10148000938441CC0144930B2004054CB38924017F
:1014900083C709006365F40A5A856FE07FCEB307FE
:1014A000940083C50700138549B18504EF202024EB
:1014B00093F4F40FE5B5AA85375500001305C5B2BE
:1014C000EF20E022F5B5B307340183C5070013858B
:1014D0004BB18509EF20A02193F9F90F39B7AA85FF
:1014E000375500001305C5B2EF20602009BFB307D0
:1014F000340183C5070013854BB18509EF20201FF8
:1015000093F9F90F15B7AA85375500001305C5B231
:10151000EF20E01D25B7B307940083C5070013052E
:1015200049B18504EF20A01C93F4F40F25BFAA85D0
:10153000375500001305C5B2EF20601B35BFB30758
:101540007403CA97A69703C7270063188701A3806F
:1015500007042286D28556851D3B05041374F40FBB
:1015600005BFAA85375500001305C5B2EF20201826
:1015700025B7EFE2FFBC03C5811F01111384811F52
:10158000EF00A0778547AA846310F5163755000051
:10159000130585B7EF20402723009400A302040021
:1015A000EFE01FE8AA8463150512834714000D4776
:1015B0006390E704375500001305C5B8EF202013EA
:1015C0008345440003455400A5332A89375500005C
:1015D000130545BAEF20A011631809023755000022
:1015E000130585B3EF2040228D472300F4001DA88A
:1015F00025476398E708375500001305C5BBEF2062
:10160000000FEFF00FD8D1B7D944630D99003755CB
:101610000000CA851305C5B2EF20600D894723007D
:10162000F400CA8403470400894763F0E72883472E
:1016300014000D47034954006390E724930BA01056
:10164000B30B7903138741CC938741CC3EC28149C8
:10165000938D018B5E973AC05EC43A8C83470C0031
:1016600063F5F92493072004B387F9022247014A5E
:10167000B38AE7001247BA9A1387AB01BA973EC6FE
:1016800025A237550000130545BDEF2040068347CE
:1016900014002147638EE7001307F00F6385E7020C
:1016A0001D47639DE70037550000130505BF29A0BE
:1016B00037550000130545BEEF2060033755000085
:1016C000130585C005B7375500001305C5BFEDB735
:1016D000D947E309F5F4AA8537550000130545C13C
:1016E000EF20E000894711B715FD375500001305BD
:1016F00045C3EF2060117D460349540081451385A1
:10170000811FEFE0FFA91305A0103309A90213857B
:1017100041CC1306A01081454A95EFE07FA819B788
:10172000338D4A0103472D028346ED01636BD706D3
:101730003377D702B24703459D009306E101B38595
:1017400047011386018B9247BE952301ED02EF00FE
:101750007033AA8441E537550000130585C4EF2096
:10176000A00A814C8357E10163EBFC04375500006C
:10177000130585AFEF20400903C72A008547631290
:10178000F7028356E1016E86CE854A85EFF05FA6AB
:1017900083C72A0499C7834544004E864A85EFF0E3
:1017A0001FAF050A137AFA0F83C78A00E36AFAF6B5
:1017B000D947638CF40E850993F9F90F45B5B387C2
:1017C0009D0183C50700850CB7570000138547B1FD
:1017D000C20CEF10D07193DC0C0169B7D94C6306D1
:1017E000950D1307E002E31EE5FA375500001305D7
:1017F00005C5EF20600183459D000345440093E546
:101800000508EF00F02503471C00230D0D00A54639
:1018100005071377F70FA300EC00E3F4E6F87D4625
:1018200081451385811FEFE0BF97EFE07FBFAA845A
:1018300015ED83459D000345440093E50508EF0041
:101840003022024585471306A0108145A3000C00F5
:101850002300F400A3020400EFE09F9483454400BA
:101860004A85EFF0FFACAA848D4701C5E38B94F362
:1018700089472300F40035B725476398E7029305AD
:10188000A0103309B902138A41CC938941CC4A9AFA
:1018900083472A020347EA0163FCE700814A938DEC
:1018A000018B8347640063E1FA2405616FE01F8DBB
:1018B000B3F7E702034524006909138B018B230169
:1018C000FA02412103453400492903459A00930651
:1018D000E1011386018BB3852901EF00B01AAA84B8
:1018E00055FD83450B00375500001305C5C5A30EF4
:1018F000B1000149EF10B05FB75B0000375C00003A
:10190000B75C0000375D0000B75D000083476400EE
:10191000E376F9F8130B1900137AFB0F9305D10145
:101920005285EFF0EFD35947AA846316E5041945B1
:101930003309A9020547B31767010347D10193C7CC
:10194000F7FF1306A010F98FA30EF1008145B3072E
:10195000240103C5C7009307A0101D093305F50234
:101960004E95EFE0FF831946814533052401EFE0F2
:101970003F83528961BF13054006EF10B03A9305CB
:10198000D1015285EFF0EFD95547AA846316E50CD3
:101990009947B307F9020547A297A383E7002147B8
:1019A000A385E700238647019944B30499029385F0
:1019B000018B5285EFF08FE5B7570000AA85A294FE
:1019C0002385A400138507C7EF10705203C5940048
:1019D0008D2E03C5A40051268347340089CB3707D9
:1019E00000508347170093F7B70FA300F700B757CE
:1019F0000000138507C8EF1030619947B307F9025B
:101A00004A8513868700938597002296A2953EC04B
:101A1000EFF08FE2AA84824745ED330BF4000347D1
:101A20008B008D46631DD704CA8513850DC93AC046
:101A3000EF10F04B8345BB000345CB00EFF05F8F09
:101A4000AA8402471DF537550000A303EB001305D8
:101A5000C5CBEF10705B31BF8346D1010547B3178B
:101A6000670193C7F7FFF58FA30EF1009947B307FE
:101A7000F902A29783C77700E39DE7EE35B7CA85E1
:101A800013854BCCEF10B04683478B002147638B07
:101A9000E702636DF7001D476389E70219453309C3
:101AA000A9028D472299A303F900E1B52547638E6A
:101AB000E7001307F00F13054DCFE391E7FEEF109A
:101AC000B054E9BF1305CCCDDDBF13858CCEC5BFA7
:101AD000A2970947A383E700B7570000CA8513857B
:101AE00007D0EF10D04071B59947B387FA028D4601
:101AF000A29703C77700631AD71283C6870063963D
:101B0000E61203CDC700130CA010014A330C8D035D
:101B1000B387890162C03EC2924783C707006376DC
:101B2000FA10930C2004B30C9A03194B8247014915
:101B3000338B6A03B38BFC00CE9B229B45A8338773
:101B40002B01834727028346E70163EED708B3F7EB
:101B5000D70203459B002301F702E5220345AB00B2
:101B6000ED2A8347340089CB37070050834717009D
:101B700093F7B70FA300F700B3872B019305AC01D0
:101B8000E69503C59700CA959306E1011386018B7C
:101B9000CE95EF00206FAA8449E537550000130564
:101BA00085D1EF10704681470357E10163EBE704ED
:101BB00037550000130585AFEF10104503C72B0004
:101BC00085476312F7028356E1016E86D2856A85E6
:101BD000EFF00FE283C72B0499C78345BB00528601
:101BE0006A85EFF0CFEA05091379F90F83C78B00F7
:101BF000E367F9F4D9476389F402050A137AFA0F07
:101C000021BF3387FD00834507003EC4B75700005E
:101C1000138547B1EF10B02DA2478507C207C183D6
:101C200061B7D947E311F5FCD944850A93FAFA0F55
:101C30008DB9370700508347070093F7F70B230050
:101C4000F7008347170093F7B70FA300F7008357F8
:101C50006703C207C18393F7F7BFC207C183231B82
:101C6000F7028280EFE2CFD0B707002003A7070773
:101C7000B74795089387074009456300F702B7E720
:101C8000B8059387078005456309F700B777DC023D
:101C9000938707C06315F7000145EF10A0508545F5
:101CA0000565EF10205E6FE0EFCEEFE26FCC854769
:101CB00037040050631AF50299472300F4002945C0
:101CC000EF10F002930790F8230004002300F400C3
:101CD00093078004A306F400938781211CCC93878B
:101CE00081255CCC6FE00FCB99472300F400294598
:101CF000EF10E07F23000400F5B73707005083475B
:101D00006700858B9DC385472303F70083465700F3
:101D10008147858A81CE854711C989476307F500C8
:101D2000034717008547058B11C389473E8582808D
:101D3000B707005003C557000581134515000589F5
:101D4000828037070050834737001375F50793F7F4
:101D50000708C98FA301F700828085476317F50044
:101D6000EFE20FC1F9356FE0EFC2B707005003C7CC
:101D70000700136707042380E70003C717001367F2
:101D80004700A380E70003D7670313670740239B3F
:101D9000E7028280EFE2CFBD2A8401455D37513DE5
:101DA000854763EE8700370700508347170093E7A6
:101DB0002700A300F70001EC2D45EF10A0763707B0
:101DC00000508347170093F7D70FA300F70009458A
:101DD000EF104075B707005003C76700058B01CBB4
:101DE00003C75700058B01C705472383E7006FE052
:101DF0006FBA3707005083475700858B95CFEFE2C6
:101E00002FB783471700858B99E72A84153723005E
:101E1000A40011E19937B707005003C71700014527
:101E200013671700A380E70003D767031367470012
:101E3000239BE7026FE00FB659458280EFE2CFB0F7
:101E4000B7070050A38DB702416A2A8B3289238FCE
:101E5000B70293594500814437040050894B394CEF
:101E6000A94AA54C7D1A230C640323037401130DA6
:101E7000803E83476400898B91EB7D1D420D0545B3
:101E8000135D0D01EF10A066E3150DFE230C040297
:101E900083476400898B81E71305E00F41A08347E6
:101EA000740093F70704D1E38347740093F7F70FA7
:101EB00013F5F700630D850763175505630C0906D5
:101EC000630649017D19420913590901FD1493F470
:101ED000F40F5145EF10A06183476400858B81CFDB
:101EE0001305800CEF10A06083471400858BB1C7E9
:101EF00085472303F400850493F4F40FE39554F726
:101F00001305000221A8638D9901B5476385F90087
:101F10008547E393F9F855DD136505026FE04FA699
:101F20009D8B0D47E399E7FE6DB70145C5BF1305CE
:101F3000E002EDB71305A002D5B75945C5B7EFE2EA
:101F4000AFA0AA89B284130540062E89EF10205A4B
:101F500099C02390040037040050A147896A231ECA
:101F6000F40213860A7181451305000DC13D631902
:101F700005149147A30DF402230FF40293878125E2
:101F800003D46700138B8125630B040E6309090ECC
:101F90008387070063C50706CE8BC20993D9090161
:101FA000370A0050938A0A7113054006EF10205437
:101FB000DE8763733401A287231EFA028147035729
:101FC000CA03639BE7108345EA0356864145BD3546
:101FD0006318050E8347EA0393C74700230FFA02ED
:101FE0008357CA031D8C4204418081C88357CA03AA
:101FF00003D70400BA972390F4005DF449A0370A90
:102000000050938A0A71138B8121FD191305400634
:10201000EF10E04D8345BA03568613050009393D9C
:1020200045E18347BA0393C74700A30DFA0203575C
:102030008A00A2876376870083578A00C207C1831C
:102040001D8C4204418091C403D704003E97239025
:10205000E400014793160701C1826395D7063E99B4
:1020600083578A00C207C18399C783578A00B3F791
:10207000F90091E341FCB7070050239E07021305C6
:102080004006EF10C046B707005083D7C7031305BB
:102090000009C207C18391E3414509661306067131
:1020A0009145693B11ED370700508357C703C207BD
:1020B000C18399C783578700C207C18391C35D4518
:1020C0006FE00F8CB306EB0003C60600B306E90011
:1020D00005072380C600BDBF834609003307FB0008
:1020E0008507C2072300D7000509C183C9BDEFE2F8
:1020F0002F8813840182A14718402300F50093879D
:10210000812598C35840AA844111D8C303450500CE
:102110001306E1002E89253501ED83477900035729
:1021200064002380F4008357E10063F3E7005D451A
:1021300041016FE02F86EFE20F8213878181B28920
:102140001043584393878125411190C3D8C33686E5
:102150002A8A2E8936C6E53329E5B246138781815E
:102160000356670083D506005D4563ECC502034650
:102170003900834529009387812522064D8EB2853B
:1021800063F3C900CE85104358432390B60090C333
:10219000D8C303D706003686CA852393E700528545
:1021A000793B41016FD07FFEEFD2FFFA93878182A6
:1021B00003AA070083A94700138481254111B28433
:1021C00013E90530232044011306E100A685AA8AFD
:1021D00023223401231124019D3315E183C7040018
:1021E0001306E1002320440123223401A6855685ED
:1021F0002317F100231124012313F4008933410133
:102200006FD0BFF8EFD2DFF6138701831443584332
:102210009387812594C32391B700AE84D8C3014628
:102220008145EFF0DFD12A8419E52685EFF07FB1F3
:102230001545EF10202F22856FD0DFF5EFD25FF329
:1022400013878183144358439387812594C3239133
:10225000B700D8C301468145EFF07FCE6FD09FF322
:10226000EFD21FF1138701811443584393878125CF
:10227000D8C32392B70094C301468145EFF03FCC09
:102280006FD05FF1EFD2DFEE2E8483C505004111E0
:10229000328913650509014636C6EFF03FBAAA84B4
:1022A000B24605E5B707005003D687009385812124
:1022B000420641822390C6004A85EF10E0378347EB
:1022C000040093C747002300F400268541016FD026
:1022D0007FECEFD2FFE9AA8441112E84138581257A
:1022E000B285368636C6EF102035B246B7070050A5
:1022F0000146239ED7028345040013E50401EFF055
:10230000FFB319E58347040093C747002300F40097
:1023100041016FD03FE8EFD2BFE5138701843288D7
:102320001043584323ACC12493878125D8C32392FB
:10233000B70003D706003686C2852393E700EFF087
:102340001FC06FD03FE5EFD2BFE213878184328890
:102350001043584323ACC12493878125D8C32392CB
:10236000B7003686C285EFF09FBD6FD0BFE2EFD2D7
:102370003FE01387018503280700584323AC01255C
:10238000220693878125D18ED8C32392B70023914B
:10239000D70001468145EFF09FBA6FD0BFDFEFD283
:1023A0003FDD13878186B2861043584323ACC12496
:1023B000938781254111D8C32392B7001306E1000A
:1023C000B685EFF0DFB741016FD0DFDCEFD25FDA27
:1023D000138781851443584323ACD12493878125E7
:1023E000D8C32391C7002392B70001468145EFF07F
:1023F0001FB56FD03FDAEFD2BFD7138701871443E1
:10240000584323ACD12493878125D8C32391C70097
:102410002392B70001468145EFF07FB26FD09FD77E
:10242000EFD27FD3938701869843DC4323ACE1242A
:1024300013848125AA89AE8432895CC0EFF03FB055
:1024400001ED83C704004A86A6852310F9004E8556
:102450002313F400EFF0BFAE6FD03FD373002030F2
:1024600001A0B7070050130740F82386E700A386B2
:10247000E700130780042387E7001387C16A98CB1E
:1024800013878129D8CB98CF1387C16ED8CF1387F4
:10249000C17698D31387C17ED8D33717002013078E
:1024A000C70D98D7A3890702A38B0702A38F070242
:1024B000A3830704239C07022390070423940704A3
:1024C00009472389E702238DE7022381E704238557
:1024D000E7049387418823800700A38007002381B6
:1024E0000700A381070023820700A382070023833C
:1024F0000700A38307008280011122CE26CC4ACA9E
:102500004EC852C656C43704005003476400834780
:1025100074001377F70F937627006380067A93F79A
:10252000F70F13F7070393060002630FD70693060E
:1025300000036305D73059E313F7F70385466307B4
:10254000D71E6302071C8D466308D726954663177E
:10255000D70693F70704BDC3184483477404B7161E
:102560000020420793C74700A303F4048347740481
:10257000418393F7C70F93E72700A303F4049386DF
:10258000C60D81471386C17E93950701C18163EB18
:10259000E528B70700502394E70403C727041377FF
:1025A000C70F2385E70419A893F7F70393062002C2
:1025B000638FD70E63EAF6006389E704B70700501C
:1025C00009472383E70021A7130740026384E7102C
:1025D00013076002E394E7FE8347A40493C7470010
:1025E0002305F4048347A40493F7C70F93E7270058
:1025F0002305F404938741882383070083477404E9
:1026000093F7C70FA303F40455BF9387018983D7BA
:10261000070093840189C207C18381E79147A30919
:10262000F40283C7218993F70706C9FB83C7C188D2
:10263000154793F7F70F6380E7061947E390E7F82C
:1026400083D704001307F003130400046366F70044
:1026500003D404004204418013898189832909003D
:102660002286CE851385C16AEF00107D83D70400D2
:10267000A29923203901818FC207C1832390F400DE
:10268000B70700502398870203C727031347470063
:102690002389E70225B7370700508347370083C6F1
:1026A000018893F70708D58FA301F70001BF83477F
:1026B000A40393C74700230DF4028347A40393F7B1
:1026C000C70F93E72700230DF402938741882381E6
:1026D0000700EDB58347240493C747002301F404A2
:1026E0008347240493F7C70F93E727002301F404DB
:1026F00093874188238207008347F40393F7C70F2A
:10270000A30FF40265BD184493F70704E38807EAB2
:1027100083C7218983D70189C207C183E39007EA70
:102720002318040291472309F40249BD93F70704D3
:10273000E38607E88347740393C74700A30BF402BB
:102740001387816910448346070093878169137654
:10275000F60FBA96A381C60083460700850693F656
:10276000F60F2300D70003470700C1466394E60035
:102770002380070003C707002D46931667001387C1
:1027800081293697B7060050D8CA03C72700050726
:102790001377F70F2381E70003C72700E370E6E212
:1027A00003C776031377C70F13672700A38BE602CF
:1027B0000547A389E70019B593F70704E38007E00D
:1027C00018448347F403420793C74700A30FF4025A
:1027D0008347F403418393F7C70F93E72700A30FC1
:1027E000F4029386C17681471386C16E93950701E3
:1027F000C18163EDE500B70700502390E70403C7EC
:1028000027041377C70F2381E7044DBBB305F600F8
:1028100083C505003385F600850793C5F5FF2300C2
:10282000B500E9B7B305F60083C505003385F600AA
:10283000850793C5F5FF2300B500B9B39947230970
:10284000F402A309F4021387C16A834707001386C1
:1028500021892300F600834717008356670093857C
:10286000C1882380F50003582700938701892390AE
:10287000D7009386418923900601035847001387A8
:10288000E188231007010347060013840189138997
:102890002189137707061386C16A93874189938636
:1028A000E188631F071C03C70500AD451377F70FC9
:1028B00063E8E51C95650A07938585D22E97184332
:1028C000028703D70700894621839389818963039F
:1028D000D7060D46630EC70685476317F708956749
:1028E0001387C7DD83C7C7DD23A0E90081440357F1
:1028F000040063F4E7002310F40083570400130777
:10290000F003130A00046367F700035A0400420A45
:10291000135A0A0183AA090052861385C16AD68513
:10292000569AEF00705123A049019307F00F639668
:10293000F408B9A21567130707DA8347370023A005
:10294000E90003472700A207BA97C207C18379BFEE
:1029500083D70700054693F7F70F6382C70289CB39
:102960006387D702638DE70281479304F00F41B775
:102970001387818723A0E90083C7818785BF956777
:10298000138707DF23A0E90083C707DF85B79567B3
:10299000138707E023A0E90083C707E081BF95679D
:1029A000138747E123A0E90083C747E181B783D7B5
:1029B000070093F7F70F2380F18883470900E207A8
:1029C000E18763DD072C035704009307000463E6E7
:1029D000E70083570400C207C183035704001D8F1B
:1029E000420741832310E400370700502318F70201
:1029F00091472309F702D9B683C711882300F6004F
:102A0000035704008547E3FAE7FA2310F40075B78B
:102A100083D7070093F7F70FA380F1880547238139
:102A2000E18861BF034709007D8B0DE383D7070071
:102A3000054793F7F70FE392E7F89387318803C7C9
:102A400007001377E70F2380E70085BF03470900DE
:102A500009467D8B6316C70283D7070093F7F70FEC
:102A600085E383D70600954693F7F70F6382D70671
:102A700063E0F6020547638EE7020D476380E704D3
:102A8000B70700501D472389E702A389E7023DB637
:102A9000930640086389D70293066008638FD702C4
:102AA00093062008E39ED7FCB7070050238DE7026A
:102AB00029B7B7070050A38B070201B7B70700502B
:102AC000A38F0702DDBDB70700502381E704F5B5EA
:102AD000B7070050A3830704CDB5B707005023857F
:102AE000E704E1BD034709007D8B0DE783D70700AD
:102AF000054793F7F70FE395E7F8956783C777DA0C
:102B000093F70702B5DF9387318803C70700136780
:102B1000170015BF0347090009467D8BE312C7F66E
:102B200083D7070093F7F70FA1FF83D70600154758
:102B300093F7F70F638AE7066361F702054763833C
:102B4000E7040D47E39EE7F2370700508347F7039A
:102B500093E73700A30FF7028DB513074008638C86
:102B6000E70213076008638AE70413072008E39964
:102B7000E7F0370700508347A70393E73700230D9B
:102B8000F70225BD370700508347770393E73700E7
:102B9000A30BF7021DB5370700508347270493E7BF
:102BA00037002301F70411BD37070050834777042E
:102BB00093E73700A303F70409B5370700508347AD
:102BC000A70493E737002305F704C5BB23000600DD
:102BD00005BD8347090023100600FD8B8DE383C7E5
:102BE00031888144858B81C789472300F6000357CC
:102BF00004008947E3FBE7D22310F4003DB3834789
:102C0000090009479304F00FFD8BE392E7FE83D799
:102C10000600154793F7F70F6388E7066360F7022E
:102C200005476380E7040D47E393E7FC370700504F
:102C30000347F7030D8B6392E7042DA813074008A1
:102C4000638FE702130760086385E7041307200812
:102C5000E39FE7F8B707005083C7A7038D8B0D47A5
:102C6000D9BFB707005083C777030D4781448D8BC9
:102C7000E39FE7F685472300F60081448DBFB70741
:102C8000005083C72704D9BFB707005083C7770414
:102C9000F1B7B707005083C7A704C9B7835704002B
:102CA000C207C18399E7B70700502398070211476D
:102CB000C5B2B70700501147C9BB937717008DC342
:102CC000A3010400EFF0EFF985472303F4007244F9
:102CD000E2445249C249324AA24A05617300203097
:102CE0009377470095CB0347540093873188118B26
:102CF00009CF03C70700136727002380E70083C7B6
:102D00000700B707005011476DB803C707001377D6
:102D1000D70F2380E700F5B72303E4004DBFEFD2C0
:102D2000AFC2EF00207A896413850458EF00F002E7
:102D30003704002083250407375C000013058CD579
:102D4000EF00F01AB75B000013858BD6EF00D02B95
:102D500083250407138B04712545B3D56503B75A42
:102D60000000375A000037090020FD15C205C18157
:102D7000EFD08FCD1385CAD7EF0010291305CAD81D
:102D8000EF009028EFE01FEE0545EFE01FF27D46D3
:102D900081451385811FEFD0AFC01306A010814578
:102DA00013054953EFD0CFBF312F13850458EF00DF
:102DB000C07A8325040713058CD5EF0050131385C3
:102DC0008BD6EF007024832504072545B3D5650312
:102DD000FD15C205C181EFD02FC71385CAD7EF00FB
:102DE000B0221305CAD8EF003022EFE0BFE7054557
:102DF000EFE0BFEB7D4681451385811FEFD04FBAD1
:102E00001306A010814513054953EFD06FB9EFE0C9
:102E10004FF6F5BFB71702409843B706FFF84111C8
:102E20001367170098C3D84337060200758FD8C3BD
:102E30009843B706F7FEFD16758F98C39843B706FB
:102E4000FCFFFD16758F98C3D843B70681FFFD16AA
:102E5000758FD8C337079F0098C702C402C698432E
:102E6000C166558F98C3B716024005679C42F18F23
:102E70003EC6A24785073EC4B24781E7A247E39713
:102E8000E7FEB71702409C431397E7006357070616
:102E900085473EC632478547631FF704B717024090
:102EA000D843B706C1FFFD16D8C3D843D8C3D8430B
:102EB00013670740D8C3D843758FD8C3D843B70624
:102EC0003D00558FD8C39843B7060001558F98C36E
:102ED000984393166700E3DD06FED843B716024019
:102EE000719BD8C3D84313672700D8C32147DC425E
:102EF000B18BE39EE7FE4101828002C661BF01A063
:102F000001A001A001A001A001A001A001A001A0B9
:102F100001A001A001A001A001A001A001A001A0A9
:102F200001A001A001A001A001A001A001A001A099
:102F300001A001A001A001A001A001A001A001A089
:102F400001A001A001A001A001A001A001A001A079
:102F500001A001A001A001A001A001A001A001A069
:102F600001A001A001A001A001A097E1FF1F938192
:102F70006190172100201301E108172500001305B7
:102F8000E5F497D5FF1F9385E5071386018863FA5B
:102F9000C5008322050023A0550011059105E3EA31
:102FA000C5FE1385018897E5FF1F9385A51B6377F1
:102FB000B500232005001105E36DB5FEFD427390B9
:102FC00002BC8D42739042809302800873A002304D
:102FD00097D2FFFF9382820693E2320073905230C1
:102FE000EFF05FE3970200009382A2D37390123454
:102FF000730020309C4513F7070113F8F70001C751
:10300000D8413368E80037270240145B3707000FC8
:10301000758F45EF8546238ED1883717014063179A
:10302000E50003D7050035832390E50083D505002F
:1030300013F7F50F39C318418146854E3D4F930F65
:10304000800293028004214E3396DE00B3F8C5005F
:10305000631116039398260033131F011343F3FFE4
:103060003377E300B318180133E7E8006397F707F5
:1030700050C98506E39AC6FD18C11307F00F6375A2
:10308000B70454412146854E3D4F930F8002930271
:103090008004414EB398CE0033F715016392E802E5
:1030A0001317260001173313EF001343F3FFB37612
:1030B000D3003317E800D98E6395F703232A15014F
:1030C0000506E319C6FD54C1828037170140E31F8E
:1030D000E5F403C7C18939DBA9B7E39C57F810C9E8
:1030E00049BFE39F57FC23281501D9BF9387018A65
:1030F00094430347050089E683472500920731A8DA
:10310000944305466391C604834725000346150092
:1031100092076314D60093E707F8B7E600E093F749
:10312000F70FBA962380F64085469357570033979A
:10313000E6005441ADC6938707048A07B7E600E06E
:10314000B69798C382808C4389466393D5028346A1
:103150001500834725006365D6008A06B69779BFB8
:103160009386E6038A06B69793F7F70F920765B73B
:1031700090438D46631ED600834615008347250085
:103180006364D6008606D9BF9386C6078606E1BF6C
:1031900094439147E39AF6F88347150085B79387E0
:1031A000070661BFB7170240D843B70640FFFD16B8
:1031B000758FD8C3D8435A05598DC8C38280371735
:1031C00002405C439146B18B6385D700A14663867C
:1031D000D706B7177A00938707201CC1371602401D
:1031E0005C4237070020130707009183BD8BBA9715
:1031F00083C607001C41B3D7D7005CC15442A182EB
:103200009D8ABA9683C60600B3D6D70014C5544229
:10321000AD829D8A369703470700B3D7E7005CC5A8
:103220005842398393763700138741803697034796
:103230000700B3D7E7021CC982805C435843C166CC
:10324000C983BD8B758F8907C5466393D700C9476E
:1032500001EF3747024003270780418B09CF37171B
:103260007A001307072021A8371702405843931606
:10327000E700E3D606FE37173D0013070790B38734
:10328000E702A1BF99C5371702405C4B5D8D48CB63
:103290008280B7170240D84B1345F5FF798DC8CB14
:1032A000828099C5371702401C4F5D8D08CF828000
:1032B000B7170240984F1345F5FF798D88CF82806C
:1032C00099C5371702405C4F5D8D48CF8280B71794
:1032D0000240D84F1345F5FF798DC8CF82808357C0
:1032E000050037370140130707C0C207C1836304D5
:1032F000E502370700406300E50213070740630C4F
:10330000E50037170040930607806306D5001307D2
:1033100007C06317E50003D7250093F7F7F8D98FA7
:1033200003D7650093F7F7CFC207C183D98F231066
:10333000F50083D745002316F50283D70500231433
:10334000F502B7370140938707C06316F50083C7BE
:1033500085002318F5028547231AF50082808357DC
:10336000050091C593E717002310F5008280C2077E
:10337000C183F99BC207C183C5BF8357C50009C676
:10338000DD8D2316B500828093C5F5FFFD8DD5BF79
:10339000835705010355C500ED8F4205418189C75B
:1033A0006D8D3335A00082800145828093C5F5FF85
:1033B000C205C1812318B5008280EFC27FDB83562E
:1033C0000501F577FD17F58F83D6650003D7C50096
:1033D0007971D58F2318F5008356C500FD77938743
:1033E000379FF58F83D645002A842EC6D58F83D686
:1033F0008500D58F83D6A500D58F2316F50083577A
:103400004501C207C18393F7F7CFD98F231AF5007F
:103410006808EFF0DFDAB747014093870780B245CD
:10342000631DF404A2578356C4006547B387E702BF
:10343000C206C186984163D4060406070356C40039
:103440004206B3D7E702130740064186B3D6E70228
:10345000B3F7E7029206635606028E0793872703A7
:10346000B3D7E70213F77700B367D700C207C1836A
:103470002314F40045616FC0FFD192576DB70A075E
:1034800075BF920793872703B3D7E702BD8BD58F0C
:10349000F1BF81C98357C5000967D98F2316F5008D
:1034A00082800357C500F977FD17F98FC5BF93F5E3
:1034B000F51F2312B5008280035505006D8D33354D
:1034C000A0008280B707002083A7070737177A007C
:1034D00013070720B3D7E70293F7F70F2383F18A87
:1034E0001307803EB387E7022392F18A8280B7F701
:1034F00000E0D8438146799BD8C303C7618A33066D
:10350000A70290CBD4CB98431367070198C3984385
:103510001367170298C3D843058B75DF9843799BCF
:1035200098C38280B7F700E0D8438146799BD8C31F
:1035300003D7418A3306A70290CBD4CB98431367B5
:10354000070198C398431367170298C3D843058BA4
:1035500075DF9843799B98C38280EFC27FC12A842C
:103560001165011185451105EFF0BFD393070020C8
:103570002312F100371501408D473EC44C00E1474E
:10358000130505803EC6EFF0FFA622C83744014070
:10359000B70708000C08130504803ECC02CA231E9E
:1035A0000100EFF09FE1854513050480EFF07FEE09
:1035B00005616FC03FBEEFC21FBAB7440140AE897C
:1035C0003289014493840480634524014A856FC095
:1035D000DFBB930500042685EFF01FEE7DD9B3878E
:1035E00089008385070026850504C205C181EFF0A7
:1035F0001FECD9BF138781801C43B7160020938628
:1036000006163E95636BD500B7560020938606805C
:1036100063E5A60008C33E858280FD57EDBF93F5A4
:10362000F50F2A966314C500014582808347050083
:10363000E38DB7FE0505FDB7B3C7A5008D8B330736
:10364000C50081E78D4763EEC700AA876370E50A6E
:1036500083C6050085078505A38FD7FEE3EAE7FE4D
:10366000828093763500AA8791CA83C605008507B4
:103670008505A38FD7FE93F63700FDB79376C7FF76
:10368000138606FE63F0C70683A3050083A24500E8
:1036900083AF850003AFC50083AE050103AE4501CE
:1036A00003A3850183A8C5019385450223A0770064
:1036B00003A8C5FF23A2570023A4F70123A6E7010F
:1036C00023A8D70123AAC70123AC670023AE1701A3
:1036D0009387470223AE07FF75B790419107910585
:1036E00023AEC7FEE3EBD7FEE3E4E7F68280397151
:1036F0003EDA2ED232D436D63AD842DC46DE938732
:10370000C18022CC804326CA06CEAA8409C41C4CA0
:1037100099E3228525230C4454102686228536C63B
:10372000EF009017F2406244D2442161828001117F
:1037300026CA4AC806CE22CC4EC652C4AA842E89B6
:1037400001C51C4D91E3DD299C4C804499E32685FD
:10375000F521971700009387A76F631CF402C04000
:103760008357C400A18BB1C71C48A1C7FD59294A82
:103770001C4483450900FD17B1E91CC463DE07063C
:103780002286A94526857920FD576308F50229453B
:1037900035A0971700009387A76D6314F400804449
:1037A000C1B7971700009387A768E31BF4FAC044DA
:1037B00045BFA2852685392A55D97D55F2406244F8
:1037C000D2444249B249224A056182801CC405099B
:1037D00063D70700184C63CBE700638945011C40A1
:1037E0001387170018C02380B70059B72286268593
:1037F0001520E31F35F7D1B71C401387170018C0F9
:1038000029472380E70061B79387C180AA85884351
:103810006FF0FFF1011122CC26CA4AC806CE4EC66F
:10382000AA842E89328401C51C4D91E30129971782
:1038300000009387E7616319F406C0401C4C1CC468
:103840008357C400A18BC9C31C48BDCF1C48084086
:103850009379F90F1379F90F1D8D5C486346F500D4
:10386000A2852685652C2DE51C440505FD171CC485
:103870001C401387170018C0238037015C486389F8
:10388000A7008357C400858B81CBA9476316F90035
:10389000A285268561240DEDF24062444A85D2441A
:1038A0004249B24905618280971700009387475CBF
:1038B0006314F400804459B7971700009387475763
:1038C000E31EF4F6C0449DBFA285268521203DDD80
:1038D0007D59D9B741119387C18026C2844322C440
:1038E0004AC006C62A892E8489C49C4C99E3268541
:1038F000B126971700009387A755631CF402C040B8
:103900000317C40093170701C18393F68700B5EE30
:1039100093F607019DEEA5472320F90013670704DE
:103920002316E4007D55B2402244924402494101ED
:103930008280971700009387A7536314F400804494
:10394000C1B7971700009387A74EE31BF4FAC04452
:1039500045BF918B8DC74C5889C993074404638434
:10396000F5004A85A923232A04028357C400232291
:10397000040093F7B7FD2316F4001C481CC08357BE
:10398000C40093E787002316F4001C4881EF835797
:10399000C4001307002093F707286385E700A2857A
:1039A0004A85B5218357C40013F7170005C75C4843
:1039B00023240400B307F0401CCC1C480145A5F7A4
:1039C0008317C40013F7070839DF93E707042316AA
:1039D000F40089BF898B014791E3584818C4F1BFAF
:1039E00083D7C500011122CC26CA06CE4AC84EC6CE
:1039F00013F78700AA842E8471EFD841634DE0004D
:103A0000B841634AE0000145F2406244D244424971
:103A1000B2490561828058547DD703A9040093966A
:103A2000370123A0040063DD060670488357C400F5
:103A3000918B99C75C401D8E5C5899C33C401D8E8C
:103A40005C540C50814626858297FD570357C4006D
:103A5000631DF5009440F54763E8D706B70740209B
:103A60008507B3D7D700858BA5C31C482322040044
:103A70001CC09317370163D80700FD576314F50086
:103A80009C4091E368C84C5823A02401ADDD930706
:103A900044046384F50026851929232A0402A5B766
:103AA0000C500146854626850297FD572A86E31F5E
:103AB000F5F69C40A5DF75476385E7005947639499
:103AC000E70423A0240181B7136707042316E40049
:103AD0007D551DBF83A90501E38709F203A90500F0
:103AE0008D8B23A0350133093941014791E3D84932
:103AF00018C4E35A20F11C540C50CA864E86268501
:103B000082976349A0008357C40093E707042316F4
:103B1000F4007DBFAA993309A940E1BF9C49A5C320
:103B2000011122CC06CE2A8411C51C4D81E72EC678
:103B30003122B2459717000093878731639CF500C7
:103B40004C408397C5009DC722856244F2400561C1
:103B50006FF01FE997170000938787316394F50092
:103B60000C44C5B7971700009387872CE39BF5FC9F
:103B70004C44C1BFF2406244014505618280014569
:103B80008280411122C406C62A842316B500231759
:103B9000C50023200500232205002324050023223D
:103BA000050623280500232A0500232C05002146AD
:103BB00081451305C505EFC0AFDE97170000938759
:103BC000A7B65CD097170000938707B91CD4971746
:103BD0000000938747BD5CD497170000938707C008
:103BE00000D01CD8B24022444101828097050000D9
:103BF000938505F391AA411126C21306800693848A
:103C0000F5FFB384C4024AC02E8922C406C6938538
:103C1000440791262A8401CD232005002322250173
:103C2000310508C4138684068145EFC06FD722850D
:103C3000B240224492440249410182801C4DA5E7D2
:103C4000411106C622C497070000938767FA1CD566
:103C50009387C1879C432324050423260504232836
:103C600005046314F50085471CCD2A84352848C017
:103C700022851D2808C42285052848C448400146DD
:103C80009145EFF01FF008440546A545EFF07FEFA2
:103C900048440946C945EFF0DFEE85471CCCB240E9
:103CA000224441018280828041119387C18726C2CC
:103CB00084434AC006C69C4C22C42A8981E72685D3
:103CC000EFF0DFF7938484048044DC40FD1763D673
:103CD00007009C40B9CF8440C5BF0317C40039E733
:103CE000C177850723220406232004002322040031
:103CF000232404005CC423280400232A0400232C6A
:103D00000400214681451305C405EFC06FC9232A6D
:103D10000402232C04022324040423260404228501
:103D2000B240224492440249410182801304840635
:103D300071BF91454A85EFF01FEC88C049FDB1473E
:103D40002320F9000144E1BF797122D44AD052CC3A
:103D500056CA5AC85EC606D626D24ECE2A8AAE8A21
:103D6000130485040149054BFD5B09ECB250225454
:103D70004A8592540259F249624AD24A424BB24BA6
:103D800045618280044483294400FD1963D40900FD
:103D90000040E1BF83D7C400637BFB008397E4004E
:103DA00063877701A6855285829A3369A900938437
:103DB0008406E1BF1971A6DAAE848395E500A2DC22
:103DC00086DE328463DC050083D7C40023A00600AE
:103DD00093F7070885E7930700401DA0300836C613
:103DE000EF005026B246E34105FE7247BD67F98FEA
:103DF0007977BA9793B717009CC2F1BF9307000475
:103E00001CC0F6506654D65401450961828083D7A0
:103E1000C500011122CC06CE26CA4AC8898B2E8441
:103E200089CF930774041CC01CC885475CC8F24046
:103E30006244D24442490561828074003000AA8401
:103E4000EFF05FF7A2452A892685312201ED83171D
:103E5000C40013F7072061FFF19B93E727002316A7
:103E6000F400C1B797070000938787D89CD4835785
:103E7000C40008C008C893E707082316F400A24747
:103E80005CC8B24791CF8315E4002685EF00B01ED1
:103E900001C98357C400F19B93E717002316F40070
:103EA0008357C4003369F9002316240149B7DDC1E3
:103EB00083A7C5FF411122C406C626C21384C5FFCD
:103EC00063D307003E94AA84EF0030219387818A50
:103ED0009C4381EF2322040023A4818A2244B24020
:103EE0002685924441016F00701F637EF4001440E8
:103EF0003307D4006396E7009843DC43369718C035
:103F00005CC0D9BFBA87D84319C3E37DE4FE9443AC
:103F10003386D700631F86001040B29694C3338661
:103F2000D700E31DC7FA10435843B29694C3D8C3D1
:103F300075B76375C400B1479CC04DB71040B30658
:103F4000C4006316D70014435843B29614C058C037
:103F5000C0C369B78280011126CA93843500F198E5
:103F600006CE22CC4AC84EC6A104B14763F3F4047E
:103F7000B14463E2B4042A89EF0030169387818A42
:103F800098433A8439E09387C18A9C4391E78145FD
:103F90004A85852723A6A18AA6854A85992FFD599A
:103FA00063193507B1472320F9004A85EF00101344
:103FB00029A0E3D004FCB1471CC10145F240624492
:103FC000D2444249B249056182801C40858F63CF4B
:103FD0000702AD4663F6F6001CC03E9404C031A053
:103FE0005C406313870223A4F18A4A85EF00100F17
:103FF0001305B4009307440061993307F5405DDF72
:104000003A94898F1CC05DBF5CC3C5B7228740400E
:1040100095BF130435007198E30285FCB305A440F5
:104020004A85C12DE31C35FBB5BF1C46FD171CC6D8
:1040300063DA0700184E63C5E700A9476394F500EB
:104040006FF04FFD1C422E851387170018C2238086
:10405000B7008280011122CC26CA4AC84EC652C47B
:1040600006CE2A89AE893284B304D6007D5A631401
:104070009400014511A8834504004E864A85EFF05F
:10408000DFFA0504E31545FFF2406244D244424999
:10409000B249224A05618280357122CD26CB4AC9B8
:1040A0004EC706CF52C556C35AC1DEDEE2DCE6DAA1
:1040B000AA89AE843289368409C51C4D99E3EFF094
:1040C000FFB7971700009387A7D8639DF40C83A4CC
:1040D000490083D7C400A18BE5CB9C48F5C7930763
:1040E0000002A304F1029307000302D22305F102A8
:1040F00022C6930B5002971A0000938A6AD9054C86
:10410000294B4A848347040099C36392770FB30C09
:104110002441638E0C00E6864A86A6854E85EFF024
:104120007FF3FD576309F51E9256E69636D2834714
:1041300004006382071EFD571309140002C802CE53
:104140003ECA02CCA309010482D483450900154666
:104150005685EFF0CFCC13041900C24759E913F785
:10416000070109C713070002A309E10413F7870039
:1041700009C71307B002A309E10483460900130726
:10418000A0026380E608F2474A8481462546034739
:10419000040093051400130707FD6379E60AB5CA06
:1041A0003ECE85A897170000938787CC6395F400CF
:1041B00083A4890039BF97170000938767C7E39AE4
:1041C000F4F083A4C90031B7A6854E85EFF08FF0D7
:1041D00019D57D55FA406A44DA444A49BA492A4A0F
:1041E0009A4A0A4BF65B665CD65C0D6182800504D8
:1041F00011BF330555413315AC00C98F3EC8228924
:10420000A9B7324793064700184336C663490702E9
:104210003ACE034704009307E002631FF704034705
:1042200014009307A002631BF702B2470904138727
:1042300047009C433AC663C107023ECA35A833070C
:10424000E04093E727003ACE3EC8E1B7B387670363
:1042500085462E84BA9725BFFD57C5B7050402CA07
:104260008146814725460347040093051400130740
:1042700007FD6378E606F1F2834504000D46171545
:104280000000130565C1EFF08FB911CD971700003D
:10429000938787C01D8D93070004B397A7004245FD
:1042A00005045D8D2AC883450400194617150000D2
:1042B0001305C5BE130914002304B102EFF02FB695
:1042C0003DC197C7FFFF9387E7D395E74247B247C2
:1042D0001377071009CF91073EC69257D2973ED267
:1042E0000DB5B387670385462E84BA97ADBF9D078A
:1042F000E19BA107D5B77800970600009386C6D545
:1043000026860C084E8597000000E7000000FD5748
:104310002A8AE314F5FC83D7C40093F70704E39AD1
:1043200007EA125545BD7800970600009386C6D26D
:1043300026860C084E85012AD9BF797156CA9C4938
:10434000BA8A984522D426D24ECE52CC06D64AD02E
:104350005AC85EC6AA892E84B284368A63D3E7001F
:10436000BA879CC00347340419C385079CC01C400E
:1043700093F7070281C79C4089079CC0032904006A
:1043800013796900631A0900130B9401FD5B5C4407
:104390009840998F634CF9041C408346340493F78A
:1043A0000702B336D000A5EB13063404D2854E8540
:1043B000829AFD576303F5041C4011469840998B7F
:1043C000544481446397C700B384E64063D3040038
:1043D00081441C4418486354F700998FBE940149E6
:1043E00069047D5B63982405014509A885465A86C2
:1043F000D2854E85829A631E75017D55B250225436
:1044000092540259F249624AD24A424BB24B456138
:1044100082800509ADBF3307D40013060003A30152
:10442000C7040347540493871600A2978906A38103
:10443000E7049DBF85462286D2854E85829AE30E8B
:1044400065FB050945B7797122D426D24AD04ECEF4
:1044500006D652CC56CA5AC8B68983C68501930778
:1044600090063289AA842E8413863504638DF60261
:1044700063E2D706930780056389F61863EDD700DA
:104480006382062293073004638FF60A930A24049A
:104490002301D404D1A0930730066386F60A93075C
:1044A0004006E395F6FE1C40084393F60708930583
:1044B0004500CDC61C410CC363D807001307D002CA
:1044C000B307F040A301E404971600009386869D8D
:1044D000294775A8930700076385F61663E5D70299
:1044E0009307E006638CF6189307F006E390F6FA5C
:1044F0000C401C4313F805081385470063080806A1
:1045000008C39C4395A893075007E383F6FE9307DF
:104510008007638CF61293073007E399F6F61C4385
:10452000D04181459386470014C383AA070056856E
:10453000EFF0EF8E01C53305554148C05C401CC803
:10454000A301040471A81C43930A24049386470022
:104550009C4314C32301F4048547D5B793F607049D
:104560001C410CC3B1DAC207C187B9B793F5050482
:1045700008C3C1D983D707001307F0066388E60E86
:1045800097160000938606922947A30104044C4025
:104590000CC463C5050008406D9908C099E3B28A50
:1045A00091CDB28AB3F5E702FD1AB69583C5050031
:1045B0002380BA00B3D5E70263F0E70CA147631E7E
:1045C000F7001C40858B91CB58401C4863C7E7001F
:1045D00093070003A38FFAFEFD1A3306564110C855
:1045E0004E87CA867000A2852685EFF01FD57D5ABA
:1045F000631E450B7D55B250225492540259F24924
:10460000624AD24A424B45618280A382D504971602
:104610000000938626890C40084313F805081C41C6
:104620001105630D080208C313F7150001C793E5D0
:1046300005020CC04147B1FB0C4093F5F5FD0CC0E1
:10464000A9B79C4193E707029CC193078007A30287
:10465000F404971600009386268675BF13F80504A8
:1046600008C3E30308FCC207C1837DBF971600009F
:1046700093864683214711BFAE872DB794411C43D3
:10468000CC4913F80608138547006306080008C3E1
:104690009C438CC301A808C393F606049C43F5DA37
:1046A0002390B70023280400B28A1DBF1448568601
:1046B000CA8526858299E30F45F31C40898B8DE7D7
:1046C000B2474844E359F5F23E8535B785465686EC
:1046D000CA8526858299E30F65F1050A5C44324755
:1046E000998FE345FAFEE9BF014A930A94017D5B85
:1046F000F5B7411122C42A842E8597D7FF1F23A125
:1047000007A606C6EFE01FEFFD576319F50097D720
:10471000FF1F9387E7A49C4391C31CC0B24022446F
:1047200041018280411122C42E848395E50006C692
:104730007D22634905007C48AA977CC8B240224488
:10474000410182808357C4007D777D17F98F23163E
:10475000F400EDB783D7C500011122CC26CA4AC8A0
:104760004EC606CE93F70710AA842E843289B689E6
:1047700091C78395E5008946014635228357C400D9
:104780007D777D17F98F2316F4008315E4006244CA
:10479000F240CE864A86B24942492685D244056116
:1047A0003DA8411122C42E848395E50006C6E52864
:1047B000FD570357C400631BF500FD77FD17F98F04
:1047C0002316F400B2402244410182808567D98FCC
:1047D0002316F40068C8FDB78395E50025A84111AC
:1047E00022C42A842E85B285368697D7FF1F23A937
:1047F000079606C6EFE03FDCFD576319F50097D733
:10480000FF1F9387E7959C4391C31CC0B24022448D
:1048100041018280411122C42A842E8597D7FF1F2F
:1048200023A0079406C6F520FD576319F50097D716
:10483000FF1F9387E7929C4391C31CC0B240224460
:1048400041018280411122C42A842E85B28597D7E6
:10485000FF1F23A7079006C6E920FD576319F5003F
:1048600097D7FF1F9387C78F9C4391C31CC0B2404B
:10487000224441018280411122C42A842E8597D787
:10488000FF1F23AF078C06C66D20FD576319F50087
:1048900097D7FF1F9387C78C9C4391C31CC0B2401E
:1048A000224441018280411122C42A842E85B2858E
:1048B000368697D7FF1F23A5078A06C65920FD57BE
:1048C0006319F50097D7FF1F938787899C4391C38E
:1048D0001CC0B2402244410182808280828041110A
:1048E00022C42A842E85B285368697D7FF1F23A936
:1048F000078606C6B928FD576319F50097D7FF1F2D
:10490000938707869C4391C31CC0B2402244410157
:1049100082809307800517D7FF1F2323F7847D55D7
:1049200082809307800517D7FF1F232BF7827D55C1
:1049300082809307800517D7FF1F2323F782014545
:1049400082809307800517D7FF1F232BF7807D55A3
:1049500082809307800517D7FF1F2323F7807D559B
:10496000828000004855425F5045315F45525231C8
:104970003A25780D0A0000004855425F5045315FE6
:10498000455252323A25780D0A0000004855425FE0
:104990005045315F455252333A25780D0A000000E8
:1049A00048756220506F72742578204F75740D0A17
:1049B000000000004855425F5045325F4552523179
:1049C0003A25780D0A0000004855425F5045325F95
:1049D000455252323A25780D0A0000004855425F90
:1049E0005045325F455252333A25780D0A00000097
:1049F00048756220506F7274257820496E0D0A0048
:104A000047657420496E7465726661636525782018
:104A1000526570446573633A20000000456E756D01
:104A2000204869643A0D0000456E756D2048756236
:104A30003A0D0000416E616C797A652043666744E7
:104A40006573633A200000004765742053747269EF
:104A50006E6744657363343A200000004765742034
:104A6000537472696E6744657363313A20000000C5
:104A700047657420537472696E6744657363323A94
:104A80002000000047657420537472696E674465A6
:104A90007363333A20000000476574204875622034
:104AA000446573633A200000526F6F744875624426
:104AB00065762E62506F72744E756D3A20253032D5
:104AC000780D0A00285331294765742044657644DF
:104AD0006573633A200D0000536574204465764188
:104AE0006464723A200D0000476574204465764383
:104AF0006667446573633A200D00000053657420B7
:104B000043666756616C75653A200D00456E756D9C
:104B10003A0D0000253032782000000053657420E3
:104B2000446576416464723A200000004572722840
:104B300025303278290D0A004F4B0D00476574204F
:104B4000436667446573633A200000004465765409
:104B50007970653A20253032780D0A00536574204B
:104B60004366673A20000000476574204465764438
:104B70006573633A2000000055534220506F7274F1
:104B80002044657620496E2E0D000000526F6F7430
:104B900020446576696365204973204849442E2086
:104BA000000000004675727468657220456E756D70
:104BB00020526573756C743A20000000526F6F7458
:104BC00020446576696365204973204855422E204C
:104BD00000000000526F6F742044657669636520A1
:104BE0004973200053746F726167652E20000000C6
:104BF0005072696E7465722E20000000556E6B6EE7
:104C00006F776E2E20000000456E6420456E756D36
:104C10002E0D0000456E756D204661696C20776928
:104C20007468204572726F7220436F64653A25780C
:104C30000D0A000055534220506F7274204465766F
:104C4000204F75742E0D0000546573742D310D00C6
:104C500041626E6F726D616C0D00000048756220DC
:104C6000496E7420446174613A253032780D0A002F
:104C70004465762053706565643A25780D0A000016
:104C8000456E756D5F4875624465766963650D00B4
:104C900048554220706F7274257820646576696388
:104CA00065206973204849442120467572746865FF
:104CB0007220456E756D3A0D0A0000004F4B210DB4
:104CC0000000000048554220706F727425782064FF
:104CD00065766963652069732000000073746F72E4
:104CE000616765210D0000007072696E7465722144
:104CF0000D000000756E6B6E6F776E210D00000069
:104D000048554220506F7274257820456E756D208D
:104D1000457272210D0A0000576F726B696E672031
:104D2000546573740D000000D22B0000242A00008B
:104D3000802A0000E42A0000802A0000AE2900003A
:104D4000C2280000802A0000F8290000102A000074
:104D5000CC2B0000BA29000053797374656D436C45
:104D60006B3A25640D0A0000555342465320484FC4
:104D70005354204B4D20546573740D0054494D33EA
:104D800020496E6974204F4B210D00005553424657
:104D90005320486F737420496E69740D0000000041
:104DA00009023C0001010080320904000006FFFFF7
:104DB000FF000705860240000007050502400000CD
:104DC00007058402400000070503024000000705B4
:104DD000820240000007050102400000120110019C
:104DE000FFFFFF40861A3755010001020001000055
:104DF0000E037700630068002E0063006E00000061
:104E000012034300480033003200560031003000E6
:104E10007800000016033000310032003300340007
:104E2000350036003700380039000000000000006F
:104E30000000000000000000000000000000000072
:104E40000000000000000000000000000000000062
:104E50000000000000000000000000000000000052
:104E60000000000000000000000000000000000042
:104E70000000000000000000000000000000000032
:104E8000000000000000000000000000232D302B77
:104E900020000000686C4C006566674546470000CE
:104EA0003031323334353637383941424344454660
:104EB0000000000030313233343536373839616222
:084EC000636465660000000058
:104EC80000000000010203040102030406070809A8
:104ED800000000004C4E00006C4E00002C4E0000FC
:104EE80000000000000000000000000000000000BA
:104EF80000000000000000000000000000000000AA
:104F08000000000000000000000000000000000099
:104F18000000000000000000000000000000000089
:104F28000000000000000000000000000000000079
:104F380000449508020406086011002010000020B3
:104F480002010000000000008006000200000400CA
:104F58008006000100001200800600030904040016
:104F6800000500000000000000090000000000002B
:104F78008106002200000000210900020000010053
:104F8800210A0000000000002301000000000000CA
:104F9800A006002900000200A30000000000040091
:104FA800230300000000000004030904100000208F
:00000001FF
