:100000006F20702313000000130000001300000095
:100010001300000013000000130000001300000094
:100020001300000013000000130000001300000084
:08003000130000007300100032
:100038000000000000000000480200004C02000020
:1000480000000000CE2900000000000000000000B1
:10005800D0290000D22900000000000000000000A4
:10006800D429000000000000D6290000000000008C
:10007800D8290000DA290000DC290000DE29000068
:10008800E0290000E2290000E4290000E629000038
:10009800E8290000EA290000EC290000EE29000008
:1000A800F0290000F2290000F4290000F6290000D8
:1000B800F8290000FA290000FC290000FE290000A8
:1000C80014410000022A0000042A0000062A000049
:1000D800082A00000A2A00000C2A00000E2A000044
:1000E800102A00002A0D0000142A0000162A000019
:1000F800182A00001A2A00001C2A00001E2A0000E4
:10010800202A0000222A0000AC4B0000262A00000A
:10011800282A00002A2A0000FE400000E002000011
:10012800302A0000322A0000342A000000000000B3
:080138000000000000000000BF
:10014000397101436EC619A0397141536AC866CA34
:1001500062CC5ECE19A0397101535AD056D252D416
:100160004ED64AD826DA22DC06DE3301614082828E
:1001700041114AC026C222C406C68282B24D410144
:10018000024D924C224CB24B4101024B924A224A00
:10019000B2494101024992442244B2404101828065
:1001A0003D432A876373C3029377F700BDEFADE544
:1001B000937606FF3D8ABA960CC34CC30CC74CC756
:1001C0004107E36BD7FE11E28280B306C3408A0683
:1001D0009702000096966780A6002307B700A30643
:1001E000B7002306B700A305B7002305B700A30493
:1001F000B7002304B700A303B7002303B700A3028B
:10020000B7002302B700A301B7002301B700A30082
:10021000B7002300B700828093F5F50F9396850011
:10022000D58D93960501D58D61B7939627009702DA
:10023000000096968682E78086FA9680C1171D8F09
:100240003E96E374C3F8A5B77300203001A0B7074A
:100250000050130740F82386E700A386E700130742
:1002600080042387E700138701D498CB1387C192BA
:10027000D8CB98CF138701D8D8CF138701E098D374
:10028000138701E8D8D3138701F098D7A389070211
:10029000A38B0702A38F0702A3830704239C0702F3
:1002A000239007042394070409472389E702238D39
:1002B000E7022381E7042385E7049387418A2380AB
:1002C0000700A380070023810700A3810700238282
:1002D0000700A382070023830700A383070082800F
:1002E000011122CE26CC4ACA4EC852C656C4370483
:1002F000005003476400834774001377F70F937629
:100300002700638E067893F7F70F13F7070393061A
:100310000002630DD706930600036303D73049E359
:1003200013F7F70385466305D71E6300071C8D4648
:100330006306D72695466315D70693F70704ADC322
:10034000184483477404420793C74700A303F40487
:1003500083477404418393F7C70F93E72700A303F0
:10036000F404938601F08147138601E89395070111
:10037000C18163EBE528B70700502394E70403C766
:1003800027041377C70F2385E70419A893F7F7030A
:1003900093062002638FD70E63EAF6006389E704B1
:1003A000B707005009472383E70021A7130740023E
:1003B0006384E71013076002E394E7FE8347A40415
:1003C00093C747002305F4048347A40493F7C70F9A
:1003D00093E727002305F4049387418A23830700CA
:1003E0008347740493F7C70FA303F40455BF93879F
:1003F000018B83D707009384018BC207C18381E7F8
:100400009147A309F40283C7218B93F70706C9FB21
:1004100083C7C18A154793F7F70F6380E70619472B
:10042000E390E7F883D704001307F00313040004F4
:100430006366F70003D40400420441801389818B72
:10044000832909002286CE85138501D4EF40D0167A
:1004500083D70400A29923203901818FC207C18369
:100460002390F400B70700502398870203C727039F
:10047000134747002389E70225B737070050834712
:10048000370083C6018A93F70708D58FA301F700C9
:1004900001BF8347A40393C74700230DF40283479A
:1004A000A40393F7C70F93E72700230DF402938764
:1004B000418A23810700EDB58347240493C7470091
:1004C0002301F4048347240493F7C70F93E727001D
:1004D0002301F4049387418A238207008347F403AE
:1004E00093F7C70FA30FF40265BD184493F70704F1
:1004F000E38807EA83C7218B83D7018BC207C183B7
:10050000E39007EA2318040291472309F40249BD46
:1005100093F70704E38607E88347740393C747000C
:10052000A30BF4021387C1D21044834607009387BC
:10053000C1D21376F60FBA96A381C6008346070090
:10054000850693F6F60F2300D70003470700C14640
:100550006394E6002380070003C707002D46931627
:1005600067001387C1923697B7060050D8CA03C7F1
:10057000270005071377F70F2381E70003C727003C
:10058000E370E6E203C776031377C70F136727000C
:10059000A38BE6020547A389E70019B593F7070483
:1005A000E38007E018448347F403420793C74700FA
:1005B000A30FF4028347F403418393F7C70F93E734
:1005C0002700A30FF402938601E08147138601D828
:1005D00093950701C18163EDE500B70700502390B3
:1005E000E70403C727041377C70F2381E7044DBB34
:1005F000B305F60083C505003385F600850793C56E
:10060000F5FF2300B500E9B7B305F60083C5050083
:100610003385F600850793C5F5FF2300B500B9B310
:1006200099472309F402A309F402138701D48347ED
:1006300007001386218B2300F6008347170083569B
:1006400067009385C18A2380F500035827009387AC
:10065000018B2390D7009386418B2390060103588A
:1006600047001387E18A231007010347060013841C
:10067000018B1389218B13770706138601D4938787
:10068000418B9386E18A631F071C03C70500AD45B4
:100690001377F70F63E8E51C99650A079385450E04
:1006A0002E971843028703D7070089462183938931
:1006B000818B6303D7060D46630EC7068547631714
:1006C000F70899671387871783C7871723A0E9005F
:1006D00081440357040063F4E7002310F4008357B8
:1006E00004001307F003130A00046367F700035ABA
:1006F0000400420A135A0A0183AA0900528613858C
:1007000001D4D685569AEF40206B23A04901930768
:10071000F00F6396F408B9A219671307C71383474C
:10072000370023A0E90003472700A207BA97C207B2
:10073000C18379BF83D70700054693F7F70F63821C
:10074000C70289CB6387D702638DE7028147930491
:10075000F00F41B71387418323A0E90083C741838A
:1007600085BF99671387C71823A0E90083C7C718F7
:1007700085B799671387C71923A0E90083C7C719ED
:1007800081BF99671387071B23A0E90083C7071B55
:1007900081B783D7070093F7F70F2380F18A834748
:1007A0000900E207E18763DD072C03570400930784
:1007B000000463E6E70083570400C207C1830357C0
:1007C00004001D8F420741832310E40037070050C7
:1007D0002318F70291472309F702D9B683C7118A74
:1007E0002300F600035704008547E3FAE7FA2310D5
:1007F000F40075B783D7070093F7F70FA380F18A4A
:1008000005472381E18A61BF034709007D8B0DE322
:1008100083D70700054793F7F70FE392E7F893872D
:10082000318A03C707001377E70F2380E70085BFEE
:100830000347090009467D8B6316C70283D707006B
:1008400093F7F70F85E383D70600954693F7F70FE5
:100850006382D70663E0F6020547638EE7020D4721
:100860006380E704B70700501D472389E702A38987
:10087000E7023DB6930640086389D70293066008F5
:10088000638FD70293062008E39ED7FCB70700507A
:10089000238DE70229B7B7070050A38B070201B7E2
:1008A000B7070050A38F0702DDBDB70700502381B3
:1008B000E704F5B5B7070050A3830704CDB5B70724
:1008C00000502385E704E1BD034709007D8B0DE758
:1008D00083D70700054793F7F70FE395E7F8996784
:1008E00083C7371493F70702B5DF9387318A03C7AD
:1008F00007001367170015BF0347090009467D8BE2
:10090000E312C7F683D7070093F7F70FA1FF83D74A
:100910000600154793F7F70F638AE7066361F7024E
:1009200005476383E7040D47E39EE7F2370700506E
:100930008347F70393E73700A30FF7028DB513073B
:100940004008638CE70213076008638AE704130713
:100950002008E399E7F0370700508347A70393E7A0
:100960003700230DF70225BD370700508347770373
:1009700093E73700A30BF7021DB5370700508347F5
:10098000270493E737002301F70411BD3707005010
:100990008347770493E73700A303F70409B53707C4
:1009A00000508347A70493E737002305F704C5BB2E
:1009B0002300060005BD8347090023100600FD8BB8
:1009C0008DE383C7318A8144858B81C789472300A2
:1009D000F600035704008947E3FBE7D22310F40035
:1009E0003DB38347090009479304F00FFD8BE39261
:1009F000E7FE83D70600154793F7F70F6388E706EE
:100A00006360F70205476380E7040D47E393E7FC63
:100A1000370700500347F7030D8B6392E7042DA8B7
:100A200013074008638FE702130760086385E70434
:100A300013072008E39FE7F8B707005083C7A70311
:100A40008D8B0D47D9BFB707005083C777030D477C
:100A500081448D8BE39FE7F685472300F6008144B0
:100A60008DBFB707005083C72704D9BFB707005011
:100A700083C77704F1B7B707005083C7A704C9B786
:100A800083570400C207C18399E7B7070050239832
:100A900007021147C5B2B70700501147C9BB93778A
:100AA00017008DC3A3010400EFF06FFA85472303FD
:100AB000F4007244E2445249C249324AA24A0561F2
:100AC000730020309377470095CB034754009387FA
:100AD000318A118B09CF03C70700136727002380D2
:100AE000E70083C70700B707005011476DB803C779
:100AF00007001377D70F2380E700F5B72303E4003F
:100B00004DBFEFF2EFE641118545114502C202C427
:100B100002C6EF20C03085472312F100371501408F
:100B2000C1473EC64C008D47130505803EC4EF20EB
:100B3000200241016FF00FE6EFF28FE30145EF2055
:100B400040120964EF40001013050458EF40E0180C
:100B5000B704002083A5041F376500001305451165
:100B6000EF40E03083A5041F130404710545B3D59D
:100B70008502FD15C205C181252A376500001305D0
:100B80004512EF406040B53FEF1060620545EF1041
:100B90006066371500207D4681451305852BEFF0F3
:100BA0002FE037150020130620538145130545D843
:100BB000EFF00FDF3765000013050513EF40C03C71
:100BC000EF007075F5BFB71702409843B706FFF8FE
:100BD00041111367170098C3D84337060200758F79
:100BE000D8C39843B706F7FEFD16758F98C3984390
:100BF000B706FCFFFD16758F98C3D843B70681FF73
:100C0000FD16758FD8C337079F0098C702C402C668
:100C10009843C166558F98C3B716024005679C423A
:100C2000F18F3EC6A24785073EC4B24781E7A2477F
:100C3000E397E7FEB71702409C431397E70063571B
:100C4000070685473EC632478547631FF704B71737
:100C50000240D843B706C1FFFD16D8C3D843D8C356
:100C6000D84313670740D8C3D843758FD8C3D84338
:100C7000B7063D00558FD8C39843B7060001558F7E
:100C800098C3984393166700E3DD06FED843B71672
:100C90000240719BD8C3D84313672700D8C32147AC
:100CA000DC42B18BE39EE7FE4101828002C661BF58
:100CB000EFF20FCC0111AA842E840945854502CAA2
:100CC00002CC231E010002C602C8EF202017231AFF
:100CD0008100370400404C0813050440231C910098
:100CE000231D0100231B0100EF2020170546854529
:100CF00013050440EF2020209307D0122316F100A3
:100D000089472307F100680085473EC8EF10D0757A
:100D1000854513050440EF20401CB7E700E0096754
:100D200023A2E71005616FF0EFC619207300203091
:100D3000EFF20FC437040040854513050440EF204F
:100D4000E01C45C5854513050440EF20E01D37171D
:100D500000209306872B03C60600894763F7C70860
:100D600003C616008D4583C756006314B6041307E7
:100D7000A0103387E702938741398146BA9703C8A9
:100D800007006304D80603C587003E86014709A80B
:100D90008345160205071377F70F8505A300B602F2
:100DA0000506E317E5FE850693F6F60F93872704FD
:100DB000C9BFA545631BB6021305A010B387A702E0
:100DC0009385413903C366001307872B814613853A
:100DD0004139094E8D4E130FA010AE9783C52702DF
:100DE00085052381B7026314D3006FF0AFBA834740
:100DF00077006376FE04834787006392D7058347B5
:100E0000C7008145B387E703AA9783C207006388B9
:100E1000B20283CF87003E88014609A883481802A2
:100E200005061376F60F8508A30018030508E39757
:100E3000CFFE850593F5F50F93872704C9BF850677
:100E400093F6F60F190745B703474500A146630619
:100E5000D70083C7E5006396D700A1472300F600BB
:100E600082809D466304D7006394D7009D47FDB7F9
:100E70008D466304D7006394D7008D47C5B7A54658
:100E80006304D7006394D700A547C9BFFD57F9B7DE
:100E9000EFF28FAB371400201304842B370B0020A4
:100EA000130101BE8144930B3400938A4181130BDB
:100EB0008B07938901F813054006EF30B05E850477
:100EC00093F4F40F214533159500EF30B05D0145E3
:100ED000EF1060410149014A994C130C40065E85B0
:100EE000EF10404619E5050A137AFA0F63E64C0540
:100EF000014905094209054513590901EF30905A86
:100F0000E31F89FD9547E3F897FA594531A09547C6
:100F1000E3F397FA13055004130101426FF04FA653
:100F20009547E3FA97F813056004FDB79547E3F496
:100F300097F813057004CDB7130A44009306A10077
:100F4000494693850138528523150100EF10C06F83
:100F50002A8C9306A10049466C005285EF10C06EA2
:100F60008357A10023A06A012392FA00E3110CFA2F
:100F700003454400094A894523014401EF10C07F1D
:100F800045F1154523014401EF30D051034544009C
:100F9000340013060040CE85EF10A0702A8C034564
:100FA0004400130A0102340013060040D285EF10FA
:100FB000406F035781009387C18023A0470123928C
:100FC000E700E3150CF6CE851385013813061400EF
:100FD00003CA5900953D03454400D285EF10607D5A
:100FE00005DD9547E3F997EC1305B00F35B7397177
:100FF0009308A01056D4B3081503930A500822DEB4
:1010000026DC4ADA5AD25ED062CE938701F8B30A60
:1010100055034ED852D666CC6ACA6EC803C727009D
:1010200083C73700A207BA973EC693170701C1834B
:101030001386413983CFC1813EC481420147814734
:10104000138801F8938EC1810949914305449304A3
:1010500020047D5B930B1002330C1601B24663DD56
:10106000D702B306F80083C516006393250383C631
:10107000460063FCD30023007C00B306F80083C65F
:101080000600B697C207C183D1BF2300DC00F5B7C5
:10109000E39775FE63177700638902182380FE01CA
:1010A00069A283C556000D43639E651483C566001F
:1010B000636CB41283C676006368D9126399860A9A
:1010C000B30697028542814FC696B2962381860069
:1010D000B306F80083C60600B3097703014EB6973E
:1010E000C207C183014FB3069702D699C696B2963E
:1010F000B305F80003C315006308730C224A63F5B7
:10110000470D03CA0500D297C207154AC183631170
:10111000430B03C3550003CA250083CD45002203BA
:10112000137DFA006E93620A4203135A8A4183CCFC
:1011300035001353030163570A0483C56500338ADE
:10114000E601A3069A01230FBA00B38CE90183C517
:101150008600A10C860CB29C8505050FA304AA018C
:1011600023916C002384B600137FFF0F51B7E391E6
:1011700026F7B30697028542854FC696B29623811D
:101180002601B9B7B385C601A383A503A38595033B
:10119000B385C901C1058605B2952398650083C54D
:1011A0006602050E137EFE0F85052383B60289B7FE
:1011B000E31073F503C3850083C575002203B3658F
:1011C000B3002392B6002DB7631C8E00B3069702BE
:1011D000C696B29683C52600639485002380660573
:1011E00005071377F70F9DBDB3069702C696B29613
:1011F00023816601B306F80083C60600B697C207CE
:10120000C183F9BF638402002380FE019307200499
:101210003307F7029307A0103305F502FD572A970D
:10122000138541393A952301F5007254E25452591D
:10123000C259325AA25A125B825B724CE24C524D36
:10124000C24D01452161828083C601F89547639BA9
:10125000F618138701F88346170085476394F6183C
:1012600083462700A547639FF616834637009947B4
:10127000639AF616930620041308A010330805039A
:1012800013864139011122CE26CC4ACA4EC852C615
:1012900056C4B386D5025AC25EC091470143814EFF
:1012A000014F014E938841391144C29636968353BB
:1012B00046000148930F00079304000893020009B9
:1012C0002149C149130A0002854A63E07704A14716
:1012D000631DF30E930720041307A010B387F502D4
:1012E0003307E502BA97B385F80083C7050481E7A1
:1012F00085472380F5047244E2445249C249324A88
:10130000A24A124B824B05618280B306F70083C666
:1013100006008507C20793FBC60013FB3600C18396
:1013200093F6060F638D8B02638B2B0763950B027D
:101330006393560263010802B386EE0336934203B9
:101340001353030163090E008346C60389E6230E87
:101350005603A30EC603DA97C207C183BDB7638BDA
:10136000F60363EBDF00E5FAB306F70003C80600F7
:10137000611813381800C5B763899600E39D56FCC1
:10138000B306F70083CE0600F9B7B306F70003CE25
:101390000600D1B7B306F70003CF06006DBF638D1B
:1013A0003601E39A46FBE30808FAB306F70083C662
:1013B0000600A30FD60245B7E30F08F8B306F700FF
:1013C00083C60600230FD60279B793072004B3879C
:1013D000F5029305A0103305B502AA97C69723809E
:1013E000070411BF8280EFE2BFD59307A010B307B7
:1013F000F50213894139B7090020130101BF2A8A78
:10140000AE8A014D938C41393E99034C0900BE8D43
:10141000138B47009389090163000C08834409007A
:1014200013042004B384844193F4F40F33848402BE
:101430003307B401669783574700B9C75A94669437
:10144000A286138601F8A6855685EF1020452AC688
:10145000A2861008A6855685EF1040443247050D38
:10146000137DFD0F95470DE793072004B387F40222
:101470001808A685528523A4E900EE97E69783D73E
:1014800047002396F900C9337D1C137CFC0F69B714
:10149000E3F8A7FB130C80046285130101416FE0A0
:1014A000FFCD1307A0103305E502938701F803C6AB
:1014B000370083C727002206938641393E969385DD
:1014C00001F8814709431148254E954E36958548C8
:1014D00063C4C700014582803387F500034F0700CE
:1014E00083461700FA97C207C183639C66000347CF
:1014F000470063F5E80023001501D9BF2300E5008C
:10150000C1BFE39706FD03475700E313C7FD3387C9
:10151000F50083461700E38D06FBE3DBC7FA034FB4
:101520000700FA97C207C183E393D6FF83462700DB
:10153000139F8601135F8F41E35B0FFCBD8AA304F9
:10154000D50083463700034F4700A306D5008346E6
:10155000570003476700A206230FE50003478500F5
:10156000FA962319D50005072304E5004DB7EFE2ED
:101570009FBE371400209307842B03C557004111E9
:101580000D372A89631E0510938701F883C567000C
:101590001304842B938901F885C103454400138605
:1015A00001F8EF106017B71700209387872D1147B8
:1015B00023A037012392E7009387013883C5E70012
:1015C0001389013885C103454400138601F8EF10E3
:1015D000A014B71700209387872D394723A437011C
:1015E0002396E7008345F90085C10345440013862F
:1015F00001F8EF106012B71700209387872D494735
:1016000023A83701239AE7008345090185C10345D3
:101610004400138601F8EF102010B71700209387BD
:10162000872D594723AC3701239EE700154A034510
:1016300044001306E100938501F8EF1000352A8974
:1016400029E903C72900914763E2E7042303E40083
:1016500081498544114A8347640063E39704034545
:101660004400214693F5F40FEF10402F01CDFD14F7
:1016700085091545C20493F9F90FEF30A062C180C6
:10168000636E3A018504C204C180F1B72303F400FC
:10169000C1B77D1A137AFA0FE31B0AF81309E00F9A
:1016A0004A8541016FE07FAEEFE2FFAA83C70500E4
:1016B0004111B3D7A740858B85C737190020930701
:1016C000892BAA85AA8403C5470070001309892BBA
:1016D000EF10C0222A8431E98347E100858B81E73E
:1016E0001304E00F99A0034549004146A685EF1079
:1016F00000242A841DE9A949034549007000A685F4
:10170000EF10C01F1DE58347E10005041374F40FBB
:10171000858B81C7E31234FFE1B7A947E302F4FCEC
:101720008347C1005944858BC5FF228541016FE085
:10173000DFA52A84DDBFEFE21FA283C705004111A8
:101740001304E00FB3D7A740858BC1CB3719002016
:101750009307892BAA85AA8403C54700114613095C
:10176000892BEF10A01F2A842DE92945EF308053E3
:10177000AD49034549007000A685EF10201829EDFA
:101780008347E10005041374F40FC18BA9E3E3124E
:1017900034FF034549005146A685EF104019014426
:1017A000AD49034549007000A685EF1020150DE5F1
:1017B0008347E10005041374F40FC18B9DC3E3124A
:1017C00034FF8347C100858B91C7554531A0A94798
:1017D000E311F4FC1305E00F2A84228541016FE038
:1017E000DF9AA947E308F4FEE9BFEFE27F98B71755
:1017F00000202E842E86AA8503C5C72BEF1000106B
:1018000019E98347140013F7270011E713F5470080
:101810003335A00005056FE0FF97EFE27F92B71424
:101820000020130101BF9384842B370C0020AA8968
:10183000AE8BB28A2944938C4400130A01011389A8
:101840004181130C8C076A8B9306E100494693850E
:101850000138668523170100EF00105FAA8D9306FB
:10186000E1004946D2856685EF00105E8357E100AE
:10187000232089012312F900638A0D027D14137459
:10188000F40F79F013055004130101416FE01F8F2D
:101890007D191379F90F6310090213056004EDB780
:1018A0007D191379F90F63130904E9BF19443384CF
:1018B0008902294926948345C4000345B40089055B
:1018C00093F5F50FEF00506B61F58347C4001944A1
:1018D0003384890289072380FB001545EF30803C63
:1018E0002949138C01F8938BC18026940345B400D9
:1018F0009306E10013060040E285EF00905A2A8D1E
:101900000345B4009306E10013060040D285EF00C2
:1019100050598357E10023A04B012392FB00E311B0
:101920000DF8138501385686938501F803495C004C
:10193000EFF08FD119453385A9022944AA9403C534
:10194000B400CA85EF00F06621D17D141374F40F42
:101950007DF4130590040DBFEFE29F81AA86130862
:10196000A0102E85B28513062004338806039387C2
:1019700041394111138741393386C5024296B297E6
:1019800003C8C70303C617046303080483C7D70348
:10199000A306C1002306F10089471306A0102317F0
:1019A000F10093072004B386C6028548B387F50289
:1019B0003388D7003A9803460804631E160193063D
:1019C000E1007000EF00D07041016FE0AFFC230632
:1019D000C1008547D9B79305F00F0145E316B6FE60
:1019E00093878703B697034578028356E10070001A
:1019F000B305F700EF001066C1BFEFE2EFF4AA896C
:101A0000AE84EFF0CFDE2A8A6312050E938701F8C9
:101A100083C56700938A01F899CD138601F826855E
:101A2000EF00904FB71700209387872D114723A011
:101A300057012392E700A6854E85EFF0DF9A938742
:101A4000013883C5E7001389013899CD138601F861
:101A50002685EF00704CB71700209387872D3947F4
:101A600023A457012396E7008345F90099CD1386F7
:101A700001F82685EF00504AB71700209387872D7D
:101A8000494723A85701239AE7008345090199CDC7
:101A9000138601F82685EF003048B717002093879A
:101AA000872D594723AC5701239EE700930AA010C6
:101AB000B38A5903138941390144930B2004054C1F
:101AC000330B590183470B006365F40203C7C181DF
:101AD000854763EDE700EF20E064EF103073EF20FF
:101AE000606F954703A74191E31EF7FE52856FE0B3
:101AF0002FE9B3077403D697CA9703C72700631863
:101B00008701A38007042286A6854E85B13505048A
:101B10001374F40F45BFEFE2AFE2B719002003C51D
:101B2000892B01111384892BEF0040720547AA8786
:101B3000631CE50A2300A400A3020400EFF04FB5E4
:101B4000AA8751ED034714008D46631ED7002AC0B3
:101B500083454400034554004D35824701ED0D4750
:101B60002300E40005A0A546E31BD7FE2AC0EFF042
:101B70001FA0E5B75947D9476306E5008947230009
:101B8000F400AA878346040009476378D7280347EF
:101B900014008D46834C54006318D724130AA010F8
:101BA000338A4C03138741390149938A4139138B96
:101BB000818C52973AC052C23A8C03470C00637E24
:101BC000E924130720043307E90292468144B30B4A
:101BD000D7009306AA013697D69B3AC6FDA059476F
:101BE000E302E5FA0947ADBF51FD2AC08344540022
:101BF0007D4681451385892BEFE08FDA1305A01010
:101C0000B384A402138541391306A010814526959B
:101C1000EFE00FD98247BDB7B38D9B0083C62D027D
:101C200003C6ED0163E0C60AB3F6C602B24703C5B8
:101C30009D00B3859700138601F8D6952381DD02B8
:101C40009306E101EF00F03BAA8769E1835EE101C1
:101C500083C8018D03C3418C9385418C03CF118DC3
:101C600001450147014E1388018D9386C18B1316E0
:101C7000070141826366D60763040E002380650076
:101C800019C12300180103C7018D03C6418C938637
:101C9000018D36C43297938D418C0DC783C6C181A7
:101CA00003C6118D138D118D630006106399060E06
:101CB00021469385C18B0545EF206062AA87631793
:101CC00005108147850493F4F40F03C78B00E3E507
:101CD000E4F459476383E71405091379F90FF1BD5B
:101CE000138601F83A9603460600630A0F00338311
:101CF000E6002300C300054E054305078DBF3305ED
:101D0000EB002300C50085480545C5BF594D630656
:101D1000A5119306E002E318D5F683C59D002AC4F9
:101D20000345440093E50508EF00302B83461C0073
:101D3000238D0D002546850693F6F60FA300DC00E3
:101D4000A247E372D6F47D4681451385892BEFE0E7
:101D50002FC5EFF0EF93AA870DED83C59D000345D6
:101D6000440093E50508EF00502702458547130618
:101D7000A0108145A3000C002300F400A30204007E
:101D8000EFE00FC28345440066858539AA870D4779
:101D900001C5E38AA7EF09472300E400EDB5054636
:101DA0006399C63C114631B7E38406F00546E38BE0
:101DB000C6FEE38807F02247854623200B00232236
:101DC0000B002300DD0023000700EDBD83460D005E
:101DD000FDD29386C18B23A0060023A20600230018
:101DE0000D0023800D00F9BDA5466318D7029305A9
:101DF000A010B38CBC029389413913894139E6990B
:101E000003C7290283C6E901637CD7008149138C8B
:101E1000818C0347640063E1E91805616FE00FB648
:101E20003377D70203452400E90C138A01F8238194
:101E3000E9028D2103453400952903C599009306D5
:101E4000E101138601F8B3059901EF00901BAA8701
:101E500055FD03470A00014CD54CA30EE1009949FA
:101E6000094D8D4AB70B0050054B83466400E37F54
:101E7000DCF8930D1C0013FAFD0F9305D101528578
:101E8000EFF09F8259476317E504330C3C032AC0E7
:101E90008346D101B31DBB0193CDFDFFB3FDDD0032
:101EA0001306A0108145A30EB10133078401034539
:101EB000C7001307A0103305E5024A95EFE04FAEC7
:101EC00013057C00194681452295EFE06FAD8247EE
:101ED000528C61BF13054006EF20D05C9305D10101
:101EE0005285EFF05F85AA8763139509B3073C031A
:101EF0008546A297A383D700A146A385D700238652
:101F00004701B30D3C03938501F85285EFF0FF8D37
:101F1000A29D2385AD0003C59D00AD2E03C5AD0078
:101F200071268347340099C783C71B0093F7B70F07
:101F3000A380FB00B30D3C03628513868D0093855F
:101F40009D002296A295EFF05F8DAA87A29D31E1B8
:101F500003C78D00631A570183C5BD0003C5CD00BB
:101F6000EFF0BFA9AA872DF5A3835D0195B783463E
:101F7000D101B31DBB0193CDFDFFB3FDDD00B30661
:101F80003C03A30EB101A29683C67600E39266F5E8
:101F90008DBFA383AD012DBF19473387E9020D46DD
:101FA0002297834677006390C61803468700631C18
:101FB000D616034BC7001307A010014A330BEB02E0
:101FC000330769015AC03AC2124703470700637CCE
:101FD000EA14930C2004B30C9A03994A02478144F3
:101FE000B38A5903B38BEC00CA9BA29AC5A8B386E7
:101FF0009B0003C7260203C6E6016364C70C337760
:10200000C70203C59A002381E602692403C5AA001A
:10201000712C8347340089CB370700508347170062
:1020200093F7B70FA300F700B3879B009305AB01AD
:1020300003C59700E695A6959306E101138601F87E
:10204000CA95EF00007CAA87631B050C835EE10143
:1020500003C8018D03C3418C9385418C03CF118D3F
:1020600081480147014E1385018D9386C18B13165C
:1020700007014182636FD60763040E002380650069
:10208000638408002300050103C7018D03C6418C4A
:102090009386018D36C49386418C329736C615C31C
:1020A00083C6C18103C6118D138D118D51C6C1E246
:1020B00021469385C18B0545EF206022AA8759E907
:1020C00081473715014005468545130505803EC407
:1020D000EF009037A247850493F4F40F03C78B00F9
:1020E000E3E7E4F05947638FE702050A137AFA0F32
:1020F000E1BD138601F83A9603460600630A0F0015
:102100003383E6002300C300054E0543050785B76A
:102110003308EC002300C80085480548C5BF59476F
:10212000E314E5F6D947850993F9F90FDDB10546C2
:102130006394C6041146B5BFA5DE0546E38CC6FE12
:10214000C1D3854623200C0023220C002300DD0090
:10215000224729A883460D00EDD632479386C18BCE
:1021600023A0060023A2060023000D002300070081
:1021700089BFE39007C6B1B6A1D7C5B737070050EE
:102180008347070093F7F70B2300F70083471700F7
:1021900093F7B70FA300F70083576703C207C18304
:1021A00093F7F7BFC207C183231BF7028280EFD2E8
:1021B0003FFCB707002003A7071FB7479508938781
:1021C000074009456300F702B7E7B8059387078022
:1021D00005456309F700B777DC02938707C06315ED
:1021E000F7000145EF00D03385450565EF0050410C
:1021F0006FD05FFAEFD2DFF7854737040050631ED8
:10220000F50299472300F4002945EF205026930753
:1022100090F8230004002300F40093078004A30631
:10222000F400B71700209387872F1CCCB717002026
:10223000938787335CCC6FD0FFF599472300F40078
:102240002945EF20D02223000400F5B737070050BE
:1022500083476700858B9DC385472303F70083462B
:1022600057008147858A81CE854711C98947630711
:10227000F500034717008547058B11C389473E8545
:102280008280B707005003C557000581134515002C
:102290000589828037070050834737001375F5079B
:1022A00093F70708C98FA301F7008280854763175A
:1022B000F500EFD2FFEBD9356FD0DFEDB707005057
:1022C00003C70700136707042380E70003C717004D
:1022D00013674700A380E70003D76703136707402E
:1022E000239BE7028280EFD2BFE82A8401455D3755
:1022F0007135854763EE8700370700508347170025
:1023000093E72700A300F70001EC2D45EF2090197B
:10231000370700508347170093F7D70FA300F70044
:102320000945EF203018B707005003C76700058B39
:1023300001CB03C75700058B01C705472383E7007F
:102340006FD05FE53707005083475700858B95CFE7
:10235000EFD21FE283471700858B99E72A84153750
:102360002300A40011E19937B707005003C71700F5
:10237000014513671700A380E70003D767031367BE
:102380004700239BE7026FD0FFE059458280EFD2E0
:10239000BFDBB7070050A38DB702416A2A8B328991
:1023A000238FB70293594500814437040050894B6D
:1023B000394CA94AA54C7D1A230C640323037401EC
:1023C000130D803E83476400898B91EB7D1D420D88
:1023D0000545135D0D01EF209009E3150DFE230C5B
:1023E000040283476400898B81E71305E00F41A055
:1023F0008347740093F70704D1E38347740093F78E
:10240000F70F13F5F700630D850763175505630C88
:102410000906630649017D19420913590901FD1492
:1024200093F4F40F5145EF20900483476400858BAB
:1024300081CF1305800CEF20900383471400858B18
:10244000B1C785472303F400850493F4F40FE395A3
:1024500054F71305000221A8638D9901B5476385E0
:10246000F9008547E393F9F855DD136505026FD050
:102470003FD19D8B0D47E399E7FE6DB70145C5BF81
:102480001305E002EDB71305A002D5B75945C5B74E
:10249000EFD29FCBAA89B284130540062E89EF2084
:1024A000007D99C02390040037040050A147896A39
:1024B000231EF40213860A7181451305000DC13DE8
:1024C000631D05149147A30DF402371B0020230F51
:1024D000F40293078B3303D46700130B8B33630D24
:1024E000040E630B090E8387070063C50706CE8BB6
:1024F000C20993D90901370A0050938A0A7113055A
:102500004006EF20C076DE8763733401A287231E66
:10251000FA0281470357CA03639DE7108345EA0324
:1025200056864145AD35631A050E8347EA0393C7C6
:102530004700230FFA028357CA031D8C42044180CF
:1025400081C88357CA0303D70400BA972390F400C5
:102550005DF459A0371B0020370A0050938A0A7196
:10256000130B8B2FFD1913054006EF204070834598
:10257000BA03568613050009193D45E18347BA039E
:1025800093C74700A30DFA0203578A00A287637618
:10259000870083578A00C207C1831D8C4204418093
:1025A00091C403D704003E972390E400014793169B
:1025B0000701C1826395D7063E9983578A00C207F7
:1025C000C18399C783578A00B3F7F90091E341FCAF
:1025D000B7070050239E070213054006EF2020692D
:1025E000B707005083D7C70313050009C207C1838B
:1025F00091E341450966130606719145493B11ED8A
:10260000370700508357C703C207C18399C7835751
:102610008700C207C18391C35D456FD07FB6B30603
:10262000EB0003C60600B306E90005072380C600D9
:10263000BDBF834609003307FB008507C20723009F
:10264000D7000509C183F9B5EFD2FFB041112317B7
:102650000100C54963E6C9005D4541016FD0FFB285
:1026600013878184A147B684144358432300F5009F
:10267000B71700209387873394C3D8C32A840345B0
:1026800005001306E1002E89213561F98357E10029
:10269000E3F4F9FC034779002300E4002390F400FD
:1026A0006DBFEFD25FAB13870184B28910435843EB
:1026B0003714002093078433411190C3D8C3368662
:1026C0002A8A2E8936C6E93329E5B2461387018462
:1026D0000356670083D506005D4563ECC5020346DB
:1026E0003900834529009307843322064D8EB28535
:1026F00063F3C900CE85104358432390B60090C3BE
:10270000D8C303D706003686CA852393E7005285CF
:10271000413341016FD07FA7EFD2FFA3938701859B
:1027200003AA07003714002083A947001304843349
:102730004111B28413E90530232044011306E1005E
:10274000A685AA8A2322340123112401913315E19D
:1027500083C704001306E10023204401232234012F
:10276000A68556852317F100231124012313F400B5
:10277000053341016FD07FA1EFD29F9F13878185E1
:102780001443B717002058439387873394C323918A
:10279000B700AE84D8C301468145DD392A8419E5E6
:1027A0002685EFF03FAF1545EF20C04F22856FD053
:1027B0007F9EEFD2FF9B138701861443B71700203B
:1027C00058439387873394C32391B700D8C30146F6
:1027D0008145EFF0FFCB6FD0FF9BEFD27F9913873E
:1027E000818314435843B717002093878733D8C396
:1027F0002392B70094C301468145EFF07FC96FD0A3
:102800007F99EFD2FF962E8483C50500411132894E
:1028100013650509014636C6EFF07FB7AA84B246B4
:1028200015E5B707005003D68700B715002093853C
:10283000852F420641822390C6004A85EF20C0576B
:102840008347040093C747002300F4002685410115
:102850006FD05F94EFD2DF91AA8437150020411129
:102860002E8413058533B285368636C6EF20C054D4
:10287000B246B70700500146239ED70283450400A5
:1028800013E50401EFF0BFB019E58347040093C7D7
:1028900047002300F40041016FD0DF8FEFD25F8D3E
:1028A00013878186328810435843B717002023AC22
:1028B000C73293878733D8C32392B70003D7060064
:1028C0003686C2852393E700EFF09FBC6FD09F8CC4
:1028D000EFD21F8A13870187328810435843B717F6
:1028E000002023ACC73293878733D8C32392B70025
:1028F0003686C285EFF0DFB96FD0DF89EFD25F8710
:1029000013878188B28610435843B717002023AC41
:10291000C732938787334111D8C32392B700130678
:10292000E100B685EFF0DFB641016FD0BF86EFD290
:102930003F841387818714435843B717002023AC83
:10294000D73293878733D8C32391C7002392B70028
:1029500001468145EFF0DFB36FD0DF83EFD25F81B7
:102960001387018914435843B717002023ACD7328B
:1029700093878733D8C32391C7002392B7000146BA
:102980008145EFF0FFB06FD0FF80EFD2CFFC93878F
:1029900001889843DC4337140020232CE4321304CD
:1029A0008433AA89AE8432895CC0EFF07FAE01ED3A
:1029B00083C704004A86A6852310F9004E85231399
:1029C000F400EFF0FFAC6FD04FFC01A001A001A01C
:1029D00001A001A001A001A001A001A001A001A0EF
:1029E00001A001A001A001A001A001A001A001A0DF
:1029F00001A001A001A001A001A001A001A001A0CF
:102A000001A001A001A001A001A001A001A001A0BE
:102A100001A001A001A001A001A001A001A001A0AE
:102A200001A001A001A001A001A001A001A001A09E
:102A300001A001A001A097E1FF1F9381A1FB172135
:102A400000201301215C174500001305E58697D58A
:102A5000FF1F9385255B1386018A63FAC5008322D5
:102A6000050023A0550011059105E3EAC5FE138575
:102A7000018A97F5FF1F938565946377B50023203E
:102A800005001105E36DB5FEFD42739002BC8D4259
:102A9000739042809302800873A0023097D2FFFFA8
:102AA0009382C25993E2320073905230EFE0AF91BB
:102AB00097E2FFFF938282087390123473002030F4
:102AC0005841032805004C4537060140930706404E
:102AD0003E979346F8FFB1C583250640F58D232028
:102AE000B640D043F18ED4C31443B3E6060114C3F9
:102AF000184190479346F7FF758E90C7D047F18EE7
:102B0000D4C7144541466399C6009447D98E94C7EB
:102B1000D447558FD8C78280B6979443558F98C3B2
:102B200082801C43F58F1CC38280B70701409387C6
:102B30000740DC4B7D8D3335A0008280B707014014
:102B400023AAA7408280B707014023AAA74082801A
:102B50009C4513F7070113F8F70001C7D841336804
:102B6000E80037270240145B3707000F758F45EFE9
:102B700085462389D18C371701406317E50003D7B9
:102B8000050035832390E50083D5050013F7F50F85
:102B900039C318418146854E3D4F930F8002930201
:102BA0008004214E3396DE00B3F8C500631116038E
:102BB0009398260033131F011343F3FF3377E30089
:102BC000B318180133E7E8006397F70750C9850683
:102BD000E39AC6FD18C11307F00F6375B70454419B
:102BE0002146854E3D4F930F800293028004414E53
:102BF000B398CE0033F715016392E802131726004D
:102C000001173313EF001343F3FFB376D3003317E9
:102C1000E800D98E6395F703232A15010506E31909
:102C2000C6FD54C1828037170140E31FE5F403C796
:102C3000218D39DBA9B7E39C57F810C949BFE39F41
:102C400057FC23281501D9BFB71701406316F500BB
:102C500083C7218D91C3B58119C20CC982804CC92B
:102C6000828023AAA18C82809387418D944303475D
:102C7000050089E683472500920731A8944305465D
:102C80006391C60483472500034615009207631429
:102C9000D60093E707F8B7E600E093F7F70FBA9688
:102CA0002380F6408546935757003397E6005441FA
:102CB000ADC6938707048A07B7E600E0B69798C3C6
:102CC00082808C4389466393D502834615008347EF
:102CD00025006365D6008A06B69779BF9386E6031A
:102CE0008A06B69793F7F70F920765B790438D461C
:102CF000631ED60083461500834725006364D60013
:102D00008606D9BF9386C6078606E1BF94439147DE
:102D1000E39AF6F88347150085B79387070661BFE6
:102D2000B7170240D843B70640FFFD16758FD8C3CA
:102D3000D8435A05598DC8C38280371702405C4377
:102D40009146B18B6385D700A1466386D706B71736
:102D50007A00938707201CC1371602405C42370770
:102D60000020130707029183BD8BBA9783C6070023
:102D70001C41B3D7D7005CC15442A1829D8ABA9648
:102D800083C60600B3D6D70014C55442AD829D8ACF
:102D9000369703470700B3D7E7005CC5584239832D
:102DA0009376370013870182369703470700B3D71E
:102DB000E7021CC982805C435843C166C983BD8B4E
:102DC000758F8907C5466393D700C94701EF374719
:102DD000024003270780418B09CF37177A0013077A
:102DE000072021A83717024058439316E700E3D67F
:102DF00006FE37173D0013070790B387E702A1BF10
:102E000099C5371702405C4B5D8D48CB8280B71760
:102E10000240D84B1345F5FF798DC8CB828099C508
:102E2000371702401C4F5D8D08CF8280B7170240D4
:102E3000984F1345F5FF798D88CF828099C5371754
:102E400002405C4F5D8D48CF8280B7170240D84F5B
:102E50001345F5FF798DC8CF82808357050037373A
:102E60000140130707C0C207C1836304E5023707A7
:102E700000406300E50213070740630CE5003717C5
:102E80000040930607806306D500130707C0631749
:102E9000E50003D7250093F7F7F8D98F03D765002E
:102EA00093F7F7CFC207C183D98F2310F50083D7DB
:102EB00045002316F50283D705002314F502B73722
:102EC0000140938707C06316F50083C78500231868
:102ED000F5028547231AF50082808357050091C5C6
:102EE00093E717002310F5008280C207C183F99B86
:102EF000C207C183C5BF8357C50009C6DD8D231630
:102F0000B500828093C5F5FFFD8DD5BF83570501C0
:102F10000355C500ED8F4205418189C76D8D33355D
:102F2000A00082800145828093C5F5FFC205C18162
:102F30002318B5008280EFD2AFA383560501F57741
:102F4000FD17F58F83D6650003D7C5007971D58F3E
:102F50002318F5008356C500FD779387379FF58FBB
:102F600083D645002A842EC6D58F83D68500D58F7B
:102F700083D6A500D58F2316F50083574501C207D8
:102F8000C18393F7F7CFD98F231AF50068087533FB
:102F9000B747014093870780B245631DF404A257E9
:102FA0008356C4006547B387E702C206C1869841CD
:102FB00063D4060406070356C4004206B3D7E702EB
:102FC000130740064186B3D6E702B3F7E70292063D
:102FD000635606028E0793872703B3D7E70213F7DA
:102FE0007700B367D700C207C1832314F40045619B
:102FF0006FD04F9A92576DB70A0775BF92079387A4
:103000002703B3D7E702BD8BD58FF1BF81C98357A3
:10301000C5000967D98F2316F50082800357C500C4
:10302000F977FD17F98FC5BF93F5F51F2312B5008A
:103030008280035545001375F51F828003550500F6
:103040006D8D3335A000828013F7F50F854615830B
:10305000B397B6006313D7020357C500F98F035720
:10306000050001454207418381CB0545A181B31588
:10307000B5006D8F3335E000828089466315D70037
:1030800003570501E1BF03574501C9BFEFD24F8E7A
:1030900001E983A7018E05472398E7006FD08F8F42
:1030A00083A7818E9C43829703A5018E2905FDB7D6
:1030B000EFD20F8C01E983A7018E05472398E70023
:1030C0006FD04F8D83A7818E9C47829703A5018E79
:1030D0003105FDB703A7018E09E589472318F700DD
:1030E0008280EFD2EF88239E018C834707001384F0
:1030F000C18D93F7F7079DEB03479700937707027E
:1031000081C789472300F40013770704834704002D
:1031100001CF93E717002300F40083A7818E9C4B17
:10312000829722856FD00F87F99BF5B78546138567
:10313000C18DE389D7FE89460145E395D7FE034754
:103140005700B7660040938606C09377F7008A075A
:10315000B69762079C4361876359070093F707039B
:103160004147E39CE7FA85477DB70D67F98F05670F
:10317000CDBFEFC25FFE83A4018E3E8A03D404015B
:1031800039E803C7840091476317F7041387818DDB
:1031900014438547639CF602B767004083A707C5C1
:1031A000B73600208906C207C183B697860723A0D9
:1031B0000700930700032398F18E2320070011498D
:1031C00083A7018E238427016FC03FFCC14723984A
:1031D000F18E1D49F5B783D74401114963F3870088
:1031E000094963F387003E849C4C42044180228558
:1031F0008297AA8A0145EF0090602286AA855685AB
:10320000EF009042A2850145EF00506383D704018F
:103210000D67818F2398F40083D724013E94930790
:1032200000032398F18E239984002397E18E49BFF0
:1032300083A7018E83C6518203C73700094563E324
:10324000E60283C6270099EE83D6470081EEEFC2DF
:103250003FF22385E70083A7818EDC4382970145F7
:103260006FC05FF38280EFC2BFF083A7018E03A718
:10327000418E411183C53700184F03C5570002978F
:1032800083A7018E03C7A7001DCB2AC60DE903C77C
:10329000470015E783C727009DE383A7818EDC479E
:1032A000829783A7018E324503C75700A385E700A5
:1032B00003C737002386E70041016FC0BFED094512
:1032C000E5BF83A7018E83C6070093F6F60791EA50
:1032D00003C797001377F7FDA384E70001473A85FA
:1032E000828009460947E39CC6FE83D62700E5FA9B
:1032F00083C64700EDF6EFC2BFE703C65700376746
:103300000040130707C01375F6F7131425003A940D
:103310006206144061866357060493F6060383C56C
:1033200041820947637DB5029DCA83C7A70085CB4B
:103330001C40635C060293F707034147639CE70068
:103340001374F50F2285EF00704493050003228566
:10335000EF00F03483A7818EDC4B829701473A85DA
:103360006FC05FE30D67F98E5DBFC164FD140D672B
:10337000E58FF98F0567E39FE7FC1DEDB707002098
:1033800083C54716EF00704D1C4071771307F7F89F
:10339000F98FC2070D67C183B98F617713070708DB
:1033A000D98FC207C1831CC08D661840658F758F89
:1033B000E302D7FA1CC0D5BFEF00103A1C4071776A
:1033C0001307F7F8F98FC2070D67C183B98F6177CB
:1033D00013070708D98FC207C1831CC08D66184028
:1033E000658F758FE308D7F61CC0D5BF03A6018E85
:1033F000B7670040938707C08346560093F5F6F7FA
:1034000013972500BA97E2069843E18663D1060632
:103410001377070303C84182094563F905098355FA
:103420002600C9E541C70347A60049C3EFC25FD4E0
:10343000984363D30604E5769386F6FB758F4207BF
:103440004183E1761347070193860608558F4207AB
:10345000418398C34146944393F60603639CC60098
:1034600083A7818E9C4F829701456FC0BFD20D65A7
:10347000698F4DB798C3C5B7F1769386F6F8758F07
:10348000420785664183358FE17693860608558F1E
:1034900042074183416698C37D160D658565944357
:1034A000F18EE98EE38EB6FA98C3D5BF8280EFC263
:1034B0003FCC03A7018E8347970093E70702A3043D
:1034C000F70083A7818EDC4F829701456FC09FCCA8
:1034D00003A7018E8357270101E903D545001D8D00
:1034E0002318A7000145828088413E958280EFC263
:1034F0003FC8B707002083C547160145EF00F035E8
:1035000083A7018E03C58700A1476318F5000567EF
:103510002397E18E41472398E18E5D151335150001
:103520006FC05FC7EFC2DFC403A9018E37660040DA
:10353000832706C58346890025474111638BE6042E
:1035400041641307F4FFB7360020F98F9106B69750
:1035500086078043798C0604329483470400230055
:10356000F90083471400A300F90003554400EF005D
:1035700050332311A9000355840003A9018EEF00E5
:1035800050322312A9000357C40083A7018E23934E
:10359000E70083A7018E05472384E70003D7670070
:1035A00003C417006319070E03C707001377F70753
:1035B0005DEF25476316E400EFF09FC735E515A8DA
:1035C0001547631BE40403873700635B0700A147CB
:1035D00003A7018E2304F700193F41016FC09FBB71
:1035E00003C727006DF703D7470075F383C7A7000C
:1035F000F9FFB767004083A707C5373700200907E1
:10360000C207C183BA97860723A0070013070003E8
:103610002398E18E99476DBF0D476318E40283C676
:1036200037000547638DE60083A7418E2285DC4B7A
:1036300082970D47A547E30DE5F845DD49BF83D7E0
:103640004700FDF3EFF0BFE695BF0547E31EE4FC3E
:1036500003C73700E31A87FC03D7470071F783C716
:10366000970093F70702E9D3EFF0BFC581BF854705
:103670006318F700AD47E319F4FAEFF0DFBE3DBF82
:103680008946E313D7FAE301F4FE8D47E31EF4F80D
:10369000EFF0DFD525B71947631BE40203C7070026
:1036A0001377F7077DE383C72700854603A7418E7D
:1036B0006395D7005C4FF1CBA1A089466394D700F6
:1036C0001C53D5BF8D466392D70C5C53EDB775E0A4
:1036D00003D727005DEBD843C1769386F60F758F2D
:1036E000B70602006313D70A03C707001377F7076B
:1036F0001DEF83D74700D1EBB73700009387470D05
:1037000003A7018E0145231907001CCF82970145AD
:1037100083A7018EC166FD1603D707016304D7088E
:1037200089466304D5006318070E2147ADA8854676
:103730006310D70203A7418E03C557008145184F78
:10374000029721E583A7018E83C7A700D5F735A887
:103750008946631CD70203C75700B76600409386AB
:1037600006C01376F70093172600B6979C4393166E
:103770008701E18663DC060293F7070383C6418273
:103780006375D6001377070771D303A7018E83A74C
:10379000418E034517009C4B82978D47E31AF5F63F
:1037A00083A7018E25472384E7003DB58D66F58FFD
:1037B000F1B72147631CE40083C7070093F7F707BD
:1037C000E9F7B73700009387C7081DBF2947E31EF5
:1037D000E4FA03C7070085461377F707E317D7FA1C
:1037E00003C7A7005DD303D7270045F3D843C176AD
:1037F0009386F60F758FC166E319D7F803A7418E3C
:1038000003C557008145184F029741F1B7370000B3
:103810009387070BF5B58386070063D5060483A657
:10382000418E83D5670003C6C6022EC63245931665
:103830000601C182637AE50032472398E700239AA4
:10384000D700EFF01F9349BBE37BB7FE6375D7004A
:1038500023AC018CEDB73367C70275F3054623AC83
:10386000C18CF1BF0D472384E7000D672397E18EDC
:10387000A5B3EFC25F8E03A4018EA14483478400E9
:103880001387E7FF1377D70F3DCF1387D7FF137742
:10389000D70F55EB1C4C95CF83540401A1C8035797
:1038A000440163739700BA84C204C180268582975D
:1038B00083570401AA890145858F2318F400835793
:1038C0002401A6972319F400912FAA8526864E85F8
:1038D00041238357040199CB0D6781450145239707
:1038E000E18EA92F130700032398E18E835704016B
:1038F0008356440103A7018E63EFD7008D4723044D
:10390000F7008344870083A7018E23849700EFF09C
:103910001FBE6FC09F8799C39547D5B799472304AA
:10392000F700B767004083A707C5B73600208906B0
:10393000C207C183B697860723A00700930600033A
:103940002398D18E7DBF1D47A144E39EE7FA83A74C
:10395000418EDC47829745BF03C3418237660040F2
:10396000C1650568A1680147130606C0FD15130867
:10397000F8F0938808086369670013650508B7675E
:10398000004023A6A7C4828093162700B2969C42CB
:10399000ED8FB3F70701D98FB3E717019CC2050775
:1039A000D9BFEFC2EFFC83A7018E83C687001387C0
:1039B000E6FF1377D70F19EFEFF0AFFB83A7018E68
:1039C00003C7870083A7018E2384E700EFF03FB28F
:1039D0006FC04FFC19462147E396C6FE83C6170009
:1039E0001547639EE60003C707001377F70701EB4F
:1039F00003C53700953783A7818E9C53829783A791
:103A0000418E9C478297214775BF8280EFC24FF657
:103A1000B71700209387873723A0F18E09472384A7
:103A2000E700370700209306871323A2D18EB7073C
:103A300000209387871623A4F18E8327871382970C
:103A40006FC04FF5EFC24FF04111370A0020B70A9F
:103A50000020E17923170100130A0A10938ACA1182
:103A600093890908B765004083A745C413970701E8
:103A700041832390E190139707016350071883D780
:103A800001903A84BD8B238FF18C938605C0639996
:103A9000073203A705C09387E18E42074183239035
:103AA000E70003D707009386018F1377070323905E
:103AB000E60003D707008D662166758F2390E70027
:103AC00003A705C0A5679387F7FB7D8F83A705C074
:103AD000B1669386F6F8F58F8966B58F13470702AE
:103AE00093160701130606085D8F518FC18223A02C
:103AF000E5C033E7360142079384E18E1389018FD5
:103B000037660040930500024183832606C093F682
:103B100006036397B60EB3E73701C166C20737667F
:103B20000040FD160D658965C183032706C0130497
:103B300006C0758F698F6318B70C83D70190C18B4E
:103B4000E1EF1C40A5691387F9F0F98F1CC0EFF075
:103B50005FE518401440B1679387F7F8F58F83D677
:103B600004009389F9FB33773701139636016354C8
:103B700006008566B58F83D604001396260163542C
:103B800006008966B58F83560900C18A99C213471A
:103B900007018356090093F6060299C213470702EC
:103BA000216693160701130606085D8F518F37664D
:103BB00000402320E6C06177C18213070708558FB4
:103BC00042074183832606C08355090093F6060306
:103BD000639EB602617713070708D98FC166C207D3
:103BE00037660040FD160D65C183032706C083D5E7
:103BF0000400758F698F631EB70041016FC04FD8F5
:103C00002320E6C019B72320F6C005B72320E6C05D
:103C100055BF2320F6C0D1BF1C40856BC207C183AE
:103C20002317F1008357E100139747016353070CF3
:103C30001C401387FBF8F98F1CC0EFF0BF8E1840B3
:103C4000A5679387F7FB14407D8FB1679387F7F8DB
:103C5000F58F83D604001396360163540600B3C76C
:103C6000770183D604001396260163540600896603
:103C7000B58F83560900C18A99C21347070183563D
:103C8000090093F6060299C21347070221669316AC
:103C90000701130606085D8F518F37660040232009
:103CA000E6C06177C18213070708558F4207418339
:103CB000832606C08355090093F606036398B6026F
:103CC000617713070708D98FC166C20737660040BE
:103CD000FD160D65C183032706C083D50400758FCB
:103CE000698FE30CB7F02320F6C0F5B72320E6C0B8
:103CF000C1B78357E100C207C187E3D507D61C408F
:103D00001387FBF8F98F1CC0EFF0BFB61840A5670A
:103D10009387F7FB14407D8FB1679387F7F8F58F92
:103D200083D604001396360163540600B3C77701A7
:103D300083D6040013962601635406008966B58F66
:103D400083560900C18A99C21347070183560900A7
:103D500093F6060299C213470702216693160701DC
:103D6000130606085D8F518F376600402320E6C09A
:103D70006177C18213070708558F42074183832665
:103D800006C08355090093F606036398B60261776F
:103D900013070708D98FC166C20737660040FD16B2
:103DA0000D65C183032706C083D50400758F698F15
:103DB000E305B7E42320F6C0F5B72320E6C0C1B77A
:103DC0001397270036971443C206C1822317D100E8
:103DD0008356E100C206C18663DD0600FD17144369
:103DE0008A070566D6971306F6F89C43F18E14C32E
:103DF00082978357E10093F70708E38507C683C7D7
:103E0000E18DB7660040938606C01397270036976A
:103E1000FD1714438A07D29725661306F6F09C43D4
:103E2000F18E14C382973DB9B73700200506BE95C1
:103E30000586860511E28280834715000347050049
:103E40009105A207D98F239EF5FE09057D16DDB7E2
:103E5000B73700200506BE950586860511E28280EB
:103E60009C4109057D16231FF5FE9105C5BF61998B
:103E700042054181B767004023A8A7C48280B76785
:103E80000040938707C00A053E951C4165771307DC
:103E9000F798F98FDD8DC205C1810CC18280B767AB
:103EA0000040938707C00A053E951C4165771307BC
:103EB000F7FBF98FC20713F70501C18319C393C735
:103EC000070113F7050219C393C7070261771307A8
:103ED0000708D98FC207C1831CC118411377070394
:103EE000E31CB7FE8280B7670040938707C00A05CE
:103EF0003E951C4171771307F7F8F98FC2070D67DC
:103F0000C183B98F617713070708D98FC207C183AF
:103F1000C1661CC1FD160D661841758F718F631344
:103F2000C70082801CC1CDBFB7670040938707C020
:103F30000A053E951C4105671307F7E0F98F617785
:103F400013070708D98FC207C1831CC18280EFC243
:103F50002FA2D93F6FC00FA4B7670040938707C057
:103F60000A053E951441C1671387F7FF9397160121
:103F700063DD07001C41F98F05671307F7F0F98F20
:103F8000316713070708D98F1CC18280B7670040CB
:103F9000938707C00A053E951C4193F7070491CF0C
:103FA0001C4141677D17F98F05671307F7F0F98FFB
:103FB00021671307070CD98F1CC18280B7670040A7
:103FC00083A707C50E058581C207C1833E95B73714
:103FD00000203E95060586050CC18280B76700402B
:103FE00083A707C50E058581C207C1833E95B737F4
:103FF000002091073E95060586050CC18280B767B3
:10400000004083A707C50E05C207C1833E95B73799
:1040100000203E950605035505008280B7670040E5
:1040200083A707C50E05C207C1833E95B737002099
:1040300091073E950605035505008280B76700404D
:1040400083A707C50E05C207C1833E95B737002079
:1040500089073E9506050CC18280B767004083A79B
:1040600007C50E05C207C1833E95B73700209907E3
:104070003E959307E003060563FEB70093D755000E
:10408000FD8981E5FD17C207C183AA072167D98F82
:104090001CC1828093D71500858991C18507AA0725
:1040A000C5BF935785001375F50F22055D8D82807E
:1040B00037670040F177232207C4938707F02396E0
:1040C000F18EB167938707F02320F7C40145828002
:1040D000EFC20F8A32849374F507268542042E8935
:1040E0004180EFF0DFF12286AA854A85EFF0DFD329
:1040F0002685A285EFF09FF401456FC0AF89192096
:1041000073002030EFC2CF8637050400EFE0BFA375
:104110006FC04F88192073002030EFC26F850524CF
:104120006FC04F87EFC2CF84B707002003A7071FD8
:10413000B74795089387074009456300F702B7E73B
:10414000B8059387078005456309F700B777DC0258
:10415000938707C06315F7000145EFE07FBC8545F5
:1041600037058000EFE09FCD6FC0CF82EFC24F8058
:10417000376500001305851CEF00106103C7A1908F
:10418000136727002385E19083C7A1900D4763142F
:10419000F700EF00B0240D4723AAE1906FB09FFF16
:1041A000EFB21FFD376500001305451EEF00D05D1F
:1041B00083C7A19093F7D70F2385F190B7170020FD
:1041C00003C7273811C7154723AAE1906FB09FFC9A
:1041D0000547DDBFEFB2DFF9011137050400EFE05D
:1041E0009F96B707040005443EC80808C1473ECC67
:1041F00022CE02CAEFE0DF8C93074012280023147E
:10420000F10022C623050100EFE01FA69307A003DB
:1042100028002314F100EFE03FA505616FB09FF780
:10422000EFB21FF5AA842E8411458545EFE03FBF0C
:10423000B1CCB766004083A706C441677517F98FF4
:1042400023A0F6C4B717014003A74780B716F0FFB5
:10425000FD16758F23A2E78003A7C780F9769386A2
:10426000F67F758F23A6E78003A74780B746040033
:10427000558F23A2E780374702408327078021C854
:1042800093E727002320F7806FB0DFF03767004007
:10429000832707C4B716F0FFFD1693E72700C20770
:1042A000C1832320F7C4B717014003A74780758F48
:1042B00023A2E78003A7C780F9769386F67F758FE0
:1042C00023A6E78003A74780B736030055B7F59BC1
:1042D00055BF2389018E8280A389018E8280EFB22F
:1042E0003FE905492A84631625039384218F83C7F8
:1042F000040089EF13051008EFF09FDD930500031C
:10430000054523808400EFF09FB9014422856FB0FA
:104310007FE889476313F5029384318F03C4040057
:1043200009EC13052008EFF0BFDA930500030945F7
:1043300023802401EFF0BFB6D1BF0544C1BFEFB267
:104340003FE337680040032708C5C1651385F5FFC3
:1043500083D6418FB7370020698F13866700329765
:1043600006071843938505C00111F98D638CD500AC
:10437000832708C593F606C0E98FB297860798434E
:10438000D98E94C3B766004083A746C413870190B3
:10439000C207C1832310F7000357070083D7C18EDC
:1043A000138401907D8F1377072019CF416713077E
:1043B000F7DF23A2E6C49386618F03C706000507D3
:1043C0001377F70F2380E60003570400F98FC20725
:1043D000C18763D40700EFF0EFE68357040003D7EB
:1043E000C18EF98F93F7074089CFC1679387F7BFD5
:1043F000376700402322F7C4B707002083A7C713FD
:1044000082970357040083D7C18E7D8F93162701AF
:1044100063D806003967B76600407D1723A2E6C45B
:1044200003570400F98F13973701635B0700BD67DB
:1044300037670040FD172322F7C40145EF00606A8B
:1044400003D7C18E83570400F98F13974701635E2A
:10445000070083A7818263800710792BBD673767C8
:1044600000409387F77F2322F7C48357040003D7C4
:10447000C18EF98F93F70710E1CFC167376700400E
:104480009386F7EF2322D7C4032687C49386818FB0
:104490009315060163DA050A9042050690C28C4224
:1044A0000D466375B60A032607C4FD17218A59EE27
:1044B000032607C49385C18F7D8E3765004090C168
:1044C0001387C18F0146130305C0A1489315260029
:1044D00033886500032808000010A2953378F8009F
:1044E00023A005FF0506E31316FF1043136616000D
:1044F00010C310437D8E2320C5C41043799A10C386
:104500001843F98F2320F5C437670040832747C439
:1045100093F70740E5DFC1679387F7BF3765004032
:10452000C1652322F7C4130505C08147FD15214845
:104530001397270010103A96032606FE2A97850740
:104540006D8E10C3E39607FF23A006001D45512B77
:1045500005616FB03FC40945692309B7B71700204B
:1045600083C7273881C7154723AAE1908280114766
:1045700023AAE19082809387A19003C70700136765
:1045800017002380E70082809387A19003C707006C
:104590001377E70F2380E7008280828091E58547CB
:1045A00033B5A700060582800945828083A7018E66
:1045B000054783C6070093F6F6076390E60403C732
:1045C0002700930620026305D702930610020945CF
:1045D0006316D7083757000013076798EFB25FB923
:1045E0002399070098CF0145029701456FB09FBA04
:1045F0003757000013070796D5B713061002014579
:10460000639EC60483C61700638AE6040946639A5C
:10461000C6002398E700374700001307876C98CF40
:1046200082800D466399C6002398E7003747000053
:104630001307076EEDB7A5456390B60283D66700F2
:10464000636CD700374700001307276B2398D70008
:1046500098CF2384C700828009458280828003A787
:10466000018E9306100201458347070093F7F70771
:104670006390D70483471700294683465700639DFC
:10468000C700894763E5D702034727009387419016
:10469000B6972380E70082802D46639AC70089473A
:1046A00063E7D7000347370093878190D5B7094563
:1046B000828083A7018E014503C75700854763E4C5
:1046C000E7001385C191828083A7018E09470145C8
:1046D00083C757006365F700138541903E9582803C
:1046E00083A7018E0947014583C757006365F7001B
:1046F000138581903E958280EFB29FA783A7018E9C
:1047000023850700E924B7670040856637660040C7
:10471000938707C09386F6F0930506C298439107E6
:10472000758F23AEE7FEE39BB7FE9307F00F2322BE
:10473000F6C4EFF0FF978145014523AA0190EFF001
:104740003FAE5145852385450545EFF07FAD6FB000
:104750007FA4EFB2FFA183A7018E03C7C181238588
:104760000700631D071A3707002003477703A38458
:10477000E700A38507000145EFF06FEF93050020E8
:104780000145EFF0CFEFC1450145EFF04FF1930543
:1047900000040145EFF09F84930500080145EFF008
:1047A000FF810145EFF0AFFAB707002083C5471638
:1047B0000145EFF09F8A0145EFF0EFF237670040C7
:1047C000032607C0C1679386F7FF9317160163DFBF
:1047D0000700832707C0F58F85669386F6F0F58F6F
:1047E000B16693860608D58F2320F7C0376700404F
:1047F000832707C093F7070485C3832707C0C166D3
:10480000FD16F58F85669386F6F0F58FA166938683
:10481000060CD58F2320F7C0930500600545EFF007
:104820000FE69305000C0545EFF04FF993050002E4
:104830000545EFF0CFE637670040832747C093F781
:10484000070485C3832747C0C166FD16F58F8566BB
:104850009386F6F0F58FA1669386060CD58F2322FA
:10486000F7C037670040032647C0C1679386F7FF4C
:104870009317160163DF0700832747C0F58F85660E
:104880009386F6F0F58FB16693860608D58F2322BE
:10489000F7C0930500600945EFF06FDE9305000D4A
:1048A0000945EFF0AFF1930500020945EFF02FDF66
:1048B00037670040832787C093F7070485C38327A2
:1048C00087C0C166FD16F58F85669386F6F0F58F75
:1048D000A1669386060CD58F2324F7C03767004066
:1048E000032687C0C1679386F7FF9317160163DF1E
:1048F0000700832787C0F58F85669386F6F0F58FCE
:10490000B16693860608D58F2324F7C00145EFF0E2
:10491000AF84054723AAE1906FB0DF8737070020F7
:104920000347B705A9B5EFB2BF8493854181EFE096
:104930003FBA6FB03F8683A7018E83C5370091478A
:1049400063EEB700EFB2DF82B71700209387872DA1
:104950008E05BE95EFE0DFB76FB0DF830145828043
:1049600083C5C181894763EEB700EFB27F80B70787
:104970000020938707018E05BE95EFE07FB56FB0ED
:104980007F810145828083C5C181894763EEB7007D
:10499000EFB20FFEB7070020938707008E05BE9584
:1049A000EFE01FB36FB00FFF01458280EFB24FFC05
:1049B00083C7C18189EBB70500209385451FEFE0D0
:1049C0003FB16FB02FFD9385C180D5BF8280B7679F
:1049D0000040054723A0E7C423A007C4096723A21A
:1049E00007C4130707C02396E18E0967130707C0A2
:1049F00023A0E7C401458280EFB28FF7B76700407C
:104A000083A707C4376700404168C207B715002075
:104A1000C1838146130307C07D1893854539A1489A
:104A2000139626003305660008412E9685063375D9
:104A3000050108C2E39616FF93E607402320D7C47A
:104A400093E61740F99BC207C1832320D7C493E69E
:104A500007402320D7C4B766004003A746C4137796
:104A6000074065DF41671307F7BF23A2E6C441682B
:104A7000376700408146130307C07D18A14813968D
:104A800026003385C50008411A9685063375050151
:104A900008C2E39616FF93E787402320F7C48327D5
:104AA00007C4C207C18393E747002320F7C4EFF090
:104AB000EFEB6FB02FEEEFB2AFEB37640040832720
:104AC00004C4C207C183ED9BC207C1832320F4C481
:104AD000EFF00FEDB167938707F02320F4C46FB0B8
:104AE0006FEBEFB2EFE89D471384C1906303F500CD
:104AF00008C01C401547636EF70019678A07130743
:104B00000720BA979C43828783A7819189E7EFF0BA
:104B10009FFA994711A095471CC001A8EFF0BFF973
:104B200091471CC0054723ACE1906FB0AFE68947C1
:104B30002302F4008D47CDB783474400FD1793F758
:104B4000F70F2302F4008347440093F7F70FF1FFB8
:104B50009147D9B737670040832707C4C207C1838D
:104B600093E707012320F7C495471CC0A9472302F8
:104B7000F40065BF83474400FD1793F7F70F230246
:104B8000F4008347440093F7F70FC5F337670040FD
:104B9000832707C4C207C183BD9BC207C1832320EB
:104BA000F7C499471CC023AC019041B7192073008A
:104BB0002030EFB2EFDB374400409305505213052D
:104BC0000440EFE06FC809C913050440EFE06FC669
:104BD0001375F50FA38EA1906FB0CFDBEFB24FD955
:104BE0003D65EFD0BFF51305000FEFD03FF5B7F7E8
:104BF00000E083A607D103A707D193F60602136747
:104C0000870223A8E7D003A707D11377F7FD558FB5
:104C100023A8E7D073005010730050103D65EFD00B
:104C2000DFF009C93D65EFD07FF10545EFF07FEB7F
:104C30006FB04FD61305000FEFD03FEF75D91305B6
:104C4000000FD5B7B707002083A7071F37177A00D3
:104C500013070720B3D7E70293F7F70F2380F192EA
:104C60001307803EB387E702239FF1908280B7F756
:104C700000E0D8438146799BD8C303C7019233062D
:104C8000A70290CBD4CB98431367070198C39843EE
:104C90001367170298C3D843058B75DF9843799B38
:104CA00098C38280B7F700E0D8438146799BD8C388
:104CB00003D7E1913306A70290CBD4CB9843136777
:104CC000070198C398431367170298C3D843058B0D
:104CD00075DF9843799B98C38280EFB26FC92A84AD
:104CE0001165011185451105EFE06F9393070020D1
:104CF0002312F100371501408D473EC44C00E147B7
:104D0000130505803EC6EFD0BFE422C837440140FA
:104D1000B70708000C08130504803ECC02CA231E06
:104D20000100EFE04FA1854513050480EFE00FAED1
:104D300005616FB02FC6EFB20FC2B7440140AE8914
:104D40003289014493840480634524014A856FB00D
:104D5000CFC3930500042685EFE04FAE7DD9B3871E
:104D600089008385070026850504C205C181EFE01F
:104D7000AFABD9BF1387C1821C43B71600209386FF
:104D8000863B3E95636BD500B75600209386068020
:104D900063E5A60008C33E858280FD57EDBF93F50D
:104DA000F50F2A966314C5000145828083470500EC
:104DB000E38DB7FE0505FDB7B3C7A5008D8B33079F
:104DC000C50081E78D4763EEC700AA876370E50AD7
:104DD00083C6050085078505A38FD7FEE3EAE7FEB6
:104DE000828093763500AA8791CA83C6050085071D
:104DF0008505A38FD7FE93F63700FDB79376C7FFDF
:104E0000138606FE63F0C70683A3050083A2450050
:104E100083AF850003AFC50083AE050103AE450136
:104E200003A3850183A8C5019385450223A07700CC
:104E300003A8C5FF23A2570023A4F70123A6E70177
:104E400023A8D70123AAC70123AC670023AE17010B
:104E50009387470223AE07FF75B7904191079105ED
:104E600023AEC7FEE3EBD7FEE3E4E7F682803971B9
:104E70003EDA2ED232D436D63AD842DC46DE93879A
:104E8000018322CC804326CA06CEAA8409C41C4CC6
:104E900099E3228525230C4454102686228536C6A4
:104EA000EF009017F2406244D244216182800111E8
:104EB00026CA4AC806CE22CC4EC652C4AA842E891F
:104EC00001C51C4D91E3DD299C4C804499E3268566
:104ED000F5219717000093876736631CF402C040E2
:104EE0008357C400A18BB1C71C48A1C7FD59294AEB
:104EF0001C4483450900FD17B1E91CC463DE0706A5
:104F00002286A94526857920FD576308F5022945A3
:104F100035A097170000938767346314F40080442A
:104F2000C1B7971700009387672FE31BF4FAC044BB
:104F300045BFA2852685392A55D97D55F240624460
:104F4000D2444249B249224A056182801CC4050903
:104F500063D70700184C63CBE700638945011C4009
:104F60001387170018C02380B70059B722862685FB
:104F70001520E31F35F7D1B71C401387170018C061
:104F800029472380E70061B793870183AA85884377
:104F90006FF0FFF1011122CC26CA4AC806CE4EC6D8
:104FA000AA842E89328401C51C4D91E301299717EB
:104FB00000009387A7286319F406C0401C4C1CC44A
:104FC0008357C400A18BC9C31C48BDCF1C480840EF
:104FD0009379F90F1379F90F1D8D5C486346F5003D
:104FE000A2852685652C2DE51C440505FD171CC4EE
:104FF0001C401387170018C0238037015C48638961
:10500000A7008357C400858B81CBA9476316F9009D
:10501000A285268561240DEDF24062444A85D24482
:105020004249B249056182809717000093870723A0
:105030006314F400804459B7971700009387071E44
:10504000E31EF4F6C0449DBFA285268521203DDDE8
:105050007D59D9B741119387018326C2844322C465
:105060004AC006C62A892E8489C49C4C99E32685A9
:10507000B126971700009387671C631CF402C04099
:105080000317C40093170701C18393F68700B5EE99
:1050900093F607019DEEA5472320F9001367070447
:1050A0002316E4007D55B240224492440249410156
:1050B0008280971700009387671A6314F400804476
:1050C000C1B79717000093876715E31BF4FAC04434
:1050D00045BF918B8DC74C5889C99307440463849D
:1050E000F5004A85A923232A04028357C4002322FA
:1050F000040093F7B7FD2316F4001C481CC0835727
:10510000C40093E787002316F4001C4881EF8357FF
:10511000C4001307002093F707286385E700A285E2
:105120004A85B5218357C40013F7170005C75C48AB
:1051300023240400B307F0401CCC1C480145A5F70C
:105140008317C40013F7070839DF93E70704231612
:10515000F40089BF898B014791E3584818C4F1BF17
:1051600083D7C500011122CC26CA06CE4AC84EC636
:1051700013F78700AA842E8471EFD841634DE000B5
:10518000B841634AE0000145F2406244D2444249DA
:10519000B2490561828058547DD703A904009396D3
:1051A000370123A0040063DD060670488357C4005E
:1051B000918B99C75C401D8E5C5899C33C401D8EF5
:1051C0005C540C50814626858297FD570357C400D6
:1051D000631DF5009440F54763E8D706B707402004
:1051E0008507B3D7D700858BA5C31C4823220400AD
:1051F0001CC09317370163D80700FD576314F500EF
:105200009C4091E368C84C5823A02401ADDD93076E
:1052100044046384F50026851929232A0402A5B7CE
:105220000C500146854626850297FD572A86E31FC6
:10523000F5F69C40A5DF75476385E7005947639401
:10524000E70423A0240181B7136707042316E400B1
:105250007D551DBF83A90501E38709F203A9050058
:105260008D8B23A0350133093941014791E3D8499A
:1052700018C4E35A20F11C540C50CA864E86268569
:1052800082976349A0008357C40093E7070423165D
:10529000F4007DBFAA993309A940E1BF9C49A5C389
:1052A000011122CC06CE2A8411C51C4D81E72EC6E1
:1052B0003122B24597170000938747F8639CF500A9
:1052C0004C408397C5009DC722856244F24005612A
:1052D0006FF01FE997170000938747F86394F50074
:1052E0000C44C5B797170000938747F3E39BF5FC81
:1052F0004C44C1BFF24062440145056182800145D2
:105300008280411122C406C62A842316B5002317C1
:10531000C5002320050023220500232405002322A5
:10532000050623280500232A0500232C0500214615
:1053300081451305C505EFA0BFE6971700009387C9
:10534000A7B65CD097170000938707B91CD49717AE
:105350000000938747BD5CD497170000938707C070
:1053600000D01CD8B2402244410182809705000041
:10537000938505F391AA411126C2130680069384F2
:10538000F5FFB384C4024AC02E8922C406C69385A1
:10539000440791262A8401CD2320050023222501DC
:1053A000310508C4138684068145EFA07FDF22857E
:1053B000B240224492440249410182801C4DA5E73B
:1053C000411106C622C497070000938767FA1CD5CF
:1053D000938781899C4323240504232605042328DD
:1053E00005046314F50085471CCD2A84352848C080
:1053F00022851D2808C42285052848C44840014646
:105400009145EFF01FF008440546A545EFF07FEF0A
:1054100048440946C945EFF0DFEE85471CCCB24051
:10542000224441018280828041119387818926C272
:1054300084434AC006C69C4C22C42A8981E726853B
:10544000EFF0DFF7938484048044DC40FD1763D6DB
:1054500007009C40B9CF8440C5BF0317C40039E79B
:10546000C177850723220406232004002322040099
:10547000232404005CC423280400232A0400232CD2
:105480000400214681451305C405EFA07FD1232ADE
:105490000402232C0402232404042326040422856A
:1054A000B24022449244024941018280130484069E
:1054B00071BF91454A85EFF01FEC88C049FDB147A7
:1054C0002320F9000144E1BF797122D44AD052CCA3
:1054D00056CA5AC85EC606D626D24ECE2A8AAE8A8A
:1054E000130485040149054BFD5B09ECB2502254BD
:1054F0004A8592540259F249624AD24A424BB24B0F
:1055000045618280044483294400FD1963D4090065
:105510000040E1BF83D7C400637BFB008397E400B6
:1055200063877701A6855285829A3369A90093849F
:105530008406E1BF1971A6DAAE848395E500A2DC8A
:1055400086DE328463DC050083D7C40023A0060016
:1055500093F7070885E7930700401DA0300836C67B
:10556000EF005026B246E34105FE7247BD67F98F52
:105570007977BA9793B717009CC2F1BF93070004DD
:105580001CC0F6506654D65401450961828083D709
:10559000C500011122CC06CE26CA4AC8898B2E84AA
:1055A00089CF930774041CC01CC885475CC8F240AF
:1055B0006244D24442490561828074003000AA846A
:1055C000EFF05FF7A2452A892685312201ED831786
:1055D000C40013F7072061FFF19B93E72700231610
:1055E000F400C1B797070000938787D89CD48357EE
:1055F000C40008C008C893E707082316F400A247B0
:105600005CC8B24791CF8315E4002685EF00B01E39
:1056100001C98357C400F19B93E717002316F400D8
:105620008357C4003369F9002316240149B7DDC14B
:1056300083A7C5FF411122C406C626C21384C5FF35
:1056400063D307003E94AA84EF00302193874192F0
:105650009C4381EF2322040023A281922244B24082
:105660002685924441016F00701F637EF400144050
:105670003307D4006396E7009843DC43369718C09D
:105680005CC0D9BFBA87D84319C3E37DE4FE944315
:105690003386D700631F86001040B29694C33386CA
:1056A000D700E31DC7FA10435843B29694C3D8C33A
:1056B00075B76375C400B1479CC04DB71040B306C1
:1056C000C4006316D70014435843B29614C058C0A0
:1056D000C0C369B78280011126CA93843500F1984E
:1056E00006CE22CC4AC84EC6A104B14763F3F404E7
:1056F000B14463E2B4042A89EF00301693874192E3
:1057000098433A8439E0938781929C4391E781459D
:105710004A85852723A4A192A6854A85992FFD59FC
:1057200063193507B1472320F9004A85EF001013AC
:1057300029A0E3D004FCB1471CC10145F2406244FA
:10574000D2444249B249056182801C40858F63CFB3
:105750000702AD4663F6F6001CC03E9404C031A0BB
:105760005C406313870223A2F1924A85EF00100F79
:105770001305B4009307440061993307F5405DDFDA
:105780003A94898F1CC05DBF5CC3C5B72287404077
:1057900095BF130435007198E30285FCB305A4405E
:1057A0004A85C12DE31C35FBB5BF1C46FD171CC641
:1057B00063DA0700184E63C5E700A9476394F50054
:1057C0006FF04FFD1C422E851387170018C22380EF
:1057D000B7008280011122CC26CA4AC84EC652C4E4
:1057E00006CE2A89AE893284B304D6007D5A63146A
:1057F0009400014511A8834504004E864A85EFF0C8
:10580000DFFA0504E31545FFF2406244D244424901
:10581000B249224A05618280357122CD26CB4AC920
:105820004EC706CF52C556C35AC1DEDEE2DCE6DA09
:10583000AA89AE843289368409C51C4D99E3EFF0FC
:10584000FFB7971700009387679F639DF40C83A4AD
:10585000490083D7C400A18BE5CB9C48F5C79307CB
:105860000002A304F1029307000302D22305F10210
:1058700022C6930B5002971A0000938A2AA0054C67
:10588000294B4A848347040099C36392770FB30C72
:105890002441638E0C00E6864A86A6854E85EFF08D
:1058A0007FF3FD576309F51E9256E69636D283477D
:1058B00004006382071EFD571309140002C802CEBC
:1058C0003ECA02CCA309010482D4834509001546CF
:1058D0005685EFF0CFCC13041900C24759E913F7EE
:1058E000070109C713070002A309E10413F78700A2
:1058F00009C71307B002A309E1048346090013078F
:10590000A0026380E608F2474A84814625460347A1
:10591000040093051400130707FD6379E60AB5CA6E
:105920003ECE85A897170000938747936395F400B0
:1059300083A4890039BF971700009387278EE39AC5
:10594000F4F083A4C90031B7A6854E85EFF08FF03F
:1059500019D57D55FA406A44DA444A49BA492A4A77
:105960009A4A0A4BF65B665CD65C0D618280050440
:1059700011BF330555413315AC00C98F3EC822898C
:10598000A9B7324793064700184336C66349070252
:105990003ACE034704009307E002631FF70403476E
:1059A00014009307A002631BF702B2470904138790
:1059B00047009C433AC663C107023ECA35A8330775
:1059C000E04093E727003ACE3EC8E1B7B3876703CC
:1059D00085462E84BA9725BFFD57C5B7050402CA70
:1059E00081468147254603470400930514001307A9
:1059F00007FD6378E606F1F2834504000D461715AE
:105A0000000013052588EFF08FB911CD971700001E
:105A1000938747871D8D93070004B397A7004245DE
:105A200005045D8D2AC8834504001946171500003A
:105A300013058585130914002304B102EFF02FB676
:105A40003DC197A7FFFF9387E75B95E74247B247C2
:105A50001377071009CF91073EC69257D2973ED2CF
:105A60000DB5B387670385462E84BA97ADBF9D07F2
:105A7000E19BA107D5B77800970600009386C6D5AD
:105A800026860C084E8597000000E7000000FD57B1
:105A90002A8AE314F5FC83D7C40093F70704E39A3A
:105AA00007EA125545BD7800970600009386C6D2D6
:105AB00026860C084E85012AD9BF797156CA9C49A1
:105AC000BA8A984522D426D24ECE52CC06D64AD097
:105AD0005AC85EC6AA892E84B284368A63D3E70088
