:100000006F20101613000000130000001300000002
:100010001300000013000000130000001300000094
:100020001300000013000000130000001300000084
:08003000130000007300100032
:100038000000000000000000480200004C02000020
:1000480000000000F8280000000000000000000088
:10005800FA280000FC280000000000000000000052
:10006800FE28000000000000002900000000000039
:1000780002290000042900000629000008290000C0
:100088000A2900000C2900000E2900001029000090
:100098001229000014290000162900001829000060
:1000A8001A2900001C2900001E2900002029000030
:1000B8002229000024290000262900002829000000
:1000C800404000002C2900002E29000030290000A3
:1000D80032290000342900003629000038290000A0
:1000E8003A2900002A0D00003E290000402900009E
:1000F8004229000044290000462900004829000040
:100108004A2900004C290000E24A0000502900005A
:1001180052290000542900002A400000E002000093
:100128005A2900005C2900005E2900000000000038
:080138000000000000000000BF
:10014000397101436EC619A0397141536AC866CA34
:1001500062CC5ECE19A0397101535AD056D252D416
:100160004ED64AD826DA22DC06DE3301614082828E
:1001700041114AC026C222C406C68282B24D410144
:10018000024D924C224CB24B4101024B924A224A00
:10019000B2494101024992442244B2404101828065
:1001A0003D432A876373C3029377F700BDEFADE544
:1001B000937606FF3D8ABA960CC34CC30CC74CC756
:1001C0004107E36BD7FE11E28280B306C3408A0683
:1001D0009702000096966780A6002307B700A30643
:1001E000B7002306B700A305B7002305B700A30493
:1001F000B7002304B700A303B7002303B700A3028B
:10020000B7002302B700A301B7002301B700A30082
:10021000B7002300B700828093F5F50F9396850011
:10022000D58D93960501D58D61B7939627009702DA
:10023000000096968682E78086FA9680C1171D8F09
:100240003E96E374C3F8A5B77300203001A0B7074A
:100250000050130740F82386E700A386E700130742
:1002600080042387E700138701D598CB1387C193B8
:10027000D8CB98CF138701D9D8CF138701E198D372
:10028000138701E9D8D3138701F198D7A38907020F
:10029000A38B0702A38F0702A3830704239C0702F3
:1002A000239007042394070409472389E702238D39
:1002B000E7022381E7042385E7049387C18A23802B
:1002C0000700A380070023810700A3810700238282
:1002D0000700A382070023830700A383070082800F
:1002E000011122CE26CC4ACA4EC852C656C4370483
:1002F000005003476400834774001377F70F937629
:100300002700638E067893F7F70F13F7070393061A
:100310000002630DD706930600036303D73049E359
:1003200013F7F70385466305D71E6300071C8D4648
:100330006306D72695466315D70693F70704ADC322
:10034000184483477404420793C74700A303F40487
:1003500083477404418393F7C70F93E72700A303F0
:10036000F404938601F18147138601E9939507010F
:10037000C18163EBE528B70700502394E70403C766
:1003800027041377C70F2385E70419A893F7F7030A
:1003900093062002638FD70E63EAF6006389E704B1
:1003A000B707005009472383E70021A7130740023E
:1003B0006384E71013076002E394E7FE8347A40415
:1003C00093C747002305F4048347A40493F7C70F9A
:1003D00093E727002305F4049387C18A238307004A
:1003E0008347740493F7C70FA303F40455BF93879F
:1003F000818B83D707009384818BC207C18381E7F8
:100400009147A309F40283C7A18B93F70706C9FBA1
:1004100083C7418B154793F7F70F6380E7061947AA
:10042000E390E7F883D704001307F00313040004F4
:100430006366F70003D40400420441801389018CF1
:10044000832909002286CE85138501D5EF40300A25
:1004500083D70400A29923203901818FC207C18369
:100460002390F400B70700502398870203C727039F
:10047000134747002389E70225B737070050834712
:10048000370083C6818A93F70708D58FA301F70049
:1004900001BF8347A40393C74700230DF40283479A
:1004A000A40393F7C70F93E72700230DF402938764
:1004B000C18A23810700EDB58347240493C7470011
:1004C0002301F4048347240493F7C70F93E727001D
:1004D0002301F4049387C18A238207008347F4032E
:1004E00093F7C70FA30FF40265BD184493F70704F1
:1004F000E38807EA83C7A18B83D7818BC207C183B7
:10050000E39007EA2318040291472309F40249BD46
:1005100093F70704E38607E88347740393C747000C
:10052000A30BF4021387C1D31044834607009387BB
:10053000C1D31376F60FBA96A381C600834607008F
:10054000850693F6F60F2300D70003470700C14640
:100550006394E6002380070003C707002D46931627
:1005600067001387C1933697B7060050D8CA03C7F0
:10057000270005071377F70F2381E70003C727003C
:10058000E370E6E203C776031377C70F136727000C
:10059000A38BE6020547A389E70019B593F7070483
:1005A000E38007E018448347F403420793C74700FA
:1005B000A30FF4028347F403418393F7C70F93E734
:1005C0002700A30FF402938601E18147138601D926
:1005D00093950701C18163EDE500B70700502390B3
:1005E000E70403C727041377C70F2381E7044DBB34
:1005F000B305F60083C505003385F600850793C56E
:10060000F5FF2300B500E9B7B305F60083C5050083
:100610003385F600850793C5F5FF2300B500B9B310
:1006200099472309F402A309F402138701D58347EC
:1006300007001386A18B2300F6008347170083561B
:1006400067009385418B2380F5000358270093872B
:10065000818B2390D7009386C18B2390060103588A
:1006600047001387618B231007010347060013849B
:10067000818B1389A18B13770706138601D5938786
:10068000C18B9386618B631F071C03C70500AD45B3
:100690001377F70F63E8E51C99650A0793858501D1
:1006A0002E971843028703D7070089462183938931
:1006B000018C6303D7060D46630EC7068547631793
:1006C000F70899671387C70A83C7C70A23A0E900F9
:1006D00081440357040063F4E7002310F4008357B8
:1006E00004001307F003130A00046367F700035ABA
:1006F0000400420A135A0A0183AA0900528613858C
:1007000001D5D685569AEF40805E23A04901930714
:10071000F00F6396F408B9A2196713070707834718
:10072000370023A0E90003472700A207BA97C207B2
:10073000C18379BF83D70700054693F7F70F63821C
:10074000C70289CB6387D702638DE7028147930491
:10075000F00F41B71387418323A0E90083C741838A
:1007600085BF99671387070C23A0E90083C7070C8F
:1007700085B799671387070D23A0E90083C7070D85
:1007800081BF99671387470E23A0E90083C7470EEF
:1007900081B783D7070093F7F70F2384F18A834744
:1007A0000900E207E18763DD072C03570400930784
:1007B000000463E6E70083570400C207C1830357C0
:1007C00004001D8F420741832310E40037070050C7
:1007D0002318F70291472309F702D9B683C7918AF4
:1007E0002300F600035704008547E3FAE7FA2310D5
:1007F000F40075B783D7070093F7F70FA384F18A46
:1008000005472385E18A61BF034709007D8B0DE31E
:1008100083D70700054793F7F70FE392E7F893872D
:10082000B18A03C707001377E70F2380E70085BF6E
:100830000347090009467D8B6316C70283D707006B
:1008400093F7F70F85E383D70600954693F7F70FE5
:100850006382D70663E0F6020547638EE7020D4721
:100860006380E704B70700501D472389E702A38987
:10087000E7023DB6930640086389D70293066008F5
:10088000638FD70293062008E39ED7FCB70700507A
:10089000238DE70229B7B7070050A38B070201B7E2
:1008A000B7070050A38F0702DDBDB70700502381B3
:1008B000E704F5B5B7070050A3830704CDB5B70724
:1008C00000502385E704E1BD034709007D8B0DE758
:1008D00083D70700054793F7F70FE395E7F8996784
:1008E00083C7770793F70702B5DF9387B18A03C7FA
:1008F00007001367170015BF0347090009467D8BE2
:10090000E312C7F683D7070093F7F70FA1FF83D74A
:100910000600154793F7F70F638AE7066361F7024E
:1009200005476383E7040D47E39EE7F2370700506E
:100930008347F70393E73700A30FF7028DB513073B
:100940004008638CE70213076008638AE704130713
:100950002008E399E7F0370700508347A70393E7A0
:100960003700230DF70225BD370700508347770373
:1009700093E73700A30BF7021DB5370700508347F5
:10098000270493E737002301F70411BD3707005010
:100990008347770493E73700A303F70409B53707C4
:1009A00000508347A70493E737002305F704C5BB2E
:1009B0002300060005BD8347090023100600FD8BB8
:1009C0008DE383C7B18A8144858B81C78947230022
:1009D000F600035704008947E3FBE7D22310F40035
:1009E0003DB38347090009479304F00FFD8BE39261
:1009F000E7FE83D70600154793F7F70F6388E706EE
:100A00006360F70205476380E7040D47E393E7FC63
:100A1000370700500347F7030D8B6392E7042DA8B7
:100A200013074008638FE702130760086385E70434
:100A300013072008E39FE7F8B707005083C7A70311
:100A40008D8B0D47D9BFB707005083C777030D477C
:100A500081448D8BE39FE7F685472300F6008144B0
:100A60008DBFB707005083C72704D9BFB707005011
:100A700083C77704F1B7B707005083C7A704C9B786
:100A800083570400C207C18399E7B7070050239832
:100A900007021147C5B2B70700501147C9BB93778A
:100AA00017008DC3A3010400EFF06FFA85472303FD
:100AB000F4007244E2445249C249324AA24A0561F2
:100AC000730020309377470095CB034754009387FA
:100AD000B18A118B09CF03C7070013672700238052
:100AE000E70083C70700B707005011476DB803C779
:100AF00007001377D70F2380E700F5B72303E4003F
:100B00004DBFEFF2EFE641118545114502C202C427
:100B100002C6EF20602385472312F10037150140FC
:100B2000C1473EC64C008D47130505803EC4EF10FB
:100B3000D07441016FF00FE6EFF28FE30145EF2033
:100B4000E0040964EF40600313050458EF40400CD3
:100B5000B704002083A5041437650000130585043D
:100B6000EF40402483A50414130404710545B3D554
:100B70008502FD15C205C181252A376500001305D0
:100B80008505EF40C033B53FEF10A0520545EF108B
:100B9000A056371500207D46814513058521EFF0CD
:100BA0002FE037150020130620538145130545CE4D
:100BB000EFF00FDF3765000013054506EF402030EA
:100BC000EF00B065F5BFB71702409843B706FFF8CE
:100BD00041111367170098C3D84337060200758F79
:100BE000D8C39843B706F7FEFD16758F98C3984390
:100BF000B706FCFFFD16758F98C3D843B70681FF73
:100C0000FD16758FD8C337079F0098C702C402C668
:100C10009843C166558F98C3B716024005679C423A
:100C2000F18F3EC6A24785073EC4B24781E7A2477F
:100C3000E397E7FEB71702409C431397E70063571B
:100C4000070685473EC632478547631FF704B71737
:100C50000240D843B706C1FFFD16D8C3D843D8C356
:100C6000D84313670740D8C3D843758FD8C3D84338
:100C7000B7063D00558FD8C39843B7060001558F7E
:100C800098C3984393166700E3DD06FED843B71672
:100C90000240719BD8C3D84313672700D8C32147AC
:100CA000DC42B18BE39EE7FE4101828002C661BF58
:100CB000EFF20FCC0111AA842E840945854502CAA2
:100CC00002CC231E010002C602C8EF20C009231A6D
:100CD0008100370400404C0813050440231C910098
:100CE000231D0100231B0100EF20C0090546854597
:100CF00013050440EF20C0129307D0122316F10011
:100D000089472307F100680085473EC8EF107068E7
:100D1000854513050440EF20E00EB7E700E00967C2
:100D200023A2E71005616FF0EFC619207300203091
:100D3000EFF20FC437040040854513050440EF204F
:100D4000800F45C5854513050440EF2080103717F7
:100D500000209306872103C60600894763F7C7086A
:100D600003C616008D4583C756006314B6041307E7
:100D7000A0103387E7029387413A8146BA9703C8A8
:100D800007006304D80603C587003E86014709A80B
:100D90008345160205071377F70F8505A300B602F2
:100DA0000506E317E5FE850693F6F60F93872704FD
:100DB000C9BFA545631BB6021305A010B387A702E0
:100DC0009385413A03C36600130787218146138543
:100DD000413A094E8D4E130FA010AE9783C52702DE
:100DE00085052381B7026314D3006FF0AFBA834740
:100DF00077006376FE04834787006392D7058347B5
:100E0000C7008145B387E703AA9783C207006388B9
:100E1000B20283CF87003E88014609A883481802A2
:100E200005061376F60F8508A30018030508E39757
:100E3000CFFE850593F5F50F93872704C9BF850677
:100E400093F6F60F190745B703474500A146630619
:100E5000D70083C7E5006396D700A1472300F600BB
:100E600082809D466304D7006394D7009D47FDB7F9
:100E70008D466304D7006394D7008D47C5B7A54658
:100E80006304D7006394D700A547C9BFFD57F9B7DE
:100E9000EFF20FABB7140020938484214111014479
:100EA000938A3400138B4400B71B0020138901F987
:100EB000371C002013054006EF3030520504137430
:100EC000F40F214533158500EF3030510145EF1007
:100ED000C0318149814D194D930C40065685EF1064
:100EE000A03619E5850D93FDFD0F6365BD058149AC
:100EF0008509C209054593D90901EF30104EE39FDA
:100F000099FD9547E3F887FA594531A09547E3F3F2
:100F100087FA1305500441016FF04FA69547E3FB94
:100F200087F813056004C5BF9547E3F587F81305F7
:100F30007004D5B7938501395A85EF102061AA89CD
:100F40004946938501391385CB25EF30505AE39FED
:100F500009FA03C544008949894523813401EF100A
:100F600000714DFD154523813401EF30104703C555
:100F7000440013060040CA859306E100EF10C061EB
:100F8000AA8913062002CA8513058C23EF30305638
:100F9000E39C09F8CA851385013913861400834937
:100FA00059005D3503C54400CE85EF10E06F25D5AF
:100FB0009547E3F187F01305B00FB1BFEFF2CF987B
:100FC000130AA010330A45039389413A2A8CAE8A4A
:100FD00081440144138901F9B38B490183473900E6
:100FE00003472900A207BA976359F41EB307890083
:100FF00003C7170009466314C70283C74700114798
:10100000637CF7002380EB00B307890083C70700E8
:101010003E9442044180D9B72380FB00F5B7914646
:10102000E316D7FE638BE41A83C657000D47639718
:10103000E61803C76700854663E1E61603C7770035
:10104000636DE6146319D70C93072004B387F40289
:1010500023820180D297CE972381E7008146014603
:10106000A6855685EF10E078B307890083C707008F
:1010700093081002130750083E9493072004B38787
:10108000F402034329004204418081460145114E88
:10109000954E33881403D297CE973307EC023A98D3
:1010A00033078900034617006305C60D6373640C9C
:1010B000834507002E94420441806311D60B0346FA
:1010C000570083452700034F4700220693F2F5009F
:1010D0007A96E2054206E185834F3700418263D963
:1010E000050403476700338FA700B305A800230F4B
:1010F000EF0003C78700A1058605CE950507050506
:10110000A3045F00A306FF012391C5002384E70029
:101110001375F50F71B7E319C7F493072004B3876C
:10112000F4022382D180D297CE972381E7003DB786
:101130003387D700A3035702A305F7033307D8006B
:10114000410706074E972318C70003C767028506A5
:1011500093F6F60F05072383E70299B7E31216F516
:1011600003468700034777002206518F2392E7004A
:1011700005BF8547639FF60093072004B387F402F9
:10118000D297CE9703C727006315D7007D572380DA
:10119000E704850493F4F40F91B593072004B38713
:1011A000F4027D57D297CE972381E700B3078900D9
:1011B00083C707003E9442044180E1BF93072004A7
:1011C000B384F4029307A010330CFC02FD57269C55
:1011D0009384413AE2942381F40001456FE05FFA81
:1011E00083C601F99547639BF618138701F9834677
:1011F000170085476394F61883462700A547639F29
:10120000F616834637009947639AF616930620042C
:101210001308A010330805031386413A011122CEAA
:1012200026CC4ACA4EC852C656C4B386D5025AC244
:101230005EC091470143814E014F014E9388413A70
:101240001144C2963696835346000148930F000717
:1012500093040008930200092149C149130A0002BE
:10126000854A63E07704A147631DF30E93072004CA
:101270001307A010B387F5023307E502BA97B385C9
:10128000F80083C7050481E785472380F50472448D
:10129000E2445249C249324AA24A124B824B05618A
:1012A0008280B306F70083C606008507C20793FB5A
:1012B000C60013FB3600C18393F6060F638D8B02C5
:1012C000638B2B0763950B0263935602630108023D
:1012D000B386EE03369342031353030163090E00F2
:1012E0008346C60389E6230E5603A30EC603DA9788
:1012F000C207C183BDB7638BF60363EBDF00E5FA7A
:10130000B306F70003C80600611813381800C5B704
:1013100063899600E39D56FCB306F70083CE060072
:10132000F9B7B306F70003CE0600D1B7B306F7004E
:1013300003CF06006DBF638D3601E39A46FBE308D9
:1013400008FAB306F70083C60600A30FD60245B716
:10135000E30F08F8B306F70083C60600230FD60292
:1013600079B793072004B387F5029305A0103305DE
:10137000B502AA97C6972380070411BF8280EFE2C7
:101380003FDC1309A010330925039389413A411129
:10139000AA8AAE8B8144138A413AB71C0020CA99AD
:1013A00003C40900130C4900154D25C883C7090063
:1013B00093062004818F93F7F70FB386D702B38D7E
:1013C0002601D29D03D64D0029C2E2963308DA00E9
:1013D000C286BE8513871400138601F95E8542C656
:1013E0003EC49374F70FEF10C03A03D64D002AC2E3
:1013F000938501F913850C27EF30700F9246A247B1
:10140000324881EABE855685E13B7D141374F40FA2
:1014100069BFE37F9DFA13048004228541016FE0D8
:10142000FFD51307A0103305E502938701F903C622
:10143000370083C7270022069386413A3E9693855C
:1014400001F9814709431148254E954E3695854847
:1014500063C4C700014582803387F500034F07004E
:1014600083461700FA97C207C183639C660003474F
:10147000470063F5E80023001501D9BF2300E5000C
:10148000C1BFE39706FD03475700E313C7FD33874A
:10149000F50083461700E38D06FBE3DBC7FA034F35
:1014A0000700FA97C207C183E393D6FF834627005C
:1014B000139F8601135F8F41E35B0FFCBD8AA3047A
:1014C000D50083463700034F4700A306D500834667
:1014D000570003476700A206230FE5000347850076
:1014E000FA962319D50005072304E5004DB7EFE26E
:1014F0009FC6371400209307842103C5570041116C
:101500000D372A89631E050C938701F983C567008F
:1015100013048421138A01F999C9034544001386F1
:1015200001F9EF10C00E03270A0023AEE18C938768
:10153000013983C5E7001389013999C50345440082
:10154000138601F9EF10A00C8345F90099C50345F6
:101550004400138601F9EF10800B8345090199C5FA
:1015600003454400138601F9EF10600A95490345CD
:1015700044001306E100938501F9EF10A0332A8996
:1015800029E903472A00914763E2E7042303E400C3
:1015900081498544114A8347640063E39704034506
:1015A0004400214693F5F40FEF10E02D01CDFD141A
:1015B00085091545C20493F9F90FEF300062C18027
:1015C000636E3A018504C204C180F1B72303F400BD
:1015D000C1B7FD1993F9F90FE39B09F81309E00F5F
:1015E0004A8541016FE07FBAEFE2FFB683C705008D
:1015F0004111B3D7A740858B85C7371900209307C2
:101600008921AA85AA8403C547007000130989218E
:10161000EF1060212A8431E98347E100858B81E75F
:101620001304E00F99A0034549004146A685EF1039
:10163000A0222A841DE9A949034549007000A68516
:10164000EF10601E1DE58347E10005041374F40FDD
:10165000858B81C7E31234FFE1B7A947E302F4FCAD
:101660008347C1005944858BC5FF228541016FE046
:10167000DFB12A84DDBFEFE21FAE83C70500411151
:101680001304E00FB3D7A740858BC1CB37190020D7
:1016900093078921AA85AA8403C547001146130927
:1016A0008921EF10401E2A842DE92945EF30E052B0
:1016B000AD49034549007000A685EF10C01629ED1D
:1016C0008347E10005041374F40FC18BA9E3E3120F
:1016D00034FF034549005146A685EF10E017014449
:1016E000AD49034549007000A685EF10C0130DE514
:1016F0008347E10005041374F40FC18B9DC3E3120B
:1017000034FF8347C100858B91C7554531A0A94758
:10171000E311F4FC1305E00F2A84228541016FE0F8
:10172000DFA6A947E308F4FEE9BFEFE27FA4B717FD
:1017300000202E842E86AA8503C5C721EF10A00E97
:1017400019E98347140013F7270011E713F5470041
:101750003335A00005056FE0FFA3EFE2FF9E994738
:10176000B307F50237140020130984214111AA8917
:101770002E8B328AA94413048421AD073E99371C6D
:101780000020DE8A938501394A85EF00305CAA8CFF
:101790004946938501391305CC25EF304055638BBD
:1017A0000C00FD1493F4F40FF1FC130550044101F7
:1017B0006FE01F9D9944B38499022949A29483C57F
:1017C000C40003C5B400890593F5F50FEF00306A36
:1017D00041E119493389290383C7C40015458907A5
:1017E0002300FB00EF30603FA944138B01F9371C45
:1017F000002022990345B90013060040DA859306BC
:10180000E100EF007059AA8C13062002DA85130557
:101810008C23EF30C04D63950C045286938501F9FB
:101820001385013903495B00EFF00FE29947B38953
:10183000F902A9444E940345B400CA85EF00D0666E
:101840003DD5FD1493F4F40FFDF41305900485B712
:101850007D191379F90FE31409F61305600481BFAC
:10186000FD1493F4F40FD9F489B7EFE27F90AA86C0
:101870001308A0102E85B2851306200433880603B2
:101880009387413A41111387413A3386C502429604
:10189000B29703C8C70303C617046303080483C7CA
:1018A000D703A306C1002306F10089471306A01041
:1018B0002317F10093072004B386C6028548B38737
:1018C000F5023388D7003A9803460804631E1601D0
:1018D0009306E1007000EF00106F41016FE09F8BF5
:1018E0002306C1008547D9B79305F00F0145E316DC
:1018F000B6FE93878703B697034578028356E100C7
:101900007000B305F700EF005064C1BFEFE2DF8362
:10191000AA89AE84EFF08FEA2A8A631B050C13892B
:1019200001F98345690091C9138601F92685EF0005
:10193000104E0327090023AEE18CA6854E85EFF0FB
:101940001FA49387013983C5E7001389013999CD15
:10195000138601F92685EF00904B37150020394694
:10196000938501F91305C52DEF3060388345F900E3
:1019700099CD138601F92685EF00704937150020AF
:101980004946938501F91305052BEF304036834511
:10199000090199CD138601F92685EF0050473715C7
:1019A00000205946938501F91305452CEF3020346A
:1019B000930AA010B38A59031389413A0144930B47
:1019C0002004054C330B590183470B006365F40277
:1019D00003C74180854763EDE700EF206067EF10A4
:1019E000B075EF20E071954703A74192E31EF7FE23
:1019F00052856FE0EFF8B3077403D697CA9703C711
:101A0000270063188701A38007042286A6854E85D8
:101A1000A93D05041374F40F45BFEFE26FF2B71947
:101A2000002003C58921011113848921EF00407230
:101A30000547AA87631CE50A2300A400A30204004B
:101A4000EFF00FC5AA8751ED034714008D46631EC2
:101A5000D7002AC08345440003455400453D8247D2
:101A600001ED0D472300E40005A0A546E31BD7FECA
:101A70002AC0EFF0DFA7E5B75947D9476306E5006D
:101A800089472300F400AA87834604000947637846
:101A9000D728034714008D46834C54006318D7247D
:101AA000130AA010338A4C031387413A0149938AE1
:101AB000413A138B018D52973AC052C23A8C034778
:101AC0000C00637EE924130720043307E9029246E1
:101AD0008144B30BD7009306AA013697D69B3AC62A
:101AE000FDA05947E302E5FA0947ADBF51FD2AC001
:101AF000834454007D46814513858921EFE04FEAF8
:101B00001305A010B384A4021385413A1306A01054
:101B100081452695EFE0CFE88247BDB7B38D9B00A6
:101B200083C62D0203C6ED0163E0C60AB3F6C60202
:101B3000B24703C59D00B3859700138601F9D6957A
:101B40002381DD029306E101EF00103BAA8769E1E2
:101B5000835EE10183C8818D03C3C18C9385C18CF1
:101B600003CF918D01450147014E1388818D9386E6
:101B7000418C1316070141826366D60763040E0089
:101B80002380650019C12300180103C7818D03C696
:101B9000C18C9386818D36C43297938DC18C0DC7CD
:101BA00083C6418003C6918D138D918D630006100D
:101BB0006399060E21469385418C0545EF20E0642C
:101BC000AA87631705108147850493F4F40F03C7B0
:101BD0008B00E3E5E4F459476383E71405091379BF
:101BE000F90FF1BD138601F93A9603460600630A20
:101BF0000F003383E6002300C300054E05430507AD
:101C00008DBF3305EB002300C50085480545C5BFE2
:101C1000594D6306A5119306E002E318D5F683C576
:101C20009D002AC40345440093E50508EF00502AAF
:101C300083461C00238D0D002546850693F6F60F7E
:101C4000A300DC00A247E372D6F47D4681451385EC
:101C50008921EFE0EFD4EFF0AFA3AA870DED83C5A4
:101C60009D000345440093E50508EF0070260245FA
:101C700085471306A0108145A3000C002300F40043
:101C8000A3020400EFE0CFD1834544006685BD394F
:101C9000AA870D4701C5E38AA7EF09472300E4009F
:101CA000EDB505466399C63C114631B7E38406F0AD
:101CB0000546E38BC6FEE38807F0224785462320CE
:101CC0000B0023220B002300DD0023000700EDBDE5
:101CD00083460D00FDD29386418C23A0060023A2EB
:101CE000060023000D0023800D00F9BDA5466318F2
:101CF000D7029305A010B38CBC029389413A138993
:101D0000413AE69903C7290283C6E901637CD700FB
:101D10008149138C018D0347640063E1E918056173
:101D20006FE0CFC53377D70203452400E90C138A4F
:101D300001F92381E9028D2103453400952903C56A
:101D400099009306E101138601F9B3059901EF00AB
:101D5000B01AAA8755FD03470A00014CD54CA30EC3
:101D6000E1009949094D8D4AB70B0050054B834658
:101D70006400E37FDCF8930D1C0013FAFD0F93055C
:101D8000D1015285EFF05F8659476317E504330CA4
:101D90003C032AC08346D101B31DBB0193CDFDFF97
:101DA000B3FDDD001306A0108145A30EB10133077A
:101DB00084010345C7001307A0103305E5024A95C7
:101DC000EFE00FBE13057C00194681452295EFE038
:101DD0002FBD8247528C61BF13054006EF20F05F94
:101DE0009305D1015285EFF01F89AA8763139509E6
:101DF000B3073C038546A297A383D700A146A385DA
:101E0000D70023864701B30D3C03938501F9528522
:101E1000EFF0BF91A29D2385AD0003C59D00AD2EBF
:101E200003C5AD0071268347340099C783C71B00E3
:101E300093F7B70FA380FB00B30D3C0362851386B5
:101E40008D0093859D002296A295EFF01F91AA87A1
:101E5000A29D31E103C78D00631A570183C5BD0000
:101E600003C5CD00EFF09FAAAA872DF5A3835D01DE
:101E700095B78346D101B31DBB0193CDFDFFB3FDE3
:101E8000DD00B3063C03A30EB101A29683C6760023
:101E9000E39266F58DBFA383AD012DBF194733874C
:101EA000E9020D462297834677006390C6180346E1
:101EB0008700631CD616034BC7001307A010014A06
:101EC000330BEB02330769015AC03AC2124703478A
:101ED0000700637CEA14930C2004B30C9A03994A1C
:101EE00002478144B38A5903B38BEC00CA9BA29A80
:101EF000C5A8B3869B0003C7260203C6E601636438
:101F0000C70C3377C70203C59A002381E602692410
:101F100003C5AA00712C8347340089CB37070050D2
:101F20008347170093F7B70FA300F700B3879B0011
:101F30009305AB0103C59700E695A6959306E101CD
:101F4000138601F9CA95EF00207BAA87631B050C55
:101F5000835EE10103C8818D03C3C18C9385C18C6D
:101F600003CF918D81480147014E1385818D938662
:101F7000418C131607014182636FD60763040E007C
:101F800023806500638408002300050103C7818D59
:101F900003C6C18C9386818D36C49386C18C3297DB
:101FA00036C615C383C6418003C6918D138D918DAE
:101FB00051C6C1E221469385418C0545EF20E024BE
:101FC000AA8759E98147371501400546854513051C
:101FD00005803EC4EF00F039A247850493F4F40F66
:101FE00003C78B00E3E7E4F05947638FE702050A74
:101FF000137AFA0FE1BD138601F93A9603460600FB
:10200000630A0F003383E6002300C300054E054337
:10201000050785B73308EC002300C800854805484C
:10202000C5BF5947E314E5F6D947850993F9F90F78
:10203000DDB105466394C6041146B5BFA5DE05466D
:10204000E38CC6FEC1D3854623200C0023220C005E
:102050002300DD00224729A883460D00EDD6324734
:102060009386418C23A0060023A2060023000D00C6
:102070002300070089BFE39007C6B1B6A1D7C5B753
:10208000370700508347070093F7F70B2300F7004B
:102090008347170093F7B70FA300F7008357670331
:1020A000C207C18393F7F7BFC207C183231BF7029F
:1020B0008280EFE2EF8BB707002003A70714B74732
:1020C00095089387074009456300F702B7E7B8050D
:1020D0009387078005456309F700B777DC0293878C
:1020E00007C06315F7000145EF00303685450565EB
:1020F000EF00B0436FE00F8AEFE28F878547370428
:102100000050631EF50299472300F4002945EF2093
:102110007029930790F8230004002300F40093072C
:102120008004A306F400B71700209387C72E1CCCA9
:10213000B71700209387C7325CCC6FE0AF85994713
:102140002300F4002945EF20F02523000400F5B713
:102150003707005083476700858B9DC3854723035E
:10216000F700834657008147858A81CE854711C98C
:1021700089476307F500034717008547058B11C39F
:1021800089473E858280B707005003C55700058107
:1021900013451500058982803707005083473700B3
:1021A0001375F50793F70708C98FA301F70082801D
:1021B00085476317F500EFD2BFFBD9356FD09FFD80
:1021C000B707005003C70700136707042380E70021
:1021D00003C7170013674700A380E70003D767030F
:1021E00013670740239BE7028280EFD27FF82A849F
:1021F00001455D377135854763EE8700370700502D
:102200008347170093E72700A300F70001EC2D4553
:10221000EF20B01C370700508347170093F7D70F04
:10222000A300F7000945EF20501BB707005003C774
:102230006700058B01CB03C75700058B01C7054716
:102240002383E7006FD01FF53707005083475700FF
:10225000858B95CFEFD2DFF183471700858B99E708
:102260002A8415372300A40011E19937B7070050DD
:1022700003C71700014513671700A380E70003D7C2
:10228000670313674700239BE7026FD0BFF05945F0
:102290008280EFD27FEBB7070050A38DB702416A6F
:1022A0002A8B3289238FB702935945008144370422
:1022B0000050894B394CA94AA54C7D1A230C640364
:1022C00023037401130D803E83476400898B91EBD7
:1022D0007D1D420D0545135D0D01EF20B00CE3158A
:1022E0000DFE230C040283476400898B81E71305EC
:1022F000E00F41A08347740093F70704D1E38347BD
:10230000740093F7F70F13F5F700630D8507631754
:102310005505630C0906630649017D1942091359E5
:102320000901FD1493F4F40F5145EF20B0078347E2
:102330006400858B81CF1305800CEF20B0068347A6
:102340001400858BB1C785472303F400850493F4FB
:10235000F40FE39554F71305000221A8638D99014A
:10236000B5476385F9008547E393F9F855DD1365B3
:1023700005026FD0FFE09D8B0D47E399E7FE6DB737
:102380000145C5BF1305E002EDB71305A002D5B79F
:102390005945C5B7EFD25FDBAA89B2841305400661
:1023A0002E89EF20300099C023900400370400509C
:1023B000A147896A231EF40213860A718145130519
:1023C000000DC13D631D05149147A30DF402371B99
:1023D0000020230FF4029307CB3203D46700130BC2
:1023E000CB32630D040E630B090E8387070063C5B0
:1023F0000706CE8BC20993D90901370A0050938A88
:102400000A7113054006EF20E079DE87637334011B
:10241000A287231EFA0281470357CA03639DE71070
:102420008345EA0356864145AD35631A050E834759
:10243000EA0393C74700230FFA028357CA031D8C90
:102440004204418081C88357CA0303D70400BA9766
:102450002390F4005DF459A0371B0020370A005088
:10246000938A0A71130BCB2EFD1913054006EF203A
:1024700060738345BA03568613050009193D45E18B
:102480008347BA0393C74700A30DFA0203578A0094
:10249000A2876376870083578A00C207C1831D8C99
:1024A0004204418091C403D704003E972390E40086
:1024B000014793160701C1826395D7063E9983575A
:1024C0008A00C207C18399C783578A00B3F7F9000E
:1024D00091E341FCB7070050239E07021305400615
:1024E000EF20406CB707005083D7C70313050009DE
:1024F000C207C18391E34145096613060671914500
:10250000493B11ED370700508357C703C207C1830A
:1025100099C783578700C207C18391C35D456FD0B8
:102520003FC6B306EB0003C60600B306E900050785
:102530002380C600BDBF834609003307FB00850723
:10254000C2072300D7000509C183F9B5EFD25FC2E6
:1025500013848184A14718402300F500B717002099
:102560009387C73298C35840AA844111D8C3034502
:1025700005001306E1002E89313D01ED8347790006
:10258000035764002380F4008357E10063F3E700FE
:102590005D4541016FD01FC0EFD2FFBB138701849F
:1025A000B28910435843371400209307C4324111B5
:1025B00090C3D8C336862A8A2E8936C6E13B29E5E0
:1025C000B246138701840356670083D506005D4534
:1025D00063ECC50203463900834529009307C432E2
:1025E00022064D8EB28563F3C900CE851043584351
:1025F0002390B60090C3D8C303D706003686CA8599
:102600002393E7005285793341016FD01FB8EFD291
:102610009FB49387018503AA07003714002083A97C
:1026200047001304C4324111B28413E9053023205A
:1026300044011306E100A685AA8A2322340123114E
:102640002401893B15E183C704001306E100232020
:10265000440123223401A68556852317F100231156
:1026600024012313F4003D3341016FD01FB2EFD298
:102670003FB0138781851443B717002058439387D1
:10268000C73294C32391B700AE84D8C301468145B5
:1026900011332A8419E52685EFF01FB01545EF2088
:1026A000C05322856FD01FAFEFD29FAC1387018636
:1026B0001443B717002058439387C73294C323911C
:1026C000B700D8C301468145EFF0DFCC6FD09FAC97
:1026D000EFD21FAA1387818314435843B7170020F2
:1026E0009387C732D8C32392B70094C3014681456C
:1026F000EFF05FCA6FD01FAAEFD29FA72E8483C5C9
:1027000005004111328913650509014636C6EFF00F
:102710005FB8AA84B24615E5B707005003D6870014
:10272000B71500209385C52E420641822390C6002E
:102730004A85EF20C05B8347040093C7470023000E
:10274000F400268541016FD0FFA4EFD27FA2AA84B6
:102750003715002041112E841305C532B285368607
:1027600036C6EF20C058B246B70700500146239E38
:10277000D7028345040013E50401EFF09FB119E58A
:102780008347040093C747002300F40041016FD042
:102790007FA0EFD2FF9D1387818632881043584374
:1027A000B717002023A6C7329387C732D8C3239216
:1027B000B70003D706003686C2852393E700EFF003
:1027C0007FBD6FD03F9DEFD2BF9A138701873288BC
:1027D00010435843B717002023A6C7329387C73248
:1027E000D8C32392B7003686C285EFF0BFBA6FD048
:1027F0007F9AEFD2FF9713878187032807005843FA
:10280000B717002023A6073322069387C732D18E3D
:10281000D8C32392B7002391D70001468145EFF03A
:102820007FB76FD03F97EFD2BF9413870189B286ED
:1028300010435843B717002023A6C7329387C732E7
:102840004111D8C32392B7001306E100B685EFF01B
:102850007FB441016FD01F94EFD29F9113870188FD
:1028600014435843B717002023A6D7329387C732A3
:10287000D8C32391C7002392B70001468145EFF0EA
:102880007FB16FD03F91EFD2BF8E13878189144300
:102890005843B717002023A6D7329387C732D8C32F
:1028A0002391C7002392B70001468145EFF09FAE08
:1028B0006FD05F8EEFD23F8A938781889843DC4345
:1028C000371400202326E4321304C432AA89AE84CC
:1028D00032895CC0EFF01FAC01ED83C704004A866B
:1028E000A6852310F9004E852313F400EFF09FAA6C
:1028F0006FD0BF8901A001A001A001A001A001A08B
:1029000001A001A001A001A001A001A001A001A0BF
:1029100001A001A001A001A001A001A001A001A0AF
:1029200001A001A001A001A001A001A001A001A09F
:1029300001A001A001A001A001A001A001A001A08F
:1029400001A001A001A001A001A001A001A001A07F
:1029500001A001A001A001A001A001A001A001A06F
:1029600097E1FF1F938101FE172100201301816968
:10297000174500001305058D97D5FF1F93858568C2
:102980001386818A63FAC5008322050023A05500BF
:1029900011059105E3EAC5FE1385818A97F5FF1FAE
:1029A000938505A16377B500232005001105E36D2C
:1029B000B5FEFD42739002BC8D427390428093023B
:1029C000800873A0023097D2FFFF9382226793E2C0
:1029D000320073905230EFE00F9F97E2FFFF938237
:1029E000E21573901234730020305841032805001B
:1029F0004C4537060140930706403E979346F8FF43
:102A0000B1C583250640F58D2320B640D043F18E15
:102A1000D4C31443B3E6060114C318419047934648
:102A2000F7FF758E90C7D047F18ED4C71445414645
:102A30006399C6009447D98E94C7D447558FD8C799
:102A40008280B6979443558F98C382801C43F58F3C
:102A50001CC38280B707014093870740DC4B7D8D04
:102A60003335A0008280B707014023AAA7408280A7
:102A7000B707014023AAA74082809C4513F70701AE
:102A800013F8F70001C7D8413368E8003727024040
:102A9000145B3707000F758F45EF85462380D18E75
:102AA000371701406317E50003D7050035832390EE
:102AB000E50083D5050013F7F50F39C318418146AA
:102AC000854E3D4F930F800293028004214E339632
:102AD000DE00B3F8C5006311160393982600331384
:102AE0001F011343F3FF3377E300B318180133E7F3
:102AF000E8006397F70750C98506E39AC6FD18C139
:102B00001307F00F6375B70454412146854E3D4FBE
:102B1000930F800293028004414EB398CE0033F7A6
:102B200015016392E8021317260001173313EF0013
:102B30001343F3FFB376D3003317E800D98E6395C0
:102B4000F703232A15010506E319C6FD54C1828047
:102B500037170140E31FE5F403C7018E39DBA9B73E
:102B6000E39C57F810C949BFE39F57FC2328150180
:102B7000D9BFB71701406316F50083C7018E91C313
:102B8000B58119C20CC982804CC9828023A2A18E52
:102B900082809387418E94430347050089E68347EB
:102BA0002500920731A8944305466391C6048347E4
:102BB00025000346150092076314D60093E707F833
:102BC000B7E600E093F7F70FBA962380F640854604
:102BD000935757003397E6005441ADC693870704D7
:102BE0008A07B7E600E0B69798C382808C4389468F
:102BF0006393D50283461500834725006365D6009D
:102C00008A06B69779BF9386E6038A06B69793F746
:102C1000F70F920765B790438D46631ED600834633
:102C20001500834725006364D6008606D9BF9386C6
:102C3000C6078606E1BF94439147E39AF6F88347B7
:102C4000150085B79387070661BFB7170240D843C1
:102C5000B70640FFFD16758FD8C3D8435A05598D66
:102C6000C8C38280371702405C439146B18B6385AD
:102C7000D700A1466386D706B7177A009387072047
:102C80001CC1371602405C423707002013070700BB
:102C90009183BD8BBA9783C607001C41B3D7D70079
:102CA0005CC15442A1829D8ABA9683C60600B3D6FF
:102CB000D70014C55442AD829D8A3697034707005A
:102CC000B3D7E7005CC55842398393763700138742
:102CD0008180369703470700B3D7E7021CC982807B
:102CE0005C435843C166C983BD8B758F8907C54650
:102CF0006393D700C94701EF374702400327078096
:102D0000418B09CF37177A001307072021A83717FF
:102D1000024058439316E700E3D606FE37173D00FE
:102D200013070790B387E702A1BF99C53717024081
:102D30005C4B5D8D48CB8280B7170240D84B134562
:102D4000F5FF798DC8CB828099C5371702401C4F9B
:102D50005D8D08CF8280B7170240984F1345F5FF6D
:102D6000798D88CF828099C5371702405C4F5D8D81
:102D700048CF8280B7170240D84F1345F5FF798DB1
:102D8000C8CF82808357050037370140130707C03B
:102D9000C207C1836304E502370700406300E50210
:102DA00013070740630CE5003717004093060780C0
:102DB0006306D500130707C06317E50003D7250096
:102DC00093F7F7F8D98F03D7650093F7F7CFC207CA
:102DD000C183D98F2310F50083D745002316F50250
:102DE00083D705002314F502B7370140938707C046
:102DF0006316F50083C785002318F5028547231A5B
:102E0000F50082808357050091C593E717002310D2
:102E1000F5008280C207C183F99BC207C183C5BF89
:102E20008357C50009C6DD8D2316B500828093C582
:102E3000F5FFFD8DD5BF835705010355C500ED8F07
:102E40004205418189C76D8D3335A00082800145DF
:102E5000828093C5F5FFC205C1812318B500828029
:102E6000EFD20FB183560501F577FD17F58F83D6A5
:102E7000650003D7C5007971D58F2318F5008356F7
:102E8000C500FD779387379FF58F83D645002A8449
:102E90002EC6D58F83D68500D58F83D6A500D58F36
:102EA0002316F50083574501C207C18393F7F7CF77
:102EB000D98F231AF5006808EFF0DFDAB747014031
:102EC00093870780B245631DF404A2578356C4005C
:102ED0006547B387E702C206C186984163D40604FA
:102EE00006070356C4004206B3D7E702130740069D
:102EF0004186B3D6E702B3F7E702920663560602AD
:102F00008E0793872703B3D7E70213F77700B367DA
:102F1000D700C207C1832314F40045616FD08FA787
:102F200092576DB70A0775BF920793872703B3D7E8
:102F3000E702BD8BD58FF1BF81C98357C5000967F3
:102F4000D98F2316F50082800357C500F977FD1746
:102F5000F98FC5BF93F5F51F2312B5008280035585
:102F600045001375F51F8280035505006D8D3335BF
:102F7000A000828013F7F50F85461583B397B6003E
:102F80006313D7020357C500F98F035705000145A6
:102F90004207418381CB0545A181B315B5006D8FF3
:102FA0003335E000828089466315D7000357050159
:102FB000E1BF03574501C9BFEFD28F9B01E983A74A
:102FC000018F05472398E7006FD0CF9C83A7818F9F
:102FD0009C43829703A5018F2905FDB7EFD24F9936
:102FE00001E983A7018F05472398E7006FD08F9AE7
:102FF00083A7818F9C47829703A5018F3105FDB779
:1030000003A7018F09E589472318F7008280EFD2D3
:103010002F962396018E834707001384C18E93F762
:10302000F7079DEB034797009377070281C789470E
:103030002300F400137707048347040001CF93E7CC
:1030400017002300F40083A7818F9C4B8297228571
:103050006FD04F94F99BF5B785461385C18EE389F0
:10306000D7FE89460145E395D7FE03475700B7666B
:103070000040938606C09377F7008A07B6976207E9
:103080009C4361876359070093F707034147E39C1B
:10309000E7FA85477DB70D67F98F0567CDBFEFD29A
:1030A0008F8B83A4018F3E8A03D4040139E803C7C0
:1030B000840091476317F7041387818E1443854773
:1030C000639CF602B767004083A707C5B7360020A8
:1030D0008906C207C183B697860723A00700930716
:1030E00000032390F19023200700114983A7018F4B
:1030F000238427016FD06F89C1472390F1901D4928
:10310000F5B783D74401114963F38700094963F395
:1031100087003E849C4C4204418022858297AA8A83
:103120000145EF0090602286AA855685EF00904207
:10313000A2850145EF00506383D704010D67818F9D
:103140002398F40083D724013E949307000323902F
:10315000F19023998400239FE18E49BF83A7018FBB
:1031600083C6518203C73700094563E3E60283C67D
:10317000270099EE83D6470081EEEFC27FFF2385BB
:10318000E70083A7818FDC43829701456FD08F8052
:103190008280EFC2FFFD83A7018F03A7418F4111FA
:1031A00083C53700184F03C55700029783A7018FC7
:1031B00003C7A7001DCB2AC60DE903C7470015E7C3
:1031C00083C727009DE383A7818FDC47829783A76E
:1031D000018F324503C75700A385E70003C73700B7
:1031E0002386E70041016FC0FFFA0945E5BF83A7C9
:1031F000018F83C6070093F6F60791EA03C797008D
:103200001377F7FDA384E70001473A8582800946DA
:103210000947E39CC6FE83D62700E5FA83C647002C
:10322000EDF6EFC2FFF403C65700376700401307FF
:1032300007C01375F6F7131425003A94620614407C
:1032400061866357060493F6060383C541820947E6
:10325000637DB5029DCA83C7A70085CB1C40635C14
:10326000060293F707034147639CE7001374F50FC9
:103270002285EF007044930500032285EF00F034AF
:1032800083A7818FDC4B829701473A856FC09FF0FF
:103290000D67F98E5DBFC164FD140D67E58FF98F71
:1032A0000567E39FE7FC1DEDB707002083C54707CF
:1032B000EF00704D1C4071771307F7F8F98FC207C4
:1032C0000D67C183B98F617713070708D98FC207CC
:1032D000C1831CC08D661840658F758FE302D7FAD5
:1032E0001CC0D5BFEF00103A1C4071771307F7F8E8
:1032F000F98FC2070D67C183B98F6177130707087C
:10330000D98FC207C1831CC08D661840658F758F29
:10331000E308D7F61CC0D5BF03A6018FB7670040EE
:10332000938707C08346560093F5F6F71397250059
:10333000BA97E2069843E18663D10606137707033E
:1033400003C84182094563F9050983552600C9E58B
:1033500041C70347A60049C3EFC29FE1984363D327
:103360000604E5769386F6FB758F42074183E17686
:103370001347070193860608558F4207418398C378
:103380004146944393F60603639CC60083A7818F4E
:103390009C4F829701456FC0FFDF0D65698F4DB768
:1033A00098C3C5B7F1769386F6F8758F42078566A0
:1033B0004183358FE17693860608558F4207418316
:1033C000416698C37D160D6585659443F18EE98E3F
:1033D000E38EB6FA98C3D5BF8280EFC27FD903A728
:1033E000018F8347970093E70702A304F70083A7A1
:1033F000818FDC4F829701456FC0DFD903A7018F12
:103400008357270101E903D545001D8D2318A70027
:103410000145828088413E958280EFC27FD5B70703
:10342000002083C547070145EF00F03583A7018FD2
:1034300003C58700A1476318F5000567239FE18E48
:1034400041472390E1905D15133515006FC09FD45F
:10345000EFC21FD203A9018F37660040832706C53C
:103460008346890025474111638BE60441641307B5
:10347000F4FFB7360020F98F9106B6978607804390
:10348000798C06043294834704002300F9008347B3
:103490001400A300F90003554400EF00503323113A
:1034A000A9000355840003A9018FEF0050322312B5
:1034B000A9000357C40083A7018F2393E70083A7C4
:1034C000018F05472384E70003D7670003C4170073
:1034D0006319070E03C707001377F7075DEF25474A
:1034E0006316E400EFF09FC735E515A81547631B89
:1034F000E40403873700635B0700A14703A7018F3C
:103500002304F700193F41016FC0DFC803C727003C
:103510006DF703D7470075F383C7A700F9FFB767B7
:10352000004083A707C5373700200907C207C183BA
:10353000BA97860723A00700130700032390E190A2
:1035400099476DBF0D476318E40283C637000547EE
:10355000638DE60083A7418F2285DC4B82970D4760
:10356000A547E30DE5F845DD49BF83D74700FDF3E7
:10357000EFF0BFE695BF0547E31EE4FC03C7370045
:10358000E31A87FC03D7470071F783C7970093F7C7
:103590000702E9D3EFF0BFC581BF85476318F70085
:1035A000AD47E319F4FAEFF0DFBE3DBF8946E31300
:1035B000D7FAE301F4FE8D47E31EF4F8EFF0DFD510
:1035C00025B71947631BE40203C707001377F70702
:1035D0007DE383C72700854603A7418F6395D70006
:1035E0005C4FF1CBA1A089466394D7001C53D5BF93
:1035F0008D466392D70C5C53EDB775E003D7270077
:103600005DEBD843C1769386F60F758FB70602003F
:103610006313D70A03C707001377F7071DEF83D794
:103620004700D1EBB73700009387070003A7018F4E
:103630000145231907001CCF8297014583A7018FFD
:10364000C166FD1603D707016304D70889466304E2
:10365000D5006318070E2147ADA885466310D70231
:1036600003A7418F03C557008145184F029721E5F5
:1036700083A7018F83C7A700D5F735A88946631CA8
:10368000D70203C75700B7660040938606C013767B
:10369000F70093172600B6979C4393168701E1869F
:1036A00063DC060293F7070383C641826375D60085
:1036B0001377070771D303A7018F83A7418F0345B2
:1036C00017009C4B82978D47E31AF5F683A7018F6D
:1036D00025472384E7003DB58D66F58FF1B7214777
:1036E000631CE40083C7070093F7F707E9F7B737D0
:1036F0000000938787FB1DBF2947E31EE4FA03C739
:10370000070085461377F707E317D7FA03C7A70023
:103710005DD303D7270045F3D843C1769386F60FD0
:10372000758FC166E319D7F803A7418F03C557000A
:103730008145184F029741F1B73700009387C7FDC5
:10374000F5B58386070063D5060483A6418F83D52C
:10375000670003C6C6022EC6324593160601C18213
:10376000637AE50032472398E700239AD700EFF009
:103770001F9349BBE37BB7FE6375D70023A4018E7B
:10378000EDB73367C70275F3054623A4C18EF1BFB9
:103790000D472384E7000D67239FE18EA5B3EFC299
:1037A0009F9B03A4018FA144834784001387E7FFF5
:1037B0001377D70F3DCF1387D7FF1377D70F55EB6D
:1037C0001C4C95CF83540401A1C803574401637373
:1037D0009700BA84C204C18026858297835704016A
:1037E000AA890145858F2318F40083572401A697E1
:1037F0002319F400912FAA8526864E8541238357ED
:10380000040199CB0D6781450145239FE18EA92FC6
:10381000130700032390E19083570401835644016A
:1038200003A7018F63EFD7008D472304F70083447C
:10383000870083A7018F23849700EFF01FBE6FC01E
:10384000DF9499C39547D5B799472304F700B76725
:10385000004083A707C5B73600208906C207C18389
:10386000B697860723A00700930600032390D19004
:103870007DBF1D47A144E39EE7FA83A7418FDC4744
:10388000829745BF03C3418237660040C165056822
:10389000A1680147130606C0FD151308F8F09388C8
:1038A00008086369670013650508B767004023A629
:1038B000A7C4828093162700B2969C42ED8FB3F77F
:1038C0000701D98FB3E717019CC20507D9BFEFC223
:1038D0003F8A83A7018F83C687001387E6FF13778C
:1038E000D70F19EFEFF0AFFB83A7018F03C7870056
:1038F00083A7018F2384E700EFF03FB26FC09F8959
:1039000019462147E396C6FE83C617001547639EF6
:10391000E60003C707001377F70701EB03C537007D
:10392000953783A7818F9C53829783A7418F9C47AC
:103930008297214775BF8280EFC29F83B71700200F
:103940009387C73623A8F18E09472384E7003707FA
:1039500000209306870423AAD18EB70700209387FF
:10396000870B23ACF18E8327870482976FC09F82D9
:10397000EFC28FFD4111370A0020B70A0020E1791C
:1039800023170100130A0A01938ACA0293890908BE
:10399000B765004083A745C4139707014183239867
:1039A000E190139707016350071883D701913A8478
:1039B000BD8B2387F18E938605C06399073203A7D9
:1039C00005C09387E18F420741832390E70003D727
:1039D000070093860190137707032390E60003D72F
:1039E00007008D662166758F2390E70003A705C049
:1039F000A5679387F7FB7D8F83A705C0B166938684
:103A0000F6F8F58F8966B58F1347070293160701FD
:103A1000130606085D8F518FC18223A0E5C033E7EE
:103A2000360142079384E18F138901903766004085
:103A3000930500024183832606C093F6060363972D
:103A4000B60EB3E73701C166C20737660040FD1600
:103A50000D658965C183032706C0130406C0758FF1
:103A6000698F6318B70C83D70191C18BE1EF1C40BC
:103A7000A5691387F9F0F98F1CC0EFF05FE51840D6
:103A80001440B1679387F7F8F58F83D604009389C4
:103A9000F9FB3377370113963601635406008566C8
:103AA000B58F83D6040013962601635406008966F9
:103AB000B58F83560900C18A99C2134707018356FF
:103AC000090093F6060299C213470702216693166E
:103AD0000701130606085D8F518F376600402320CB
:103AE000E6C06177C18213070708558F42074183FB
:103AF000832606C08355090093F60603639EB6022B
:103B0000617713070708D98FC166C207376600407F
:103B1000FD160D65C183032706C083D50400758F8C
:103B2000698F631EB70041016FC08FE52320E6C097
:103B300019B72320F6C005B72320E6C055BF2320C0
:103B4000F6C0D1BF1C40856BC207C1832317F100AB
:103B50008357E100139747016353070C1C401387F9
:103B6000FBF8F98F1CC0EFF0BF8E1840A567938754
:103B7000F7FB14407D8FB1679387F7F8F58F83D6F5
:103B800004001396360163540600B3C7770183D649
:103B9000040013962601635406008966B58F835688
:103BA0000900C18A99C2134707018356090093F699
:103BB000060299C2134707022166931607011306EE
:103BC00006085D8F518F376600402320E6C061777D
:103BD000C18213070708558F42074183832606C019
:103BE0008355090093F606036398B60261771307BD
:103BF0000708D98FC166C20737660040FD160D65FC
:103C0000C183032706C083D50400758F698FE30C39
:103C1000B7F02320F6C0F5B72320E6C0C1B783571D
:103C2000E100C207C187E3D507D61C401387FBF824
:103C3000F98F1CC0EFF0BFB61840A5679387F7FB5C
:103C400014407D8FB1679387F7F8F58F83D6040012
:103C50001396360163540600B3C7770183D6040078
:103C600013962601635406008966B58F83560900B2
:103C7000C18A99C2134707018356090093F60602C9
:103C800099C2134707022166931607011306060817
:103C90005D8F518F376600402320E6C06177C18277
:103CA00013070708558F42074183832606C08355B3
:103CB000090093F606036398B602617713070708B5
:103CC000D98FC166C20737660040FD160D65C183F6
:103CD000032706C083D50400758F698FE305B7E419
:103CE0002320F6C0F5B72320E6C0C1B713972700FD
:103CF00036971443C206C1822317D1008356E100D0
:103D0000C206C18663DD0600FD1714438A070566F7
:103D1000D6971306F6F89C43F18E14C38297835707
:103D2000E10093F70708E38507C683C7E18EB7660E
:103D30000040938606C0139727003697FD1714435B
:103D40008A07D29725661306F6F09C43F18E14C3BA
:103D500082973DB9B73700200506BE9505868605D2
:103D600011E2828083471500034705009105A207F1
:103D7000D98F239EF5FE09057D16DDB7B7370020E4
:103D80000506BE950586860511E282809C410905DF
:103D90007D16231FF5FE9105C5BF6199420541813E
:103DA000B767004023A8A7C48280B7670040938705
:103DB00007C00A053E951C4165771307F798F98FF0
:103DC000DD8DC205C1810CC18280B7670040938739
:103DD00007C00A053E951C4165771307F7FBF98F6D
:103DE000C20713F70501C18319C393C7070113F76E
:103DF000050219C393C70702617713070708D98F14
:103E0000C207C1831CC1184113770703E31CB7FE27
:103E10008280B7670040938707C00A053E951C4122
:103E200071771307F7F8F98FC2070D67C183B98F50
:103E3000617713070708D98FC207C183C1661CC108
:103E4000FD160D661841758F718F6313C700828050
:103E50001CC1CDBFB7670040938707C00A053E95D8
:103E60001C4105671307F7E0F98F6177130707080F
:103E7000D98FC207C1831CC18280EFC26FAFD93F07
:103E80006FC04FB1B7670040938707C00A053E95E2
:103E90001441C1671387F7FF9397160163DD07008D
:103EA0001C41F98F05671307F7F0F98F3167130786
:103EB0000708D98F1CC18280B7670040938707C06D
:103EC0000A053E951C4193F7070491CF1C414167B9
:103ED0007D17F98F05671307F7F0F98F216713072F
:103EE000070CD98F1CC18280B767004083A707C524
:103EF0000E058581C207C1833E95B73700203E95E8
:103F0000060586050CC18280B767004083A707C5F8
:103F10000E058581C207C1833E95B7370020910702
:103F20003E95060586050CC18280B767004083A7D1
:103F300007C50E05C207C1833E95B73700203E95E1
:103F40000605035505008280B767004083A707C5B3
:103F50000E05C207C1833E95B737002091073E95F5
:103F60000605035505008280B767004083A707C593
:103F70000E05C207C1833E95B737002089073E95DD
:103F800006050CC18280B767004083A707C50E05F0
:103F9000C207C1833E95B737002099073E95930726
:103FA000E003060563FEB70093D75500FD8981E560
:103FB000FD17C207C183AA072167D98F1CC1828060
:103FC00093D71500858991C18507AA07C5BF935767
:103FD00085001375F50F22055D8D828037670040DF
:103FE000F177232207C4938707F0239EF18EB167F0
:103FF000938707F02320F7C401458280EFC24F97D3
:1040000032849374F507268542042E894180EFF0AF
:10401000DFF12286AA854A85EFF0DFD32685A285C7
:10402000EFF09FF401456FC0EF9619207300203028
:10403000EFC20F9437050400EFE09FA36FC08F9588
:10404000192073002030EFC2AF9205246FC08F9407
:10405000EFC20F92B707002003A70714B7479508D0
:104060009387074009456300F702B7E7B8059387D0
:10407000078005456309F700B777DC02938707C01F
:104080006315F7000145EFE05FBC8545370580000B
:10409000EFE07FCD6FC00F90EFC28F8D37650000CE
:1040A0001305C50FEF00B06103C7A1911367270087
:1040B000238DE19083C7A1910D476314F700EF00B2
:1040C00050250D4723A2E1926FC0CF8CEFC24F8ADB
:1040D0003765000013058511EF00705E83C7A1915D
:1040E00093F7D70F238DF190B717002003C76737D9
:1040F00011C7154723A2E1926FC0CF890547DDBFE5
:10410000EFC20F87011137050400EFE07F96B70774
:10411000040005443EC80808C1473ECC22CE02CA6E
:10412000EFE0BF8C9307401228002314F10022C651
:1041300023050100EFE0FFA59307A0032800231447
:10414000F100EFE01FA505616FC0CF84EFC24F8281
:10415000AA842E8411458545EFE01FBFB1CCB76618
:10416000004083A706C441677517F98F23A0F6C4E2
:10417000B717014003A74780B716F0FFFD16758FEC
:1041800023A2E78003A7C780F9769386F67F758F11
:1041900023A6E78003A74780B7460400558F23A2D4
:1041A000E780374702408327078021C893E727002D
:1041B0002320F7806FB01FFE37670040832707C4B6
:1041C000B716F0FFFD1693E72700C207C18323202F
:1041D000F7C4B717014003A74780758F23A2E78074
:1041E00003A7C780F9769386F67F758F23A6E780AD
:1041F00003A74780B736030055B7F59B55BF23810A
:1042000001908280A38101908280EFB27FF6054900
:104210002A84631625039384219083C7040089EFC1
:1042200013051008EFF09FDD93050003054523807B
:104230008400EFF09FB9014422856FB0BFF5894734
:104240006313F5029384319003C4040009EC130551
:104250002008EFF0BFDA930500030945238024010D
:10426000EFF0BFB6D1BF0544C1BFEFB27FF03768F2
:104270000040032708C5C1651385F5FF83D641902B
:10428000B7370020698F13866700329706071843F7
:10429000938505C00111F98D638CD500832708C56E
:1042A00093F606C0E98FB29786079843D98E94C3D8
:1042B000B766004083A746C413870191C207C18334
:1042C0002310F7000357070083D7C18F1384019190
:1042D0007D8F1377072019CF41671307F7DF23A2DC
:1042E000E6C49386619003C7060005071377F70FAE
:1042F0002380E60003570400F98FC207C18763D407
:104300000700EFF0EFE68357040003D7C18FF98F62
:1043100093F7074089CFC1679387F7BF376700409E
:104320002322F7C4B707002083A7C7048297035747
:10433000040083D7C18F7D8F9316270163D80600B1
:104340003967B76600407D1723A2E6C4035704000F
:10435000F98F13973701635B0700BD67376700402C
:10436000FD172322F7C40145EF00006B03D7C18F6F
:1043700083570400F98F13974701635E070083A7F3
:104380008182638007106523BD673767004093878C
:10439000F77F2322F7C48357040003D7C18FF98F17
:1043A00093F70710E1CFC167376700409386F7EFB7
:1043B0002322D7C4032687C49386819093150601D0
:1043C00063DA050A9042050690C28C420D46637579
:1043D000B60A032607C4FD17218A59EE032607C42F
:1043E0009385C1907D8E3765004090C11387C19041
:1043F0000146130305C0A1489315260033886500C4
:10440000032808000010A2953378F80023A005FFC8
:104410000506E31316FF10431366160010C310437E
:104420007D8E2320C5C41043799A10C31843F98F99
:104430002320F5C437670040832747C493F707401C
:10444000E5DFC1679387F7BF37650040C165232269
:10445000F7C4130505C08147FD15214813972700B0
:1044600010103A96032606FE2A9785076D8E10C314
:10447000E39607FF23A006001D45792B05616FB069
:104480007FD10945512B09B7B717002083C767377C
:1044900081C7154723A2E1928280114723A2E192AE
:1044A00082809387A19103C70700136717002380B9
:1044B000E70082809387A19103C707001377E70F76
:1044C0002380E7008280828091E5854733B5A7008D
:1044D000060582800945828083A7018F054783C630
:1044E000070093F6F6076390E60403C727009306D8
:1044F00020026305D7029306100209456316D70808
:10450000375700001307878BEFB29FC62399070028
:1045100098CF0145029701456FB0DFC737570000BC
:104520001307E788D5B7130610020145639EC6043A
:1045300083C61700638AE6040946639AC600239877
:10454000E700374700001307475F98CF82800D468A
:104550006399C6002398E700374700001307C76038
:10456000EDB7A5456390B60283D66700636CD700AC
:10457000374700001307E75D2398D70098CF2384BF
:10458000C700828009458280828003A7018F93063D
:10459000100201458347070093F7F7076390D7049C
:1045A00083471700294683465700639DC700894704
:1045B00063E5D7020347270093874191B69723808D
:1045C000E70082802D46639AC700894763E7D700DA
:1045D0000347370093878191D5B70945828083A728
:1045E000018F014503C75700854763E4E700138542
:1045F000C192828083A7018F0947014583C7570075
:104600006365F700138541913E95828083A7018FF2
:104610000947014583C757006365F70013858191FA
:104620003E958280EFB2DFB483A7018F2385070018
:10463000D12CB7670040856637660040938707C076
:104640009386F6F0930506C298439107758F23AEC3
:10465000E7FEE39BB7FE9307F00F2322F6C4EFF0CB
:10466000FF978145014523A20192EFF03FAE5145EE
:10467000AD2385450545EFF07FAD6FB0BFB1EFB21B
:104680003FAF83A7018F37070020034747142385D7
:104690000700631D071A371700200347F723A38479
:1046A000E700A38507000145EFF02FEF93050020F9
:1046B0000145EFF08FEFC1450145EFF00FF1930594
:1046C00000040145EFF05F84930500080145EFF019
:1046D000BF810145EFF06FFAB707002083C5470798
:1046E0000145EFF05F8A0145EFF0AFF23767004018
:1046F000032607C0C1679386F7FF9317160163DF90
:104700000700832707C0F58F85669386F6F0F58F3F
:10471000B16693860608D58F2320F7C0376700401F
:10472000832707C093F7070485C3832707C0C166A3
:10473000FD16F58F85669386F6F0F58FA166938654
:10474000060CD58F2320F7C0930500600545EFF0D8
:10475000CFE59305000C0545EFF00FF99305000236
:104760000545EFF08FE637670040832747C093F792
:10477000070485C3832747C0C166FD16F58F85668C
:104780009386F6F0F58FA1669386060CD58F2322CB
:10479000F7C037670040032647C0C1679386F7FF1D
:1047A0009317160163DF0700832747C0F58F8566DF
:1047B0009386F6F0F58FB16693860608D58F23228F
:1047C000F7C0930500600945EFF02FDE9305000D5B
:1047D0000945EFF06FF1930500020945EFF0EFDEB8
:1047E00037670040832787C093F7070485C3832773
:1047F00087C0C166FD16F58F85669386F6F0F58F46
:10480000A1669386060CD58F2324F7C03767004036
:10481000032687C0C1679386F7FF9317160163DFEE
:104820000700832787C0F58F85669386F6F0F58F9E
:10483000B16693860608D58F2324F7C00145EFF0B3
:104840006F84054723A2E1926FB0DF941967034795
:10485000B713B1B5EFB2DF919385C181EFE01FBA15
:104860006FB05F9383A7018F83C53700914763EED5
:10487000B700EFB2FF8FB7070020938787098E0537
:10488000BE95EFE0BFB76FB0FF9001458280B707DC
:10489000002083C54714894763EEB700EFB25F8DF0
:1048A000B7070020938787088E05BE95EFE01FB5F8
:1048B0006FB05F8E01458280B707002083C5471423
:1048C000894763EEB700EFB2BF8AB707002093872E
:1048D00087078E05BE95EFE07FB26FB0BF8B0145B5
:1048E0008280EFB2FF88B707002083C7471499E79B
:1048F0009385C180EFE09FB06FB0DF8993854181E0
:10490000D5BF8280B7670040054723A0E7C423A036
:1049100007C4096723A207C4130707C0239EE18EBB
:104920000967130707C023A0E7C401458280EFB2DF
:104930003F84B767004083A707C4376700404168DA
:10494000C207B7150020C1838146130307C07D1835
:1049500093858538A14813962600330566000841E3
:104960002E9685063375050108C2E39616FF93E679
:1049700007402320D7C493E61740F99BC207C183A1
:104980002320D7C493E607402320D7C4B76600404E
:1049900003A746C41377074065DF41671307F7BFD6
:1049A00023A2E6C44168376700408146130307C06D
:1049B0007D18A148139626003385C50008411A9634
:1049C00085063375050108C2E39616FF93E7874015
:1049D0002320F7C4832707C4C207C18393E7470096
:1049E0002320F7C4EFF04FEB6FB0CFFAEFB24FF8E0
:1049F00037640040832704C4C207C183ED9BC2070C
:104A0000C1832320F4C4EFF06FECB167938707F004
:104A10002320F4C46FB00FF8EFB28FF59D471384D5
:104A2000C1916303F50008C01C401547636EF70091
:104A300019678A071307C718BA979C43828783A709
:104A4000819289E7EFF09FFA994711A095471CC022
:104A500001A8EFF0BFF991471CC0054723A4E192DC
:104A60006FB04FF389472302F4008D47CDB78347DA
:104A70004400FD1793F7F70F2302F4008347440027
:104A800093F7F70FF1FF9147D9B7376700408327B6
:104A900007C4C207C18393E707012320F7C49547E2
:104AA0001CC0A9472302F40065BF83474400FD17DB
:104AB00093F7F70F2302F4008347440093F7F70FAF
:104AC000C5F337670040832707C4C207C183BD9B76
:104AD000C207C1832320F7C499471CC023A40192B5
:104AE00041B7192073002030EFB28FE837440040FF
:104AF0009305505213050440EFE0CFC709C91305D1
:104B00000440EFE0CFC51375F50FA386A1926FB0F7
:104B10006FE8EFB2EFE53D65EFD0FFF41305000F4E
:104B2000EFD07FF4B7F700E083A607D103A707D142
:104B300093F606021367870223A8E7D003A707D1DD
:104B40001377F7FD558F23A8E7D07300501073003B
:104B500050103D65EFD01FF009C93D65EFD0BFF0A3
:104B60000545EFF07FEB6FB0EFE21305000FEFD0DC
:104B70007FEE75D91305000FD5B7B707002083A7BF
:104B8000071437177A0013070720B3D7E70293F704
:104B9000F70F2388F1921307803EB387E70223972C
:104BA000F1928280B7F700E0D8438146799BD8C361
:104BB00003C701933306A70290CBD4CB9843136766
:104BC000070198C398431367170298C3D843058B0E
:104BD00075DF9843799B98C38280B7F700E0D8438C
:104BE0008146799BD8C303D7E1923306A70290CBC5
:104BF000D4CB98431367070198C3984313671702F0
:104C000098C3D843058B75DF9843799B98C38280FE
:104C1000EFB20FD62A841165011185451105EFE029
:104C2000AF92930700202312F100371501408D4702
:104C30003EC44C00E147130505803EC6EFD0FFE3BC
:104C400022C837440140B70708000C081305048048
:104C50003ECC02CA231E0100EFE08FA0854513055C
:104C60000480EFE06FAD05616FB0CFD2EFB2AFCE91
:104C7000B7440140AE89328901449384048063457E
:104C800024014A856FB06FD0930500042685EFE0BC
:104C9000AFAD7DD9B38789008385070026850504DC
:104CA000C205C181EFE00FABD9BF1387C1821C439E
:104CB000B71600209386C63A3E95636BD500B7566B
:104CC00000209386068063E5A60008C33E858280A7
:104CD000FD57EDBF93F5F50F2A966314C500014506
:104CE000828083470500E38DB7FE0505FDB7B3C796
:104CF000A5008D8B3307C50081E78D4763EEC700A4
:104D0000AA876370E50A83C6050085078505A38F1A
:104D1000D7FEE3EAE7FE828093763500AA8791CA40
:104D200083C6050085078505A38FD7FE93F6370058
:104D3000FDB79376C7FF138606FE63F0C70683A30D
:104D4000050083A2450083AF850003AFC50083AE95
:104D5000050103AE450103A3850183A8C501938521
:104D6000450223A0770003A8C5FF23A2570023A470
:104D7000F70123A6E70123A8D70123AAC70123AC83
:104D8000670023AE17019387470223AE07FF75B76D
:104D900090419107910523AEC7FEE3EBD7FEE3E414
:104DA000E7F6828039713EDA2ED232D436D63AD83E
:104DB00042DC46DE9387018322CC804326CA06CE9E
:104DC000AA8409C41C4C99E3228525230C44541061
:104DD0002686228536C6EF009017F2406244D24400
:104DE00021618280011126CA4AC806CE22CC4EC655
:104DF00052C4AA842E8901C51C4D91E3DD299C4C27
:104E0000804499E32685F521971700009387C73BD7
:104E1000631CF402C0408357C400A18BB1C71C4877
:104E2000A1C7FD59294A1C4483450900FD17B1E972
:104E30001CC463DE07062286A94526857920FD5716
:104E40006308F502294535A0971700009387C739F5
:104E50006314F4008044C1B7971700009387C734E8
:104E6000E31BF4FAC04445BFA2852685392A55D9EB
:104E70007D55F2406244D2444249B249224A05611A
:104E800082801CC4050963D70700184C63CBE70078
:104E9000638945011C401387170018C02380B700A1
:104EA00059B7228626851520E31F35F7D1B71C4058
:104EB0001387170018C029472380E70061B793873D
:104EC0000183AA8588436FF0FFF1011122CC26CA25
:104ED0004AC806CE4EC6AA842E89328401C51C4D0E
:104EE00091E30129971700009387072E6319F406B1
:104EF000C0401C4C1CC48357C400A18BC9C31C48B0
:104F0000BDCF1C4808409379F90F1379F90F1D8D17
:104F10005C486346F500A2852685652C2DE51C447A
:104F20000505FD171CC41C401387170018C02380FB
:104F300037015C486389A7008357C400858B81CB08
:104F4000A9476316F900A285268561240DEDF2407C
:104F500062444A85D2444249B2490561828097172A
:104F60000000938767286314F400804459B79717AB
:104F7000000093876723E31EF4F6C0449DBFA2851B
:104F8000268521203DDD7D59D9B7411193870183C5
:104F900026C2844322C44AC006C62A892E8489C4F4
:104FA0009C4C99E32685B126971700009387C7216B
:104FB000631CF402C0400317C40093170701C183A8
:104FC00093F68700B5EE93F607019DEEA5472320E3
:104FD000F900136707042316E4007D55B24022440C
:104FE0009244024941018280971700009387C71FAE
:104FF0006314F4008044C1B7971700009387C71A61
:10500000E31BF4FAC04445BF918B8DC74C5889C946
:10501000930744046384F5004A85A923232A0402E4
:105020008357C4002322040093F7B7FD2316F4002E
:105030001C481CC08357C40093E787002316F40064
:105040001C4881EF8357C4001307002093F70728FB
:105050006385E700A2854A85B5218357C40013F70D
:10506000170005C75C4823240400B307F0401CCC9C
:105070001C480145A5F78317C40013F7070839DF5B
:1050800093E707042316F40089BF898B014791E356
:10509000584818C4F1BF83D7C500011122CC26CAD5
:1050A00006CE4AC84EC613F78700AA842E8471EF35
:1050B000D841634DE000B841634AE0000145F24049
:1050C0006244D2444249B2490561828058547DD736
:1050D00003A904009396370123A0040063DD0606AC
:1050E00070488357C400918B99C75C401D8E5C58F3
:1050F00099C33C401D8E5C540C5081462685829796
:10510000FD570357C400631DF5009440F54763E85D
:10511000D706B70740208507B3D7D700858BA5C32F
:105120001C48232204001CC09317370163D80700D2
:10513000FD576314F5009C4091E368C84C5823A0C8
:105140002401ADDD930744046384F5002685192905
:10515000232A0402A5B70C500146854626850297EE
:10516000FD572A86E31FF5F69C40A5DF754763854A
:10517000E70059476394E70423A0240181B713672C
:1051800007042316E4007D551DBF83A90501E387AD
:1051900009F203A905008D8B23A03501330939419C
:1051A000014791E3D84918C4E35A20F11C540C502C
:1051B000CA864E86268582976349A0008357C4001D
:1051C00093E707042316F4007DBFAA993309A94089
:1051D000E1BF9C49A5C3011122CC06CE2A8411C58A
:1051E0001C4D81E72EC63122B245971700009387E8
:1051F000A7FD639CF5004C408397C5009DC72285A1
:105200006244F24005616FF01FE997170000938731
:10521000A7FD6394F5000C44C5B79717000093876A
:10522000A7F8E39BF5FC4C44C1BFF2406244014542
:105230000561828001458280411122C406C62A840C
:105240002316B5002317C5002320050023220500DF
:10525000232405002322050623280500232A050010
:10526000232C0500214681451305C505EFA05FF3FA
:10527000971700009387A7B65CD097170000938715
:1052800007B91CD497170000938747BD5CD49717C4
:105290000000938707C000D01CD8B24022444101CF
:1052A000828097050000938505F391AA411126C2DB
:1052B000130680069384F5FFB384C4024AC02E8986
:1052C00022C406C69385440791262A8401CD232053
:1052D000050023222501310508C413868406814573
:1052E000EFA01FEC2285B2402244924402494101C2
:1052F00082801C4DA5E7411106C622C49707000015
:10530000938767FA1CD59387018A9C43232405045D
:1053100023260504232805046314F50085471CCDC6
:105320002A84352848C022851D2808C422850528DE
:1053300048C4484001469145EFF01FF00844054637
:10534000A545EFF07FEF48440946C945EFF0DFEE91
:1053500085471CCCB24022444101828082804111A9
:105360009387018A26C284434AC006C69C4C22C445
:105370002A8981E72685EFF0DFF79384840480444F
:10538000DC40FD1763D607009C40B9CF8440C5BF01
:105390000317C40039E7C1778507232204062320B9
:1053A000040023220400232404005CC423280400F6
:1053B000232A0400232C0400214681451305C4053B
:1053C000EFA01FDE232A0402232C0402232404045A
:1053D000232604042285B24022449244024941011A
:1053E00082801304840671BF91454A85EFF01FEC5B
:1053F00088C049FDB1472320F9000144E1BF79711C
:1054000022D44AD052CC56CA5AC85EC606D626D234
:105410004ECE2A8AAE8A130485040149054BFD5BF2
:1054200009ECB25022544A8592540259F249624A18
:10543000D24A424BB24B45618280044483294400E6
:10544000FD1963D409000040E1BF83D7C400637B2A
:10545000FB008397E40063877701A6855285829AD3
:105460003369A90093848406E1BF1971A6DAAE847A
:105470008395E500A2DC86DE328463DC050083D7F9
:10548000C40023A0060093F7070885E793070040B0
:105490001DA0300836C6EF005026B246E34105FE97
:1054A0007247BD67F98F7977BA9793B717009CC297
:1054B000F1BF930700041CC0F6506654D654014552
:1054C0000961828083D7C500011122CC06CE26CA8D
:1054D0004AC8898B2E8489CF930774041CC01CC8CA
:1054E00085475CC8F2406244D244424905618280EB
:1054F00074003000AA84EFF05FF7A2452A89268560
:10550000312201ED8317C40013F7072061FFF19BDF
:1055100093E727002316F400C1B79707000093878D
:1055200087D89CD48357C40008C008C893E70708ED
:105530002316F400A2475CC8B24791CF8315E4005C
:105540002685EF00B01E01C98357C400F19B93E785
:1055500017002316F4008357C4003369F90023169B
:10556000240149B7DDC183A7C5FF411122C406C686
:1055700026C21384C5FF63D307003E94AA84EF00BC
:105580003021938741939C4381EF2322040023AA77
:1055900081922244B2402685924441016F00701FDF
:1055A000637EF40014403307D4006396E700984309
:1055B000DC43369718C05CC0D9BFBA87D84319C33B
:1055C000E37DE4FE94433386D700631F86001040DA
:1055D000B29694C33386D700E31DC7FA10435843ED
:1055E000B29694C3D8C375B76375C400B1479CC065
:1055F0004DB71040B306C4006316D7001443584398
:10560000B29614C058C0C0C369B78280011126CABF
:1056100093843500F19806CE22CC4AC84EC6A10428
:10562000B14763F3F404B14463E2B4042A89EF00A0
:1056300030169387419398433A8439E09387819356
:105640009C4391E781454A85852723ACA192A68595
:105650004A85992FFD5963193507B1472320F90071
:105660004A85EF00101329A0E3D004FCB1471CC108
:105670000145F2406244D2444249B2490561828008
:105680001C40858F63CF0702AD4663F6F6001CC051
:105690003E9404C031A05C406313870223AAF192B8
:1056A0004A85EF00100F1305B40093074400619979
:1056B0003307F5405DDF3A94898F1CC05DBF5CC342
:1056C000C5B72287404095BF130435007198E302A7
:1056D00085FCB305A4404A85C12DE31C35FBB5BF4D
:1056E0001C46FD171CC663DA0700184E63C5E700A9
:1056F000A9476394F5006FF04FFD1C422E85138778
:10570000170018C22380B7008280011122CC26CA5C
:105710004AC84EC652C406CE2A89AE893284B30422
:10572000D6007D5A63149400014511A883450400F6
:105730004E864A85EFF0DFFA0504E31545FFF24097
:105740006244D2444249B249224A0561828035719D
:1057500022CD26CB4AC94EC706CF52C556C35AC121
:10576000DEDEE2DCE6DAAA89AE843289368409C557
:105770001C4D99E3EFF0FFB7971700009387C7A47C
:10578000639DF40C83A4490083D7C400A18BE5CBAF
:105790009C48F5C793070002A304F1029307000396
:1057A00002D22305F10222C6930B5002971A000081
:1057B000938A8AA5054C294B4A848347040099C3E0
:1057C0006392770FB30C2441638E0C00E6864A8601
:1057D000A6854E85EFF07FF3FD576309F51E9256BF
:1057E000E69636D2834704006382071EFD571309ED
:1057F000140002C802CE3ECA02CCA309010482D41E
:105800008345090015465685EFF0CFCC13041900E7
:10581000C24759E913F7070109C713070002A30993
:10582000E10413F7870009C71307B002A309E104D5
:10583000834609001307A0026380E608F2474A8402
:10584000814625460347040093051400130707FD0E
:105850006379E60AB5CA3ECE85A8971700009387FC
:10586000A7986395F40083A4890039BF97170000B7
:1058700093878793E39AF4F083A4C90031B7A68590
:105880004E85EFF08FF019D57D55FA406A44DA4421
:105890004A49BA492A4A9A4A0A4BF65B665CD65C80
:1058A0000D618280050411BF330555413315AC00ED
:1058B000C98F3EC82289A9B73247930647001843CB
:1058C00036C6634907023ACE034704009307E00255
:1058D000631FF704034714009307A002631BF7023A
:1058E000B2470904138747009C433AC663C10702C5
:1058F0003ECA35A83307E04093E727003ACE3EC8BA
:10590000E1B7B387670385462E84BA9725BFFD5755
:10591000C5B7050402CA81468147254603470400EE
:1059200093051400130707FD6378E606F1F283453B
:1059300004000D46171500001305858DEFF08FB993
:1059400011CD971700009387A78C1D8D9307000436
:10595000B397A700424505045D8D2AC8834504001E
:105960001946171500001305E58A130914002304CE
:10597000B102EFF02FB63DC197A7FFFF938787686D
:1059800095E74247B2471377071009CF91073EC604
:105990009257D2973ED20DB5B387670385462E84C2
:1059A000BA97ADBF9D07E19BA107D5B778009706D1
:1059B00000009386C6D526860C084E859700000009
:1059C000E7000000FD572A8AE314F5FC83D7C400E2
:1059D00093F70704E39A07EA125545BD7800970646
:1059E00000009386C6D226860C084E85012AD9BFB0
:1059F000797156CA9C49BA8A984522D426D24ECE8D
:105A000052CC06D64AD05AC85EC6AA892E84B28421
:105A1000368A63D3E700BA879CC00347340419C3AE
:105A200085079CC01C4093F7070281C79C408907EB
:105A30009CC00329040013796900631A0900130B41
:105A40009401FD5B5C449840998F634CF9041C40C1
:105A50008346340493F70702B336D000A5EB130650
:105A60003404D2854E85829AFD576303F5041C40A9
:105A700011469840998B544481446397C700B3847E
:105A8000E64063D3040081441C4418486354F70083
:105A9000998FBE94014969047D5B63982405014593
:105AA00009A885465A86D2854E85829A631E75015D
:105AB0007D55B250225492540259F249624AD24A58
:105AC000424BB24B456182800509ADBF3307D4001C
:105AD00013060003A301C704034754049387160069
