:100000006F203020130000001300000013000000D8
:100010001300000013000000130000001300000094
:100020001300000013000000130000001300000084
:08003000130000007300100032
:100038000000000000000000480200004C02000020
:10004800000000009A2900000000000000000000E5
:100058009C2900009E29000000000000000000000C
:10006800A029000000000000A229000000000000F4
:10007800A4290000A6290000A8290000AA29000038
:10008800AC290000AE290000B0290000B229000008
:10009800B4290000B6290000B8290000BA290000D8
:1000A800BC290000BE290000C0290000C2290000A8
:1000B800C4290000C6290000C8290000CA29000078
:1000C800E0400000CE290000D0290000D22900001D
:1000D800D4290000D6290000D8290000DA29000018
:1000E800DC2900002A0D0000E0290000E2290000B8
:1000F800E4290000E6290000E8290000EA290000B8
:10010800EC290000EE2900000C4B0000F229000049
:10011800F4290000F6290000CA400000E0020000AF
:10012800FC290000FE290000002A00000000000051
:080138000000000000000000BF
:10014000397101436EC619A0397141536AC866CA34
:1001500062CC5ECE19A0397101535AD056D252D416
:100160004ED64AD826DA22DC06DE3301614082828E
:1001700041114AC026C222C406C68282B24D410144
:10018000024D924C224CB24B4101024B924A224A00
:10019000B2494101024992442244B2404101828065
:1001A0003D432A876373C3029377F700BDEFADE544
:1001B000937606FF3D8ABA960CC34CC30CC74CC756
:1001C0004107E36BD7FE11E28280B306C3408A0683
:1001D0009702000096966780A6002307B700A30643
:1001E000B7002306B700A305B7002305B700A30493
:1001F000B7002304B700A303B7002303B700A3028B
:10020000B7002302B700A301B7002301B700A30082
:10021000B7002300B700828093F5F50F9396850011
:10022000D58D93960501D58D61B7939627009702DA
:10023000000096968682E78086FA9680C1171D8F09
:100240003E96E374C3F8A5B77300203001A0B7074A
:100250000050130740F82386E700A386E700130742
:1002600080042387E700138701D398CB1387C191BC
:10027000D8CB98CF138701D7D8CF138701DF98D376
:10028000138701E7D8D3138701EF98D7A389070213
:10029000A38B0702A38F0702A3830704239C0702F3
:1002A000239007042394070409472389E702238D39
:1002B000E7022381E7042385E704938741892380AC
:1002C0000700A380070023810700A3810700238282
:1002D0000700A382070023830700A383070082800F
:1002E000011122CE26CC4ACA4EC852C656C4370483
:1002F000005003476400834774001377F70F937629
:100300002700638E067893F7F70F13F7070393061A
:100310000002630DD706930600036303D73049E359
:1003200013F7F70385466305D71E6300071C8D4648
:100330006306D72695466315D70693F70704ADC322
:10034000184483477404420793C74700A303F40487
:1003500083477404418393F7C70F93E72700A303F0
:10036000F404938601EF8147138601E79395070113
:10037000C18163EBE528B70700502394E70403C766
:1003800027041377C70F2385E70419A893F7F7030A
:1003900093062002638FD70E63EAF6006389E704B1
:1003A000B707005009472383E70021A7130740023E
:1003B0006384E71013076002E394E7FE8347A40415
:1003C00093C747002305F4048347A40493F7C70F9A
:1003D00093E727002305F4049387418923830700CB
:1003E0008347740493F7C70FA303F40455BF93879F
:1003F000018A83D707009384018AC207C18381E7FA
:100400009147A309F40283C7218A93F70706C9FB22
:1004100083C7C189154793F7F70F6380E70619472C
:10042000E390E7F883D704001307F00313040004F4
:100430006366F70003D40400420441801389818A73
:10044000832909002286CE85138501D3EF40D00C85
:1004500083D70400A29923203901818FC207C18369
:100460002390F400B70700502398870203C727039F
:10047000134747002389E70225B737070050834712
:10048000370083C6018993F70708D58FA301F700CA
:1004900001BF8347A40393C74700230DF40283479A
:1004A000A40393F7C70F93E72700230DF402938764
:1004B000418923810700EDB58347240493C7470092
:1004C0002301F4048347240493F7C70F93E727001D
:1004D0002301F40493874189238207008347F403AF
:1004E00093F7C70FA30FF40265BD184493F70704F1
:1004F000E38807EA83C7218A83D7018AC207C183B9
:10050000E39007EA2318040291472309F40249BD46
:1005100093F70704E38607E88347740393C747000C
:10052000A30BF4021387C1D11044834607009387BD
:10053000C1D11376F60FBA96A381C6008346070091
:10054000850693F6F60F2300D70003470700C14640
:100550006394E6002380070003C707002D46931627
:1005600067001387C1913697B7060050D8CA03C7F2
:10057000270005071377F70F2381E70003C727003C
:10058000E370E6E203C776031377C70F136727000C
:10059000A38BE6020547A389E70019B593F7070483
:1005A000E38007E018448347F403420793C74700FA
:1005B000A30FF4028347F403418393F7C70F93E734
:1005C0002700A30FF402938601DF8147138601D72A
:1005D00093950701C18163EDE500B70700502390B3
:1005E000E70403C727041377C70F2381E7044DBB34
:1005F000B305F60083C505003385F600850793C56E
:10060000F5FF2300B500E9B7B305F60083C5050083
:100610003385F600850793C5F5FF2300B500B9B310
:1006200099472309F402A309F402138701D38347EE
:1006300007001386218A2300F6008347170083569C
:1006400067009385C1892380F500035827009387AD
:10065000018A2390D7009386418A2390060103588C
:1006600047001387E189231007010347060013841D
:10067000018A1389218A13770706138601D393878A
:10068000418A9386E189631F071C03C70500AD45B6
:100690001377F70F63E8E51C99650A07938545040E
:1006A0002E971843028703D7070089462183938931
:1006B000818A6303D7060D46630EC7068547631715
:1006C000F70899671387870D83C7870D23A0E90073
:1006D00081440357040063F4E7002310F4008357B8
:1006E00004001307F003130A00046367F700035ABA
:1006F0000400420A135A0A0183AA0900528613858C
:1007000001D3D685569AEF40206123A04901930773
:10071000F00F6396F408B9A219671307C709834756
:10072000370023A0E90003472700A207BA97C207B2
:10073000C18379BF83D70700054693F7F70F63821C
:10074000C70289CB6387D702638DE7028147930491
:10075000F00F41B71387418223A0E90083C741828C
:1007600085BF99671387C70E23A0E90083C7C70E0B
:1007700085B799671387C70F23A0E90083C7C70F01
:1007800081BF99671387071123A0E90083C7071169
:1007900081B783D7070093F7F70F2388F188834742
:1007A0000900E207E18763DD072C03570400930784
:1007B000000463E6E70083570400C207C1830357C0
:1007C00004001D8F420741832310E40037070050C7
:1007D0002318F70291472309F702D9B683C7118975
:1007E0002300F600035704008547E3FAE7FA2310D5
:1007F000F40075B783D7070093F7F70FA388F18844
:1008000005472389E18861BF034709007D8B0DE31C
:1008100083D70700054793F7F70FE392E7F893872D
:10082000318903C707001377E70F2380E70085BFEF
:100830000347090009467D8B6316C70283D707006B
:1008400093F7F70F85E383D70600954693F7F70FE5
:100850006382D70663E0F6020547638EE7020D4721
:100860006380E704B70700501D472389E702A38987
:10087000E7023DB6930640086389D70293066008F5
:10088000638FD70293062008E39ED7FCB70700507A
:10089000238DE70229B7B7070050A38B070201B7E2
:1008A000B7070050A38F0702DDBDB70700502381B3
:1008B000E704F5B5B7070050A3830704CDB5B70724
:1008C00000502385E704E1BD034709007D8B0DE758
:1008D00083D70700054793F7F70FE395E7F8996784
:1008E00083C7370A93F70702B5DF9387318903C7B8
:1008F00007001367170015BF0347090009467D8BE2
:10090000E312C7F683D7070093F7F70FA1FF83D74A
:100910000600154793F7F70F638AE7066361F7024E
:1009200005476383E7040D47E39EE7F2370700506E
:100930008347F70393E73700A30FF7028DB513073B
:100940004008638CE70213076008638AE704130713
:100950002008E399E7F0370700508347A70393E7A0
:100960003700230DF70225BD370700508347770373
:1009700093E73700A30BF7021DB5370700508347F5
:10098000270493E737002301F70411BD3707005010
:100990008347770493E73700A303F70409B53707C4
:1009A00000508347A70493E737002305F704C5BB2E
:1009B0002300060005BD8347090023100600FD8BB8
:1009C0008DE383C731898144858B81C789472300A3
:1009D000F600035704008947E3FBE7D22310F40035
:1009E0003DB38347090009479304F00FFD8BE39261
:1009F000E7FE83D70600154793F7F70F6388E706EE
:100A00006360F70205476380E7040D47E393E7FC63
:100A1000370700500347F7030D8B6392E7042DA8B7
:100A200013074008638FE702130760086385E70434
:100A300013072008E39FE7F8B707005083C7A70311
:100A40008D8B0D47D9BFB707005083C777030D477C
:100A500081448D8BE39FE7F685472300F6008144B0
:100A60008DBFB707005083C72704D9BFB707005011
:100A700083C77704F1B7B707005083C7A704C9B786
:100A800083570400C207C18399E7B7070050239832
:100A900007021147C5B2B70700501147C9BB93778A
:100AA00017008DC3A3010400EFF06FFA85472303FD
:100AB000F4007244E2445249C249324AA24A0561F2
:100AC000730020309377470095CB034754009387FA
:100AD0003189118B09CF03C70700136727002380D3
:100AE000E70083C70700B707005011476DB803C779
:100AF00007001377D70F2380E700F5B72303E4003F
:100B00004DBFEFF2EFE641118545114502C202C427
:100B100002C6EF20802D85472312F10037150140D2
:100B2000C1473EC64C008D47130505803EC4EF10FB
:100B3000F07E41016FF00FE6EFF28FE30145EF2009
:100B4000000F0964EF40000613050458EF40E00E63
:100B5000B704002083A5041237650000130545077C
:100B6000EF40E02683A50412130404710545B3D5B4
:100B70008502FD15C205C181252A376500001305D0
:100B80004508EF406036B53FEF10205F0545EF1098
:100B90002063371500207D46814513058525EFF03C
:100BA0002FE037150020130620538145130545CA51
:100BB000EFF00FDF3765000013050509EF40C03285
:100BC000EF005073F5BFB71702409843B706FFF820
:100BD00041111367170098C3D84337060200758F79
:100BE000D8C39843B706F7FEFD16758F98C3984390
:100BF000B706FCFFFD16758F98C3D843B70681FF73
:100C0000FD16758FD8C337079F0098C702C402C668
:100C10009843C166558F98C3B716024005679C423A
:100C2000F18F3EC6A24785073EC4B24781E7A2477F
:100C3000E397E7FEB71702409C431397E70063571B
:100C4000070685473EC632478547631FF704B71737
:100C50000240D843B706C1FFFD16D8C3D843D8C356
:100C6000D84313670740D8C3D843758FD8C3D84338
:100C7000B7063D00558FD8C39843B7060001558F7E
:100C800098C3984393166700E3DD06FED843B71672
:100C90000240719BD8C3D84313672700D8C32147AC
:100CA000DC42B18BE39EE7FE4101828002C661BF58
:100CB000EFF20FCC0111AA842E840945854502CAA2
:100CC00002CC231E010002C602C8EF20E013231A43
:100CD0008100370400404C0813050440231C910098
:100CE000231D0100231B0100EF20E013054685456D
:100CF00013050440EF20E01C9307D0122316F100E7
:100D000089472307F100680085473EC8EF109072BD
:100D1000854513050440EF200019B7E700E0096797
:100D200023A2E71005616FF0EFC619207300203091
:100D3000EFF20FC437040040854513050440EF204F
:100D4000A01945C5854513050440EF20A01A3717A3
:100D500000209306872503C60600894763F7C70866
:100D600003C616008D4583C756006314B6041307E7
:100D7000A0103387E702938741388146BA9703C8AA
:100D800007006304D80603C587003E86014709A80B
:100D90008345160205071377F70F8505A300B602F2
:100DA0000506E317E5FE850693F6F60F93872704FD
:100DB000C9BFA545631BB6021305A010B387A702E0
:100DC0009385413803C36600130787258146138541
:100DD0004138094E8D4E130FA010AE9783C52702E0
:100DE00085052381B7026314D3006FF0AFBA834740
:100DF00077006376FE04834787006392D7058347B5
:100E0000C7008145B387E703AA9783C207006388B9
:100E1000B20283CF87003E88014609A883481802A2
:100E200005061376F60F8508A30018030508E39757
:100E3000CFFE850593F5F50F93872704C9BF850677
:100E400093F6F60F190745B703474500A146630619
:100E5000D70083C7E5006396D700A1472300F600BB
:100E600082809D466304D7006394D7009D47FDB7F9
:100E70008D466304D7006394D7008D47C5B7A54658
:100E80006304D7006394D700A547C9BFFD57F9B7DE
:100E9000EFF28FAB3714002013048425130101BF38
:100EA0008144138B01F7930B140013054006EF30B8
:100EB0007055850493F4F40F214533159500EF30F8
:100EC00070540145EF10E03E81490149930C340014
:100ED000194D130C40066685EF10804319E585090E
:100EE00093F9F90F63643D07014905094209054576
:100EF00013590901EF301051E31F89FD9547E3F6BF
:100F000097FA594505A03308F500034808003386D1
:100F1000F600850723000601B5A09547E3F797F88B
:100F200013056004130101416FF08FA5B305F900AB
:100F300083C505003386E70085072300B60055A06A
:100F40009547E3F497F613057004E9BF9306E100B3
:100F50004946938501371305440023170100EF101C
:100F6000606B1DE593874180C9468355E10023925C
:100F7000D700B716002081471387418093864633F8
:100F800013850137139607014182E36EB6F614C349
:100F9000034544000949894523012401EF10807A63
:100FA0002DFD154523012401EF30D04503454400B4
:100FB000740013060040938501F7EF10406BAA8977
:100FC0000345440013090101740013060040CA855B
:100FD000EF10E0698356C1003707002081471307EF
:100FE0000701139607014182E362D6F49387C18A11
:100FF00023A027012392D700E39409F4DA8513850F
:1010000001375E8603495B00813503454400CA858C
:10101000EF10E076E30805F09547E3F897E813054D
:10102000B00F09B739719308A01056D4B30815034F
:10103000930A500822DE26DC4ADA5AD25ED062CE0B
:10104000938701F7B30A55034ED852D666CC6ACAC5
:101050006EC803C7270083C73700A207BA973EC6EA
:1010600093170701C1831386413883CFC1803EC4E3
:10107000814201478147138801F7938EC180094956
:1010800091430544930420047D5B930B1002330CC1
:101090001601B24663DDD702B306F80083C5160019
:1010A0006393250383C6460063FCD30023007C00C2
:1010B000B306F80083C60600B697C207C183D1BF46
:1010C0002300DC00F5B7E39775FE631777006389AB
:1010D00002182380FE0169A283C556000D43639E5A
:1010E000651483C56600636CB41283C676006368BA
:1010F000D9126399860AB30697028542814FC69634
:10110000B29623818600B306F80083C60600B309B1
:101110007703014EB697C207C183014FB30697020A
:10112000D699C696B296B305F80003C315006308B6
:10113000730C224A63F5470D03CA0500D297C20714
:10114000154AC1836311430B03C3550003CA25002D
:1011500083CD45002203137DFA006E93620A420399
:10116000135A8A4183CC35001353030163570A0491
:1011700083C56500338AE601A3069A01230FBA00EE
:10118000B38CE90183C58600A10C860CB29C850551
:10119000050FA304AA0123916C002384B600137FDA
:1011A000FF0F51B7E39126F7B30697028542854FAB
:1011B000C696B29623812601B9B7B385C601A3832B
:1011C000A503A3859503B385C901C1058605B2951D
:1011D0002398650083C56602050E137EFE0F850504
:1011E0002383B60289B7E31073F503C3850083C573
:1011F00075002203B365B3002392B6002DB7631CBC
:101200008E00B3069702C696B29683C526006394F5
:1012100085002380660505071377F70F9DBDB3068C
:101220009702C696B29623816601B306F80083C67C
:101230000600B697C207C183F9BF6384020023800A
:10124000FE01930720043307F7029307A01033052C
:10125000F502FD572A97138541383A952301F50089
:101260007254E2545259C259325AA25A125B825BEA
:10127000724CE24C524DC24D01452161828083C6C1
:1012800001F79547639BF618138701F7834617000C
:1012900085476394F61883462700A547639FF61693
:1012A000834637009947639AF6169306200413087D
:1012B000A0103308050313864138011122CE26CC35
:1012C0004ACA4EC852C656C4B386D5025AC25EC078
:1012D00091470143814E014F014E9388413811449B
:1012E000C2963696835346000148930F0007930435
:1012F0000008930200092149C149130A0002854AE6
:1013000063E07704A147631DF30E930720041307DE
:10131000A010B387F5023307E502BA97B385F8004A
:1013200083C7050481E785472380F5047244E244BE
:101330005249C249324AA24A124B824B056182800D
:10134000B306F70083C606008507C20793FBC600F5
:1013500013FB3600C18393F6060F638D8B02638BFC
:101360002B0763950B026393560263010802B38651
:10137000EE03369342031353030163090E008346C1
:10138000C60389E6230E5603A30EC603DA97C207E7
:10139000C183BDB7638BF60363EBDF00E5FAB306E9
:1013A000F70003C80600611813381800C5B7638931
:1013B0009600E39D56FCB306F70083CE0600F9B70E
:1013C000B306F70003CE0600D1B7B306F70003CF8C
:1013D00006006DBF638D3601E39A46FBE30808FA09
:1013E000B306F70083C60600A30FD60245B7E30F86
:1013F00008F8B306F70083C60600230FD60279B7B4
:1014000093072004B387F5029305A0103305B502B6
:10141000AA97C6972380070411BF8280814793064D
:10142000500963C4B700014582803307F5000346C5
:1014300007006315D6000345170082808507D5B7DE
:10144000EFE21FD01309A010330925039387413819
:10145000130101BF2A8AAE8A814D138D4138CA9784
:1014600083CC07003E8C9389818B93074900639757
:101470000C006E85130101416FE05FD083440C00C6
:1014800013042004B384944193F4F40F338484024E
:10149000FD1C93FCFC0FB30B2401EA9B83D64B008D
:1014A000F9D63E946A94138601F7A286A6855685DE
:1014B0003EC6EF10603BA2861008A685AA8D568511
:1014C000EF10803A83D54B001C083E8523A0F9001D
:1014D0002392B900A1372380A18CA685528545337C
:1014E000B24771B71307A0103305E502938701F7E0
:1014F00003C6370083C727002206938641383E96ED
:10150000938501F7814709431148254E954E36953D
:10151000854863C4C700014582803387F500034FC7
:10152000070083461700FA97C207C183639C6600D1
:101530000347470063F5E80023001501D9BF2300E6
:10154000E500C1BFE39706FD03475700E313C7FD5E
:101550003387F50083461700E38D06FBE3DBC7FA0C
:10156000034F0700FA97C207C183E393D6FF834670
:101570002700139F8601135F8F41E35B0FFCBD8A39
:10158000A304D50083463700034F4700A306D500C8
:101590008346570003476700A206230FE500034771
:1015A0008500FA962319D50005072304E5004DB7F9
:1015B000EFE27FBA371400209307842503C5570054
:1015C00041110D372A89631E0510938701F783C5E2
:1015D000670013048425938901F785C103454400FE
:1015E000138601F7EF100010B717002093878727A5
:1015F000114723A037012392E7009387013783C562
:10160000E7001389013785C103454400138601F7BC
:10161000EF10400DB717002093878727394723A481
:1016200037012396E7008345F90085C1034544004F
:10163000138601F7EF10000BB71700209387872759
:10164000494723A83701239AE7008345090185C14B
:1016500003454400138601F7EF10C008B7170020B8
:1016600093878727594723AC3701239EE700154A04
:10167000034544001306E100938501F7EF10A02D08
:101680002A8929E903C72900914763E2E704230374
:10169000E40081498544114A8347640063E3970469
:1016A00003454400214693F5F40FEF10E02701CDE8
:1016B000FD1485091545C20493F9F90FEF308054E4
:1016C000C180636E3A018504C204C180F1B723036F
:1016D000F400C1B77D1A137AFA0FE31B0AF8130955
:1016E000E00F4A8541016FE05FAAEFE2DFA683C702
:1016F00005004111B3D7A740858B85C73719002056
:1017000093078925AA85AA8403C547007000130999
:101710008925EF10601B2A8431E98347E100858B1E
:1017200081E71304E00F99A0034549004146A685CF
:10173000EF10A01C2A841DE9A94903454900700047
:10174000A685EF1060181DE58347E10005041374BA
:10175000F40F858B81C7E31234FFE1B7A947E30299
:10176000F4FC8347C1005944858BC5FF22854101A4
:101770006FE0BFA12A84DDBFEFE2FF9D83C70500B4
:1017800041111304E00FB3D7A740858BC1CB3719A4
:10179000002093078925AA85AA8403C5470011461E
:1017A00013098925EF1040182A842DE92945EF30C7
:1017B0006045AD49034549007000A685EF10C01093
:1017C00029ED8347E10005041374F40FC18BA9E3ED
:1017D000E31234FF034549005146A685EF10E0119E
:1017E0000144AD49034549007000A685EF10C00DC6
:1017F0000DE58347E10005041374F40FC18B9DC30D
:10180000E31234FF8347C100858B91C7554531A052
:10181000A947E311F4FC1305E00F2A842285410156
:101820006FE0BF96A947E308F4FEE9BFEFE25F94DB
:10183000B71700202E842E86AA8503C5C725EF1072
:10184000A00819E98347140013F7270011E713F5DF
:1018500047003335A00005056FE0DF93EFE2DF8E30
:10186000B7140020938484254111AA892E8B328AD3
:101870002944938B4400CA8A9306E1004946938524
:1018800001375E8523170100EF00D0580DC57D1488
:101890001374F40F75F01305500445A07D191379E6
:1018A000F90F631F09001305600441A87D14137428
:1018B000F40F21E0CDB719443384890229492694D5
:1018C0008345C4000345B400890593F5F50FEF0087
:1018D000706769F51949338929038347C4001545A1
:1018E00089072300FB00EF30E0312944138B01F717
:1018F00026990345B9009306E10013060040DA85F6
:10190000EF00F05645F5138501375286938501F7B0
:1019100003495B00EFF04FD319453385A9022944F1
:10192000AA9403C5B400CA85EF00706519C57D147B
:101930001374F40F7DF41305900441016FE05F848C
:10194000EFE21F83AA861308A0102E85B285130626
:1019500020043388060393874138411113874138A7
:101960003386C5024296B29703C8C70303C617045D
:101970006303080483C7D703A306C1002306F1004D
:1019800089471306A0102317F10093072004B3869C
:10199000C6028548B387F5023388D7003A980346D4
:1019A0000804631E16019306E1007000EF00106F3B
:1019B00041016FE02FFE2306C1008547D9B793058B
:1019C000F00F0145E316B6FE93878703B6970345EC
:1019D00078028356E1007000B305F700EF00506411
:1019E000C1BFEFE26FF6AA89AE84EFF0AFE32A8AB7
:1019F000631D050C938701F783C56700938A01F780
:101A000099CD138601F72685EF00D04DB71700203A
:101A100093878727114723A057012392E700A685C4
:101A20004E85EFF0FFA19387013783C5E700138947
:101A3000013799CD138601F72685EF00B04AB71715
:101A4000002093878727394723A457012396E7006F
:101A50008345F90099CD138601F72685EF0090485C
:101A6000B717002093878727494723A85701239A50
:101A7000E7008345090199CD138601F72685EF001C
:101A80007046B717002093878727594723AC570123
:101A9000239EE700930AA010B38A590313894138A3
:101AA0000144930B2004054C330B590183470B0071
:101AB0006360F402EF20C063EF101072EF20406EFD
:101AC000954703A74190E31EF7FE52856FE04FEB69
:101AD000B3077403D697CA9703C727006318870113
:101AE000A38007042286A6854E85993D05041374BC
:101AF000F40F6DBFEFE2CFE4B719002003C58925CD
:101B00000111938C8925EF00207105472A8B631BF7
:101B1000E50A2380AC00A3820C00EFF06FB72A8B9C
:101B200049ED03C71C008D46631CD70083C54C00DC
:101B300003C55C007D3519E90D472380EC0039A809
:101B4000A546E31BD7FEEFF0BFA6F5B75947594BA3
:101B50006306E50089472380FC002A8B83C60C00BE
:101B600009476376D72803C71C008D4683C45C00F1
:101B70006318D724130AA010338A4403938A413888
:101B80000149938D4138B3874A013EC052C43E8D0E
:101B900003470D00637DE924130720043307E9029E
:101BA000A2470144B306F700B387DD009306AA01FC
:101BB0003EC2B387E6003EC609AA5947E300E5FAEC
:101BC0000947A5BF41FD03C45C007D4681451385DF
:101BD0008925EFE0EFDC1305A0103304A402138580
:101BE00041381306A01081452295EFE06FDBBDB7A9
:101BF0009247338C870003472C028346EC016363D2
:101C0000D70C3377D702B24703459C009306E10116
:101C1000B3858700138601F7EE952301EC02EF00F0
:101C2000103B2A8B6318050E835EE10103C8518BBC
:101C300003CF018C03C3418B9385418BB7170020E1
:101C4000B716002083CF618B81480147014E138571
:101C5000518B938287219386861D1316070141823B
:101C60006361D60963040E00238065006384080065
:101C700023000501938B518B138C418B03C70B0001
:101C800083460C0036971DCF03C6018CB716002083
:101C90009385861D0545EF2040612A8B05C5938AF3
:101CA000618B03C60A00630E060EB71600201306EA
:101CB000000481451385861DEFE08FCE23800A0046
:101CC00023000C0005041374F40F924703C7870028
:101CD000E360E4F25947630CEB1005091379F90F3F
:101CE00045BD63E0EE03938701F73386E7000346C3
:101CF0000600638A0F003383E6002300C300054E0D
:101D00000543050799BF3388E2002300C8008548D2
:101D10000548C5BFD94B630C750D1307E002E31BE3
:101D2000E5F483459C0003C54C0093E50508EF00EE
:101D3000902703471D00230D0C00A54605071377C8
:101D4000F70FA300ED00E3F7E6F27D46814513852A
:101D50008925EFE0EFC4EFF0AF932A8B0DED8345BB
:101D60009C0003C54C0093E50508EF00D023024515
:101D700085471306A0108145A3000D002380FC00B9
:101D8000A3820C00EFE0CFC183C54C0026859139BA
:101D90002A8B0D4701C5E30F7BED09472380EC003B
:101DA000D1BDB71700201306000481451385872194
:101DB000EFE00FBF85462380DA0023800B0019B7C0
:101DC000A5466316D7021309A0103389240393890B
:101DD000413813844138CA9903C7290283C6E901EF
:101DE000637AD700014903C76C006360E918056195
:101DF0006FE0CFB83377D70203C52C00138A01F701
:101E00002381E902B12903C53C00BD2103C5990026
:101E10009305A9019306E101138601F7A295EF004E
:101E2000101B2A8B61F103470A00814D554CA30E0C
:101E3000E10019490D4AB70B0050854A03C76C00F1
:101E4000E3F2EDFA138D1D009379FD0F9305D10197
:101E50004E85EFF09F89D9472A8B6315F504B38D22
:101E60002D030347D101339DAA01134DFDFF337D9F
:101E7000ED001306A0108145A30EA1013387BC011C
:101E80000345C7001307A0109D0D3305E5022295F9
:101E9000EFE00FB1194681453385BC01EFE04FB04B
:101EA000CE8D69BF13054006EF20D0559305D101B3
:101EB0004E85EFF07F8C2A8B63138509B3872D0342
:101EC0000547E697A383E7002147A385E70023861C
:101ED0003701338D2D03938501F74E85EFF01F9564
:101EE000669D2305AD0003459D009D2E0345AD0075
:101EF000612683C73C0099C783C71B0093F7B70FC0
:101F0000A380FB00338D2D036E8513068D00930592
:101F10009D006696E695EFF07F942A8B669D31E1F1
:101F200003478D00631A47018345BD000345CD007B
:101F3000EFF03FAB2A8B2DF5A3034D0195B7034777
:101F4000D101339DAA01134DFDFF337DED00338791
:101F50002D03A30EA101669703477700E31257F5FF
:101F60008DBF8947A303FD0025BF19473307E90249
:101F70000D466697834677006395C61A0346870029
:101F80006311D61A8347C7001307A010014A338D87
:101F9000E702B307A4016AC23EC4A24703C7070011
:101FA0006371EA18930B2004B30B7A0399499247A3
:101FB0008144B3093903B38AFB00A29AE69911AAB6
:101FC000B3869A0003C7260203C6E6016368C70EFC
:101FD0003377C70203C599002381E602512403C564
:101FE000A900592C83C73C0089CB37070050834791
:101FF000170093F7B70FA300F700B3879A00930574
:10200000AD01DE9503C59700A6959306E101138601
:1020100001F7A295EF00A07B2A8B63100510835E69
:10202000E10103C3418B03CF018CB71700203715A3
:10203000002083CF618B03C8518B9385518B01475F
:102040008148014E1386418B938287211305851D9C
:1020500093160701C18263E9D60963040E002300C9
:10206000660063840800238005019387418B138CED
:10207000518B03470C0083C607003EC036971DCF27
:1020800003C6018CB71600209385861D0545EF20F9
:10209000C0212A8B05C5938D618B03C60D0051C6E7
:1020A000B71600201306000481451385861DEFE056
:1020B0002F8F824723800D002380070037150140B2
:1020C00005468545130505808504EF00B03493F47B
:1020D000F40F03C78A00E3E5E4EE59476302EB041B
:1020E000050A137AFA0F55BD63E0EE03938701F7F3
:1020F000B386E70083C60600638A0F003303E5005A
:102100002300D300054E0543050799B73388E20045
:102110002300D80085480548C5BF5947E317E5F4B3
:10212000594B05091379F90F7DB9B717002013062C
:102130000004814513858721EFE08F868546238043
:10214000DD0023000C009DBF3707005083470700C8
:1021500093F7F70B2300F7008347170093F7B70FA8
:10216000A300F70083576703C207C18393F7F7BF44
:10217000C207C183231BF7028280EFD27FFFB7071C
:10218000002003A70712B747950893870740094522
:102190006300F702B7E7B805938707800545630931
:1021A000F700B777DC02938707C06315F700014596
:1021B000EF00D03385450565EF0050416FD09FFD9E
:1021C000EFD21FFB854737040050631EF502994785
:1021D0002300F4002945EF20901F930790F8230077
:1021E00004002300F40093078004A306F400B7174B
:1021F0000020938787291CCCB71700209387872D51
:102200005CCC6FD03FF999472300F4002945EF20BB
:10221000101C23000400F5B7370700508347670000
:10222000858B9DC385472303F7008346570081476D
:10223000858A81CE854711C989476307F500034721
:1022400017008547058B11C389473E858280B707F4
:10225000005003C55700058113451500058982808C
:1022600037070050834737001375F50793F70708C2
:10227000C98FA301F700828085476317F500EFD26D
:102280003FEFD9356FD01FF1B707005003C70700E4
:10229000136707042380E70003C71700136747008D
:1022A000A380E70003D7670313670740239BE70278
:1022B0008280EFD2FFEB2A8401455D377135854777
:1022C00063EE8700370700508347170093E7270026
:1022D000A300F70001EC2D45EF20D0123707005086
:1022E0008347170093F7D70FA300F7000945EF20A6
:1022F0007011B707005003C76700058B01CB03C7F8
:102300005700058B01C705472383E7006FD09FE87F
:102310003707005083475700858B95CFEFD25FE595
:1023200083471700858B99E72A8415372300A4007B
:1023300011E19937B707005003C71700014513672C
:102340001700A380E70003D7670313674700239BA9
:10235000E7026FD03FE459458280EFD2FFDEB70736
:102360000050A38DB702416A2A8B3289238FB702AE
:1023700093594500814437040050894B394CA94A90
:10238000A54C7D1A230C640323037401130D803EB6
:1023900083476400898B91EB7D1D420D0545135DDC
:1023A0000D01EF20D002E3150DFE230C040283473C
:1023B0006400898B81E71305E00F41A08347740017
:1023C00093F70704D1E38347740093F7F70F13F5EE
:1023D000F700630D850763175505630C090663064F
:1023E00049017D19420913590901FD1493F4F40FB1
:1023F0005145EF20C07D83476400858B81CF130555
:10240000800CEF20C07C83471400858BB1C78547C3
:102410002303F400850493F4F40FE39554F71305B4
:10242000000221A8638D9901B5476385F9008547AE
:10243000E393F9F855DD136505026FD07FD49D8BCA
:102440000D47E399E7FE6DB70145C5BF1305E002EF
:10245000EDB71305A002D5B75945C5B7EFD2DFCE0A
:10246000AA89B284130540062E89EF20407699C0D0
:102470002390040037040050A147896A231EF40208
:1024800013860A7181451305000DC13D631D0514B6
:102490009147A30DF402371B0020230FF40293078A
:1024A0008B2D03D46700130B8B2D630D040E630B70
:1024B000090E8387070063C50706CE8BC20993D92F
:1024C0000901370A0050938A0A7113054006EF206C
:1024D0000070DE8763733401A287231EFA028147EE
:1024E0000357CA03639DE7108345EA0356864145B7
:1024F000AD35631A050E8347EA0393C74700230FE0
:10250000FA028357CA031D8C4204418081C8835755
:10251000CA0303D70400BA972390F4005DF459A0CE
:10252000371B0020370A0050938A0A71130B8B293E
:10253000FD1913054006EF2080698345BA035686CE
:1025400013050009193D45E18347BA0393C74700C6
:10255000A30DFA0203578A00A28763768700835788
:102560008A00C207C1831D8C4204418091C403D7F5
:1025700004003E972390E400014793160701C182AF
:102580006395D7063E9983578A00C207C18399C7CE
:1025900083578A00B3F7F90091E341FCB707005075
:1025A000239E070213054006EF206062B707005024
:1025B00083D7C70313050009C207C18391E34145CF
:1025C0000966130606719145493B11ED3707005026
:1025D0008357C703C207C18399C783578700C207C0
:1025E000C18391C35D456FD0BFB9B306EB0003C68D
:1025F0000600B306E90005072380C600BDBF834679
:1026000009003307FB008507C2072300D70005092F
:10261000C183F9B5EFD23FB4411123170100C54979
:1026200063E6C9005D4541016FD03FB613878183E2
:10263000A147B684144358432300F500B717002080
:102640009387872D94C3D8C32A84034505001306B6
:10265000E1002E89213561F98357E100E3F4F9FCAB
:10266000034779002300E4002390F4006DBFEFD20C
:102670009FAE13870183B28910435843371400205B
:102680009307842D411190C3D8C336862A8A2E8998
:1026900036C6E93329E5B24613870183035667003E
:1026A00083D506005D4563ECC502034639008345CA
:1026B00029009307842D22064D8EB28563F3C9004D
:1026C000CE85104358432390B60090C3D8C303D798
:1026D00006003686CA852393E700528541334101BF
:1026E0006FD0BFAAEFD23FA79387018403AA070048
:1026F0003714002083A947001304842D4111B284AC
:1027000013E90530232044011306E100A685AA8AB7
:102710002322340123112401913315E183C70400DE
:102720001306E1002320440123223401A6855685A7
:102730002317F100231124012313F4000533410171
:102740006FD0BFA4EFD2DFA2138781841443B717E1
:10275000002058439387872D94C32391B700AE84FC
:10276000D8C301468145DD392A8419E52685EFF075
:102770003FAF1545EF20004922856FD0BFA1EFD2B2
:102780003F9F138701851443B71700205843938751
:10279000872D94C32391B700D8C301468145EFF03C
:1027A000FFCB6FD03F9FEFD2BF9C13878182144332
:1027B0005843B71700209387872DD8C32392B700BB
:1027C00094C301468145EFF07FC96FD0BF9CEFD223
:1027D0003F9A2E8483C5050041113289136505098E
:1027E000014636C6EFF07FB7AA84B24615E5B707B3
:1027F000005003D68700B71500209385852942062F
:1028000041822390C6004A85EF200051834704008F
:1028100093C747002300F400268541016FD09F979E
:10282000EFD21F95AA843715002041112E8413057D
:10283000852DB285368636C6EF20004EB246B707E4
:1028400000500146239ED7028345040013E504018E
:10285000EFF0BFB019E58347040093C7470023009A
:10286000F40041016FD01F93EFD29F9013878185B1
:10287000328810435843B717002023ACC72C9387E6
:10288000872DD8C32392B70003D706003686C285AA
:102890002393E700EFF09FBC6FD0DF8FEFD25F8D07
:1028A00013870186328810435843B717002023ACA2
:1028B000C72C9387872DD8C32392B7003686C2854D
:1028C000EFF0DFB96FD01F8DEFD29F8A138781871A
:1028D000B28610435843B717002023ACC72C938708
:1028E000872D4111D8C32392B7001306E100B685A6
:1028F000EFF0DFB641016FD0FF89EFD27F871387FA
:10290000818614435843B717002023ACD72C9387F4
:10291000872DD8C32391C7002392B7000146814574
:10292000EFF0DFB36FD01F87EFD29F84138701884A
:1029300014435843B717002023ACD72C9387872D17
:10294000D8C32391C7002392B70001468145EFF019
:10295000FFB06FD03F84EFD21F80938701879843E9
:10296000DC4337140020232CE42C1304842DAA8983
:10297000AE8432895CC0EFF07FAE01ED83C7040006
:102980004A86A6852310F9004E852313F400EFF044
:10299000FFAC6FD08FFF01A001A001A001A001A09A
:1029A00001A001A001A001A001A001A001A001A01F
:1029B00001A001A001A001A001A001A001A001A00F
:1029C00001A001A001A001A001A001A001A001A0FF
:1029D00001A001A001A001A001A001A001A001A0EF
:1029E00001A001A001A001A001A001A001A001A0DF
:1029F00001A001A001A001A001A001A001A001A0CF
:102A000001A097E1FF1F9381E1F11721002013013D
:102A1000615F174500001305258097D5FF1F93853B
:102A2000655E1386018963FAC5008322050023A031
:102A3000550011059105E3EAC5FE1385018997F557
:102A4000FF1F9385E5926377B500232005001105EC
:102A5000E36DB5FEFD42739002BC8D4273904280DF
:102A60009302800873A0023097D2FFFF9382025D29
:102A700093E2320073905230EFE0EF9497E2FFFF61
:102A80009382C20B73901234730020305841032894
:102A900005004C4537060140930706403E97934694
:102AA000F8FFB1C583250640F58D2320B640D043FD
:102AB000F18ED4C31443B3E6060114C31841904702
:102AC0009346F7FF758E90C7D047F18ED4C7144553
:102AD00041466399C6009447D98E94C7D447558F11
:102AE000D8C78280B6979443558F98C382801C4381
:102AF000F58F1CC38280B707014093870740DC4BEA
:102B00007D8D3335A0008280B707014023AAA740FE
:102B10008280B707014023AAA74082809C4513F713
:102B2000070113F8F70001C7D8413368E8003727D9
:102B30000240145B3707000F758F45EF8546A38071
:102B4000D18C371701406317E50003D705003583A3
:102B50002390E50083D5050013F7F50F39C318411D
:102B60008146854E3D4F930F800293028004214E93
:102B70003396DE00B3F8C500631116039398260060
:102B800033131F011343F3FF3377E300B318180126
:102B900033E7E8006397F70750C98506E39AC6FD57
:102BA00018C11307F00F6375B70454412146854ED1
:102BB0003D4F930F800293028004414EB398CE00A4
:102BC00033F715016392E802131726000117331338
:102BD000EF001343F3FFB376D3003317E800D98E29
:102BE0006395F703232A15010506E319C6FD54C1B1
:102BF000828037170140E31FE5F403C7118C39DBEE
:102C0000A9B7E39C57F810C949BFE39F57FC232895
:102C10001501D9BFB71701406316F50083C7118CA2
:102C200091C3B58119C20CC982804CC9828023A28C
:102C3000A18C82809387418C94430347050089E6E9
:102C400083472500920731A8944305466391C60443
:102C5000834725000346150092076314D60093E7C7
:102C600007F8B7E600E093F7F70FBA962380F6402F
:102C70008546935757003397E6005441ADC6938776
:102C800007048A07B7E600E0B69798C382808C43B2
:102C900089466393D5028346150083472500636503
:102CA000D6008A06B69779BF9386E6038A06B6975A
:102CB00093F7F70F920765B790438D46631ED600D2
:102CC00083461500834725006364D6008606D9BF76
:102CD0009386C6078606E1BF94439147E39AF6F8C8
:102CE0008347150085B79387070661BFB717024072
:102CF000D843B70640FFFD16758FD8C3D8435A0591
:102D0000598DC8C38280371702405C439146B18B0E
:102D10006385D700A1466386D706B7177A009387E5
:102D200007201CC1371602405C42370700201307FA
:102D300007009183BD8BBA9783C607001C41B3D7A8
:102D4000D7005CC15442A1829D8ABA9683C6060010
:102D5000B3D6D70014C55442AD829D8A3697034737
:102D60000700B3D7E7005CC5584239839376370034
:102D700013870181369703470700B3D7E7021CC9C1
:102D800082805C435843C166C983BD8B758F8907B8
:102D9000C5466393D700C94701EF37470240032771
:102DA0000780418B09CF37177A001307072021A826
:102DB0003717024058439316E700E3D606FE37174D
:102DC0003D0013070790B387E702A1BF99C53717E6
:102DD00002405C4B5D8D48CB8280B7170240D84BD8
:102DE0001345F5FF798DC8CB828099C5371702400E
:102DF0001C4F5D8D08CF8280B7170240984F134556
:102E0000F5FF798D88CF828099C5371702405C4FD6
:102E10005D8D48CF8280B7170240D84F1345F5FF2C
:102E2000798DC8CF8280835705003737014013075B
:102E300007C0C207C1836304E5023707004063008F
:102E4000E50213070740630CE500371700409306BF
:102E500007806306D500130707C06317E50003D793
:102E6000250093F7F7F8D98F03D7650093F7F7CFCD
:102E7000C207C183D98F2310F50083D745002316DD
:102E8000F50283D705002314F502B7370140938775
:102E900007C06316F50083C785002318F502854730
:102EA000231AF50082808357050091C593E7170028
:102EB0002310F5008280C207C183F99BC207C1833A
:102EC000C5BF8357C50009C6DD8D2316B5008280B6
:102ED00093C5F5FFFD8DD5BF835705010355C5008B
:102EE000ED8F4205418189C76D8D3335A000828009
:102EF0000145828093C5F5FFC205C1812318B50045
:102F00008280EFD2EFA683560501F577FD17F58F86
:102F100083D6650003D7C5007971D58F2318F500D6
:102F20008356C500FD779387379FF58F83D645007D
:102F30002A842EC6D58F83D68500D58F83D6A5004B
:102F4000D58F2316F50083574501C207C18393F738
:102F5000F7CFD98F231AF50068087533B7470140BA
:102F600093870780B245631DF404A2578356C400BB
:102F70006547B387E702C206C186984163D4060459
:102F800006070356C4004206B3D7E70213074006FC
:102F90004186B3D6E702B3F7E7029206635606020C
:102FA0008E0793872703B3D7E70213F77700B3673A
:102FB000D700C207C1832314F40045616FD08F9DF1
:102FC00092576DB70A0775BF920793872703B3D748
:102FD000E702BD8BD58FF1BF81C98357C500096753
:102FE000D98F2316F50082800357C500F977FD17A6
:102FF000F98FC5BF93F5F51F2312B50082800355E5
:1030000045001375F51F8280035505006D8D33351E
:10301000A000828013F7F50F85461583B397B6009D
:103020006313D7020357C500F98F03570500014505
:103030004207418381CB0545A181B315B5006D8F52
:103040003335E000828089466315D70003570501B8
:10305000E1BF03574501C9BFEFD28F9101E983A7B3
:10306000018D05472398E7006FD0CF9283A7818D0C
:103070009C43829703A5018D2905FDB7EFD24F8FA1
:1030800001E983A7018D05472398E7006FD08F9052
:1030900083A7818D9C47829703A5018D3105FDB7DC
:1030A00003A7018D09E589472318F7008280EFD235
:1030B0002F8C2396018C834707001384C18C93F7D0
:1030C000F7079DEB034797009377070281C789476E
:1030D0002300F400137707048347040001CF93E72C
:1030E00017002300F40083A7818D9C4B82972285D3
:1030F0006FD04F8AF99BF5B785461385C18CE3895C
:10310000D7FE89460145E395D7FE03475700B766CA
:103110000040938606C09377F7008A07B697620748
:103120009C4361876359070093F707034147E39C7A
:10313000E7FA85477DB70D67F98F0567CDBFEFD2F9
:103140008F8183A4018D3E8A03D4040139E803C72B
:10315000840091476317F7041387818C14438547D4
:10316000639CF602B767004083A707C5B736002007
:103170008906C207C183B697860723A00700930775
:1031800000032390F18E23200700114983A7018DAE
:10319000238427016FC07FFFC1472390F18E1D4913
:1031A000F5B783D74401114963F38700094963F3F5
:1031B00087003E849C4C4204418022858297AA8AE3
:1031C0000145EF0090602286AA855685EF00904267
:1031D000A2850145EF00506383D704010D67818FFD
:1031E0002398F40083D724013E949307000323908F
:1031F000F18E23998400239FE18C49BF83A7018D21
:1032000083C6518103C73700094563E3E60283C6DD
:10321000270099EE83D6470081EEEFC27FF5238524
:10322000E70083A7818DDC43829701456FC09FF63D
:103230008280EFC2FFF383A7018D03A7418D411167
:1032400083C53700184F03C55700029783A7018D28
:1032500003C7A7001DCB2AC60DE903C7470015E722
:1032600083C727009DE383A7818DDC47829783A7CF
:10327000018D324503C75700A385E70003C7370018
:103280002386E70041016FC0FFF00945E5BF83A732
:10329000018D83C6070093F6F60791EA03C79700EE
:1032A0001377F7FDA384E70001473A85828009463A
:1032B0000947E39CC6FE83D62700E5FA83C647008C
:1032C000EDF6EFC2FFEA03C6570037670040130769
:1032D00007C01375F6F7131425003A9462061440DC
:1032E00061866357060493F6060383C54181094747
:1032F000637DB5029DCA83C7A70085CB1C40635C74
:10330000060293F707034147639CE7001374F50F28
:103310002285EF007044930500032285EF00F0340E
:1033200083A7818DDC4B829701473A856FC09FE66A
:103330000D67F98E5DBFC164FD140D67E58FF98FD0
:103340000567E39FE7FC1DEDB707002083C58709EC
:10335000EF00704D1C4071771307F7F8F98FC20723
:103360000D67C183B98F617713070708D98FC2072B
:10337000C1831CC08D661840658F758FE302D7FA34
:103380001CC0D5BFEF00103A1C4071771307F7F847
:10339000F98FC2070D67C183B98F617713070708DB
:1033A000D98FC207C1831CC08D661840658F758F89
:1033B000E308D7F61CC0D5BF03A6018DB767004050
:1033C000938707C08346560093F5F6F713972500B9
:1033D000BA97E2069843E18663D10606137707039E
:1033E00003C84181094563F9050983552600C9E5EC
:1033F00041C70347A60049C3EFC29FD7984363D391
:103400000604E5769386F6FB758F42074183E176E5
:103410001347070193860608558F4207418398C3D7
:103420004146944393F60603639CC60083A7818DAF
:103430009C4F829701456FC0FFD50D65698F4DB7D1
:1034400098C3C5B7F1769386F6F8758F42078566FF
:103450004183358FE17693860608558F4207418375
:10346000416698C37D160D6585659443F18EE98E9E
:10347000E38EB6FA98C3D5BF8280EFC27FCF03A791
:10348000018D8347970093E70702A304F70083A702
:10349000818DDC4F829701456FC0DFCF03A7018D7F
:1034A0008357270101E903D545001D8D2318A70087
:1034B0000145828088413E958280EFC27FCBB7076D
:1034C000002083C587090145EF00F03583A7018DF2
:1034D00003C58700A1476318F5000567239FE18CAA
:1034E00041472390E18E5D15133515006FC09FCACB
:1034F000EFC21FC803A9018D37660040832706C5A8
:103500008346890025474111638BE6044164130714
:10351000F4FFB7360020F98F9106B69786078043EF
:10352000798C06043294834704002300F900834712
:103530001400A300F90003554400EF005033231199
:10354000A9000355840003A9018DEF005032231216
:10355000A9000357C40083A7018D2393E70083A725
:10356000018D05472384E70003D7670003C41700D4
:103570006319070E03C707001377F7075DEF2547A9
:103580006316E400EFF09FC735E515A81547631BE8
:10359000E40403873700635B0700A14703A7018D9D
:1035A0002304F700193F41016FC0DFBE03C72700A6
:1035B0006DF703D7470075F383C7A700F9FFB76717
:1035C000004083A707C5373700200907C207C1831A
:1035D000BA97860723A00700130700032390E18E04
:1035E00099476DBF0D476318E40283C6370005474E
:1035F000638DE60083A7418D2285DC4B82970D47C2
:10360000A547E30DE5F845DD49BF83D74700FDF346
:10361000EFF0BFE695BF0547E31EE4FC03C73700A4
:10362000E31A87FC03D7470071F783C7970093F726
:103630000702E9D3EFF0BFC581BF85476318F700E4
:10364000AD47E319F4FAEFF0DFBE3DBF8946E3135F
:10365000D7FAE301F4FE8D47E31EF4F8EFF0DFD56F
:1036600025B71947631BE40203C707001377F70761
:103670007DE383C72700854603A7418D6395D70067
:103680005C4FF1CBA1A089466394D7001C53D5BFF2
:103690008D466392D70C5C53EDB775E003D72700D6
:1036A0005DEBD843C1769386F60F758FB70602009F
:1036B0006313D70A03C707001377F7071DEF83D7F4
:1036C0004700D1EBB73700009387070A03A7018DA6
:1036D0000145231907001CCF8297014583A7018D5F
:1036E000C166FD1603D707016304D7088946630442
:1036F000D5006318070E2147ADA885466310D70291
:1037000003A7418D03C557008145184F029721E556
:1037100083A7018D83C7A700D5F735A88946631C09
:10372000D70203C75700B7660040938606C01376DA
:10373000F70093172600B6979C4393168701E186FE
:1037400063DC060293F7070383C641816375D600E5
:103750001377070771D303A7018D83A7418D034515
:1037600017009C4B82978D47E31AF5F683A7018DCE
:1037700025472384E7003DB58D66F58FF1B72147D6
:10378000631CE40083C7070093F7F707E9F7B7372F
:103790000000938787051DBF2947E31EE4FA03C78E
:1037A000070085461377F707E317D7FA03C7A70083
:1037B0005DD303D7270045F3D843C1769386F60F30
:1037C000758FC166E319D7F803A7418D03C557006C
:1037D0008145184F029741F1B73700009387C7071B
:1037E000F5B58386070063D5060483A6418D83D58E
:1037F000670003C6C6022EC6324593160601C18273
:10380000637AE50032472398E700239AD700EFF068
:103810001F9349BBE37BB7FE6375D70023A4018CDC
:10382000EDB73367C70275F3054623A4C18CF1BF1A
:103830000D472384E7000D67239FE18CA5B3EFC2FA
:103840009F9103A4018DA144834784001387E7FF60
:103850001377D70F3DCF1387D7FF1377D70F55EBCC
:103860001C4C95CF83540401A1C8035744016373D2
:103870009700BA84C204C1802685829783570401C9
:10388000AA890145858F2318F40083572401A69740
:103890002319F400912FAA8526864E85412383574C
:1038A000040199CB0D6781450145239FE18CA92F28
:1038B000130700032390E18E8357040183564401CC
:1038C00003A7018D63EFD7008D472304F7008344DE
:1038D000870083A7018D23849700EFF01FBE6FC080
:1038E000DF8A99C39547D5B799472304F700B7678F
:1038F000004083A707C5B73600208906C207C183E9
:10390000B697860723A00700930600032390D18E65
:103910007DBF1D47A144E39EE7FA83A7418DDC47A5
:10392000829745BF03C3418137660040C165056882
:10393000A1680147130606C0FD151308F8F0938827
:1039400008086369670013650508B767004023A688
:10395000A7C4828093162700B2969C42ED8FB3F7DE
:103960000701D98FB3E717019CC20507D9BFEFC282
:103970003F8083A7018D83C687001387E6FF1377F7
:10398000D70F19EFEFF0AFFB83A7018D03C78700B7
:1039900083A7018D2384E700EFF03FB26FC08FFF54
:1039A00019462147E396C6FE83C617001547639E56
:1039B000E60003C707001377F70701EB03C53700DD
:1039C000953783A7818D9C53829783A7418D9C4710
:1039D0008297214775BF8280EFC28FF9B717002009
:1039E0009387873123A8F18C09472384E7003707A1
:1039F00000209306C70623AAD18CB707002093871F
:103A0000C70923ACF18C8327C70682976FC08FF854
:103A1000EFC28FF34111370A0020B70A0020E17985
:103A200023170100130A4A03938A0A059389090898
:103A3000B765004083A745C41397070141832398C6
:103A4000E18E139707016350071883D7018F3A84DB
:103A5000BD8B2387F18C938605C06399073203A73A
:103A600005C09387E18D420741832390E70003D788
:103A700007009386018E137707032390E60003D790
:103A800007008D662166758F2390E70003A705C0A8
:103A9000A5679387F7FB7D8F83A705C0B1669386E3
:103AA000F6F8F58F8966B58F13470702931607015D
:103AB000130606085D8F518FC18223A0E5C033E74E
:103AC000360142079384E18D1389018E37660040E9
:103AD000930500024183832606C093F6060363978D
:103AE000B60EB3E73701C166C20737660040FD1660
:103AF0000D658965C183032706C0130406C0758F51
:103B0000698F6318B70C83D7018FC18BE1EF1C401D
:103B1000A5691387F9F0F98F1CC0EFF05FE5184035
:103B20001440B1679387F7F8F58F83D60400938923
:103B3000F9FB337737011396360163540600856627
:103B4000B58F83D604001396260163540600896658
:103B5000B58F83560900C18A99C21347070183565E
:103B6000090093F6060299C21347070221669316CD
:103B70000701130606085D8F518F3766004023202A
:103B8000E6C06177C18213070708558F420741835A
:103B9000832606C08355090093F60603639EB6028A
:103BA000617713070708D98FC166C20737660040DF
:103BB000FD160D65C183032706C083D50400758FEC
:103BC000698F631EB70041016FC08FDB2320E6C001
:103BD00019B72320F6C005B72320E6C055BF232020
:103BE000F6C0D1BF1C40856BC207C1832317F1000B
:103BF0008357E100139747016353070C1C40138759
:103C0000FBF8F98F1CC0EFF0BF8E1840A5679387B3
:103C1000F7FB14407D8FB1679387F7F8F58F83D654
:103C200004001396360163540600B3C7770183D6A8
:103C3000040013962601635406008966B58F8356E7
:103C40000900C18A99C2134707018356090093F6F8
:103C5000060299C21347070221669316070113064D
:103C600006085D8F518F376600402320E6C06177DC
:103C7000C18213070708558F42074183832606C078
:103C80008355090093F606036398B602617713071C
:103C90000708D98FC166C20737660040FD160D655B
:103CA000C183032706C083D50400758F698FE30C99
:103CB000B7F02320F6C0F5B72320E6C0C1B783577D
:103CC000E100C207C187E3D507D61C401387FBF884
:103CD000F98F1CC0EFF0BFB61840A5679387F7FBBC
:103CE00014407D8FB1679387F7F8F58F83D6040072
:103CF0001396360163540600B3C7770183D60400D8
:103D000013962601635406008966B58F8356090011
:103D1000C18A99C2134707018356090093F6060228
:103D200099C2134707022166931607011306060876
:103D30005D8F518F376600402320E6C06177C182D6
:103D400013070708558F42074183832606C0835512
:103D5000090093F606036398B60261771307070814
:103D6000D98FC166C20737660040FD160D65C18355
:103D7000032706C083D50400758F698FE305B7E478
:103D80002320F6C0F5B72320E6C0C1B7139727005C
:103D900036971443C206C1822317D1008356E1002F
:103DA000C206C18663DD0600FD1714438A07056657
:103DB000D6971306F6F89C43F18E14C38297835767
:103DC000E10093F70708E38507C683C7E18CB76670
:103DD0000040938606C0139727003697FD171443BB
:103DE0008A07D29725661306F6F09C43F18E14C31A
:103DF00082973DB9B73700200506BE950586860532
:103E000011E2828083471500034705009105A20750
:103E1000D98F239EF5FE09057D16DDB7B737002043
:103E20000506BE950586860511E282809C4109053E
:103E30007D16231FF5FE9105C5BF6199420541819D
:103E4000B767004023A8A7C48280B7670040938764
:103E500007C00A053E951C4165771307F798F98F4F
:103E6000DD8DC205C1810CC18280B7670040938798
:103E700007C00A053E951C4165771307F7FBF98FCC
:103E8000C20713F70501C18319C393C7070113F7CD
:103E9000050219C393C70702617713070708D98F73
:103EA000C207C1831CC1184113770703E31CB7FE87
:103EB0008280B7670040938707C00A053E951C4182
:103EC00071771307F7F8F98FC2070D67C183B98FB0
:103ED000617713070708D98FC207C183C1661CC168
:103EE000FD160D661841758F718F6313C7008280B0
:103EF0001CC1CDBFB7670040938707C00A053E9538
:103F00001C4105671307F7E0F98F6177130707086E
:103F1000D98FC207C1831CC18280EFC26FA5D93F70
:103F20006FC04FA7B7670040938707C00A053E954B
:103F30001441C1671387F7FF9397160163DD0700EC
:103F40001C41F98F05671307F7F0F98F31671307E5
:103F50000708D98F1CC18280B7670040938707C0CC
:103F60000A053E951C4193F7070491CF1C41416718
:103F70007D17F98F05671307F7F0F98F216713078E
:103F8000070CD98F1CC18280B767004083A707C583
:103F90000E058581C207C1833E95B73700203E9547
:103FA000060586050CC18280B767004083A707C558
:103FB0000E058581C207C1833E95B7370020910762
:103FC0003E95060586050CC18280B767004083A731
:103FD00007C50E05C207C1833E95B73700203E9541
:103FE0000605035505008280B767004083A707C513
:103FF0000E05C207C1833E95B737002091073E9555
:104000000605035505008280B767004083A707C5F2
:104010000E05C207C1833E95B737002089073E953C
:1040200006050CC18280B767004083A707C50E054F
:10403000C207C1833E95B737002099073E95930785
:10404000E003060563FEB70093D75500FD8981E5BF
:10405000FD17C207C183AA072167D98F1CC18280BF
:1040600093D71500858991C18507AA07C5BF9357C6
:1040700085001375F50F22055D8D8280376700403E
:10408000F177232207C4938707F0239EF18CB16751
:10409000938707F02320F7C401458280EFC24F8D3C
:1040A00032849374F507268542042E894180EFF00F
:1040B000DFF12286AA854A85EFF0DFD32685A28527
:1040C000EFF09FF401456FC0EF8C19207300203092
:1040D000EFC20F8A37050400EFE0BFA36FC08F8BDC
:1040E000192073002030EFC2AF8805246FC08F8A7B
:1040F000EFC20F88B707002003A70712B74795083C
:104100009387074009456300F702B7E7B80593872F
:10411000078005456309F700B777DC02938707C07E
:104120006315F7000145EFE07FBC8545370580004A
:10413000EFE09FCD6FC00F86EFC28F833765000021
:1041400013058512EF00505A03C7A18F136727008C
:10415000238DE18E83C7A18F0D476314F700EF0015
:10416000F01D0D4723A2E1906FC0CF82EFC24F80B8
:104170003765000013054514EF00105783C7A18F62
:1041800093F7D70F238DF18EB717002003C727327F
:1041900011C7154723A2E1906FB0DFFF0547DDBFD0
:1041A000EFB21FFD011137050400EFE09F96B7073E
:1041B000040005443EC80808C1473ECC22CE02CACE
:1041C000EFE0DF8C9307401228002314F10022C691
:1041D00023050100EFE01FA69307A0032800231486
:1041E000F100EFE03FA505616FB0DFFAEFB25FF8D5
:1041F000AA842E8411458545EFE03FBFB1CCB76658
:10420000004083A706C441677517F98F23A0F6C441
:10421000B717014003A74780B716F0FFFD16758F4B
:1042200023A2E78003A7C780F9769386F67F758F70
:1042300023A6E78003A74780B7460400558F23A233
:10424000E780374702408327078021C893E727008C
:104250002320F7806FB01FF437670040832707C41F
:10426000B716F0FFFD1693E72700C207C18323208E
:10427000F7C4B717014003A74780758F23A2E780D3
:1042800003A7C780F9769386F67F758F23A6E7800C
:1042900003A74780B736030055B7F59B55BF238169
:1042A000018E8280A381018E8280EFB27FEC05496E
:1042B0002A84631625039384218E83C7040089EF23
:1042C00013051008EFF09FDD9305000305452380DB
:1042D0008400EFF09FB9014422856FB0BFEB89479E
:1042E0006313F5029384318E03C4040009EC1305B3
:1042F0002008EFF0BFDA930500030945238024016D
:10430000EFF0BFB6D1BF0544C1BFEFB27FE637685B
:104310000040032708C5C1651385F5FF83D6418E8C
:10432000B7370020698F1386670032970607184356
:10433000938505C00111F98D638CD500832708C5CD
:1043400093F606C0E98FB29786079843D98E94C337
:10435000B766004083A746C41387018FC207C18395
:104360002310F7000357070083D7C18D1384018FF3
:104370007D8F1377072019CF41671307F7DF23A23B
:10438000E6C49386618E03C7060005071377F70F0F
:104390002380E60003570400F98FC207C18763D466
:1043A0000700EFF0EFE68357040003D7C18DF98FC4
:1043B00093F7074089CFC1679387F7BF37670040FE
:1043C0002322F7C4B707002083A707078297035764
:1043D000040083D7C18D7D8F9316270163D8060013
:1043E0003967B76600407D1723A2E6C4035704006F
:1043F000F98F13973701635A0700BD67376700408D
:10440000FD172322F7C401452D2D03D7C18D8357F6
:104410000400F98F13974701635E070083A781812A
:1044200063800710152BBD67376700409387F77FC0
:104430002322F7C48357040003D7C18DF98F93F764
:104440000710E1CFC167376700409386F7EF23225B
:10445000D7C4032687C49386818E9315060163DA39
:10446000050A9042050690C28C420D466375B60A55
:10447000032607C4FD17218A59EE032607C4938536
:10448000C18E7D8E3765004090C11387C18E014675
:10449000130305C0A148931526003388650003283F
:1044A00008000010A2953378F80023A005FF050648
:1044B000E31316FF10431366160010C310437D8EDE
:1044C0002320C5C41043799A10C31843F98F2320C1
:1044D000F5C437670040832747C493F70740E5DFFB
:1044E000C1679387F7BF37650040C1652322F7C4D2
:1044F000130505C08147FD152148139727001010AB
:104500003A96032606FE2A9785076D8E10C3E3961A
:1045100007FF23A006001D452D2305616FB09FC72F
:104520000945052309B7B717002083C7273281C77C
:10453000154723A2E1908280114723A2E190828057
:104540009387A18F03C70700136717002380E70035
:1045500082809387A18F03C707001377E70F23801B
:10456000E7008280828091E5854733B5A700060584
:1045700082800945828003A7018D930610020145C0
:104580008347070093F7F7076390D7048347170023
:10459000294683465700639DC700894763E5D702D4
:1045A000034727009387418FB6972380E7008280D7
:1045B0002D46639AC700894763E7D7000347370052
:1045C0009387818FD5B70945828083A7018D0145E7
:1045D00003C75700854763E4E7001385C1908280D5
:1045E00083A7018D0947014583C757006365F7001D
:1045F0001385418F3E95828083A7018D0947014530
:1046000083C757006365F7001385818F3E958280CD
:10461000EFB21FB683A7018D23850700092EB76768
:104620000040856637660040938707C09386F6F0A2
:10463000930506C298439107758F23AEE7FEE39B6F
:10464000B7FE9307F00F2322F6C4EFF03FA3814596
:10465000014523A20190EFF07FB9514565238545BF
:104660000545EFF0BFB86FB0FFB2EFB27FB03707CC
:1046700000200347770183A7018D0145A384E7004C
:1046800023950700EFF06FFB930500200145EFF045
:10469000CFFBC1450145EFF04FFD930500040145F7
:1046A000EFF09F90930500080145EFF0FF8D014565
:1046B000EFF0BF86B707002083C587090145EFF0FB
:1046C0009F960145EFF0EFFE37670040032607C0D5
:1046D000C1679386F7FF9317160163DF07008327EF
:1046E00007C0F58F85669386F6F0F58FB1669386E1
:1046F0000608D58F2320F7C037670040832707C0FF
:1047000093F7070485C3832707C0C166FD16F58F9D
:1047100085669386F6F0F58FA1669386060CD58F95
:104720002320F7C0930500600545EFF00FF29305D5
:10473000000C0545EFF05F85930500020545EFF09D
:10474000CFF237670040832747C093F7070485C33C
:10475000832747C0C166FD16F58F85669386F6F000
:10476000F58FA1669386060CD58F2322F7C0376795
:104770000040032647C0C1679386F7FF93171601D1
:1047800063DF0700832747C0F58F85669386F6F0C1
:10479000F58FB16693860608D58F2322F7C093055F
:1047A00000600945EFF06FEA9305000D0945EFF051
:1047B000AFFD930500020945EFF02FEB376700408E
:1047C000832787C093F7070485C3832787C0C16603
:1047D000FD16F58F85669386F6F0F58FA1669386B4
:1047E000060CD58F2324F7C037670040032687C007
:1047F000C1679386F7FF9317160163DF07008327CE
:1048000087C0F58F85669386F6F0F58FB16693863F
:104810000608D58F2324F7C00145EFF0AF90054778
:1048200023A2E1906FB01F97EFB29F94B7050020CD
:1048300093854512EFE09FC66FB0DF95EFB25F93AF
:104840009385C18AEFE09FC56FB0DF9483A7018D88
:1048500083C53700914763EEB700EFB27F91B7177A
:104860000020938787278E05BE95EFE03FC36FB08A
:104870007F920145828083A7018D03C75700894736
:1048800063EAE700EFB2DF8E9385818BEFE01FC113
:104890006FB05F900145828083A7018D054783C675
:1048A000070093F6F6076391E602EFB27F8C375765
:1048B0000000130767872399070098CF0145EFF0A1
:1048C0009FFB01456FB01F8D130610020145639ECB
:1048D000C60483C61700638AE6040946639AC600C5
:1048E0002398E700374700001307075E98CF8280C0
:1048F0000D466399C6002398E70037470000130769
:10490000875FEDB7A5456390B60283D66700636CF9
:10491000D700374700001307A75C2398D70098CF2C
:104920002384C70082800945828082808280B767A5
:104930000040054723A0E7C423A007C4096723A2BA
:1049400007C4130707C0239EE18C0967130707C03C
:1049500023A0E7C401458280EFB29F81B767004082
:1049600083A707C4376700404168C207B715002016
:10497000C1838146130307C07D1893858534A14800
:10498000139626003305660008412E96850633757A
:10499000050108C2E39616FF93E607402320D7C41B
:1049A00093E61740F99BC207C1832320D7C493E63F
:1049B00007402320D7C4B766004003A746C4137737
:1049C000074065DF41671307F7BF23A2E6C44168CC
:1049D000376700408146130307C07D18A14813962E
:1049E00026003385C50008411A96850633750501F2
:1049F00008C2E39616FF93E787402320F7C4832776
:104A000007C4C207C18393E747002320F7C4EFF030
:104A1000AFF26FB02FF8EFB2AFF5376400408327E5
:104A200004C4C207C183ED9BC207C1832320F4C421
:104A3000EFF0CFF3B167938707F02320F4C46FB092
:104A40006FF5EFB2EFF29D471384C18F6303F5005A
:104A500008C01C401547636EF70019678A071307E3
:104A60000716BA979C43828783A7819089E7EFF066
:104A70009FFA994711A095471CC001A8EFF0BFF914
:104A800091471CC0054723A4E1906FB0AFF0894760
:104A90002302F4008D47CDB783474400FD1793F7F9
:104AA000F70F2302F4008347440093F7F70FF1FF59
:104AB0009147D9B737670040832707C4C207C1832E
:104AC00093E707012320F7C495471CC0A947230299
:104AD000F40065BF83474400FD1793F7F70F2302E7
:104AE000F4008347440093F7F70FC5F3376700409E
:104AF000832707C4C207C183BD9BC207C18323208C
:104B0000F7C499471CC023A4019041B71920730032
:104B10002030EFB2EFE537440040930550521305C3
:104B20000440EFE02FCF09C913050440EFE02FCD7B
:104B30001375F50FA386A1906FB0CFE5EFB24FE3E9
:104B40003D65EFD07FFC1305000FEFD0FFFBB7F7FB
:104B500000E083A607D103A707D193F606021367E7
:104B6000870223A8E7D003A707D11377F7FD558F56
:104B700023A8E7D073005010730050103D65EFD0AC
:104B80009FF709C93D65EFD03FF80545EFF07FEB92
:104B90006FB04FE01305000FEFD0FFF575D9130587
:104BA000000FD5B7B707002083A7071237177A0081
:104BB00013070720B3D7E70293F7F70F2388F19085
:104BC0001307803EB387E7022397F1908280B7F7FF
:104BD00000E0D8438146799BD8C303C701913306CF
:104BE000A70290CBD4CB98431367070198C398438F
:104BF0001367170298C3D843058B75DF9843799BD9
:104C000098C38280B7F700E0D8438146799BD8C328
:104C100003D7E1903306A70290CBD4CB9843136718
:104C2000070198C398431367170298C3D843058BAD
:104C300075DF9843799B98C38280EFB26FD32A8443
:104C40001165011185451105EFE02F9A93070020AA
:104C50002312F100371501408D473EC44C00E14757
:104C6000130505803EC6EFD07FEB22C837440140D4
:104C7000B70708000C08130504803ECC02CA231EA7
:104C80000100EFE00FA8854513050480EFE0CFB4E5
:104C900005616FB02FD0EFB20FCCB7440140AE89A1
:104CA0003289014493840480634524014A856FB0AE
:104CB000CFCD930500042685EFE00FB57DD9B387EE
:104CC00089008385070026850504C205C181EFE0C0
:104CD0006FB2D9BF1387C1811C43B71600209386DA
:104CE000C6363E95636BD500B75600209386068086
:104CF00063E5A60008C33E858280FD57EDBF93F5AE
:104D0000F50F2A966314C50001458280834705008C
:104D1000E38DB7FE0505FDB7B3C7A5008D8B33073F
:104D2000C50081E78D4763EEC700AA876370E50A77
:104D300083C6050085078505A38FD7FEE3EAE7FE56
:104D4000828093763500AA8791CA83C605008507BD
:104D50008505A38FD7FE93F63700FDB79376C7FF7F
:104D6000138606FE63F0C70683A3050083A24500F1
:104D700083AF850003AFC50083AE050103AE4501D7
:104D800003A3850183A8C5019385450223A077006D
:104D900003A8C5FF23A2570023A4F70123A6E70118
:104DA00023A8D70123AAC70123AC670023AE1701AC
:104DB0009387470223AE07FF75B79041910791058E
:104DC00023AEC7FEE3EBD7FEE3E4E7F6828039715A
:104DD0003EDA2ED232D436D63AD842DC46DE93873B
:104DE000018222CC804326CA06CEAA8409C41C4C68
:104DF00099E3228525230C4454102686228536C645
:104E0000EF009017F2406244D24421618280011188
:104E100026CA4AC806CE22CC4EC652C4AA842E89BF
:104E200001C51C4D91E3DD299C4C804499E3268506
:104E3000F5219717000093876736631CF402C04082
:104E40008357C400A18BB1C71C48A1C7FD59294A8B
:104E50001C4483450900FD17B1E91CC463DE070645
:104E60002286A94526857920FD576308F502294544
:104E700035A097170000938767346314F4008044CB
:104E8000C1B7971700009387672FE31BF4FAC0445C
:104E900045BFA2852685392A55D97D55F240624401
:104EA000D2444249B249224A056182801CC40509A4
:104EB00063D70700184C63CBE700638945011C40AA
:104EC0001387170018C02380B70059B7228626859C
:104ED0001520E31F35F7D1B71C401387170018C002
:104EE00029472380E70061B793870182AA85884319
:104EF0006FF0FFF1011122CC26CA4AC806CE4EC679
:104F0000AA842E89328401C51C4D91E3012997178B
:104F100000009387A7286319F406C0401C4C1CC4EA
:104F20008357C400A18BC9C31C48BDCF1C4808408F
:104F30009379F90F1379F90F1D8D5C486346F500DD
:104F4000A2852685652C2DE51C440505FD171CC48E
:104F50001C401387170018C0238037015C48638901
:104F6000A7008357C400858B81CBA9476316F9003E
:104F7000A285268561240DEDF24062444A85D24423
:104F80004249B24905618280971700009387072341
:104F90006314F400804459B7971700009387071EE5
:104FA000E31EF4F6C0449DBFA285268521203DDD89
:104FB0007D59D9B741119387018226C2844322C407
:104FC0004AC006C62A892E8489C49C4C99E326854A
:104FD000B126971700009387671C631CF402C0403A
:104FE0000317C40093170701C18393F68700B5EE3A
:104FF00093F607019DEEA5472320F90013670704E8
:105000002316E4007D55B2402244924402494101F6
:105010008280971700009387671A6314F400804416
:10502000C1B79717000093876715E31BF4FAC044D4
:1050300045BF918B8DC74C5889C99307440463843D
:10504000F5004A85A923232A04028357C40023229A
:10505000040093F7B7FD2316F4001C481CC08357C7
:10506000C40093E787002316F4001C4881EF8357A0
:10507000C4001307002093F707286385E700A28583
:105080004A85B5218357C40013F7170005C75C484C
:1050900023240400B307F0401CCC1C480145A5F7AD
:1050A0008317C40013F7070839DF93E707042316B3
:1050B000F40089BF898B014791E3584818C4F1BFB8
:1050C00083D7C500011122CC26CA06CE4AC84EC6D7
:1050D00013F78700AA842E8471EFD841634DE00056
:1050E000B841634AE0000145F2406244D24442497B
:1050F000B2490561828058547DD703A90400939674
:10510000370123A0040063DD060670488357C400FE
:10511000918B99C75C401D8E5C5899C33C401D8E95
:105120005C540C50814626858297FD570357C40076
:10513000631DF5009440F54763E8D706B7074020A4
:105140008507B3D7D700858BA5C31C48232204004D
:105150001CC09317370163D80700FD576314F5008F
:105160009C4091E368C84C5823A02401ADDD93070F
:1051700044046384F50026851929232A0402A5B76F
:105180000C500146854626850297FD572A86E31F67
:10519000F5F69C40A5DF75476385E70059476394A2
:1051A000E70423A0240181B7136707042316E40052
:1051B0007D551DBF83A90501E38709F203A90500F9
:1051C0008D8B23A0350133093941014791E3D8493B
:1051D00018C4E35A20F11C540C50CA864E8626850A
:1051E00082976349A0008357C40093E707042316FE
:1051F000F4007DBFAA993309A940E1BF9C49A5C32A
:10520000011122CC06CE2A8411C51C4D81E72EC681
:105210003122B24597170000938747F8639CF50049
:105220004C408397C5009DC722856244F2400561CA
:105230006FF01FE997170000938747F86394F50014
:105240000C44C5B797170000938747F3E39BF5FC21
:105250004C44C1BFF2406244014505618280014572
:105260008280411122C406C62A842316B500231762
:10527000C500232005002322050023240500232246
:10528000050623280500232A0500232C05002146B6
:1052900081451305C505EFA0BFF097170000938760
:1052A000A7B65CD097170000938707B91CD497174F
:1052B0000000938747BD5CD497170000938707C011
:1052C00000D01CD8B24022444101828097050000E2
:1052D000938505F391AA411126C213068006938493
:1052E000F5FFB384C4024AC02E8922C406C6938542
:1052F000440791262A8401CD23200500232225017D
:10530000310508C4138684068145EFA07FE9228514
:10531000B240224492440249410182801C4DA5E7DB
:10532000411106C622C497070000938767FA1CD56F
:10533000938781889C43232405042326050423287E
:1053400005046314F50085471CCD2A84352848C020
:1053500022851D2808C42285052848C448400146E6
:105360009145EFF01FF008440546A545EFF07FEFAB
:1053700048440946C945EFF0DFEE85471CCCB240F2
:10538000224441018280828041119387818826C214
:1053900084434AC006C69C4C22C42A8981E72685DC
:1053A000EFF0DFF7938484048044DC40FD1763D67C
:1053B00007009C40B9CF8440C5BF0317C40039E73C
:1053C000C17785072322040623200400232204003A
:1053D000232404005CC423280400232A0400232C73
:1053E0000400214681451305C405EFA07FDB232A75
:1053F0000402232C0402232404042326040422850B
:10540000B24022449244024941018280130484063E
:1054100071BF91454A85EFF01FEC88C049FDB14747
:105420002320F9000144E1BF797122D44AD052CC43
:1054300056CA5AC85EC606D626D24ECE2A8AAE8A2A
:10544000130485040149054BFD5B09ECB25022545D
:105450004A8592540259F249624AD24A424BB24BAF
:1054600045618280044483294400FD1963D4090006
:105470000040E1BF83D7C400637BFB008397E40057
:1054800063877701A6855285829A3369A900938440
:105490008406E1BF1971A6DAAE848395E500A2DC2B
:1054A00086DE328463DC050083D7C40023A00600B7
:1054B00093F7070885E7930700401DA0300836C61C
:1054C000EF005026B246E34105FE7247BD67F98FF3
:1054D0007977BA9793B717009CC2F1BF930700047E
:1054E0001CC0F6506654D65401450961828083D7AA
:1054F000C500011122CC06CE26CA4AC8898B2E844B
:1055000089CF930774041CC01CC885475CC8F2404F
:105510006244D24442490561828074003000AA840A
:10552000EFF05FF7A2452A892685312201ED831726
:10553000C40013F7072061FFF19B93E727002316B0
:10554000F400C1B797070000938787D89CD483578E
:10555000C40008C008C893E707082316F400A24750
:105560005CC8B24791CF8315E4002685EF00B01EDA
:1055700001C98357C400F19B93E717002316F40079
:105580008357C4003369F9002316240149B7DDC1EC
:1055900083A7C5FF411122C406C626C21384C5FFD6
:1055A00063D307003E94AA84EF0030219387419192
:1055B0009C4381EF2322040023AA81902244B2401D
:1055C0002685924441016F00701F637EF4001440F1
:1055D0003307D4006396E7009843DC43369718C03E
:1055E0005CC0D9BFBA87D84319C3E37DE4FE9443B6
:1055F0003386D700631F86001040B29694C333866B
:10560000D700E31DC7FA10435843B29694C3D8C3DA
:1056100075B76375C400B1479CC04DB71040B30661
:10562000C4006316D70014435843B29614C058C040
:10563000C0C369B78280011126CA93843500F198EE
:1056400006CE22CC4AC84EC6A104B14763F3F40487
:10565000B14463E2B4042A89EF0030169387419184
:1056600098433A8439E0938781919C4391E781453F
:105670004A85852723ACA190A6854A85992FFD5997
:1056800063193507B1472320F9004A85EF0010134D
:1056900029A0E3D004FCB1471CC10145F24062449B
:1056A000D2444249B249056182801C40858F63CF54
:1056B0000702AD4663F6F6001CC03E9404C031A05C
:1056C0005C406313870223AAF1904A85EF00100F14
:1056D0001305B4009307440061993307F5405DDF7B
:1056E0003A94898F1CC05DBF5CC3C5B72287404018
:1056F00095BF130435007198E30285FCB305A440FF
:105700004A85C12DE31C35FBB5BF1C46FD171CC6E1
:1057100063DA0700184E63C5E700A9476394F500F4
:105720006FF04FFD1C422E851387170018C223808F
:10573000B7008280011122CC26CA4AC84EC652C484
:1057400006CE2A89AE893284B304D6007D5A63140A
:105750009400014511A8834504004E864A85EFF068
:10576000DFFA0504E31545FFF2406244D2444249A2
:10577000B249224A05618280357122CD26CB4AC9C1
:105780004EC706CF52C556C35AC1DEDEE2DCE6DAAA
:10579000AA89AE843289368409C51C4D99E3EFF09D
:1057A000FFB7971700009387679F639DF40C83A44E
:1057B000490083D7C400A18BE5CB9C48F5C793076C
:1057C0000002A304F1029307000302D22305F102B1
:1057D00022C6930B5002971A0000938A2AA0054C08
:1057E000294B4A848347040099C36392770FB30C13
:1057F0002441638E0C00E6864A86A6854E85EFF02E
:105800007FF3FD576309F51E9256E69636D283471D
:1058100004006382071EFD571309140002C802CE5C
:105820003ECA02CCA309010482D48345090015466F
:105830005685EFF0CFCC13041900C24759E913F78E
:10584000070109C713070002A309E10413F7870042
:1058500009C71307B002A309E1048346090013072F
:10586000A0026380E608F2474A8481462546034742
:10587000040093051400130707FD6379E60AB5CA0F
:105880003ECE85A897170000938747936395F40051
:1058900083A4890039BF971700009387278EE39A66
:1058A000F4F083A4C90031B7A6854E85EFF08FF0E0
:1058B00019D57D55FA406A44DA444A49BA492A4A18
:1058C0009A4A0A4BF65B665CD65C0D6182800504E1
:1058D00011BF330555413315AC00C98F3EC822892D
:1058E000A9B7324793064700184336C663490702F3
:1058F0003ACE034704009307E002631FF70403470F
:1059000014009307A002631BF702B2470904138730
:1059100047009C433AC663C107023ECA35A8330715
:10592000E04093E727003ACE3EC8E1B7B38767036C
:1059300085462E84BA9725BFFD57C5B7050402CA10
:105940008146814725460347040093051400130749
:1059500007FD6378E606F1F2834504000D4617154E
:10596000000013052588EFF08FB911CD97170000BF
:10597000938747871D8D93070004B397A70042457F
:1059800005045D8D2AC883450400194617150000DB
:1059900013058585130914002304B102EFF02FB617
:1059A0003DC197A7FFFF9387E76595E74247B24759
:1059B0001377071009CF91073EC69257D2973ED270
:1059C0000DB5B387670385462E84BA97ADBF9D0793
:1059D000E19BA107D5B77800970600009386C6D54E
:1059E00026860C084E8597000000E7000000FD5752
:1059F0002A8AE314F5FC83D7C40093F70704E39ADB
:105A000007EA125545BD7800970600009386C6D276
:105A100026860C084E85012AD9BF797156CA9C4941
:105A2000BA8A984522D426D24ECE52CC06D64AD037
:105A30005AC85EC6AA892E84B284368A63D3E70028
:105A4000BA879CC00347340419C385079CC01C4017
:105A500093F7070281C79C4089079CC00329040073
:105A600013796900631A0900130B9401FD5B5C4410
:105A70009840998F634CF9041C408346340493F793
:105A80000702B336D000A5EB13063404D2854E8549
:105A9000829AFD576303F5041C4011469840998B88
:105AA000544481446397C700B384E64063D3040041
:105AB00081441C4418486354F700998FBE940149EF
:105AC00069047D5B63982405014509A885465A86CB
:105AD000D2854E85829A631E75017D55B25022543F
